:020000041000EA
:1000000000B5324B212058609868022188439860DF
:10001000D860186158612E4B002199600221596106
:100020000121F02299502B49196001219960352056
:1000300000F044F80222904214D00621196600F024
:1000400034F8196E01211966002018661A6600F04E
:100050002CF8196E196E196E052000F02FF8012189
:100060000842F9D1002199601B49196000215960AB
:100070001A491B48016001219960EB211966A021F2
:10008000196600F012F800219960164914480160C1
:100090000121996001BC002800D000471248134993
:1000A000086003C880F30888084703B5996A0420EC
:1000B0000142FBD001200142F8D103BD02B5186610
:1000C0001866FFF7F2FF186E186E02BD00000240BE
:1000D000000000180000070000035F00212200005C
:1000E000F4000018222000A00001001008ED00E03C
:1000F00000000000000000000000000074B24E7A12
:1001000000200420F7010010C3010010C5010010F9
:10011000C1010010C1010010C1010010C101001097
:10012000C1010010C1010010C1010010C701001081
:10013000C1010010C1010010C9010010CB01001065
:10014000CD010010CD010010CD010010CD01001037
:10015000CD010010CD010010CD010010CD01001027
:10016000CD010010CD010010CD010010CD01001017
:10017000CD010010CD010010CD010010CD01001007
:10018000CD010010CD010010CD010010CD010010F7
:10019000CD010010CD010010CD010010CD010010E7
:1001A000CD010010CD010010CD010010CD010010D7
:1001B000CD010010CD010010CD010010CD010010C7
:1001C00000BE00BE00BE00BE00BE00BE00F051F882
:1001D000103800BEF2EB8871E00200100C03001032
:1001E0003402001090A31AE700202449086006C8D2
:1001F00081F30888104722480068002835D10DA4F3
:100200000ECC002902D000F012F8F9E71D491E4A71
:10021000002000E001C19142FCD11C4988471C49E3
:1002200088471C49884700BEFDE701C901C29A42C0
:10023000FBD370470C030010C0000020280A0120E7
:10024000740C0110300A01204CA3012090A501106C
:10025000000004200000042090A5011000100420DC
:10026000001004200000000070470B4800F018F850
:100270000047EFF30580C0B27047000008ED00E0D2
:10028000000000D050A3012030260220999D0020BC
:1002900049220020899E00205756000000000000DF
:1002A00001B40248844601BC604700BFD1BA0020B7
:1002B00006005250ABB360531C750120060052502B
:1002C000861C03022C750120060052505422A29D68
:1002D0004075012005005250DE65F46890A50110BC
:1002E000D4020010C8020010BC0200104C7501209E
:1002F000B00200105875012064750120707501204E
:0C030000AC750120B8750120EC750120DF
:10030C00F8B5C0460448054B10B5834203D0044BE6
:10031C00002B00D0984710BD4CA301204CA301200A
:10032C000000000006480749091A8B10C90FC918AC
:10033C0010B5491003D0044B002B00D0984710BDCA
:10034C004CA301204CA301200000000010B5074C69
:10035C002378002B09D1FFF7D5FF054B002B02D0DA
:10036C00044800E000BF0123237010BD70A40120DD
:10037C0000000000280A0120054B10B5002B03D00B
:10038C000449054800E000BFFFF7CCFF10BDC04694
:10039C000000000074A40120280A012005490A6805
:1003AC0093009B18044A5B001268303A9B180B6050
:1003BC007047C04610AE0120F0AD01200022014B69
:1003CC001A60704710AE0120024B1A68024B1A607B
:1003DC007047C04610AE012020A801200023094A16
:1003EC0030B51360084AFA2113600022074D084CFF
:1003FC000848C900EA54E254C25401338B42F9D183
:10040C0030BDC04644AE0120E4A9012040D20120F9
:10041C00641B022080020220024A136859424B419D
:10042C001360704738A80120024A136859424B41A7
:10043C001360704734A8012010B50A200DF028FC79
:10044C00044B054819680DF02BFD0A200DF020FC1B
:10045C0010BDC04604AE0120BC0D0120F0B5DE4637
:10046C0057464E464546E0B50A2083B00DF010FCC9
:10047C00244BFA259846244B28269B46234B244F85
:10048C009A46244BED009946234BEC1843461B5DD2
:10049C00DAB2012B33D0023A531E9A415242B24384
:1004AC0057323B689C4221D05B4651461B5D095D2F
:1004BC0001922022DBB20091210091344846FF3496
:1004CC000DF0EEFCAC42E1D10A200DF0E1FB9623DD
:1004DC0001351B019D42D7D10A200DF0D9FB03B089
:1004EC003CBC90469946A246AB46F0BD5B46514695
:1004FC001B5D095DDBB2019200912A22DCE75222DE
:10050C00CFE7C0468002022040D20120641B0220AB
:10051C00E4A90120D40D012030F8FFFF0023F0B531
:10052C004F464646D64694259946194BC0B59A4631
:10053C00184B68279846184E6D0009E001239C461D
:10054C008023E1445B019C464B466544FA2B16D054
:10055C002C003368283C1B5DFF2BEFD049465046DE
:10056C000DF09EFC02E00134A542E7D03368185D23
:10057C0043461B5CBB43F6D00DF08AFBF3E70A2025
:10058C000DF086FB1CBC90469946A246F0BDC046B9
:10059C00F00D0120A9770120B078012070B50A2058
:1005AC000DF076FB094C0A4E2500BD35FF3562680F
:1005BC0013782A2B03D0300021780DF071FC0C3409
:1005CC00AC42F4D103480DF06BFC70BDB478012043
:1005DC00F80D0120040E0120F0B5DE4645465746C5
:1005EC004E4601200023E0B5D025CF4C89B0002128
:1005FC004042236008F020FA01202D066B689A1106
:10060C000240944661469B131840C84BC84A186078
:10061C00C84B11601A685B6804920593C64B1A6844
:10062C005B6802920393236801240693C34B9B4699
:10063C00C34B98465B465A461B68013313606A6885
:10064C00521222406B6816005A122240012EF9D128
:10065C00002A03D06B685A122240FBD19A11224017
:10066C009E13924626405A1101962240012900D130
:10067C008AE0012800D127E15146002900D02FE162
:10068C00002803D10199002900D034E10F271F4025
:10069C00002A00D1EDE00720049A1040FA00049ED5
:1006AC00059F7907F7080F4307210F40A5498918C3
:1006BC00CF5D210081403940014180200001A861BB
:1006CC00002900D12CE1802149016961019900299F
:1006DC0028D10298039907260640B446060048071D
:1006EC00F1080143170007208037014095487F1817
:1006FC00C05D664681462000B0404E46304066469E
:10070C00304180263601AE61002800D104E1802002
:10071C00400168618C480068002803D160460728B6
:10072C0000D13FE15A041BD442461268874992001B
:10073C008B5043461B68864A06999B00D150434612
:10074C001F681868834901300BF010FB4346196091
:10075C00814B1A6843461B689A4201D143461F607D
:10076C000120049A059B002112184B410492059319
:10077C00029A039B12184B4102920393069B51461B
:10078C0001330198069355E75146002905D10026FF
:10079C0000270296039704960597012800D1AEE036
:1007AC000199002900D0A6E00F2751461F400029CF
:1007BC0000D16DE7002A5AD119112140FA00079196
:1007CC000720029E30408146029E039F7807F7085F
:1007DC000743072007401000803084462600484617
:1007EC008640BC44310066465648805D4E46884380
:1007FC000799B140664608435249C0B288555249E0
:10080C00096800298ED1494607298BD15349803A72
:10081C000968D719524AFFB25754504A51491268C5
:10082C00885402214D4A5048126881544B4A4B4916
:10083C00126801320A60FA220968D200914200DA89
:10084C0070E7414A14606DE7002900D114E70F27C7
:10085C0051461F40002900D11AE70199002900D008
:10086C0060E7002AA8D05246002A00D113E7FA000C
:10087C002FE707220498059902409446C0084A07BE
:10088C001043072226001040FA006746BE40B146CE
:10089C002C4E1018375C4E461911B7432140079166
:1008AC0039006746079EBE403143264ECFB23754BF
:1008BC00254E3668002E02D16646072E56D0019979
:1008CC00002900D17CE72DE7002EBDD100260027A2
:1008DC0051460296039704960597002900D1CFE65E
:1008EC00802109016961002813D10199002902D1E5
:1008FC000F271F405EE7802109016961A7E7019975
:10090C000029A4D1002000210290039104900591AC
:10091C009DE70F271F40A0E780204001A861F9E662
:10092C0080214901A961D1E640A90120F8AD01203F
:10093C00F4AD012058A3012050A3012004AE0120E6
:10094C0070A90120500E022044AE0120D0BA012023
:10095C0010DB0120DC05000074A90120E4A90120B2
:10096C0040D20120641B022080020220164EC0B22D
:10097C003668B4466146154E7054134908681449DC
:10098C000F5402271049086812490F540E49086881
:10099C0001300860FA200F68C00087428FDB0E49D7
:1009AC000C608CE70848803A00685118074AC9B2B5
:1009BC001154054A09491268C95D05488154024A17
:1009CC00044912688C5431E7E4A9012040D201207B
:1009DC00641B02208002022044AE0120500E022033
:1009EC0070B5AF24BEB06C44240924012000002152
:1009FC00403001F081FF20000121303001F07CFFFC
:100A0C002600200010360A21203001F075FF30003E
:100A1C00072101F071FF0023114D3100102202A8B3
:100A2C00069307950DF02AF8210008223831684604
:100A3C000DF024F82000226B636B03F01DFE2100E7
:100A4C0008220831684602950DF018F80CCC08A85D
:100A5C0006F0BEFD08A903480DF022FA3EB070BDA9
:100A6C0008AE0120200E01208022F8B5104F114D48
:100A7C003B6828001C03104B52001968802609198A
:100A8C000CF0FCFF802376015B03E018310010F0C2
:100A9C00D3F9681C28220949FF300CF0EFFF3868A5
:100AAC0032000130FF302900000310F005FAF8BDC8
:100ABC0010AE012080F20120B078012058AE012048
:100ACC0070B500250C480DF035F90C4EFA2080005D
:100ADC000DF0F8F90400431CF8D020000DF0D8F804
:100AEC000D2C05D06B1C7455262BEFDC1D00EDE78F
:100AFC000023735570BDC046280E012058AE01204E
:100B0C0010B501F0B3FD10BD70B50024074D2000E9
:100B1C0007F090FE21000200013428000DF0C0F90E
:100B2C00202CF4D10A200DF0B3F870BD4C0E01202E
:100B3C000B4B0C4810B519680B4C0268A1540B4CAC
:100B4C002468002C01D0013202600948006800289A
:100B5C0001D00131196007480DF0A2F910BDC04653
:100B6C0010AE012020A80120500E022034A8012034
:100B7C0038A80120580E012010B503480BF0C8F816
:100B8C0000210300002098475542000010B50C4C82
:100B9C000C4821680DF084F9802123684901581C08
:100BAC00FF30000310F048F907480DF0C3F8074B6D
:100BBC001B68002B02D023680133236010BDC04694
:100BCC0010AE0120700E01208C0E012038A80120DF
:100BDC009423F0B55746DE464E4645465B00994693
:100BEC000023E0B583B00193AA4BAB4F9B46AB4BB4
:100BFC009A46AB4B9846019CAA4821000DF050F93F
:100C0C005B461A682603935DFF2B00D13EE14C46F0
:100C1C004B466825B146283C1E0002E00134A64232
:100C2C000BD05346105D1B5CAB43F7D00DF030F886
:100C3C005B4601341A68A642F3D133004E46921932
:100C4C00994614000023561C974D3B708034FF3698
:100C5C00002322782B70F92A03D841469300CB58F5
:100C6C009F46280091490BF00FF8290038000134F9
:100C7C000FF08AFFB442EBD139008D480DF010F91A
:100C8C000A200DF005F8802252019446019BE144A4
:100C9C0001330193FA2BAED10A200CF0F9FF03B00B
:100CAC003CBC90469946A246AB46F0BD05222800B6
:100CBC0080490CF0E3FED8E7022228007E490CF0B4
:100CCC00DDFED2E7022228007C490CF0D7FECCE7EF
:100CDC00022228007A490CF0D1FEC6E70222280035
:100CEC0078490CF0CBFEC0E70222280076490CF0C4
:100CFC00C5FEBAE70222280074490CF0BFFEB4E727
:100D0C000222280072490CF0B9FEAEE7022228003C
:100D1C0070490CF0B3FEA8E7022228006E490CF0D3
:100D2C00ADFEA2E7052228006C490CF0A7FE9CE75B
:100D3C00032228006A490CF0A1FE96E70522280040
:100D4C0068490CF09BFE90E70522280066490CF0E0
:100D5C0095FE8AE70522280064490CF08FFE84E793
:100D6C000522280062490CF089FE7EE70622280045
:100D7C0060490CF083FE78E7052228005E490CF0F0
:100D8C007DFE72E7062228005C490CF077FE6CE7CA
:100D9C00052228005A490CF071FE66E7052228004E
:100DAC0058490CF06BFE60E70422280056490CF001
:100DBC0065FE5AE70522280054490CF05FFE54E703
:100DCC000622280052490CF059FE4EE70322280057
:100DDC0050490CF053FE48E7052228004E490CF010
:100DEC004DFE42E7032228004C490CF047FE3CE73D
:100DFC00032228004A490CF041FE36E70322280062
:100E0C0048490CF03BFE30E70322280046490CF021
:100E1C0035FE2AE70322280044490CF02FFE24E774
:100E2C000422280042490CF029FE1EE70522280066
:100E3C0040490CF023FE18E7052228003E490CF02F
:100E4C001DFE12E7042228003C490CF017FE0CE7AB
:100E5C00032228003A490CF011FE06E70422280070
:100E6C0038490CF00BFE00E70422280036490CF040
:100E7C0005FEFAE60822280034490CF0FFFDF4E6E2
:100E8C000622280032490CF0F9FDEEE631480DF04F
:100E9C0007F8F8E6B0780120A8B20120A977012064
:100EAC00A80F0120940E0120500F0220A40E012047
:100EBC00940F0120FC0E01208C0F0120880F0120C3
:100ECC00840F0120800F01207C0F0120780F01205E
:100EDC00740F0120700F0120900F0120040F0120CE
:100EEC00F80E0120240F01201C0F0120140F0120EB
:100EFC000C0F0120BC0E0120B40E0120F00E0120BD
:100F0C00E80E0120E00E0120DC0E0120D40E0120A1
:100F1C00CC0E01206C0F0120600F0120680F012006
:100F2C005C0F0120580F0120500F0120540F01209D
:100F3C004C0F0120440F01203C0F0120340F0120E5
:100F4C00380F01202C0F0120300F0120AC0E012096
:100F5C00C40E01209C0E0120F8B5104B10481E68E1
:100F6C0031000CF09DFF0F4F0F4C3B6835035919A6
:100F7C00802220000CF082FD31000C480CF090FF18
:100F8C00290020003D6880316918802280300CF0E7
:100F9C0075FD0A200CF07CFEF8BDC04610AE012099
:100FAC0090130120B0780120500E0220B8130120BC
:100FBC0010B50B480CF074FF0A4C80220021200065
:100FCC000CF056FD08480CF06BFF2000802200212D
:100FDC0080300CF04DFD0A200CF05AFE10BDC046BE
:100FEC00E0130120500E0220F413012010B5134819
:100FFC000CF056FF12480CF065FF431C0ED06D2808
:10100C0013D00FDC4D2810D0502807D10D480CF010
:10101C0047FF802200210C480CF02AFD0A200CF01E
:10102C0037FE10BD7028F1D0F8E708480CF038FFF7
:10103C008022002106480CF01BFDEFE7081401206C
:10104C0080969800F4130120D00E0220E0130120AA
:10105C00500E022010B51A480CF022FF19480CF063
:10106C0031FF431C16D06D281BD017DC4D2818D02F
:10107C0050280FD1144B15481C68210024030CF088
:10108C000FFF2100124B80311C688022114861181F
:10109C000CF0F4FC0A200CF0FBFD10BD7028E9D01C
:1010AC00F8E7094B0C481C6821000CF0F9FE084BC2
:1010BC00240319688022091908480CF0DFFCE9E7C1
:1010CC00081401208096980010AE0120B81301205E
:1010DC00B0780120D00E022090130120500E022077
:1010EC001C4BF0B51F681C4BC646196880231B4D62
:1010FC003C035B0000B51A002800091998460CF057
:10110C00BDFC80235B039C46802164442000490184
:10111C000FF092FE390012480CF0C2FE114E8022E4
:10112C00310028000CF0AAFC39000F480CF0B8FE76
:10113C00280031008022803180300CF09FFC424628
:10114C00290020000FF0B8FE08480CF0F3FD04BC99
:10115C009046F0BD10AE0120B078012010DA0120CD
:10116C0024140120500E0220441401206814012084
:10117C0010B5040007F080FB0123D022A340120617
:10118C00936200210022200007F05EFB10BDC046D8
:10119C00F0B54746CE4605000C0080B5904689B0A8
:1011AC0000220023280021000BF0C6F8002800D0F4
:1011BC0089E1012300269946640064082800210077
:1011CC000BF072FD0BF0CAFC02000B0000900191B9
:1011DC000020BF490BF074FD02000B002800210019
:1011EC000BF041F8002204000D0000980199002337
:1011FC000BF0A2F8002808D0009801990022B54BFA
:10120C000BF028F8B14600900191200029000BF05A
:10121C00A5FCAF4B002206000F000BF024F806AA29
:10122C000FF070FC0022AC4B0290039106980799CA
:10123C000BF037F80BF0C6F80BF0ACF8002204906A
:10124C00059102980399A24B0BF02BF802000B00AE
:10125C00049805990AF0FEFF0BF0B4F843463200EF
:10126C00587129003B0020000AF0EBFF0022994B3B
:10127C000BF017F804000D000BF070FC944B0022DF
:10128C0006000F000AF0EFFF06AA0FF03BFC00224D
:10129C00914B02900391069807990BF002F80BF012
:1012AC0091F80BF077F800220490059102980399BD
:1012BC00874B0AF0F6FF02000B00049805990AF020
:1012CC00C9FF0BF07FF843463200187129003B0030
:1012DC0020000AF0B6FF00227E4B0AF0E2FF040069
:1012EC000D000BF03BFC7A4B002206000F000AF0BD
:1012FC00BAFF06AA0FF006FC0022774B029003916E
:10130C00069807990AF0CDFF0BF05CF80BF042F849
:10131C00002204900591029803996D4B0AF0C1FFCD
:10132C0002000B00049805990AF094FF0BF04AF8A0
:10133C0043463200D87029003B0020000AF081FFA0
:10134C000022644B0AF0ADFF04000D000BF006FC0C
:10135C005F4B002206000F000AF085FF06AA0FF073
:10136C00D1FB00225C4B02900391069807990AF07E
:10137C0098FF0BF027F80BF00DF800220490059164
:10138C0002980399524B0AF08CFF02000B00049850
:10139C0005990AF05FFF0BF015F843463200987080
:1013AC0029003B0020000AF04CFF0022494B0AF0B8
:1013BC0078FF04000D000BF0D1FB454B002206001A
:1013CC000F000AF050FF06AA0FF09CFB0022424BC4
:1013DC0002900391069807990AF063FF0AF0F2FF56
:1013EC000AF0D8FF00220490059102980399384B1B
:1013FC000AF057FF02000B00049805990AF02AFF27
:10140C000AF0E0FF43463200587029003B002000F0
:10141C000AF017FF00222F4B0AF043FF0BF09EFB44
:10142C002B4B00220AF01FFF06AA0FF06BFB0022C9
:10143C00294B04000D00069807990AF032FF0AF0B8
:10144C00C1FF0AF0A7FF002206000F0020002900B0
:10145C001F4B0AF026FF02000B00300039000AF087
:10146C00F9FE0AF0AFFF434600221870184B0098A3
:10147C0001990AF0F8FE06AA0FF044FB0022164B65
:10148C0004000D00069807990AF00BFF0AF09AFF6A
:10149C000AF080FF002206000F00200029000C4BF0
:1014AC000AF0FFFE02000B00300039000AF0D2FEF9
:1014BC000AF088FF43464A469871DA7109B00CBCB1
:1014CC0090469946F0BD05230426994674E6C0461D
:1014DC00000024400000594000003040F0B5D646D2
:1014EC0046464F462023C0B594B00AAA13AC1384C9
:1014FC00238083790500180998460AF04BFF0022D7
:10150C00764B0AF0CEFE434606000F2018400F0023
:10151C000AF040FF02000B00300039000AF09AFE7E
:10152C000AF050FF0121EA79804693100B401142DA
:10153C0000D1CDE0202222700C222021013B9343CC
:10154C000AAA52182D3313706B7918099A460AF0AF
:10155C0021FF0022614B0AF0A4FE0F230600504627
:10156C00184099460F000AF015FF02000B003000DE
:10157C0039000AF06FFE2B79089009919A461809E8
:10158C000AF008FF0022554B0AF08BFE4A465346E0
:10159C001340060018000F000AF0FCFE02000B00BE
:1015AC00300039000AF056FEEB780A900B919A46FF
:1015BC0018090AF0EFFE0022484B0AF072FE4A4668
:1015CC0053461340060018000F000AF0E3FE020019
:1015DC000B00300039000AF03DFEAB780C900D91F9
:1015EC009A4618090AF0D6FE00223C4B0AF059FE26
:1015FC004A4653461340060018000F000AF0CAFE74
:10160C0002000B00300039000AF024FE6B780E90BB
:10161C000F919A4618090AF0BDFE00222F4B0AF0D2
:10162C0040FE4A4653461340060018000F000AF0CD
:10163C00B1FE02000B00300039000AF00BFE2D78D1
:10164C001090119128090AF0A5FE0022234B0AF0F4
:10165C0028FE4B462B40060018000F000AF09AFE9D
:10166C0002000B00300039000AF0F4FD06000F00F8
:10167C00089809990AF0A6FE194B050099464346AD
:10168C0039003000069305940AF09CFE04901098E3
:10169C0011990AF097FE03900E980F990AF092FE9A
:1016AC0002900C980D990AF08DFE01900A980B99F6
:1016BC000AF088FE2B0000900A49484612AA0AF04C
:1016CC00E3FA484614B01CBC90469946A246F0BDBD
:1016DC006422121A90462D222DE7C04600002440A9
:1016EC00A8BA012078140120F0B5DE4645464E46D6
:1016FC005746E0B5804686790F2087B030400AF017
:10170C0049FE04000D0030090AF044FE00227C4B17
:10171C000AF0C7FD22002B000AF09CFD0122434673
:10172C00049005911100DB7919409B1003911A422A
:10173C0000D1DDE00023734C0093019443465B79A8
:10174C009A460F235046184099460AF023FE43460A
:10175C00060048461B790F009B4618400AF01AFEFB
:10176C005B4604000D0018090AF014FE0022644BBD
:10177C000AF097FD22002B000AF06CFD624A634BC5
:10178C000AF08FFD5346040018090D000AF002FE02
:10179C0000225B4B0AF085FD32003B000AF05AFD3B
:1017AC0002000B00200029000AF054FD43460600FD
:1017BC004846DB780F009A4618400AF0EBFD53467A
:1017CC0004000D0018090AF0E5FD00224C4B0AF04C
:1017DC0068FD22002B000AF03DFD4D4A4D4B0AF0EE
:1017EC0060FD32003B000AF035FD434606004846DA
:1017FC009B780F009A4618400AF0CCFD5346040023
:10180C000D0018090AF0C6FD00223D4B0AF049FDF7
:10181C0022002B000AF01EFD3F4A404B0AF041FD0E
:10182C0032003B000AF016FD4346060048465B7842
:10183C000F009A4618400AF0ADFD534604000D0007
:10184C0018090AF0A7FD00222D4B0AF02AFD2200F0
:10185C002B000AF0FFFC324A324B0AF022FD320018
:10186C003B000AF0F7FC4346060048461B780F0085
:10187C00984618400AF08EFD434604000D001809E6
:10188C000AF088FD00221E4B0AF00BFD22002B00F3
:10189C000AF0E0FC244A254B0AF003FD32003B0021
:1018AC000AF0D8FC0B000200009801990AF0F9FC30
:1018BC00039B04000D00002B1FD1049A059B0020F4
:1018CC001B490AF0BEFC0200802000060B18002009
:1018DC000B490BF0F5F902000B00200029000AF06F
:1018EC00E0FC07B03CBC90469946A246AB46F0BD26
:1018FC000023104C0093019420E7049A059BE6E723
:10190C00000024400000F0BF7B14AE47E17A843F16
:10191C002D431CEBE2361A3F8DEDB5A0F7C6B03E59
:10192C003A8C30E28E79453EBBBDD7D9DF7CDB3DAE
:10193C00000059400000F03FF0B5DE4645464E46EB
:10194C005746E0B5050083B00A200CF0A1F9204BF6
:10195C00002498461F4B204E9B4620E02B00083B52
:10196C009946A1444846FFF7B9FD82464846FFF721
:10197C00BBFE02000B00584600920193791E5246A2
:10198C000CF08EFA210040460CF08AFA295D3000EA
:10199C000CF086FA802301345B009C420ED0630766
:1019AC00F4D1002CEED0802CECDCE7103B000B3B90
:1019BC00012BD3D809480CF073FAE3E70A200CF09A
:1019CC0067F903B03CBC90469946A246AB46F0BDC5
:1019DC00C0140120B0140120C81401209C14012053
:1019EC00F0B5D6464F4646468F4DC0B52800FFF79A
:1019FC00A3FF00238D4F2E003B708D4B01359A4673
:101A0C008C4B8D4C99468D4B80369846FF35002378
:101A1C0032782370F92A03D849469300CB589F4655
:101A2C00514620000AF030F92100380001360FF041
:101A3C00ABF8B542EBD1390081480CF031FA1CBC43
:101A4C0090469946A246F0BD0222414620000CF079
:101A5C0015F8E9E7022220007A490CF00FF8E3E7C9
:101A6C000222200078490CF009F8DDE70222200060
:101A7C0076490CF003F8D7E70222200074490BF0EA
:101A8C00FDFFD1E70222200072490BF0F7FFCBE7F4
:101A9C000222200070490BF0F1FFC5E70222200062
:101AAC006E490BF0EBFFBFE7022220006C490BF0F4
:101ABC00E5FFB9E7032220006A490BF0DFFFB3E72B
:101ACC000522200068490BF0D9FFADE70322200066
:101ADC0066490BF0D3FFA7E70322200064490BF003
:101AEC00CDFFA1E70322200062490BF0C7FF9BE763
:101AFC000322200060490BF0C1FF95E70322200070
:101B0C005E490BF0BBFF8FE7042220005C490BF011
:101B1C00B5FF89E7052220005A490BF0AFFF83E798
:101B2C000522200058490BF0A9FF7DE70422200074
:101B3C0056490BF0A3FF77E70322200054490BF022
:101B4C009DFF71E70422200052490BF097FF6BE7D1
:101B5C000422200050490BF091FF65E70822200079
:101B6C004E490BF08BFF5FE7062220004C490BF02F
:101B7C0085FF59E7062220004A490BF07FFF53E707
:101B8C000522200048490BF079FF4DE70622200082
:101B9C0046490BF073FF47E70522200044490BF040
:101BAC006DFF41E70522200042490BF067FF3BE740
:101BBC000422200040490BF061FF35E7052220008C
:101BCC003E490BF05BFF2FE7062220003C490BF04F
:101BDC0055FF29E7052220003A490BF04FFF23E778
:101BEC000522200038490BF049FF1DE70522200093
:101BFC0036490BF043FF17E70522200034490BF060
:101C0C003DFF11E70522200032490BF037FF0BE7AF
:101C1C000522200030490BF031FF05E7032220009C
:101C2C002E490BF02BFFFFE6500E0220A8B201202C
:101C3C00A40E0120D0140120500F0220900F01207F
:101C4C00940F01208C0F0120880F0120840F01209C
:101C5C00800F01207C0F0120780F0120740F0120D0
:101C6C00700F01206C0F0120600F0120680F012004
:101C7C005C0F0120580F0120500F0120540F012040
:101C8C004C0F0120440F01203C0F0120340F012088
:101C9C00380F01202C0F0120300F0120AC0E012039
:101CAC00C40E0120BC0E0120B40E0120F00E012048
:101CBC00E80E0120E00E0120DC0E0120D40E0120E4
:101CCC00CC0E0120240F01201C0F0120140F012029
:101CDC000C0F0120040F0120FC0E0120F80E012036
:101CEC00F0B5D6464F464646994CC0B52168994842
:101CFC000CF0D6F8984D236818032B689C4660446A
:101D0C00FFF71AFE95480CF015F822682B681203A1
:101D1C009B181E005D1C924B00229A46914B924FD1
:101D2C009946924B924C98463A708036FF35002378
:101D3C0032782370F92A03D849469300CB589F4632
:101D4C005146200009F0A0FF2100380001360EF0AA
:101D5C001BFFB542EBD1390086480CF0A1F80A20E4
:101D6C000BF096FF1CBC90469946A246F0BD022291
:101D7C00414620000BF082FEE6E7022220007E495D
:101D8C000BF07CFEE0E7022220007C490BF076FE93
:101D9C00DAE7022220007A490BF070FED4E7022227
:101DAC00200078490BF06AFECEE70222200076492B
:101DBC000BF064FEC8E70222200074490BF05EFEB3
:101DCC00C2E70222200072490BF058FEBCE7022247
:101DDC00200070490BF052FEB6E7032220006E493A
:101DEC000BF04CFEB0E7052220006C490BF046FED0
:101DFC00AAE7032220006A490BF040FEA4E7032265
:101E0C00200068490BF03AFE9EE703222000664949
:101E1C000BF034FE98E70322200064490BF02EFEF1
:101E2C0092E70322200062490BF028FE8CE7042283
:101E3C00200060490BF022FE86E7052220005E4957
:101E4C000BF01CFE80E7052220005C490BF016FE0F
:101E5C007AE7042220005A490BF010FE74E70322A3
:101E6C00200058490BF00AFE6EE704222000564968
:101E7C000BF004FE68E70422200054490BF0FEFD31
:101E8C0062E70822200052490BF0F8FD5CE70622BD
:101E9C00200050490BF0F2FD56E7062220004E4977
:101EAC000BF0ECFD50E7052220004C490BF0E6FD51
:101EBC004AE7062220004A490BF0E0FD44E70522E0
:101ECC00200048490BF0DAFD3EE705222000464988
:101EDC000BF0D4FD38E70422200044490BF0CEFD72
:101EEC0032E70522200042490BF0C8FD2CE7062200
:101EFC00200040490BF0C2FD26E7052220003E4998
:101F0C000BF0BCFD20E7052220003C490BF0B6FD90
:101F1C001AE7052220003A490BF0B0FD14E7052220
:101F2C00200038490BF0AAFD0EE7052220003649A7
:101F3C000BF0A4FD08E70522200034490BF09EFDB0
:101F4C0002E70322200032490BF098FDFCE6C04664
:101F5C0010AE0120B8180120B0780120C018012063
:101F6C00A40E0120C4180120A8B20120900F01205A
:101F7C00500F0220940F01208C0F0120880F01209C
:101F8C00840F0120800F01207C0F0120780F01208D
:101F9C00740F0120700F01206C0F0120600F0120C5
:101FAC00680F01205C0F0120580F0120500F0120F9
:101FBC00540F01204C0F0120440F01203C0F012035
:101FCC00340F0120380F01202C0F0120300F01207D
:101FDC00AC0E0120C40E0120BC0E0120B40E012059
:101FEC00F00E0120E80E0120E00E0120DC0E012095
:101FFC00D40E0120CC0E0120240F01201C0F012037
:10200C00140F01200C0F0120040F0120FC0E0120E5
:10201C00F80E01208022F8B51B4B0D001B4F1968E0
:10202C00040309190600520038000BF027FD802329
:10203C005B039C4680216444200049010EF0FCFEA9
:10204C00EB070BD4AB0714D48022390020005200CC
:10205C000EF032FF0E480BF06DFEF8BD31000D484E
:10206C000BF01EFF802238000B490BF007FDAB076D
:10207C00EAD5310009480BF013FF802208490948C2
:10208C000BF0FCFCE0E7C046B078012010DA012030
:10209C006814012024140120500E02204414012045
:1020AC00D00E022090DA012010B50F480BF0F8FE8C
:1020BC000E480BF007FF431C14D06D2810D00ADC1F
:1020CC004D280DD05038414241414900084B186809
:1020DC00FFF7A0FF10BD7038414241414900F5E7C0
:1020EC000121F3E70021F1E7081401208096980004
:1020FC0010AE0120F0B55746DE464E4645462D4BF8
:10210C00E0B51B6883469946030398462A4B202763
:10211C0002249A4683B00DE0032C04D108223378B4
:10212C00013C9343337080235B019C46013FE044A8
:10213C00022F32D00621380009F018FE01250300C9
:10214C004946A5400833CE18CB5C6DB2AB43337017
:10215C00534641461B6802005B5C1848FF3B5942E2
:10216C004B41210000935B460BF09AFE53464246CE
:10217C001B689B5CFF2B02D033781D433570013CF0
:10218C00CAD27F223378013F1340337080235B0126
:10219C009C460624E044022FCCD14A460923937373
:1021AC00E833D37303B03CBC90469946A246AB4689
:1021BC00F0BDC046AC780120B0780120FC1C012099
:1021CC00F0B55746DE4680B5A34F85B03E68B3796F
:1021DC00932B04D005B00CBC92469B46F0BDF37912
:1021EC00F12BF7D10F22337992461A42F2D1504695
:1021FC007179F03209010A401B09D518F37818409F
:10220C009B460AF0C7F85346B478009001912340DE
:10221C0018000AF0BFF85B460290039118090AF007
:10222C00B9F800228D4B0AF03CF8009A019B0AF099
:10223C0011F80022894B0AF034F80AF0C3F80AF0BE
:10224C00A9F80090019120090AF0A4F80022834B10
:10225C000AF027F8029A039B09F0FCFF00227F4B3F
:10226C000AF001F802000B000098019909F0F2FF46
:10227C000AF0A8F80400290079480BF011FE22009E
:10228C00210078480BF00CFE472D00DD95E0102D59
:10229C00A0DD2B00113B362B9CD8734A9B00D358E6
:1022AC009F46DB2C00D8D2E00F213A6813798B4380
:1022BC000B210B4313718DE7F92CF5D8022120006B
:1022CC00FFF7A8FEF0E70F213A6813798B430B2137
:1022DC000B431371F92C00D97CE701212000FFF787
:1022EC0099FE77E70F213A6813798B430B210B4347
:1022FC001371F92C00D96DE703212000FFF78AFE3A
:10230C0068E70F213A6813798B430B210B43137148
:10231C00F92C00D95EE7210054480BF0C1FD544B59
:10232C002403196880348022091952480BF0A6FB4B
:10233C000A200BF0ADFC4DE70F213A6813798B4363
:10234C000B210B431371F92C00D943E721004A48A8
:10235C000BF0A6FD464B2403196880220919474847
:10236C000BF08CFB0A200BF093FC33E70F213A683F
:10237C0013798B430B210B431371F92C00D929E7EB
:10238C0021003D480BF08CFD394F3C4D3B6826033A
:10239C009919802228000BF071FB210033480BF0B7
:1023AC007FFD2800396880368022891980300BF037
:1023BC0065FB0A200BF06CFC0CE7952D34D0962DA8
:1023CC0012D151463A682E4813798B430B210B439B
:1023DC0013710BF065FD8022002126480BF048FBA1
:1023EC000A200BF055FCF5E6942D00D0F2E6514690
:1023FC003A68244813798B430B210B4313710BF070
:10240C004FFD1E4C8022002120000BF031FB1C489C
:10241C000BF046FD20008022002180300BF028FBC1
:10242C000A200BF035FCD5E651463A68154813796D
:10243C008B430B210B4313710BF032FD80220021D7
:10244C000E480BF015FB0A200BF022FCC2E6200014
:10245C00FFF750FE28E7C046AC780120000024406E
:10246C00101D0120201D0120301D0120B81301205A
:10247C00B0780120D00E022090130120500E0220C3
:10248C00F4130120E0130120F0B5DE4657464E460A
:10249C004546E0B589B0614807AB06AA05A906F028
:1024AC00FBF8002803D15D495D4807F00FFE079A41
:1024BC0006990598D02406F0B3F800250BF0FCFC27
:1024CC000126FEF721FB2406280006F0D5F933007F
:1024DC00AB40280000220021A362013506F0B4F9BC
:1024EC00172DF1D10C2006F0C7F980235B01636234
:1024FC000B20A36106F0C0F980231B01636210203E
:10250C00A361636106F0B8F980235B0263621A2051
:10251C00A361FEF72DFE1B20FEF72AFE1C20FEF702
:10252C0027FE40480EF0C8FAFA20C00007F0BCF8AD
:10253C000A200BF0ADFB3C4C0A3520000BF0B0FC34
:10254C003A480BF0ADFC20000BF0AAFC0A200BF073
:10255C009FFB002136480BF0A3FC364C80222168EF
:10256C0035480BF08BFA002134480BF099FC2168AC
:10257C008022803132480BF081FA0A200BF088FB64
:10258C00FA20304B80009B462F4B304C9A46304BF8
:10259C00304F9946304B314E98460BF093FC431C10
:1025AC0036D02200002303E001330C32252B25D03A
:1025BC0011788842F8D15A4610605A00D3189B0003
:1025CC00E3189B689847514625480BF069FC434635
:1025DC001B6839685A1E934132680191501E824122
:1025EC0052422A40203202924A46009112685B42C3
:1025FC002B4011001B4820330BF052FCFFF7E0FD81
:10260C0000F040F8FA2080000BF05CFC431CC8D1B1
:10261C000BF0C6FB14480BF043FCEFE7B01E0400B4
:10262C000C1E012099030020401E01205C1E01207D
:10263C0090130120B0780120500E0220B813012015
:10264C00D00E0220F0AD012058AE0120B47801204C
:10265C0010AE012020A8012038A8012034A80120A8
:10266C00AC1C0120C41C0120F81C01208022034B4F
:10267C001A60034B7F3A1A607047C046747A012087
:10268C00E8A90120F8B5DE4657464E4645468A4B2A
:10269C00E0B51A68002A47D0884D894E2A688949C6
:1026AC00B45C9046884F0A683C60002A06D0C52C62
:1026BC0010D001229446E04442462A60D72C3DD8E3
:1026CC00A12C37D95E34E4B2352C2DD87F4BA40025
:1026DC001B599F467E4B99461B68002B00D0A0E0EF
:1026EC007C4B9A461B68002B00D0B1E07A4B7B4F99
:1026FC009B467B4C2268531C05D038687968D20005
:10270C00B218FEF745FD0023524613604A4613608B
:10271C00002200233A607B6001235A465B4213601F
:10272C0023602B6801332B603CBC90469946A24633
:10273C00AB46F8BD002CF7D11C60F5E72300103335
:10274C00DBB2092BF0D8634B1B68002B50D1604BCC
:10275C0099461B68002B00D18DE0D72B00D199E056
:10276C0000234A46136001225B4B52421A6002E07E
:10277C00D722574B1A60404601302860D4E701221B
:10278C0000200021534B1A60564B1860596040468C
:10279C0001302860C8E7544C2000FEF7A5FF534BCE
:1027AC00002209F057FD2200FEF7F2FC2B680133E2
:1027BC002B60B9E7464473784D4A9B009B582B60BD
:1027CC00B2E743464644991C7378494A9B0099509A
:1027DC002960A9E74046404B01301A68404B1A600B
:1027EC002860A1E740460123013028600B609BE77D
:1027FC003C4B0022994649463E4B0868496809F013
:10280C0050FD06002000F0380F0009F0C3FD0B004E
:10281C0002003900300009F01DFD4B46186059606C
:10282C00A9E72C4A92461268002A1AD02D4A106841
:10283C005168294A9346294FD72B00D059E70200FB
:10284C000B003868796809F005FD3860796050E74D
:10285C00224F244B5C681B683B607C601E4B9B4684
:10286C0047E71D4B9B461B68D8003018FEF73CFF12
:10287C004B461B68DFE7F03CE4003019FEF734FFF1
:10288C00164B154A186059603B68F03B13602B6877
:10289C00984670E72000F038C0003018FEF724FF8F
:1028AC000E4C0B0002002068616809F0D3FC2B6809
:1028BC0020606160984653E7E8A90120747A0120F2
:1028CC00500E022030AE012068230220C0200120CF
:1028DC0014AE01206CA90120787A012068A4012093
:1028EC00707A012038230220580E02200000F03F9D
:1028FC00402302200000244010B5002908DBC1232E
:10290C000022CC179B058260C3600160446010BD3F
:10291C0000240022014B4942F5E7C046000040B0BC
:10292C00F0B5DE46454657464E46E0B59DB007939A
:10293C002C9B83469C462D9B06929846269B2233C5
:10294C0000DAFFE12A9C2B9D289B2998590FC30084
:10295C000B4328992000CA00290024184D412999BD
:10296C00C90F0E0026432A9C3000640FA1462B9CF5
:10297C002900E7002A9C0097E600299C640F270099
:10298C0037434E463C00009F3E43350000196941D9
:10299C00289C299D26002F00A4197D41A4185D4177
:1029AC00AB4200D8C0E10122002380185941634694
:1029BC004246134302D0012323431C000123269AD1
:1029CC00079E9B1A10932E9B1A68069B9146119298
:1029DC00334303D0531E012B00D866E24B46DE0076
:1029EC00109B4E449C46B600D34B66443601F618F9
:1029FC0032687368A4185D410092019322002B0089
:102A0C00B468F56802920393019A00196941012494
:102A1C0000259A4203D800D1E2E200240025109B45
:102A2C0000196941029C039D1A019446C34B049002
:102A3C0005916344199219685A68009101929A6839
:102A4C00DE6828000023002192460AF029FF32009C
:102A5C00070000232800169100210AF021FF52469E
:102A6C0000230890099120000021029403950AF09C
:102A7C0017FF00253A0000230C001790A4185D41A5
:102A8C003000029A00210AF00BFF02000B00121911
:102A9C006B41049C059D1292139301982200002314
:102AAC0000210AF0FDFE22008046002300981891B8
:102ABC000021049405950AF0F3FE002542460023FC
:102ACC000C000700A4185D410598009A00210AF03B
:102ADC00E7FE00196941002405003A000023149018
:102AEC00159120002900009C019D8018594122005D
:102AFC000C900D91039800210AF0D2FE2A00884612
:102B0C0000230E90002103980AF0CAFE2200002335
:102B1C000A900B9102980021009401950AF0C0FED6
:102B2C00002500230C000E9A0700A4185D410198A3
:102B3C00029A00210AF0B4FE4246001969410A9C2F
:102B4C000B9D002312196B410C00002512196B41CF
:102B5C003C000A920B9300250300002212196B41D2
:102B6C0000211A921B93049C059D524600232800B9
:102B7C000AF096FE2A000F00804600233000002148
:102B8C000AF08EFE22000023029003915046002191
:102B9C00049405950AF084FE002500230C0042469F
:102BAC008246A4185D413000049A00210AF078FE98
:102BBC003A0000196941029D039E00230C00521932
:102BCC0073410025564612196B410027050000245D
:102BDC0036196F410025169C02920393089A099BA3
:102BEC00A4185D4100210023059A01980E960F97B9
:102BFC000AF056FE23002C001B184C4100211A0031
:102C0C002300129C139D280012184B410021189888
:102C1C000025801859410023159A8018594123002A
:102C2C000022179C12196B410C9C0D9D12196B41C3
:102C3C009D4200D929E100D124E10A9E0B9F34006A
:102C4C003D00A4185D4123002C000A930B94AF4265
:102C5C0000D912E100D10DE10E9B0F9C1B184C41C9
:102C6C0008930994A14200D992E000D18DE0109B09
:102C7C00334A9B009C583F2C00DC98E060222300D8
:102C8C005242403BA21800D53FE1002100200490A5
:102C9C0005910399D1400491039ADA40119B059256
:102CAC00002B00D1ADE020222F9B1B6898461A42C6
:102CBC0000D0DDE080252D1B3F2D00DC6AE1402398
:102CCC0020211B1B4942591800D526E2089A8A403C
:102CDC009246089A9A40944600230C9310934B46C4
:102CEC00032B07D000D920E1002B00D11FE1012BD1
:102CFC0000D07BE1624651460C9B1343109A0A4369
:102D0C00134300D121E1302342461A4313002F9A7A
:102D1C0013605B46069A9A60079ADA605A46049BDF
:102D2C00059C1360546028E0AB4200D03FE6A24201
:102D3C0000D83CE637E6C046208A012050870120A7
:102D4C00C08601202F9B11001B685C46009330232A
:102D5C00009A13432F9A1360030081600798002296
:102D6C00D8600023226063600B00034300D191E024
:102D7C002E9B1B68012B00D191E058461DB03CBC2A
:102D8C0090469946A246AB46F0BD984200D86EE7F5
:102D9C00029803990122002380185941109BBF4AC5
:102DAC009B009C58029003913F2C00DD66E740236A
:102DBC0020221B1B52429A187BD4029802999840ED
:102DCC00202391405B420A00E31800D581E0099969
:102DDC00D940084309990490E1400A430592002B1D
:102DEC0000DA88E0039ADA401300069A1A43039B30
:102DFC000692E340079A1A43119B0792002B00D0CE
:102E0C0051E7049A0133134200D14CE780252D1B66
:102E1C003F2D00DD46E1213BEB1800D5FDE1029A88
:102E2C009A4092466022210002985242A8404039B2
:102E3C00A21800D547E2099ED6403200099ECE402A
:102E4C003100002B00DA34E2089E9E401096089B5D
:102E5C005746AB400E430C93134303433E4333435B
:102E6C0000D130E12F9B1B6898469B0600D4B1E043
:102E7C00102349E79E4200D8EEE601220023801879
:102E8C005941E9E6944200D8D7E6012400250019FF
:102E9C006941D2E62E9B1B68022B00D06DE7012204
:102EAC00002359460A604B6067E703239B1A994637
:102EBC0094E52022029D039E2900D21AD1403200B3
:102ECC0002989A40984020235B420A43E31800D4AE
:102EDC007DE7089E099F20213D00091B8D40310094
:102EEC00E1402943084309990490E1400A430592C3
:102EFC00002B00DB76E70298039920230A001B1BAA
:102F0C009A400300E34013436FE720220298039991
:102F1C000D00D21A954001002A00D9400025002648
:102F2C001143049505960491B6E6042B5ED16346D5
:102F3C00002B00D0E7E680231B069A4500D0E2E682
:102F4C000C9B109A134300D0DDE6554A199B94460E
:102F5C0063441900CA689B680A980B998A4200D985
:102F6C00D7E602D1834200D9D3E60A99994200D020
:102F7C00C9E60B9B934200D0C5E60099019A1A9BB7
:102F8C001B9CA24200D9C4E600D0BCE6994200D9F1
:102F9C00BFE6B8E620235B42EB1800D534E1029A79
:102FAC009A4092466022210002985242A840403931
:102FBC00A21800D520E1099ED6403200099ECE40D1
:102FCC003100002B00DA0DE1089E9E401096089B04
:102FDC00AB400C93534610430B4384469A467EE613
:102FEC00029B009A9A4200D919E516E5009A019BBA
:102FFC0001261A981B99002712184B41009601972D
:10300C00994205D800D13AE10022002300920193A5
:10301C00009801990A9A0B9B12184B412048199958
:10302C00814649448868C968801859418B4200D947
:10303C0081E000D17CE0009E019F002101208946A7
:10304C009F4200D8FFE04B46009001933F2D00DDDE
:10305C0076E0602223005242403BA21800D506E1E4
:10306C00614691400A006146994020235B42EB186F
:10307C0000D549E11098D840814610984E46E8405A
:10308C000E43024302960392002B00DA32E15246C1
:10309C00DA4010005346EB40190064E0C086012072
:1030AC0050870120402320221B1B52429A1800D526
:1030BC00BDE0089991408A46089A9A405346944636
:1030CC00134300D0EDE00A980B99199A964B94464D
:1030DC0063449A68DB688B4215D801D1824212D8BE
:1030EC000A99914200D0DEE50B9A9A4200D0DAE5BB
:1030FC00009801991A9A1B9B994204D800D0D2E5EA
:10310C00904200D8CFE50498059901225242D3177A
:10311C008018594104900591C5E5089E099F31001E
:10312C00D21AD1400A003900994011438A46D0E5A1
:10313C00824200D87FE7012200230092019385E7A9
:10314C00402320221B1B52429A1800D581E00021FB
:10315C000020029003915146D14002915246DA4030
:10316C000020002103923F2C00DD8DE040231B1B2F
:10317C00202B00D5AFE000239C4620235B4200258A
:10318C00E31800D5B0E001229A4091460123A340F8
:10319C001C00009A019B029E039FB6185F413200EF
:1031AC00019E3B00BE4203D806D1009E964203D935
:1031BC000126002780197941A94200D9A9E502D13D
:1031CC00604500D9A5E5604500D09CE5A94200D03A
:1031DC0099E5994500D996E500D09AE5944200D836
:1031EC0097E590E52023089E5B1BDE403300099E8B
:1031FC00AE401E431096EAE62022099E521A9640D3
:10320C00089ACA403243D9E6029803990600521B29
:10321C00D640A94031438A46C4E62022029803993D
:10322C000600521BD640A94031438A46FAE52022BB
:10323C00089E099F3100D21AD1400A0039009940EA
:10324C0011438A4638E79F4268D0002300209946F4
:10325C00F9E620225146D21A914000200A000021A2
:10326C00029003916146D9401143029176E72022E6
:10327C006146D21AD14052469A400A43F3E61A9953
:10328C00914200D9C4E6BFE62300403B603C26D403
:10329C000125A54001229A4000239446002499461A
:1032AC0077E72F9B1B6898469B0600D414E51023E8
:1032BC002AE52023089E5B1BDE403300099EAE40AE
:1032CC001E431096C3E52022099E521A9640089A76
:1032DC00CA403243B2E50122DA4094464DE720223F
:1032EC000125D21AD540D5E7202301221B1BDA4039
:1032FC0091464BE7202352465B1B9A4013006246D3
:10330C00EA4010001843C5E62020109E401B864062
:10331C0030000C9EEE400643B146AEE60099914259
:10332C0000D990E691E7C04650870120F0B5DE4603
:10333C004E4657464546E0B59DB0269E0C9333004D
:10334C0083460792223300DAC6E173420D932C9B1D
:10335C000C991A68079B914616920B4300D0ACE16E
:10336C00289C299D4B46DB004B449B00D74A9B1B5A
:10337C001B019B181868596824184D419A68DB6822
:10338C00009401952A9C2B9D019F12196B410124DD
:10339C000025B94203D800D1E1E20024002512191E
:1033AC006B4104920593CA4B36019E1BB16833687E
:1033BC0074688A460A0002930394009C019D0023C2
:1033CC00280000210AF06CFAF6680700320000238E
:1033DC002800179100210AF063FA52460023089046
:1033EC00099120000021009401950AF059FA00255A
:1033FC003A0000230C001890A4185D413000009A8C
:10340C0000210AF04DFA00196941049C059D1290A7
:10341C00139122000398002300210AF041FA2200A4
:10342C0080460023029819910021049405950AF016
:10343C0037FA0025424600230C000700A4185D4112
:10344C000598029A00210AF02BFA02000B001219BF
:10345C006B41002415001492159320003A000023B0
:10346C002900029C039D8018594122000E900F9157
:10347C00019800210AF014FA2A00884600231090C3
:10348C00002101980AF00CFA220000230A900B91FB
:10349C0000980021029403950AF002FA00250023FB
:1034AC000C00109A0700A4185D410398009A0021A3
:1034BC000AF0F6F94246001969410A9C0B9D00235B
:1034CC0012196B410C00002512196B413C000A9239
:1034DC000B9300250300002212196B4100211A9254
:1034EC001B93049C059D5246002328000AF0D8F932
:1034FC002A000F0080460023300000210AF0D0F98A
:10350C00220000230090019150460021049405955F
:10351C000AF0C6F9002500230C0042468246A41886
:10352C005D413000049A00210AF0BAF93A000023F8
:10353C0000196941009D019E521973410C00002530
:10354C0016000899099A1F0036196F41050000965C
:10355C00019700245646002736196F410025179C09
:10356C000023641855410398059A00211096119771
:10357C000AF096F923002C001B184C4100211A006C
:10358C002300129C139D280012184B4100211998FE
:10359C000025801859410023159A801859412300A1
:1035AC000022189C12196B410E9C0F9D12196B4135
:1035BC009D4200D87AE001240025001969410A9E39
:1035CC000B9F34003D00A4185D4123002C000A938E
:1035DC000B94AF4200D91BE100D116E1109B119C5A
:1035EC001B184C4108930994A14200D99AE000D1D0
:1035FC0095E00D9B9A00374BD4583F2C00DCA0E093
:10360C00602223005242403BA21800D510E1002159
:10361C000020049005910199D1400491019ADA405F
:10362C00169B0592002B00D1B6E020222D9B1B6827
:10363C0098461A4200D0E6E080252D1B3F2D00DC79
:10364C0067E1402320211B1B4942591800D525E274
:10365C00089A8A409246089A9A40944600231093FE
:10366C000E934B46032B07D000D91DE1002B00D144
:10367C001CE1012B00D077E162465146109B1343AD
:10368C000E9A0A43134300D11EE1302342461A43DB
:10369C0013002D9A13605B46079A9A600C9ADA60B5
:1036AC005A46049B059C1360546030E09D4200D048
:1036BC0085E7944200D882E77DE7531E012B00D9A1
:1036CC004EE603239B1A99464AE6C046208A0120FF
:1036DC0050870120C08601202D9B11001B685C4681
:1036EC0000933023009A13432D9A136003008160DA
:1036FC000C980022D8600023226063600B00034307
:10370C0000D18AE02C9B1B68012B00D18AE0584623
:10371C001DB03CBC90469946A246AB46F0BD9842C3
:10372C0000D866E7009801990122002380185941BE
:10373C000D9B009001919A00B84BD4583F2C00DDA2
:10374C005EE7402320221B1B52429A1800D57FE0D3
:10375C00009800999840202391405B420A00E3189E
:10376C0000D585E00999D940084309990490E140B6
:10377C000A430592002B00DA8CE0019ADA40130020
:10378C00079A1A43019B0792E3400C9A1A43169B23
:10379C000C92002B00D048E7049A0133134200D15D
:1037AC0043E780252D1B3F2D00DD3BE1213BEB1832
:1037BC0000D5F3E1009A9A409246602221000098CD
:1037CC005242A8404039A21800D53DE2099ED6408D
:1037DC003200099ECE403100002B00DA2AE2089E0E
:1037EC009E400E96089B5746AB400E4310931343D6
:1037FC0003433E43334300D125E12D9B1B68984680
:10380C009B0600D4A5E0102340E79E4200D8E5E6D5
:10381C000122002380185941E0E62C9B1B68022BE7
:10382C0000D074E70122002359460A604B606EE712
:10383C002022009801990D00D21A954001002A000F
:10384C00D940002500261143049505960491E5E620
:10385C002022009D019E2900D21AD14032000098EE
:10386C009A40984020235B420A43E31800D479E73E
:10387C00089E099F20213D00091B8D403100E1402D
:10388C002943084309990490E1400A430592002B0F
:10389C0000DB72E70098019920230A001B1B9A4059
:1038AC000300E34013436BE7042B5DD16346002B0D
:1038BC0000D0EAE680231B069A4500D0E5E6109B73
:1038CC000E9A134300D0E0E60D9B1901544B9C4615
:1038DC006144CA688B680A980B998A4200D9DAE667
:1038EC0002D1834200D9D6E60A99994200D0CCE69F
:1038FC000B9B934200D0C8E60299039A1A9B1B9C1F
:10390C00A24200D9C7E600D0BFE6994200D9C2E670
:10391C00BBE620235B42EB1800D536E1009A9A40B7
:10392C0092466022210000985242A8404039A218C9
:10393C0000D522E1099ED6403200099ECE403100CE
:10394C00002B00DA0FE1089E9E400E96089BAB40C0
:10395C001093534610430B4384469A4681E6009FCE
:10396C00B84200D91BE518E50126029A039B1A9868
:10397C001B99002712184B4100960197994205D8C4
:10398C0000D13DE10022002300920193009801999F
:10399C000A9A0B9B12184B4121480D99814609013B
:1039AC0049448868C968801859418B4200D983E022
:1039BC0000D17EE0009E019F0021012089469F429C
:1039CC0000D801E14B46009001933F2D00DD78E0DB
:1039DC00602223005242403BA21800D508E1614608
:1039EC0091400A006146994020235B42EB1800D5B8
:1039FC004BE10E98D84081460E984E46E8400E4357
:103A0C00024302960392002B00DA34E15246DA406C
:103A1C0010005346EB40190066E0C046C0860120FA
:103A2C0050870120402320221B1B52429A1800D59C
:103A3C00BEE0089991408A46089A9A4053469446AB
:103A4C00134300D0EEE00A980B99974A0D9B9446CD
:103A5C001B0163449A68DB688B4215D801D1824202
:103A6C0012D80A99914200D0DFE50B9A9A4200D005
:103A7C00DBE5029803991A9A1B9B994204D800D053
:103A8C00D3E5904200D8D0E5049805990122524222
:103A9C00D3178018594104900591C6E5089E099FDB
:103AAC003100D21AD1400A003900994011438A469C
:103ABC00D1E5824200D87DE70122002300920193D8
:103ACC0083E7402320221B1B52429A1800D581E029
:103ADC0000210020029003915146D14002915246A0
:103AEC00DA400020002103923F2C00DD8DE04023C2
:103AFC001B1B202B00D5AFE000239C4620235B42F0
:103B0C000025E31800D5B0E001229A40914601232C
:103B1C00A3401C00009A019B029E039FB6185F41B4
:103B2C003200019E3B00BE4203D806D1009E964255
:103B3C0003D90126002780197941A94200D9AAE5A9
:103B4C0002D1604500D9A6E5604500D09DE5A942AB
:103B5C0000D09AE5994500D997E500D09BE59442B1
:103B6C0000D898E591E52023089E5B1BDE403300CE
:103B7C00099EAE401E430E96E8E62022099E521A7C
:103B8C009640089ACA403243D7E60098019906003D
:103B9C00521BD640A94031438A46C2E620220098E7
:103BAC0001990600521BD640A94031438A4604E6CF
:103BBC002022089E099F3100D21AD1400A003900F8
:103BCC00994011438A4637E79F4268D00023002072
:103BDC009946F7E620225146D21A914000200A005D
:103BEC000021029003916146D9401143029176E77E
:103BFC0020226146D21AD14052469A400A43F1E63D
:103C0C001A99914200D9C1E6BCE62300403B603CC6
:103C1C0026D40125A54001229A4000239446002475
:103C2C00994677E72D9B1B6898469B0600D415E5B3
:103C3C0010232BE52023089E5B1BDE403300099EDE
:103C4C00AE401E430E96CDE52022099E521A964098
:103C5C00089ACA403243BCE50122DA4094464DE74B
:103C6C0020220125D21AD540D5E7202301221B1B87
:103C7C00DA4091464BE7202352465B1B9A401300D7
:103C8C006246EA4010001843C3E620200E9E401BFB
:103C9C0086403000109EEE400643B146ACE60099DB
:103CAC00914200D98EE691E750870120F0B5DE46AF
:103CBC00574645464E469046E0B59FB00D00289BB2
:103CCC00299C9769D6691991116952690A910B92CD
:103CDC0042469168D2681091119242460493059421
:103CEC00116852682A9B2B9C1491159229686A685A
:103CFC008246069107920168426818000E910F9255
:103D0C0021000093019408F08DFB0022CA4B08F0AF
:103D1C00C8FA04000D000498059908F083FB020012
:103D2C000B002000290008F095FA129013911098BE
:103D3C00119908F077FB0022BF4B08F0B2FA04008F
:103D4C000D001498159908F06DFB02000B00200073
:103D5C00290008F07FFA04000D000A980B9908F06E
:103D6C0061FB0022B54B08F09CFA02000B0020000E
:103D7C00290008F06FFA04000D003800310008F03B
:103D8C0051FB0022AE4B08F08CFA02000B00200015
:103D9C00290008F05FFA129A139B08F064FA009C51
:103DAC00019D2A01230F13432A0F964200D9E3E108
:103DBC0000D1DEE19F4201D100F0B4FB049B059CD5
:103DCC00A3469946109B119C0C930D94149B159C27
:103DDC0008930994009C019DEB04620B1A436B0B36
:103DEC000A9C0B9D9D4204D800D024E3944200D839
:103DFC0021E30022934B08F054FA08F01FFB012238
:103E0C005242D317801859414A4604000D00002332
:103E1C000800002109F044FD5A4607000023280041
:103E2C001C91002109F03CFD4A4600231090119191
:103E3C00200000210294039509F032FD3C000A0099
:103E4C00002300250600A4185D4102985A46002163
:103E5C0009F026FD001969410024320000230600F8
:103E6C002500AD185E411A901B9116951796029C71
:103E7C00039D009A2800002109F012FD0023070081
:103E8C000E002800019A002109F00AFD0023009A77
:103E9C0014901591200000210294039509F000FD67
:103EAC003C000A00002300251D90A4185D41002150
:103EBC00019A029809F0F4FC149A159B00196941B7
:103ECC0034000025A4185D410A00002300271219B4
:103EDC006B4105001098119900241D9EA4197D4179
:103EEC0000271C9E36184F4100211B9880197941E0
:103EFC00001969418D4200D9D9E200D1D4E2C40B3A
:103F0C004D042543CB0B169C52041A4310956304A5
:103F1C001192089C099D002226002F00B61A9F4181
:103F2C000122002314961597AF4205D8159EAE4278
:103F3C0000D142E3002200230C9C0D9DA41A9D414C
:103F4C00169A179BD10B8C466746D90B5E0440041E
:103F5C0008433E430300320020002900801A994197
:103F6C0002000B0008920993A94200D999E200D1F2
:103F7C0094E20C980D99012200238D4200D804E3A1
:103F8C0010001900109B119C0A9E0B9FF61AA7415A
:103F9C00029A039B5504029A361A8F415B04D00B8C
:103FAC001843039B0024D90B069A079B12184B410C
:103FBC00100019000E9A0F9B12196B410690079175
:103FCC000E920F939D4205D901220023801859416E
:103FDC00069007910898099908F024FA0022164BCC
:103FEC0008F05FF904000D001498159908F01AFAFE
:103FFC0002000B002000290008F02CF904000D0031
:10400C003000390008F00EFA00220C4B08F049F988
:10401C0002000B002000290008F01CF9129A139BD7
:10402C0008F021F9089B099C0C930D94149B159C8A
:10403C000893099408E0C0460000F0430000F047E4
:10404C000000F04B0000E03C08F0F8F94A4606008E
:10405C000F0000230800002109F022FC4A4604004E
:10406C00002310913000002109F01AFC00252200D9
:10407C0000230C008146A4185D4130005A460021F3
:10408C0009F00EFC00196941002203004C46002582
:10409C0012196B4102900391009801990A920B93AB
:1040AC0032003B0009F0FCFB0C9C0D9D5A46241A77
:1040BC008D4100233800002109F0F2FB241A8D41B8
:1040CC0000211098241A8D4100210398241A8D4147
:1040DC000A980B9902940395089C099D22002B00C9
:1040EC00121A8B410A920B93A94200D978E1099CD0
:1040FC00A14203D1089A904200D971E1039B002B95
:10410C0000DA7AE100980199029C039D8D4200D956
:10411C00DBE100D1D6E1009B029A934200D152E23E
:10412C000E980F99801979418F4202D809D1864295
:10413C0007D9069B079C012600279B197C410693F7
:10414C000794069E079F199B1E605F60534618607C
:10415C0059600299039A43469960DA600A990B9A5E
:10416C0019605A601FB03CBC90469946A246AB46BB
:10417C00F0BD9F4200D81DE60022CF4B08F091F80D
:10418C0008F05CF904225242D317801859410023DD
:10419C000E000500009A0800002109F081FB0023A5
:1041AC00040089463000019A00210295039609F01B
:1041BC0077FB002306000F00009A0298002109F0FB
:1041CC006FFB22001C9000230800002112184B41A9
:1041DC00029814001D00019A002309F061FB0200F3
:1041EC000B0012196B411D00140000234A462800D5
:1041FC0092197B41002112184B411A941B9516926F
:10420C001793049B059C1A00A346029C039D994698
:10421C002800002309F044FB002307000E002800AF
:10422C00059A002109F03CFB0023049A089009919F
:10423C00200000210294039509F032FB3C000A0097
:10424C00002300250C90A4185D410021059A0298CA
:10425C0009F026FB089A099B0019694134000025D6
:10426C000E00A4185D4100270023A4197D4107000E
:10427C0000260C9A002192197B4100261A9F1C984B
:10428C000C920D9380197941001969418D4200D827
:10429C009FE0169A179B0124002512196B41169268
:1042AC001793169B05091F070C090C9B0E072E4331
:1042BC0027431D07002416961797149E159F32004E
:1042CC003B00121BAB410124002508920993BB4211
:1042DC0005D8099BBB4200D169E100240025109A46
:1042EC00119B121BAB4114001D000C9A0D9B000777
:1042FC00190716091F09314338430A000300290026
:10430C002000801A994102000B000C920D93A942D7
:10431C0000D9C0E000D1BBE0109A119B0120002114
:10432C009D4200D836E102000B000A9E0B9F1698A6
:10433C001799361A8F410C980D99B61A9F410A9607
:10434C000B9708F06FF800225C4B07F0AAFF0400F3
:10435C000D000898099908F065F802000B00200080
:10436C00290007F077FF04000D003000390008F039
:10437C0059F80022524B07F094FF02000B0020006A
:10438C00290007F067FF129A139B07F06CFF029B42
:10439C00039C029A1F07230714091C43039B002646
:1043AC001D09069A079B12196B41069207930E9BE7
:1043BC000F9C9B197C410E930F94A74200D809E5E2
:1043CC00069C079D01220023A4185D4106940795C5
:1043DC0000E58D4200D064E7844200D861E758E7DD
:1043EC0001204042C117029B039C1B184C410293B5
:1043FC000394039B002B00DB84E60A9C0B9D049822
:10440C00059924184D410A940B95A94200D980E0D6
:10441C0000D17BE00299039A009B019CC918624170
:10442C0002910392002A00DAEBE001204042C1170E
:10443C0036184F4174E60A9CA24200D004E60B9A4F
:10444C00934200D000E6049D059E009BF2046C0B89
:10445C00DB041443720B13430C9D0D9E9E4200D93A
:10446C00C7E400D1FFE00C9A944200D0ECE50D9A21
:10447C00934200D0E8E5089C099D049BDB049D4217
:10448C0000D9B6E400D0DFE5002C00D1DCE5B0E4C7
:10449C00A04200D840E70122002346E7A04200D802
:1044AC0067E5012000216DE5844200D827E5012451
:1044BC00002512196B4122E50000303C0000F0434E
:1044CC000000F047844200D825E6009B019C0120A7
:1044DC00002136184F410299039AC91AA241049B34
:1044EC00059C0B9D029103920A980B99C01AA1414D
:1044FC00AC4254D9029C039D01225242D317A418FA
:10450C005D410A900B910294039509E6A04200D8F4
:10451C0080E7029B039C012000211B184C41029355
:10452C00039477E7964201D0FFF748FC049D059E63
:10453C00009B32012C0F1B011443320F13430A9DB5
:10454C000B9E9E4200D917E600D188E00A9A94424D
:10455C0001D0FFF733FC0B9A9A4201D0FFF72EFCE7
:10456C00049D059E119F2A01BA4200D804E60A94C4
:10457C000B93B346109B119CA9460C930D94149B62
:10458C00159C08930994FFF725FC8D425DD0002201
:10459C000023F5E49D425DD000200021C3E6AC422F
:1045AC0002D10A9A9342A5D80A900B91B8E5089BC0
:1045BC00149A934200D992E68FE6149C089DAC4263
:1045CC0000D9B9E4B6E4019B039A934200D0A7E565
:1045DC00049B059C0A980B998C4200D9A0E547D006
:1045EC00049B059C0021012036184F410A990B9A17
:1045FC00C91AA241002300240A910B92029303943E
:10460C008EE502204042C117049B059C36184F4191
:10461C000A980B99C01861410A900B918C420BD8E7
:10462C0008D00299039A009B019CC918624102911F
:10463C00039275E58342F4D9029B039C012000216F
:10464C001B184C4102930394EBE70C998C4200D954
:10465C0096E49CE7109B9C4200D964E69CE7AC4234
:10466C0000D289E572E7AC4201D2FFF7C2FBFAE651
:10467C00834200D954E5B3E782B0F0B5DE46574625
:10468C004E464546E0B5EBB075933AAB9C463721A8
:10469C00614409090B019B465C46779B8034994623
:1046AC007B9B3E90749274A9102220009A46769EB1
:1046BC007A9F09F0E3F958461022703078A909F076
:1046CC00DDF95B461A6F5B6F0E920F93F023554624
:1046DC00C022DB051D40D205954213D39D4201D16A
:1046EC0000F07DFC5346D9008B0C002000211C935C
:1046FC000023002200270C900D910E900F91149323
:10470C001A9323E05346DA03882371499B00CB1894
:10471C001868149780468A20800084466144086893
:10472C00496884465B68D20B8A4263D90020002119
:10473C000023002700220E900F911A9314935146D8
:10474C0049008B0C1C93149B0D920C932068616890
:10475C00F024109011914946E40521408C46C0216B
:10476C00C9058C4500D2A0E0A44501D100F0ECFBBA
:10477C004B46DC00A40CF8264B46F60500203340D3
:10478C00B34201D100F005FE0021109011910A9066
:10479C000B91F026F605B54261D00E9D0F9E3300AD
:1047AC0013431A0014982843024301D000F0A7FCCD
:1047BC007D9B59461B680A9301230A9A13437D9AE1
:1047CC001360F8230022DB058A64CB6400220023EB
:1047DC000A644B643E984031103209F04FF93E9810
:1047EC006BB03CBC90469946A246AB46F0BC08BCAC
:1047FC0002B018478A4200D189E3674500D18BE3A8
:10480C000E980F9903003B430F001A93174396E73A
:10481C000A980B99B14201D1A04255D88821890040
:10482C0088461E9B43449C461B68984663465B68BF
:10483C009C460A9BA34204D10B9BB34201D100F0CE
:10484C00FCFB49460B9E4C00109811990E43B44644
:10485C0063460A9EA40C06431E4300D18BE71A9BA9
:10486C003B4337D1F8225146D2051140914201D138
:10487C0000F0B7FDF021C9058D4201D100F0ECFB31
:10488C007D9A12680A9204220A9802437D9802606B
:10489C004846524642405846D20FD2070A438364D8
:1048AC00C26400220023594692E74946CC03E10B2F
:1048BC000B9107490A968A268C461E91B6000B99D5
:1048CC00664450CEB142A3D94B465C00A40C52E7CF
:1048DC00508401201C9B0C990D9AE31A9846C12315
:1048EC005B01434428930A9B0B9CA24200D8ADE287
:1048FC000C980D9909F03CF8BF21C90509F007F88F
:10490C00041C0E980F9909F033F8011C201C08F0B8
:10491C00E7FF0A9E0B9F041C3900300009F028F8B1
:10492C00BF21C90508F0F3FF051C1098119909F077
:10493C001FF8011C281C08F0D3FF3300201AC20DED
:10494C000A960B972C923B4301D100F049FC109E28
:10495C00119FDA4B12019B185C681D683200002312
:10496C002000002108F09CFF3200002314901C91C1
:10497C00280000211096119708F092FF00270023C1
:10498C000E00149A8046B6185F4100212A00119837
:10499C0008F086FF02000B0092197B4100261700DD
:1049AC001492159330004246002339008018594167
:1049BC002A0023001A901B910A980B9908F070FF9B
:1049CC00002306000F00119A2000002108F068FF58
:1049DC000023801979411C9A12184B41002115981B
:1049EC0012184B41149215930C990D9A149B159C0B
:1049FC00A24200D9AEE301D101F0F1F8149B0C9A5C
:104A0C00934200D196E3842321229B003892AC4A36
:104A1C001A9C1B9D94466344986859681E921A68A8
:104A2C00DB6822929846020000231C9124900021FE
:104A3C00280008F035FF424607000E00002328002E
:104A4C00002108F02DFF0023249A209021912000B2
:104A5C0000211A941B9508F023FF00253A0000232F
:104A6C000C003690A4185D4140461A9A002108F0BB
:104A7C0017FF02000B0012196B411D0014000023DC
:104A8C003200209E219F280092197B410021121890
:104A9C004B41349435951A9C1B9D2A922B932800DC
:104AAC000023229A08F0FCFE002306000F002800C9
:104ABC001C9A002108F0F4FE0023229A20902191E8
:104ACC00200000211A941B9508F0EAFE0025320004
:104ADC0000230C003290A4185D4100211A9A1C98F6
:104AEC0008F0DEFE209A219B001969413C0000254C
:104AFC000E00A4185D4100270023A4197D41070076
:104B0C000026329A0020B6185F4100233499369A59
:104B1C003296339712184B4112196B4134923593DC
:104B2C009D4200D9B9E300D1B4E3149C159D249A9D
:104B3C0000232800002108F0B3FE2A0007000E0015
:104B4C0000234046002108F0ABFE220000231A90FF
:104B5C001B91249800211494159508F0A1FE0025B2
:104B6C003A0000230C003690A4185D414046149A7C
:104B7C00002108F095FE02000B0012196B411D007C
:104B8C001400002332001A9E1B9F280092197B41AF
:104B9C00002112184B4120922193229B249425959D
:104BAC00149C159D98461A002800002308F078FEE6
:104BBC002A0007000E00002300211C9808F070FE4C
:104BCC00220000231A901B91404600211494159545
:104BDC0008F066FE00253A0000230C008046A4185D
:104BEC005D410021149A1C9808F05AFE1A9A1B9BDE
:104BFC0000196941340000250E00A4185D410027FE
:104C0C004246A4197D410023070000260021B61856
:104C1C005F410022249B3698801859410019694144
:104C2C008D4200D92DE300D128E3329B339C5A46A8
:104C3C0013605460349A359B5C4692197B41002575
:104C4C00A260E36001249F4204D801D101F06BFE05
:104C5C00002400252A9A2B9B001969415E461218E4
:104C6C004B4132617361994200D904E300D1FFE2F8
:104C7C00012200238D4201D800F0A9FF1000190079
:104C8C00209B219C1B184C41180021005B46389A34
:104C9C009861D96194462C9B00229800094BC3580B
:104CAC0058469C44002361468265C3650265436592
:104CBC00289B32915B1A984606E0C046807C012006
:104CCC00508401207C7A01200E9B0F9C5A46594639
:104CDC00136654660C9B0D9C9366D466502410226C
:104CEC005C4460316846149408F0C8FE59462000B4
:104CFC005A465831FEF7DAFF5B46186859680500CA
:104D0C009A68DB680C0015432E001C43264301D126
:104D1C0001F01AF87D9E366837001A9620263E431D
:104D2C007D9F3E604646002E01DA01F0DCFD7C9C46
:104D3C005546A4464C46ED0FE40FA54205D06446FB
:104D4C00013C012C01D800F0E7FE6446032C01D194
:104D5C0000F0E7FE00D88FE1042C01D000F010FF2A
:104D6C0004000D0024184D4126002F00C90F921885
:104D7C005B410A940B950E9C0F9D361BAF410C00AA
:104D8C000C980D99144322000A9C0B9D121A8B410E
:104D9C00012000210C920D93AF4201D800F064FF6A
:104DAC000C9A0D9B121A8B41DC170A920B9325005F
:104DBC001300012000213343001969413C001A0003
:104DCC000B9B1C43224354425441044322000B00CE
:104DDC0059465C46086D496D8018594120656165DE
:104DEC008B4201D900F0ABFE01D100F0A4FE5B4672
:104DFC00DC6D9B6D0C930D944A465346534099467B
:104E0C0000231F004B46DC0FE3070E93D44C0C9B86
:104E1C00A34201D101F074FCC024A401A04500DB25
:104E2C0045E243465C045B46186459640C990D9A40
:104E3C0099640E9B14431C435D465B464035DC6411
:104E4C00102229003E9808F019FEC8E4A24202D1B3
:104E5C00994200D94CE50A990B9A0C9B0D9C9942EE
:104E6C000CD1A2420AD10E990F9A109B119CA2420E
:104E7C0000D93DE502D1994200D939E50A9A0B9B3C
:104E8C001100194300D0E7E20C9A0D9B1100194355
:104E9C0001D100F0FBFE0C980D9907F0C3FA00222B
:104EAC00B04B07F0FEF904000D000E980F9907F0B7
:104EBC00B9FA02000B002000290007F0CBF904001E
:104ECC000D00109811991A941B9507F0ABFA00225B
:104EDC00002307F0BFF922002B0007F0C4F90D9B4B
:104EEC00002B01D102F042FB0E9B0F9C20942A93C5
:104EFC000A9B0B9C14931594109B119C2293239446
:104F0C00002300241C931D941E931F9488E3874256
:104F1C0001D9FFF70BFC70E48A4200D070E40F9AC1
:104F2C00934207D801D0FFF701FC0E9B984501D89E
:104F3C00FFF7FCFB62460E9B0F9F134314921A93D0
:104F4C000A000F43FFF7FBFB84239B009C46864C17
:104F5C00A44463461B680A9363465B681900862366
:104F6C009B009C4664442368984663689C464B4669
:104F7C009C04A40C644500D90AE101D100F04FFE59
:104F8C00B04500D1F6E04B46784C0A9623400B9383
:104F9C00F8244E46F023E4052640DB059E4200D162
:104FAC0045E2A64201D100F0B4FEF8265346F024A7
:104FBC00F6053340E405A34201D1FFF7F9FBB342F8
:104FCC0057D04A465346594653400022DB0FDB0765
:104FDC001C438A6400230022CC64FFF7F9FB842273
:104FEC00614B92009A18116852680A919446862275
:104FFC00920090465246434492040ACB920C14976A
:10500C009A4200D9DDE001D100F00FFEB94200D187
:10501C00C9E05146554B0C9719400D91F823514658
:10502C00DB050B40F021C9058B4200D1EDE10023DB
:10503C0000271C931A93FFF789FB109811998C4544
:10504C0001D9FFF7FEFB01D0FFF73EFC804501D8EC
:10505C00FFF73AFCFFF7F5FB4A46534659465340D7
:10506C000022DB0FDB078A64CB6400220023FFF7EE
:10507C00AFFB0024FFF78DFB002C01D001F0B3F83F
:10508C0004000D0024184D4126002F00C90F921862
:10509C005B410A940B950E9C0F9D361BAF410C0087
:1050AC001443200019000C9B0D9CC01AA1410A9CB2
:1050BC000B9D012200230C900D91AF4204D801D11D
:1050CC0002F046F8002200230C980D993C00801A3F
:1050DC00994133000C4303431C43631E9C415B46C4
:1050EC001B6DCA171C430120130000218018594165
:1050FC00044022005C46646D0C40230068E61C9B57
:10510C004A46E11AC1235B019C4653466144CC4399
:10511C005340C022E417DB0FDB0721409201914280
:10512C0000DB134958460022490419438264C164C8
:10513C00FFF7B7FB159B0D9A934200D063E40E99D1
:10514C000F9A1A9B1B9CA24204D800D05BE4994294
:10515C0000D858E4882322229B00389257E4C0469A
:10516C00C087ADBE0000F04350840120FF3F00FE1D
:10517C00FF2F0000A44500D005E70B0010981199F3
:10518C008B4200D9FFE603D10A9B834200D9FAE691
:10519C004B46002000215C0E63060A900B91109088
:1051AC0011910B93F4E6934200D032E70E980F99CD
:1051BC008C4500D92DE704D10A990300994200D9F6
:1051CC0027E7002300220C920D9353465B0E5B06DF
:1051DC00002000210D9300230E900F9114931DE7D6
:1051EC0012019046974B002198444346119890CB5E
:1051FC000023220008F054FB2200060000231C911F
:10520C001098002108F04CFB0025320000230C0004
:10521C001A90A4185D413800109A0021149708F0D8
:10522C003FFB24184D4110981199002300262700AC
:10523C001A9AB6185F4143469A68DB681A961B9710
:10524C0008F02EFB149A06000F0000230021119881
:10525C0008F026FB0023801979411C9A12184B4147
:10526C002800002112184B4114921593FFF7BCFB38
:10527C00904200D8FCE40120002101E5844200D8D2
:10528C00D3E4209C219D01220023A4185D4120948D
:10529C002195CAE4944200D847E42A982B9901221C
:1052AC000023801859412A902B91FFF73EFC664C45
:1052BC00A04501DD00F099FC84251E9BAD00AA469B
:1052CC001A00524414001268604D1E9262681092CB
:1052DC0086229200924653445C681E6843460A93A9
:1052EC006346A4464C461493BA460C9A0D9BB046A2
:1052FC001C940C9533E0540FA146DC0013944C46DF
:10530C00139DCF002543D40092185B411395129442
:10531C00129C139D12196B414C0F16940024179478
:10532C00169C179D12196B410024CD0F18951994DA
:10533C00C600189C199D12196B41440F0018494165
:10534C002743801979418F4202D805D1864203D96F
:10535C000124002512196B410A9C013C0A949C45BE
:10536C000FD801D190450CD8904501D001F01CFE0E
:10537C009C4501D001F018FE109C8C4201D801F024
:10538C000CFE0A9C0C9DAC42B5D10C920D93304C8A
:10539C0049E500230024002210931194FC23494674
:1053AC00DB051940994213D05146194099420FD050
:1053BC005B46DA645A469864109B119C59461364F8
:1053CC0054643E981022403108F058FBFFF707FA5E
:1053DC007D9B1B680A9301230A990B437D990B60F3
:1053EC00E6E7FC235246DB051A409A4201D100F055
:1053FC0043FC0C990D9A5B469964164B1A401300AA
:10540C005A46D3640E9B0F9CD8E700230C9353464B
:10541C00DB0EDB06002000210D9300230022002769
:10542C000E900F9114931C931A93FFF78FF900238E
:10543C000A934B4600200021DC0EE30610901191DC
:10544C000B93B2E5807C012021300000FF2F00007F
:10545C000000FE5FFFFFFFFD0C980D9906F0E2FFC8
:10546C000022E14B06F01DFF0E9E0F9F04000D0065
:10547C003000390006F0D6FF02000B002000290096
:10548C0006F0E8FE1A901B910A980B9906F0CAFFD9
:10549C000022D54B06F005FF04000D001098119961
:1054AC0006F0C0FF02000B002000290006F0D2FE1F
:1054BC001A9A1B9B06F0D7FE34003B01360F1E4395
:1054CC003B0F1E961F930C9A0D9B16003D001E431E
:1054DC0000D004E51E9E1F9F33003B4301D001F01A
:1054EC0035FB0B9E2301B34201D901F0C8FD00220C
:1054FC00BE4B06F0D6FE06F0A1FF04225242D31793
:10550C0006000F00B6185F41002122002B00380066
:10551C001C961D9708F0C4F922002B0014902091C2
:10552C003000002108F0BCF9002300250E001F00FC
:10553C00149C020036196F41002335000024A41876
:10554C005D4100210023149615972F00260020980A
:10555C00159A350712184B413B0714933109149EC9
:10556C0012070E43300016003B091E4331000A9A05
:10557C000B9B121A8B41002410001900109A119BDE
:10558C0016001F00361BAF411490159122962397DD
:10559C009D4206D901225242D317801859411490CA
:1055AC0015911498159906F03DFF00228E4B06F0CC
:1055BC0078FE04000D002298239906F033FF0200B8
:1055CC000B002000290006F045FE1A9A1B9B06F0E2
:1055DC004AFE1C9C1D9D2B0722091A432B091D9367
:1055EC0023071F9300231C921E930E9C0F9DEA040D
:1055FC00630B1343E4046A0B149D159E964201D968
:10560C0001F0EEF903D19D4201D901F0E9F9149DA5
:10561C009D4201D101F0D4F90E9B0F9C20942A934A
:10562C0006F00CFF2A9F1A901B911A9D1B9E3A00A4
:10563C0000233000002108F033F93A000400002365
:10564C0028002C9100211A951B9608F029F92600A8
:10565C000A00002300272A90B6185F410021209AE7
:10566C001A9808F01DF936184F411A981B993500F5
:10567C00002300242A9AA4185D410C9A0D9B2A94AD
:10568C002B9508F00DF9149C159D0023241A8D41BF
:10569C00209A00211B9808F003F90023241A8D414D
:1056AC002C9AA41A9D413A00002320002900801A4C
:1056BC0099412A9B2B9C149015912299239A0E00A8
:1056CC001700F61AA741944202D80AD18B4208D986
:1056DC001498159901225242D317801859411490ED
:1056EC001591159B002B01DA01F024F81499159AE9
:1056FC000C9B0D9CA24201D901F03CF903D19942BB
:10570C0001D901F037F9149B0C9A934201D101F0A5
:10571C00EDFC1A991B9A1E9B1F9C5B1854411A9303
:10572C001B94A24202D809D1994207D91C981D9901
:10573C0001220023801859411C901D911C9B1D9C1B
:10574C005A469365D4651A9B1B9C13655465149A31
:10575C00159B1100194301D101F01DF81C981D99DE
:10576C0008F006F9BF21C90508F0D1F8041C1A98F5
:10577C001B9908F0FDF8011C201C08F0B1F81C4B1B
:10578C001D9C9C466044C00D1A4B8200D3581A4A8B
:10579C00000110180268416894468268C06884420F
:1057AC0000D848E201332222D31A144A3293944689
:1057BC001B016344986859681E921A68DC680500DE
:1057CC0000232292209102002A900021380008F038
:1057DC0067F82200884600233490002138002C946E
:1057EC0008F05EF80CE0C0460000F0430000303CCE
:1057FC00000080C07C7A0120807C01205084012034
:10580C002A000023249025913000002108F048F84C
:10581C00002500230C00349A3A90A4185D41002115
:10582C0032002C9808F03CF802000B0024982599C3
:10583C0012196B411D0014000023424612184B41F3
:10584C002800002112184B4136943795229D349232
:10585C00359338002A00002308F022F80023209A00
:10586C0038903C913800002108F01AF82A000023E7
:10587C00249025913000002108F012F80025002317
:10588C000C00389A8046A4185D4100213200209803
:10589C0008F006F8249A259B0019694100253C9CC8
:1058AC000E00A4185D4100274246A4197D41002337
:1058BC00070000260021B6185F4100223A98369B5B
:1058CC003896399712184B4112196B413A923B9307
:1058DC009D4202D809D1944207D9349835990122B6
:1058EC0000238018594134903591149C159D002348
:1058FC0028002A9A002107F0D3FF0E002C990700EC
:10590C002A00884600230800002107F0C9FF220066
:10591C000023249025912A9800211494159507F0C2
:10592C00BFFF00253A0000230C003F90A4185D41F6
:10593C004046149A002107F0B3FF02000B00121925
:10594C006B411D00140000233200249E259F28006B
:10595C0092197B41002112184B4136923793229BAE
:10596C003C943D95149C159D98461A0028000023E4
:10597C0007F096FF2A0007000E0000230021209854
:10598C0007F08EFF22000023249025914046002131
:10599C001494159507F084FF00253A0000230C00A1
:1059AC008046A4185D410021149A209807F078FFD6
:1059BC00249A259B00196941340000250E00A41877
:1059CC005D4100274246A4197D41002307000026B3
:1059DC000021B6185F4100223C9B3F98801859412A
:1059EC00001969418D4202D809D1844207D9369CED
:1059FC00379D01220023A4185D4136943795389BBE
:105A0C00399C5A46136054603A9A3B9B5C469219F7
:105A1C007B410025A260E36001249F4204D801D1A0
:105A2C0001F0E8FA00240025349A359B00196941ED
:105A3C005E4612184B4132617361994200D971E193
:105A4C0002D1904200D96DE1012700268D4204D885
:105A5C0001D101F0C3FB002700263A003300369831
:105A6C0037991A9D1B9E8018594102000B0059460C
:105A7C008A61CB61329A289B229F9B1A30003A0094
:105A8C0098460021002307F00BFF2A000400002396
:105A9C003800149100211A951B96229707F000FFED
:105AAC000027220000230E002490B6185F4100212D
:105ABC001A9A209807F0F4FE36184F410025002260
:105ACC003300249C229812196B415C462099226564
