:020000041000EA
:1000000000B5324B212058609868022188439860DF
:10001000D860186158612E4B002199600221596106
:100020000121F02299502B49196001219960352056
:1000300000F044F80222904214D00621196600F024
:1000400034F8196E01211966002018661A6600F04E
:100050002CF8196E196E196E052000F02FF8012189
:100060000842F9D1002199601B49196000215960AB
:100070001A491B48016001219960EB211966A021F2
:10008000196600F012F800219960164914480160C1
:100090000121996001BC002800D000471248134993
:1000A000086003C880F30888084703B5996A0420EC
:1000B0000142FBD001200142F8D103BD02B5186610
:1000C0001866FFF7F2FF186E186E02BD00000240BE
:1000D000000000180000070000035F00212200005C
:1000E000F4000018222000A00001001008ED00E03C
:1000F00000000000000000000000000074B24E7A12
:1001000000200420F7010010C3010010C5010010F9
:10011000C1010010C1010010C1010010C101001097
:10012000C1010010C1010010C1010010C701001081
:10013000C1010010C1010010C9010010CB01001065
:10014000CD010010CD010010CD010010CD01001037
:10015000CD010010CD010010CD010010CD01001027
:10016000CD010010CD010010CD010010CD01001017
:10017000CD010010CD010010CD010010CD01001007
:10018000CD010010CD010010CD010010CD010010F7
:10019000CD010010CD010010CD010010CD010010E7
:1001A000CD010010CD010010CD010010CD010010D7
:1001B000CD010010CD010010CD010010CD010010C7
:1001C00000BE00BE00BE00BE00BE00BE00F051F882
:1001D000103800BEF2EB8871E00200100C03001032
:1001E0003402001090A31AE700202449086006C8D2
:1001F00081F30888104722480068002835D10DA4F3
:100200000ECC002902D000F012F8F9E71D491E4A71
:10021000002000E001C19142FCD11C4988471C49E3
:1002200088471C49884700BEFDE701C901C29A42C0
:10023000FBD370470C030010C0000020E8A800208A
:1002400034AB0010F0A800208CC80020D0CA0010E9
:100250000000042000000420D0CA00100010042078
:10026000001004200000000070470B4800F018F850
:100270000047EFF30580C0B27047000008ED00E0D2
:10028000000000D090C800201C4B0120893D0020B8
:1002900025220020793E0020575600000000000073
:1002A00001B40248844601BC604700BFC15A002027
:1002B00006005250ABB3605344C2002006005250B7
:1002C000861C030254C20020060052505422A29DF4
:1002D00068C2002005005250DE65F468D0CA0010E4
:1002E000D4020010C8020010BC02001074C200202A
:1002F000B002001080C200208CC2002098C20020F2
:0C030000D4C20020E0C2002014C3002082
:10030C00F8B5C0460448054B10B5834203D0044BE6
:10031C00002B00D0984710BD8CC800208CC8002042
:10032C000000000006480749091A8B10C90FC918AC
:10033C0010B5491003D0044B002B00D0984710BDCA
:10034C008CC800208CC800200000000010B5074CA1
:10035C002378002B09D1FFF7D5FF054B002B02D0DA
:10036C00044800E000BF0123237010BDA8C9002081
:10037C0000000000E8A80020054B10B5002B03D0AE
:10038C000449054800E000BFFFF7CCFF10BDC04694
:10039C0000000000ACC90020E8A8002005490A684C
:1003AC0093009B18044A5B001268303A9B180B6050
:1003BC007047C0463CD3002020D300200022014BC4
:1003CC001A6070473CD30020024B1A68024B1A602B
:1003DC007047C0463CD3002058CD00200023094A6A
:1003EC0030B51360084AFA2113600022074D084CFF
:1003FC000848C900EA54E254C25401338B42F9D183
:10040C0030BDC04668D3002018CF002064F7002010
:10041C0088400120A4270120024A136859424B410D
:10042C001360704770CD0020024A136859424B414B
:10043C00136070476CCD002010B50A2007F08AFBC2
:10044C00044B0548196807F08DFC0A2007F082FB65
:10045C0010BDC04634D300207CAC0020F0B5DE4685
:10046C0057464E464546E0B50A2083B007F072FB6E
:10047C00244BFA259846244B28269B46234B244F85
:10048C009A46244BED009946234BEC1843461B5DD2
:10049C00DAB2012B33D0023A531E9A415242B24384
:1004AC0057323B689C4221D05B4651461B5D095D2F
:1004BC0001922022DBB20091210091344846FF3496
:1004CC0007F050FCAC42E1D10A2007F043FB962325
:1004DC0001351B019D42D7D10A2007F03BFB03B02D
:1004EC003CBC90469946A246AB46F0BD5B46514695
:1004FC001B5D095DDBB2019200912A22DCE75222DE
:10050C00CFE7C046A427012064F7002088400120D3
:10051C0018CF002094AC002030F8FFFF0023F0B57A
:10052C004F464646D64694259946194BC0B59A4631
:10053C00184B68279846184E6D0009E001239C461D
:10054C008023E1445B019C464B466544FA2B16D054
:10055C002C003368283C1B5DFF2BEFD049465046DE
:10056C0007F000FC02E00134A542E7D03368185DC7
:10057C0043461B5CBB43F6D007F0ECFAF3E70A20CA
:10058C0007F0E8FA1CBC90469946A246F0BDC0465E
:10059C00B0AC0020D1C40020D8C5002070B50A2012
:1005AC0007F0D8FA094C0A4E25009935FF356268D8
:1005BC0013782A2B03D03000217807F0D3FB0C34AE
:1005CC00AC42F4D1034807F0CDFB70BDDCC5002074
:1005DC00B8AC0020C4AC0020F0B5DE46454657460A
:1005EC004E4601200023E0B5D025CF4C89B0002128
:1005FC004042236002F018FA01202D066B689A1114
:10060C000240944661469B131840C84BC84A186078
:10061C00C84B11601A685B6804920593C64B1A6844
:10062C005B6802920393236801240693C34B9B4699
:10063C00C34B98465B465A461B68013313606A6885
:10064C00521222406B6816005A122240012EF9D128
:10065C00002A03D06B685A122240FBD19A11224017
:10066C009E13924626405A1101962240012900D130
:10067C008AE0012800D127E15146002900D02FE162
:10068C00002803D10199002900D034E10F271F4025
:10069C00002A00D1EDE00720049A1040FA00049ED5
:1006AC00059F7907F7080F4307210F40A5498918C3
:1006BC00CF5D210081403940014180200001A861BB
:1006CC00002900D12CE1802149016961019900299F
:1006DC0028D10298039907260640B446060048071D
:1006EC00F1080143170007208037014095487F1817
:1006FC00C05D664681462000B0404E46304066469E
:10070C00304180263601AE61002800D104E1802002
:10071C00400168618C480068002803D160460728B6
:10072C0000D13FE15A041BD442461268874992001B
:10073C008B5043461B68864A06999B00D150434612
:10074C001F6818688349013005F008FB434619609F
:10075C00814B1A6843461B689A4201D143461F607D
:10076C000120049A059B002112184B410492059319
:10077C00029A039B12184B4102920393069B51461B
:10078C0001330198069355E75146002905D10026FF
:10079C0000270296039704960597012800D1AEE036
:1007AC000199002900D0A6E00F2751461F400029CF
:1007BC0000D16DE7002A5AD119112140FA00079196
:1007CC000720029E30408146029E039F7807F7085F
:1007DC000743072007401000803084462600484617
:1007EC008640BC44310066465648805D4E46884380
:1007FC000799B140664608435249C0B288555249E0
:10080C00096800298ED1494607298BD15349803A72
:10081C000968D719524AFFB25754504A51491268C5
:10082C00885402214D4A5048126881544B4A4B4916
:10083C00126801320A60FA220968D200914200DA89
:10084C0070E7414A14606DE7002900D114E70F27C7
:10085C0051461F40002900D11AE70199002900D008
:10086C0060E7002AA8D05246002A00D113E7FA000C
:10087C002FE707220498059902409446C0084A07BE
:10088C001043072226001040FA006746BE40B146CE
:10089C002C4E1018375C4E461911B7432140079166
:1008AC0039006746079EBE403143264ECFB23754BF
:1008BC00254E3668002E02D16646072E56D0019979
:1008CC00002900D17CE72DE7002EBDD100260027A2
:1008DC0051460296039704960597002900D1CFE65E
:1008EC00802109016961002813D10199002902D1E5
:1008FC000F271F405EE7802109016961A7E7019975
:10090C000029A4D1002000210290039104900591AC
:10091C009DE70F271F40A0E780204001A861F9E662
:10092C0080214901A961D1E678CE002028D300208E
:10093C0024D3002098C8002090C8002034D3002075
:10094C00A4CE00207433012068D30020F4DF0020F3
:10095C0034000120DC050000A8CE002018CF0020B8
:10096C0064F7002088400120A4270120164EC0B255
:10097C003668B4466146154E7054134908681449DC
:10098C000F5402271049086812490F540E49086881
:10099C0001300860FA200F68C00087428FDB0E49D7
:1009AC000C608CE70848803A00685118074AC9B2B5
:1009BC001154054A09491268C95D05488154024A17
:1009CC00044912688C5431E718CF002064F70020DA
:1009DC0088400120A427012068D300207433012013
:1009EC008022F8B5104F114D3B6828001C03104BAA
:1009FC00520019688026091906F0A2FF802376019F
:100A0C005B03E01831000AF077F9681C28220949C9
:100A1C00FF3006F095FF386832000130FF302900B6
:100A2C0000030AF0A9F9F8BD3CD30020A41701205B
:100A3C00D8C500207CD3002070B500250C4807F0E9
:100A4C00DBF80C4EFA20800007F09EF90400431CE2
:100A5C00F8D0200007F07EF80D2C05D06B1C7455D7
:100A6C00262BEFDC1D00EDE70023735570BDC0464F
:100A7C00E0AC00207CD300200B4B0C4810B519685F
:100A8C000B4C0268A1540B4C2468002C01D0013291
:100A9C00026009480068002801D00131196007483C
:100AAC0007F060F910BDC0463CD3002058CD0020A3
:100ABC00743301206CCD002070CD002004AD0020DB
:100ACC0010B5034805F01CF90021030000209847DD
:100ADC005542000010B50C4C0C48216807F042F947
:100AEC00802123684901581CFF3000030AF004F9E7
:100AFC00074807F081F8074B1B68002B02D02368CE
:100B0C000133236010BDC0463CD300201CAD002037
:100B1C0038AD002070CD00209423F0B55746DE464A
:100B2C004E4645465B0099460023E0B583B00193E1
:100B3C00AA4BAB4F9B46AB4B9A46AB4B9846019C92
:100B4C00AA48210007F00EF95B461A682603935D4C
:100B5C00FF2B00D13EE14C464B466825B146283C64
:100B6C001E0002E00134A6420BD05346105D1B5C04
:100B7C00AB43F7D006F0EEFF5B4601341A68A64291
:100B8C00F3D133004E469219994614000023561C9B
:100B9C00974D3B708034FF36002322782B70F92A56
:100BAC0003D841469300CB589F462800914905F045
:100BBC0063F829003800013409F048FFB442EBD146
:100BCC0039008D4807F0CEF80A2006F0C3FF8022CA
:100BDC0052019446019BE14401330193FA2BAED1AF
:100BEC000A2006F0B7FF03B03CBC90469946A246DB
:100BFC00AB46F0BD05222800804906F0A1FED8E7DF
:100C0C00022228007E4906F09BFED2E70222280031
:100C1C007C4906F095FECCE7022228007A4906F0C2
:100C2C008FFEC6E702222800784906F089FEC0E74D
:100C3C0002222800764906F083FEBAE70222280039
:100C4C00744906F07DFEB4E702222800724906F0D2
:100C5C0077FEAEE702222800704906F071FEA8E785
:100C6C00022228006E4906F06BFEA2E7052228003E
:100C7C006C4906F065FE9CE7032228006A4906F0E1
:100C8C005FFE96E705222800684906F059FE90E7BA
:100C9C0005222800664906F053FE8AE70522280043
:100CAC00644906F04DFE84E705222800624906F0EF
:100CBC0047FE7EE706222800604906F041FE78E7F1
:100CCC00052228005E4906F03BFE72E7062228004A
:100CDC005C4906F035FE6CE7052228005A4906F0FF
:100CEC002FFE66E705222800584906F029FE60E72A
:100CFC0004222800564906F023FE5AE70522280054
:100D0C00544906F01DFE54E706222800524906F00D
:100D1C0017FE4EE703222800504906F011FE48E763
:100D2C00052228004E4906F00BFE42E7032228005C
:100D3C004C4906F005FE3CE7032228004A4906F020
:100D4C00FFFD36E703222800484906F0F9FD30E79D
:100D5C0003222800464906F0F3FD2AE70322280067
:100D6C00444906F0EDFD24E704222800424906F030
:100D7C00E7FD1EE705222800404906F0E1FD18E7D3
:100D8C00052228003E4906F0DBFD12E7042228006C
:100D9C003C4906F0D5FD0CE7032228003A4906F041
:100DAC00CFFD06E704222800384906F0C9FD00E70C
:100DBC0004222800364906F0C3FDFAE60822280072
:100DCC00344906F0BDFDF4E606222800324906F04F
:100DDC00B7FDEEE6314806F0C5FFF8E6D8C50020B1
:100DEC00CCD70020D1C4002054AE002040AD002050
:100DFC007434012050AD002040AE0020A8AD00207E
:100E0C0038AE002034AE002030AE00202CAE0020D6
:100E1C0028AE002024AE002020AE00201CAE002006
:100E2C003CAE0020B0AD0020A4AD0020D0AD002021
:100E3C00C8AD0020C0AD0020B8AD002068AD0020CA
:100E4C0060AD00209CAD002094AD00208CAD002046
:100E5C0088AD002080AD002078AD002018AE0020B9
:100E6C000CAE002014AE002008AE002004AE002012
:100E7C00FCAD002000AE0020F8AD0020F0AD00204D
:100E8C00E8AD0020E0AD0020E4AD0020D8AD00209E
:100E9C00DCAD002058AD002070AD002048AD002026
:100EAC00F8B5104B10481E68310006F05BFF0F4F71
:100EBC000F4C3B68350359198022200006F040FD89
:100ECC0031000C4806F04EFF290020003D688031AF
:100EDC0069188022803006F033FD0A2006F03AFEB5
:100EEC00F8BDC0463CD300203CB20020D8C5002041
:100EFC007433012064B2002010B50B4806F032FFA9
:100F0C000A4C80220021200006F014FD084806F04F
:100F1C0029FF200080220021803006F00BFD0A20E2
:100F2C0006F018FE10BDC0468CB2002074330120B0
:100F3C00A0B2002010B5134806F014FF124806F0BA
:100F4C0023FF431C0ED06D2813D00FDC4D2810D07E
:100F5C00502807D10D4806F005FF802200210C48CF
:100F6C0006F0E8FC0A2006F0F5FD10BD7028F1D063
:100F7C00F8E7084806F0F6FE80220021064806F045
:100F8C00D9FCEFE7B4B2002080969800A0B2002004
:100F9C00F43301208CB200207433012010B51A48B0
:100FAC0006F0E0FE194806F0EFFE431C16D06D2843
:100FBC001BD017DC4D2818D050280FD1144B1548D6
:100FCC001C682100240306F0CDFE2100124B803159
:100FDC001C6880221148611806F0B2FC0A2006F049
:100FEC00B9FD10BD7028E9D0F8E7094B0C481C6816
:100FFC00210006F0B7FE084B24031968802209195A
:10100C00084806F09DFCE9E7B4B2002080969800F1
:10101C003CD3002064B20020D8C50020F43301205A
:10102C003CB20020743301201C4BF0B51F681C4BE4
:10103C00C646196880231B4D3C035B0000B51A00A3
:10104C0028000919984606F07BFC80235B039C461C
:10105C00802164442000490109F04EFE39001248F9
:10106C0006F080FE114E80223100280006F068FC4C
:10107C0039000F4806F076FE2800310080228031BE
:10108C00803006F05DFC42462900200009F074FE19
:10109C00084806F0B1FD04BC9046F0BD3CD30020DE
:1010AC00D8C5002034FF0020D0B2002074330120BA
:1010BC00F0B2002014B3002010B5040001F0D4FBF2
:1010CC000123D022A34012069362002100222000AB
:1010DC0001F0B2FB10BDC046F0B5D6464F464646B1
:1010EC0005000C00C0B500238AB0210028009046F2
:1010FC00002205F019F9431E984101236400584061
:10110C00010064088146DC4806F02CFE2800210012
:10111C0005F0AAFD05F002FD0F00060002000B0011
:10112C00D64806F01FFE32003B000020D449029640
:10113C00039705F0A5FD02000B002800210005F027
:10114C008AF8029C039D06000F0000220023200059
:10115C00290005F0E9F800280BD004234A461A436D
:10116C009146200000222900C64B05F06BF8029036
:10117C0003914946C44806F0F5FD3000390005F0EE
:10118C00CDFCBF4B002204000D0005F064F808AA4A
:10119C0009F01AFC0022BD4B04900591089809999E
:1011AC0005F077F805F006F905F0ECF8002206904A
:1011BC00079104980599B24B05F06BF802000B00EF
:1011CC000698079905F03EF805F0F4F8434622001E
:1011DC00587139002B00300005F02BF80022A94B78
:1011EC0005F057F8AA4B06009A460F0022002B0078
:1011FC0000900191504606F0B5FD3000390006967E
:10120C00079705F08BFC9E4B002206000F0005F0A3
:10121C0022F808AA09F0D8FB00229C4B04900591F7
:10122C000898099905F035F805F0C4F805F0AAF806
:10123C00002204000D0004980599914B05F029F843
:10124C0002000B002000290004F0FCFF05F0B2F8AE
:10125C004346320018713B000698079904F0E9FFE9
:10126C000022884B05F015F804000D0032003B00FD
:10127C0000940195504606F075FD2000290005F0FC
:10128C004DFC7F4B002206000F0004F0E4FF08AA7F
:10129C0009F09AFB00227D4B04900591089809995E
:1012AC0004F0F7FF05F086F805F06CF800220690C4
:1012BC00079104980599724B04F0EBFF02000B00A8
:1012CC000698079904F0BEFF05F074F84346320007
:1012DC00D87029003B00200004F0ABFF0022694BC2
:1012EC0004F0D7FF04000D0032003B000094019580
:1012FC00504606F037FD2000290005F00FFC604B2E
:10130C00002206000F0004F0A6FF08AA09F05CFBFF
:10131C0000225E4B049005910898099904F0B9FFDE
:10132C0005F048F805F02EF8002206900791049875
:10133C000599534B04F0ADFF02000B00069807997A
:10134C0004F080FF05F036F843463200987029000F
:10135C003B00200004F06DFF00224A4B04F099FF83
:10136C0004000D0005F0DAFB454B002206000F00CF
:10137C0004F071FF08AA09F027FB0022434B0490EC
:10138C0005910898099904F084FF05F013F804F00E
:10139C00F9FF00220690079104980599384B04F048
:1013AC0078FF02000B000698079904F04BFF05F03C
:1013BC0001F843463200587029003B00200004F02D
:1013CC0038FF00222F4B04F064FF05F0A7FB2C4BD9
:1013DC00002204F040FF08AA09F0F6FA00222B4B79
:1013EC0004000D000898099904F053FF04F0E2FF83
:1013FC0004F0C8FF002206000F0020002900204B3B
:10140C0004F047FF02000B003000390004F01AFF13
:10141C0004F0D0FF434600221870194B0298039930
:10142C0004F019FF08AA09F0CFFA0022174B0400A8
:10143C000D000898099904F02CFF04F0BBFF04F090
:10144C00A1FF002206000F00200029000C4B04F025
:10145C0020FF02000B003000390004F0F3FE04F012
:10146C00A9FF43464A469871DA710AB01CBC9046F3
:10147C009946A246F0BDC04624B3002030B30020EC
:10148C00000024400000594040B3002000003040D0
:10149C0050B30020F0B5D64646464F462023C0B583
:1014AC0094B00AAA13AC138423808379050018091D
:1014BC00984604F067FF0022764B04F0EAFE4346A0
:1014CC0006000F2018400F0004F05CFF02000B0018
:1014DC003000390004F0B6FE04F06CFF0121EA790B
:1014EC00804693100B40114200D1CDE02022227097
:1014FC000C222021013B93430AAA52182D3313705E
:10150C006B7918099A4604F03DFF0022614B04F0F8
:10151C00C0FE0F2306005046184099460F0004F0F9
:10152C0031FF02000B003000390004F08BFE2B79E8
:10153C00089009919A46180904F024FF0022554B93
:10154C0004F0A7FE4A4653461340060018000F004D
:10155C0004F018FF02000B003000390004F072FE9A
:10156C00EB780A900B919A46180904F00BFF0022B5
:10157C00484B04F08EFE4A465346134006001800B2
:10158C000F0004F0FFFE02000B003000390004F0E5
:10159C0059FEAB780C900D919A46180904F0F2FEA6
:1015AC0000223C4B04F075FE4A465346134006009D
:1015BC0018000F0004F0E6FE02000B0030003900AA
:1015CC0004F040FE6B780E900F919A46180904F0C7
:1015DC00D9FE00222F4B04F05CFE4A4653461340C2
:1015EC00060018000F0004F0CDFE02000B003000C6
:1015FC00390004F027FE2D7810901191280904F081
:10160C00C1FE0022234B04F044FE4B462B40060047
:10161C0018000F0004F0B6FE02000B003000390079
:10162C0004F010FE06000F000898099904F0C2FEA1
:10163C00194B050099464346390030000693059432
:10164C0004F0B8FE04901098119904F0B3FE0390C6
:10165C000E980F9904F0AEFE02900C980D9904F0C0
:10166C00A9FE01900A980B9904F0A4FE2B0000909F
:10167C000A49484612AA04F0FFFA484614B01CBCAA
:10168C0090469946A246F0BD6422121A90462D222D
:10169C002DE7C04600002440CCDF002064B30020BE
:1016AC00F0B5DE4645464E465746E0B5804686794F
:1016BC000F2087B0304004F065FE04000D003009A7
:1016CC0004F060FE00227C4B04F0E3FD22002B00B2
:1016DC0004F0B8FD01224346049005911100DB791A
:1016EC0019409B1003911A4200D1DDE00023734C8A
:1016FC000093019443465B799A460F235046184059
:10170C00994604F03FFE4346060048461B790F00FD
:10171C009B46184004F036FE5B4604000D00180989
:10172C0004F030FE0022644B04F0B3FD22002B00C9
:10173C0004F088FD624A634B04F0ABFD5346040091
:10174C0018090D0004F01EFE00225B4B04F0A1FDF5
:10175C0032003B0004F076FD02000B002000290053
:10176C0004F070FD434606004846DB780F009A46AD
:10177C00184004F007FE534604000D00180904F04D
:10178C0001FE00224C4B04F084FD22002B0004F0DF
:10179C0059FD4D4A4D4B04F07CFD32003B0004F0EA
:1017AC0051FD4346060048469B780F009A46184068
:1017BC0004F0E8FD534604000D00180904F0E2FDA6
:1017CC0000223D4B04F065FD22002B0004F03AFD95
:1017DC003F4A404B04F05DFD32003B0004F032FD0B
:1017EC004346060048465B780F009A46184004F0C2
:1017FC00C9FD534604000D00180904F0C3FD002276
:10180C002D4B04F046FD22002B0004F01BFD324A48
:10181C00324B04F03EFD32003B0004F013FD434616
:10182C00060048461B780F009846184004F0AAFDA5
:10183C00434604000D00180904F0A4FD00221E4BC1
:10184C0004F027FD22002B0004F0FCFC244A254B5D
:10185C0004F01FFD32003B0004F0F4FC0B0002000E
:10186C000098019904F015FD039B04000D00002B5A
:10187C001FD1049A059B00201B4904F0DAFC0200DE
:10188C00802000060B1800200B4905F0F9F9020026
:10189C000B002000290004F0FCFC07B03CBC904677
:1018AC009946A246AB46F0BD0023104C0093019420
:1018BC0020E7049A059BE6E7000024400000F0BFF7
:1018CC007B14AE47E17A843F2D431CEBE2361A3F82
:1018DC008DEDB5A0F7C6B03E3A8C30E28E79453E20
:1018EC00BBBDD7D9DF7CDB3D000059400000F03F89
:1018FC00F0B5DE4657464E464546E0B5050083B08A
:10190C000A2006F027F9294B00249B46284E294F24
:10191C00013D12E00F222B789343F02B1CD02100B9
:10192C00380006F01FFA6978300006F01BFA8023A5
:10193C00013401355B009C422DD06307F3D1002CA0
:10194C00EDD0802CEBDCE31098460B3B012BE1D85F
:10195C00584606F007FAE2E7EB1F18009A46FFF725
:10196C0099FD81465046FFF79BFE0B000200414655
:10197C000092019310484A46013906F0F3F923000E
:10198C00283B072BCBD85046FFF78AFE2A000F3A8C
:10199C00FFF7A2FBC3E70A2006F0DCF803B03CBC5F
:1019AC0090469946A246AB46F0BDC04688B300208F
:1019BC00B8B30020B0B300209CB30020F0B5D646DD
:1019CC004F4646468F4DC0B52800FFF791FF0023C8
:1019DC008D4F2E003B708D4B01359A468C4B8D4CA8
:1019EC0099468D4B80369846FF350023327823700C
:1019FC00F92A03D849469300CB589F4651462000FC
:101A0C0004F03AF921003800013609F01FF8B5420C
:101A1C00EBD13900814806F0A5F91CBC90469946DB
:101A2C00A246F0BD02224146200005F089FFE9E7FD
:101A3C00022220007A4905F083FFE3E7022220000E
:101A4C00784905F07DFFDDE702222000764905F09C
:101A5C0077FFD7E702222000744905F071FFD1E728
:101A6C0002222000724905F06BFFCBE70222200016
:101A7C00704905F065FFC5E7022220006E4905F0AC
:101A8C005FFFBFE7022220006C4905F059FFB9E760
:101A9C00032220006A4905F053FFB3E7052220001A
:101AAC00684905F04DFFADE703222000664905F0BB
:101ABC0047FFA7E703222000644905F041FFA1E797
:101ACC0003222000624905F03BFF9BE70322200024
:101ADC00604905F035FF95E7032220005E4905F0CB
:101AEC002FFF8FE7042220005C4905F029FF89E7CE
:101AFC00052220005A4905F023FF83E70522200028
:101B0C00584905F01DFF7DE704222000564905F0D9
:101B1C0017FF77E703222000544905F011FF71E706
:101B2C0004222000524905F00BFF6BE70422200031
:101B3C00504905F005FF65E7082220004E4905F0E5
:101B4C00FFFE5FE7062220004C4905F0F9FE59E73D
:101B5C00062220004A4905F0F3FE53E70522200037
:101B6C00484905F0EDFE4DE706222000464905F0F8
:101B7C00E7FE47E705222000444905F0E1FE41E776
:101B8C0005222000424905F0DBFE3BE70422200041
:101B9C00404905F0D5FE35E7052220003E4905F009
:101BAC00CFFE2FE7062220003C4905F0C9FE29E7AD
:101BBC00052220003A4905F0C3FE23E70522200048
:101BCC00384905F0BDFE1DE705222000364905F019
:101BDC00B7FE17E705222000344905F0B1FE11E7E6
:101BEC0005222000324905F0ABFE0BE70522200050
:101BFC00304905F0A5FE05E7032220002E4905F02B
:101C0C009FFEFFE674330120CCD7002050AD00209E
:101C1C00C0B30020743401203CAE002040AE002044
:101C2C0038AE002034AE002030AE00202CAE0020A8
:101C3C0028AE002024AE002020AE00201CAE0020D8
:101C4C0018AE00200CAE002014AE002008AE002010
:101C5C0004AE0020FCAD002000AE0020F8AD00204A
:101C6C00F0AD0020E8AD0020E0AD0020E4AD002098
:101C7C00D8AD0020DCAD002058AD002070AD0020A8
:101C8C0068AD002060AD00209CAD002094AD00201C
:101C9C008CAD002088AD002080AD002078AD0020F8
:101CAC00D0AD0020C8AD0020C0AD0020B8AD0020E4
:101CBC00B0AD0020A8AD0020A4AD0020F0B5D646F4
:101CCC004F464646994CC0B52168994806F04AF8EB
:101CDC00984D236818032B689C466044FFF708FE58
:101CEC00954805F089FF22682B6812039B181E008B
:101CFC005D1C924B00229A46914B924F9946924B07
:101D0C00924C98463A708036FF3500233278237017
:101D1C00F92A03D849469300CB589F4651462000D8
:101D2C0003F0AAFF21003800013608F08FFEB542FF
:101D3C00EBD13900864806F015F80A2005F00AFFA9
:101D4C001CBC90469946A246F0BD0222414620009A
:101D5C0005F0F6FDE6E7022220007E4905F0F0FDD5
:101D6C00E0E7022220007C4905F0EAFDDAE70222D6
:101D7C0020007A4905F0E4FDD4E7022220007849DE
:101D8C0005F0DEFDCEE702222000764905F0D8FDF5
:101D9C00C8E702222000744905F0D2FDC2E70222F6
:101DAC002000724905F0CCFDBCE7022220007049EE
:101DBC0005F0C6FDB6E7032220006E4905F0C0FD14
:101DCC00B0E7052220006C4905F0BAFDAAE7032212
:101DDC0020006A4905F0B4FDA4E7032220006849FD
:101DEC0005F0AEFD9EE703222000664905F0A8FD34
:101DFC0098E703222000644905F0A2FD92E7032234
:101E0C002000624905F09CFD8CE70422200060490B
:101E1C0005F096FD86E7052220005E4905F090FD51
:101E2C0080E7052220005C4905F08AFD7AE7042250
:101E3C0020005A4905F084FD74E70322200058491C
:101E4C0005F07EFD6EE704222000564905F078FD72
:101E5C0068E704222000544905F072FD62E708226D
:101E6C002000524905F06CFD5CE706222000504929
:101E7C0005F066FD56E7062220004E4905F060FD90
:101E8C0050E7052220004C4905F05AFD4AE706228E
:101E9C0020004A4905F054FD44E70522200048493A
:101EAC0005F04EFD3EE705222000464905F048FDB1
:101EBC0038E704222000444905F042FD32E70522B0
:101ECC002000424905F03CFD2CE706222000404949
:101EDC0005F036FD26E7052220003E4905F030FDD1
:101EEC0020E7052220003C4905F02AFD1AE70522CF
:101EFC0020003A4905F024FD14E70522200038495A
:101F0C0005F01EFD0EE705222000364905F018FDF0
:101F1C0008E705222000344905F012FD02E70322F0
:101F2C002000324905F00CFDFCE6C0463CD30020F5
:101F3C00A8B70020D8C50020B0B7002050AD0020B5
:101F4C00B4B70020CCD700203CAE00207434012064
:101F5C0040AE002038AE002034AE002030AE002061
:101F6C002CAE002028AE002024AE002020AE002095
:101F7C001CAE002018AE00200CAE002014AE0020C9
:101F8C0008AE002004AE0020FCAD002000AE002006
:101F9C00F8AD0020F0AD0020E8AD0020E0AD002051
:101FAC00E4AD0020D8AD0020DCAD002058AD002001
:101FBC0070AD002068AD002060AD00209CAD00200D
:101FCC0094AD00208CAD002088AD002080AD0020A9
:101FDC0078AD0020D0AD0020C8AD0020C0AD0020F1
:101FEC00B8AD0020B0AD0020A8AD0020A4AD0020FD
:101FFC008022F8B51B4B0D001B4F196804030919FF
:10200C0006005200380005F09BFC80235B039C46C5
:10201C00802164442000490108F06EFEEB070BD4CC
:10202C00AB0714D4802239002000520008F0A4FE23
:10203C000E4805F0E1FDF8BD31000D4805F092FEAB
:10204C00802238000B4905F07BFCAB07EAD5310048
:10205C00094805F087FE80220849094805F070FC04
:10206C00E0E7C046D8C5002034FF002014B30020A0
:10207C00D0B2002074330120F0B20020F4330120E0
:10208C00B4FF002010B50F4805F06CFE0E4805F0AB
:10209C007BFE431C14D06D2810D00ADC4D280DD0CB
:1020AC005038414241414900084B1868FFF7A0FFE6
:1020BC0010BD7038414241414900F5E70121F3E779
:1020CC000021F1E7B4B20020809698003CD30020A8
:1020DC00F0B55746DE464E4645462D4BE0B51B68DF
:1020EC0083469946030398462A4B202702249A4696
:1020FC0083B00DE0032C04D108223378013C9343C8
:10210C00337080235B019C46013FE044022F32D0A8
:10211C000621380003F022FE012503004946A540A4
:10212C000833CE18CB5C6DB2AB433370534641468B
:10213C001B6802005B5C1848FF3B59424B41210075
:10214C0000935B4605F00EFE534642461B689B5CB3
:10215C00FF2B02D033781D433570013CCAD27F224D
:10216C003378013F1340337080235B019C46062477
:10217C00E044022FCCD14A4609239373E833D3733E
:10218C0003B03CBC90469946A246AB46F0BDC04657
:10219C00D4C50020D8C50020ECBB0020F0B55746B4
:1021AC00DE4680B5A34F85B03E68B379932B04D03F
:1021BC0005B00CBC92469B46F0BDF379F12BF7D1E0
:1021CC000F22337992461A42F2D150467179F0328D
:1021DC0009010A401B09D518F37818409B4604F0F6
:1021EC00D1F85346B478009001912340180004F0C4
:1021FC00C9F85B4602900391180904F0C3F8002259
:10220C008D4B04F046F8009A019B04F01BF8002259
:10221C00894B04F03EF804F0CDF804F0B3F80090CC
:10222C000191200904F0AEF80022834B04F031F840
:10223C00029A039B04F006F800227F4B04F00BF883
:10224C0002000B000098019903F0FCFF04F0B2F8B7
:10225C0004002900794805F085FD2200210078480A
:10226C0005F080FD472D00DD95E0102DA0DD2B0045
:10227C00113B362B9CD8734A9B00D3589F46DB2CC2
:10228C0000D8D2E00F213A6813798B430B210B4312
:10229C0013718DE7F92CF5D802212000FFF7A8FE69
:1022AC00F0E70F213A6813798B430B210B43137121
:1022BC00F92C00D97CE701212000FFF799FE77E784
:1022CC000F213A6813798B430B210B431371F92CB3
:1022DC0000D96DE703212000FFF78AFE68E70F2184
:1022EC003A6813798B430B210B431371F92C00D9EA
:1022FC005EE72100544805F035FD544B2403196862
:10230C00803480220919524805F01AFB0A2005F086
:10231C0021FC4DE70F213A6813798B430B210B43BA
:10232C001371F92C00D943E721004A4805F01AFD36
:10233C00464B2403196880220919474805F000FB15
:10234C000A2005F007FC33E70F213A6813798B4319
:10235C000B210B431371F92C00D929E721003D48BF
:10236C0005F000FD394F3C4D3B682603991980223E
:10237C00280005F0E5FA2100334805F0F3FC2800AD
:10238C003968803680228919803005F0D9FA0A2004
:10239C0005F0E0FB0CE7952D34D0962D12D151466B
:1023AC003A682E4813798B430B210B43137105F0BC
:1023BC00D9FC80220021264805F0BCFA0A2005F041
:1023CC00C9FBF5E6942D00D0F2E651463A68244854
:1023DC0013798B430B210B43137105F0C3FC1E4C7B
:1023EC0080220021200005F0A5FA1C4805F0BAFC5B
:1023FC00200080220021803005F09CFA0A2005F094
:10240C00A9FBD5E651463A68154813798B430B2145
:10241C000B43137105F0A6FC802200210E4805F039
:10242C0089FA0A2005F096FBC2E62000FFF750FE61
:10243C0028E7C046D4C500200000244000BC002082
:10244C0010BC002020BC002064B20020D8C50020A5
:10245C00F43301203CB2002074330120A0B20020E0
:10246C008CB20020F0B5DE4657464E464546E0B5E8
:10247C0089B0594807AB06AA05A900F00FF9002846
:10248C0003D15549554801F019FE079A069905984C
:10249C00D02400F0C7F8002505F070FC01262406B6
:1024AC00280000F0E1F93300AB40280000220021A5
:1024BC00A362013500F0C0F9172DF1D10C2000F00A
:1024CC00D3F980235B0163620B20A36100F0CCF98C
:1024DC0080231B0163621020A361636100F0C4F9C7
:1024EC0080235B0263621A20A361FEF7E5FD1B20CB
:1024FC00FEF7E2FD1C20FEF7DFFD394808F03EFA3E
:10250C00FA20C00001F0C8F8364805F075FB002130
:10251C00354805F027FC354C80222168344805F0FD
:10252C000FFA0021334805F01DFC21688022803110
:10253C00314805F005FA0A2005F00CFBFA202F4B68
:10254C0080009B462E4B2F4C9A462F4B2F4F994673
:10255C002F4B304E98460A3505F016FC431C34D0F0
:10256C002200002303E001330C32222B25D01178FA
:10257C008842F8D15A4610605A00D3189B00E318D1
:10258C009B6898475146244805F0ECFB43461B6872
:10259C0039685A1E934132680191501E8241524251
:1025AC002A40203202924A46009112685B422B402C
:1025BC0011001A48203305F0D5FBFFF7EFFDFA2088
:1025CC00800005F0E1FB431CCAD105F04BFB14481D
:1025DC0005F0C8FBF1E7C046B01E0400FCBC0020AF
:1025EC009903002030BD00203CB20020D8C500204B
:1025FC007433012064B20020F433012020D3002076
:10260C007CD30020DCC500203CD3002058CD00201A
:10261C0070CD00206CCD00209CBB0020B4BB0020F2
:10262C00E8BB0020F0B583B005000E00140000F0EC
:10263C00ABF9002801D003B0F0BD154F01223B00CF
:10264C0001210097053001F057FD33002A0000945A
:10265C000121104801F03EFF21002800714303F0D6
:10266C00A5FB04000C4B002200930221042001F076
:10267C0043FD2300002201210094052001F03CFDC4
:10268C003B00022200210097062001F035FDD2E725
:10269C00006CDC0200800240001BB700F0B5DE4687
:1026AC0057464E464546E0B5070083B004209B468E
:1026BC000091019201F008FFFA21890003F076FBEA
:1026CC0032238246FF33994686005644B6014C4B62
:1026DC004C4AF318072493420BD901235B429C46C6
:1026EC005346E144F61A4B46002BF0D100205AE039
:1026FC00012421003000614303F058FB874259D07C
:10270C00631E9846012CE8D01D006543300029005B
:10271C0003F04CFB874251D0A31E9846022CE7D005
:10272C002D1B2900300003F041FB874249D0E31EEA
:10273C009846032C4BD02D1B2900300003F036FBA0
:10274C00874246D0231F9846042C48D02D1B2900C5
:10275C00300003F02BFB874243D0631F9846052CB7
:10276C0045D02D1B2900300003F020FB874240D0C0
:10277C00062C42D03000E91F03F018FB06248742D8
:10278C00B7D10029B5D101230724984673019B1BAF
:10279C009B009E19009BF6001E60019B42461C602C
:1027AC005B4601201A6003B03CBC90469946A24699
:1027BC00AB46F0BD0029A3D1A046E7E70029ABD179
:1027CC00E4E70029E2D0E31E9846032CB3D102249F
:1027DC008FE70029DAD0231F9846042CB6D10324A6
:1027EC0087E70029D2D0631F9846052CB9D1042461
:1027FC007FE70029CAD0062CBCD1052479E7C04656
:10280C00508EF4FF50F80C00094A83009446402285
:10281C00634410B51C68C0006240C0241440802280
:10282C00520113431C60034B9C466044416010BD35
:10283C0004C00140004001400A4B80009C46042328
:10284C006044002901D00C230821002A00D10B0080
:10285C00026853400C221A4080235B01184302602B
:10286C007047C04604C001400123D02283401206A9
:10287C0093629361094A8300944640226344196829
:10288C00C0004A40C02111408022520113431960FC
:10289C00034B9C46052360444360704704C00140D1
:1028AC0000400140F8B5EFF3108772B60E4E336856
:1028BC00002BFCD0BFF35F8FCB08C4180725A446B0
:1028CC00C45C01230D40AB4018002040234208D1CA
:1028DC00624623431370BFF35F8F306087F3108819
:1028EC00F8BD100001F0EAFB2C0100D0F8B5CE4683
:1028FC0047468C4680B5EFF3108872B6214D2C6894
:10290C00002CFCD0BFF35F8F9A422CD8D40807213F
:10291C00055D0619012411408C402C421FD0072163
:10292C008946063909E0D408055D06194C460F00A6
:10293C001440A7403C002F4211D001329342F2D2F6
:10294C0001204042BFF35F8F00220E4B1A6088F3C8
:10295C00108800280FDB0CBC90469946F8BD2C4320
:10296C0010003470EEE7BFF35F8F00232B6088F309
:10297C001088012040426346002BECD0089801F0EF
:10298C009DFBC0462C0100D0024B18688007C00F7D
:10299C007047C04600C006400021044B044ABFF3F8
:1029AC005F8F02C39342FAD17047C046000100D03A
:1029BC00800100D0044A1078431CDBB2172B00D9DD
:1029CC00102313707047C04674C7002000B5054B28
:1029DC0083B00100009318221F230348FFF786FFE2
:1029EC0003B000BD64BF002074CE002001238340DF
:1029FC00002904D0034A1360034A13607047034A4A
:102A0C001360FBE780E200E000E100E080E100E021
:102A1C0001228240034B1B681340581E8341D8B2DD
:102A2C007047C04600E100E0002904D0034B186059
:102A3C00034B18607047034B1860FBE780E200E023
:102A4C0000E100E080E100E001238340014A1360D3
:102A5C007047C04600E200E0084B10309B688000D5
:102A6C00C358002B07D0064A00209B1A2F229A42EB
:102A7C004041C0B270470020FCE7C04600ED00E0CA
:102A8C0078C70020024B10309B688000C0587047FC
:102A9C0000ED00E070B50D00EFF3108672B60F4A32
:102AAC001368002BFCD0BFF35F8F0D4B10309B686D
:102ABC0084001B590B4A934203D09D4201D001F074
:102ACC0015FB074B9B681D51BFF35F8FBFF35F8FE7
:102ADC000022024B1A6086F3108870BD240100D0CE
:102AEC0000ED00E0CD010010F0B557464E464546CE
:102AFC00DE46E0B5894683B005001700EFF3108A77
:102B0C0072B65E4A1368002BFCD0BFF35F8F0020B7
:102B1C005B4B18569B4600286DDB5A464400594EB9
:102B2C002418A400331998469B7910351370564B12
:102B3C00AA009B6801929B589C469B1B2F2B29D863
:102B4C00012261469143CB79BB4208D86BE053001C
:102B5C009B189B00F318DD79BD4252D9190006224F
:102B6C008A56002AF3DABD260B1D9B4636024346D5
:102B7C005C46043B1B1B1B05444C5B0D23438B80A9
:102B8C00887141468A714A46414B8E800B60CF71E9
:102B9C008A601BE03F4B9C4542D142463E4B02347F
:102BAC0013803E4B3619043B9E1B3605374B760D76
:102BBC001E433B4B56809380FF23D7719371434642
:102BCC004A469A60012342461A43944661462E4B6C
:102BDC00019A9B689950BFF35F8FBFF35F8F002200
:102BEC00264B1A608AF3108803B03CBC9046994679
:102BFC00A246AB46F0BD01F079FA5B4600201856B0
:102C0C008BE70B1D9B468B8804345B051B155B44C3
:102C1C0036199E1BE0233605760D1B021E43A6E7D4
:102C2C0001F064FAB9E745460B001E489B1B5B415B
:102C3C005843000D184B2B80A31C9C46B44465468E
:102C4C00164B0434043B5B1B1B05104D5B0DAC4653
:102C5C002B43454636196B800B1F9E1B6346A87190
:102C6C0048463605760D1E43094BAE80EF71A860C1
:102C7C000B60434613439C46A8E7C046240100D092
:102C8C00C6D3002078C7002000ED00E000E0FFFF75
:102C9C0001488047CD01001000A1FFFFA8C700200C
:102CAC0000BDFFFFAAAA0000F0B5DE4657464E460F
:102CBC004546E0B50C0083B0EFF3108A72B65A4A61
:102CCC001368002BFCD0BFF35F8F10229146814418
:102CDC004A46564B96009B689D59554B98469D42CB
:102CEC0005D0A54216D0534FEB1B2F2B14D94F4BAD
:102CFC009B689D51BFF35F8FBFF35F8F00224A4BE0
:102D0C001A608AF3108803B03CBC90469946A246E0
:102D1C00AB46F0BD1D00EAE7012383409B465A46B3
:102D2C00454B1B681A4000925A46444B1A60BFF33D
:102D3C005F8F07F0F1FE0190002803D0814501D090
:102D4C0001F0D4F901232A009A4393689C4208D1DC
:102D5C0060E04B005B189B00FB189968A14211D0F6
:102D6C001A00062151560029F3DA009B002B05D0DE
:102D7C005A46334B1A60304B1A60B8E75A462F4B01
:102D8C001A60B4E706215956002922DB4A00501874
:102D9C0080003C188046A0689860E079D8710620C5
:102DAC0020569871A0797F2824D8A488F81A640535
:102DBC00241544440019E0240005400D240220434E
:102DCC00988052181F4B9200BF181A781970BA715C
:102DDC00CBE70199002910D1FF3191711A499180EB
:102DEC0018490A789A71194ADB1B5B415A43120D38
:102DFC000A70BAE7BD200002E2E7154A1549D21A5B
:102E0C00083A5002400D01439980134952080A4375
:102E1C00DA80AAE70621515613000029B6DA019A86
:102E2C00002AEAD14546DBE7240100D000ED00E0A2
:102E3C00CD01001078C7002000E100E080E100E047
:102E4C0080E200E0C6D3002000BDFFFFAAAA00006C
:102E5C00B2C7002000F0FFFF00F8FFFFF8B5012516
:102E6C000400054307F058FE0300EFF3108672B61A
:102E7C0021490A68002AFCD0BFF35F8F1F4A20004B
:102E8C001F49801A40414143090D1E489B00876829
:102E9C0049B2FF58AF421CD00623D3568B421CD0EC
:102EAC001223D3568B4222D01E23D3568B4220D0D2
:102EBC002A23D35603208B4210D0134B1A78197047
:102ECC00A271BFF35F8F00220B4B1A6086F3108840
:102EDC00F8BD82680D48D050EFE7002043001B1866
:102EEC009B00D218FF239371094B9380E5E70120D7
:102EFC00F4E70220F2E7C046240100D078C7002096
:102F0C00AAAA000000ED00E0C6D30020CD010010FD
:102F1C0000BDFFFF054B064A1360064A1360536061
:102F2C009360D3601361536193617047808080809C
:102F3C0000E400E004E400E0D02300B51B061B68AD
:102F4C000100074883B0C018064B002200930523EC
:102F5C00FFF7CCFC002801DB1F23181A03B000BDBF
:102F6C00C0D3002080BF0020024B9C4661448900E6
:102F7C00016070474000003483680B4810B58446EC
:102F8C0061446244090112019A18591854684B683B
:102F9C0001209C4201D802D00020C0B210BD1268A2
:102FAC000B689A42F9D8F7E7FFFFFF0F0A4B196835
:102FBC00EFF3108072B60A68002AFCD0BFF35F8F63
:102FCC001B68BFF35F8F00221A6080F3108840BF2C
:102FDC00002000217047C0465CD30020F8B557464E
:102FEC004E464546DE46E0B5434D81468A466A6804
:102FFC00EFF3108872B61368002BFCD0BFF35F8F11
:10300C002E68B47B002C3ED0670033683F19033F19
:10301C00DA195378B373002B00D1F3730023937038
:10302C0053701370A968354A8C464946A218120190
:10303C0062441160514651603149D36091603268ED
:10304C00D219937053701370737B9B46002B35D041
:10305C0022001900B068736898473268002820D0A5
:10306C005B4658465B005B44D719033BB870D118DC
:10307C00D35C002B00D07B705B460C7073735C458B
:10308C001DD0002626E06B68BFF35F8F1C6088F3B1
:10309C001088012040423CBC90469946A246AB4663
:1030AC00F8BD5B465B005B44033BD3189C70D119A5
:1030BC00D25D002A00D05A705B460B7074734A467E
:1030CC005346287D00F060FC061EDAD021002868EB
:1030DC0000F0A0FEEB686A681B19013B1B78BFF37C
:1030EC005F8F0021116088F310880020002ED2D150
:1030FC0018022043CFE7C046C0C70020FFFFFF0FD8
:10310C006D2D0020F8B5574645464E46DE46E0B5D7
:10311C0099460CAB19780DAB1B78050090469A4676
:10312C000768002912D1BE7B002E45D074003B6885
:10313C00A419033C1B195A783100BA73002A00D128
:10314C00FA7300229A705A701A7003E00E004C0049
:10315C006418033C2C4B00229C46AB6861449C4693
:10316C004346090161440B604B464B600A9B8B60E4
:10317C000B9BCB603B681B199A705A701A707B7B47
:10318C009B46002B2CD032005946B8687B68984778
:10319C003A68002817D05B4658465B005B4414190C
:1031AC00033BA070D118D35C002B00D063705B463E
:1031BC000E707B73B34514D030003CBC90469946DE
:1031CC00A246AB46F8BD5B465B005B44033BD318A1
:1031DC009E701119125D002A00D05A705B460B705C
:1031EC007E7342464B46287D00F0CEFB041E06D073
:1031FC005346002B03D13100286800F00BFE0E9BC8
:10320C00002BD9D01C70D7E7FFFFFF0FF0B5DE46BF
:10321C004E46574645460023E0B58DB00A936B4B9E
:10322C008200D3580B90994600239B464B4607933C
:10323C0000F020FB079C06000F006268EFF310857E
:10324C0072B61368002BFCD022000794BFF35F8F7B
:10325C002468637B9946002B67D092685C4B904640
:10326C004B441B01984443461A685B6810001900D4
:10327C00801BB94100295FDD0B9800F085FB002312
:10328C000026984600279A46079C6368BFF35F8F19
:10329C005A461A6085F310885346002B08D1002833
:1032AC00C6D10DB03CBC90469946A246AB46F0BD8B
:1032BC000A9B414618024B461843D0470890099187
:1032CC006268EFF3108572B61368002BFCD007947C
:1032DC00BFF35F8F0899099A002A48DB114303D08A
:1032EC00079B1B69002B5DD1079B1B68DA7B002AAF
:1032FC0007D051008A1819688C4649466244033A33
:10330C0051704A46DA734B46079A013BD168CA5C46
:10331C000132CA545B46079A13615368BFF35F8F3F
:10332C005A461A6085F3108882E7002300269846D7
:10333C0000279A460020A7E7002901D100289BD13D
:10334C000021200000F0C8FC43461E685F689B68A3
:10335C00079A9A464346DB689846D3684B44013B30
:10336C001B780A931B020343136100208CE723692B
:10337C00002BB9D033003C005B1A94411A00230097
:10338C00A74219D89F421BD05946049101210391A1
:10339C004946029141460191514607980091FFF729
:1033AC00B1FEB7E700F066FA089A099B06000F0019
:1033BC0092197B419942E5D901225242D317E3E796
:1033CC009642E1D901225242D317DDE740D30020C7
:1033DC00FFFFFF0F10B5124C6368002B04D00A21BD
:1033EC001048FFF7C1FD10BD23000F4A10212068C3
:1033FC0000F090FB032000F031FA032000F036FBC4
:10340C0003200A4900F07AFAFFF7D4FA084B9C46DD
:10341C00032360442375074B80006060DC60DEE7AB
:10342C00C0C700205CD30020392D0020CD2F0020F8
:10343C004000003440D3002000487047C0C7002033
:10344C00F0B557464546DE464E46E0B585B001938D
:10345C0010AB1B7800270393002380469A460092FA
:10346C0043465A68EFF3108972B61368002BFCD0F0
:10347C00BFF35F8F43461D68AC7B002C4FD06600BA
:10348C002B683619033E9B195A78AA73002A00D16F
:10349C00EA7342469F705F701F709268524B94465D
:1034AC000099019AE3181B01634419605A600E9A43
:1034BC009A600F9ADA602B689B199F705F701F706F
:1034CC006B7B9B46002B46D022001900A8686B68CA
:1034DC0098472A68002831D05B4658465B005B440D
:1034EC009619033BB070D118D35C002B00D07370CD
:1034FC005B460C706B735C452ED04346DB681B1926
:10350C00013B187843465B68BFF35F8F1F6089F3FC
:10351C0010885346002B2ED10002204307E05B6835
:10352C00BFF35F8F1C6089F310880120404205B007
:10353C003CBC90469946A246AB46F0BD5B465B0050
:10354C005B44033BD3189C709119925D002A00D008
:10355C005A705B460B706C734346187D009A019B46
:10356C0000F012FA82460028C7D0434621001868A2
:10357C0000F050FCC1E7039B002B32D00E9B0020C7
:10358C000F999847030004000D000B4329D0002924
:10359C000DDA0098019902000B00121BAB41994205
:1035AC0015D81AD000920193039B9A4658E700F065
:1035BC0061F902000B00A4185D4120002900009065
:1035CC000191AB4203D8EFD100998A42ECD9012387
:1035DC005B42DC1700930194E6E700999142E1D934
:1035EC00F5E70020A3E7C046FFFFFF0FF0B504008E
:1035FC000D0006267642F717C64636196F4100B500
:10360C008F4213D810D000F035F932003B00121A5B
:10361C008B41002B14DC002B37D02900200000F04C
:10362C005DF904BC9046F0BD8642ECD9002600271B
:10363C0000F020F932003B00121A8B41002BEADD1E
:10364C0030003900FFF7CAFC0028E6DB002398465F
:10365C00BC460F4A0F4F7B6A9C4504D8B96A8E4210
:10366C00DBD99C45D9D11168EFF3108072B60B6889
:10367C00002BFCD0BFF35F8F1368BFF35F8F414605
:10368C00196080F3108820BFE5E7002AC5D0D7E782
:10369C005CD300200040054070B5060000F0EAF84D
:1036AC00FA2204000D00002330000021920004F0E7
:1036BC00D7F8001969418D4205D802D0FFF796FF63
:1036CC0070BD8442FAD901204042C117F6E7C046CA
:1036DC00F8B5CE46474680B506000C00FFF77EFCD9
:1036EC0000280CDC2D4B0020596A8C4203D89B6AB5
:1036FC000130B34245D30CBC90469946F8BD20BF6F
:10370C00274D6A68EFF3108772B61368002BFCD054
:10371C00BFF35F8F2B68C1B29C465B7B8B4235D06D
:10372C00FF2303405A009146624612689944904622
:10373C004A464244033A9278002A1DD0EA68000AAD
:10374C0090464344013B1B78C0B2834221D06B6846
:10375C00BFF35F8F00221A6087F310880F4A002096
:10376C00536A9C42C7D8926A0130B242C3D2E41A5F
:10377C00601E8441E0B2BEE72B699842E7D12A6112
:10378C00E5E7641A601E8441E0B2B4E7FF2303400E
:10379C00D4E7604600F03EFBD9E7C0460040054048
:1037AC00C0C70020F0B5D6464F464646C0B5EFF32D
:1037BC0005833F22134018001038EFF3108C72B6BB
:1037CC00204D2A68002AFCD0BFF35F8F0122110024
:1037DC0081401D4C884661631C4917000E788A464F
:1037EC003100C1400F400A4215D019498200646A69
:1037FC0051588C4219D3174BD25843469E435346CB
:10380C001E70BFF35F8F00232B608CF31088002A8F
:10381C0006D0904704E0BFF35F8F2F608CF31088C5
:10382C001CBC90469946A246F0BD0B4A9B009046A4
:10383C0043441A681A60BFF35F8F00232B608CF32C
:10384C001088EDE7280100D000400540C9D30020C6
:10385C006CD300205CCD0020D03F054010B501009A
:10386C00024A0348FFF71EF810BDC0469CBF00205B
:10387C00C5D30020034B596A0A00986A596A8A42D8
:10388C00FAD170470040054070B504000D00124A93
:10389C00536A1900966A536A8B42FAD130001900A8
:1038AC0024184D41AB4211D80ED02B000A494A6A5C
:1038BC009A42FCD307D1084A02E0516A994202D1DC
:1038CC00916AA142F9D370BDA642EED9012301241D
:1038DC006442E5175B42E9E700400540064A536A3B
:1038EC009942FCD807D1044B02E05A6A914202D1AA
:1038FC009A6A8242F9D370470040054070B50400C3
:10390C000D00EFF3108672B61A4A1368002BFCD028
:10391C00BFF35F8F002D1BD02000FFF7B3F81649C3
:10392C0081420AD02000FFF7B5F801212000FFF7F3
:10393C005DF80123A340114A1360114BA400E5501C
:10394C00BFF35F8F00220B4B1A6086F3108870BD9B
:10395C000B4BA200D5500122A2400A4920000B7843
:10396C0093430B700449FFF79FF900212000FFF7E8
:10397C003DF8E5E7280100D06535002038600540AA
:10398C005CCD0020C9D30020F0B54F46D646464644
:10399C00C0B50700304C616A0D00A66A616AA94285
:1039AC00FAD18B4208D805D001201CBC9046994610
:1039BC00A246F0BDB242F7D9EFF3108972B6274890
:1039CC0001680029FCD0BFF35F8F01252449BD405D
:1039DC008C460978204C0E002E438846F1B28A465C
:1039EC00614650460870391D1E48890065630A51AE
:1039FC00B9000B50216A0020294219D0616A0800D5
:103A0C00A66A616A8142FAD18B4219D801D1B242BD
:103A1C0016D8C2451DD0104B1F201D625D630123BB
:103A2C000740BB40104A1E381360634642461A706A
:103A3C00BFF35F8F0022094B1A6089F31088B4E73B
:103A4C000020BFF35F8F0022044B1A6089F31088AB
:103A5C00ABE70120ECE7C04600400540280100D050
:103A6C00C9D300206CD3002080E200E010B5EFF346
:103A7C00108472B60A490B68002BFCD0BFF35F8F21
:103A8C0001238340074A0848136202789A43027064
:103A9C00BFF35F8F00230B6084F3108810BDC0460A
:103AAC00280100D000400540C9D3002070B50500A6
:103ABC000E001400002924D0002A24D080686B68E2
:103ACC009847296800280ED063001B197200033B2D
:103ADC009219CB18033A9E7088188A5C002A14D16C
:103AEC00047030000EE073009B196200033B121946
:103AFC00CB18033A9C7088188A5C002A00D05A7044
:103B0C000670200070BD0800FCE75A70047030008D
:103B1C00F8E7C04630B583600023CCB24373013361
:103B2C00047342608373C4730D000068012C06D9C2
:103B3C00421C0133DBB2137003329C42F9D1FF21DA
:103B4C0029404B005918002340180338437030BDEE
:103B5C00F8B5CE46474606000C0080B5002907D0C4
:103B6C004D0003686D18033D5A195778002F04D186
:103B7C0020000CBC90469946F8BD7900C919033950
:103B8C0088464344597889460021597051707368AE
:103B9C003A002100806898473368002814D04246C8
:103BAC009A18947059195B5D002B00D053700F70EC
:103BBC00270049463000FFF7CBFF390002003000E8
:103BCC00FFF774FF0400D3E7424641465D19AF701E
:103BDC009A185B5C002B00D06B701470E9E7C04640
:103BEC00F0B557464546DE464E46E0B50D006B0037
:103BFC0001685B19DF1E0400C85D83B00192CA190D
:103C0C0000284CD043001B18033BCB185E78B446FD
:103C1C00002E16D1019E002E3ED0E67B002E04D045
:103C2C0073009B19CB18033B5D70E57300282FD1F3
:103C3C000023537003B03CBC90469946A246AB4659
:103C4C00F0BD72006244033A89184A78904600220B
:103C5C004A7091465A70010032002000FFF726FF8F
:103C6C0043468246002B07D05B0021684344033B4C
:103C7C00CB185A78002A16D1424651462000FFF73D
:103C8C0015FF2168019BCA19002BC6D10028CFD083
:103C9C0043001B18033BCB1800219970C8E7019B0C
:103CAC00002BBAD1C4E750008018033809184878A3
:103CBC00834648464870587041462000FFF7F6FE90
:103CCC00594680462000FFF743FF41460200200082
:103CDC00FFF7ECFE8046CFE7F0B54E464546DE4694
:103CEC005746E0B5467B040075000068AD19033DEE
:103CFC0083B00191415D421900294ED04B005B18F5
:103D0C00033BC3185F78BC46002F18D1019D002DD2
:103D1C0040D0E57B002D04D06B005B19C318033B2E
:103D2C005E70E673002931D100233000537061734B
:103D3C0003B03CBC90469946A246AB46F0BD7A0017
:103D4C006244033A801842789346002242709146AE
:103D5C005A7020003A00FFF7A9FE5B468046002B04
:103D6C0007D05B0021685B44033BCB185A78002AD0
:103D7C0017D15A4641462000FFF798FE019B0100DF
:103D8C0020684219002BC4D10029CDD04B005B1800
:103D9C00033BC31800209870C6E7019B002BB8D1D9
:103DAC00C2E7500080180338091848788246484604
:103DBC004870587059462000FFF778FE53468346EA
:103DCC00002B07D05B0021685344033BCB185A7877
:103DDC00002A06D1594652462000FFF767FE83465B
:103DEC00C7E7500080180338091848464F784870C8
:103DFC00587051462000FFF759FE390081462000CB
:103E0C00FFF7A6FE494602002000FFF74FFE824650
:103E1C00E0E7C04670B5040000292CD0437B8B42F0
:103E2C002ED0056848004018033828188278002ADC
:103E3C0021D053009B18033BEA5CEE188A4202D156
:103E4C001BE0002A08D053009B18033BEB185A7850
:103E5C008A42F6D142785A70002301228370437053
:103E6C002000FFF7BDFE617B02002000FFF71EFE65
:103E7C006073012000E0002070BD43783370EBE7E5
:103E8C0001221900FFF7ACFE60730120F4E7C04675
:103E9C0010B50400FEF78EFD01002000FFF764F85A
:103EAC00FF232371BFF35F8F10BDC04610B5040014
:103EBC00FEF780FD01002000FFF756F8FF23A380DA
:103ECC00BFF35F8F10BDC04610B504000120FEF794
:103EDC007DFD034BC3189B002360BFF35F8F10BDA8
:103EEC0040000034F8B5040006200D0000F0ECFA98
:103EFC00002845D02B4B2C49E3185A4253418022C1
:103F0C00D20394465B421340284A63441360284A08
:103F1C00136018008A689043FBD1224B8021E31870
:103F2C005A425341234A5B0049000620995200F043
:103F3C00CBFA2900C00001F039FFC30921D1402779
:103F4C000122260080256262A36200232C36AD017B
:103F5C0035432B60062000F0B7FA3900800001F0E1
:103F6C0025FF6023E26A53406E221A4080235B01D6
:103F7C0033431A60104B236310232B600D3BA36457
:103F8C00F8BD0E4A934203D900230D4F0D4AD8E7D2
:103F9C007F221040013040089F011A003F18030097
:103FAC00CFE7C0460080FCBF00C0004000E00040EE
:103FBC0000F000405848012001030000FEFF000003
:103FCC00C0FF3F00FFFF00002C4B2D4A70B51A605C
:103FDC002C4A2D4B2D491A6010008B689843FBD14D
:103FEC002B4C2C4B9C4209D2013B1D1BAD080135BF
:103FFC00AD002D1908CC9847AC42FBD100F006F966
:10400C00254A214B1A60214A9368DB018033FBD18E
:10401C004022224B224C234D9A675A671A67DA6664
:10402C00AC4208D223682000002B21D00834FFF7C3
:10403C003DFFAC42F6D31C4C1C4DA168C02228009D
:10404C0003F07EFCA560FEF7A7FCFEF763FFFFF70D
:10405C00C1F9174C174B9C4209D2013B1D1BAD08F3
:10406C000135AD002D1908CC9847A542FBD170BD88
:10407C000834FFF70DFFAC42D4D3DCE700E000407E
:10408C00BFCDFBFEFE7F3C0000F0004000C00040B6
:10409C0074C8002084C80020FFFFFF0100F001401D
:1040AC0064C8002074C8002000ED00E0000000206F
:1040BC0084C800208CC8002000BEFDE70FB400B5FA
:1040CC00084883B003F098FD049B002B07D005A98A
:1040DC001800019101F0F4FD034803F08DFD00BEC2
:1040EC00FDE7C046C0BF0020B0B7002010B50148A6
:1040FC00FFF7E4FFD0BF0020F0B54546DE4657463B
:10410C004E46E0B583B001920C9A050088469A425F
:10411C0000D974E01A0E93461E0230000023594653
:10412C000C9A01F085FE374B6C009C466419A40078
:10413C00644463680700834200D260602B1FDBB2CB
:10414C009946012B35D9C02380229B0123431201B0
:10415C001A602D4BAD0059599A46002905D0586963
:10416C0001F024FE01300138FDD1019A236852017F
:10417C005340E0221A4080235B0123431A604A46D5
:10418C00012A2FD9802380229B01234312011A601C
:10419C00300000233A005946676001F049FE53464F
:1041AC005851012003B03CBC90469946A246AB4600
:1041BC00F0BD4346012BC6D1C02303229B012343F0
:1041CC001A60023AA3681A42FCD0019A2368520181
:1041DC005A40E0231A4080235B0123431A600A4AA9
:1041EC00AD00924642462168514003220A401A60B3
:1041FC00012243469A40A3681A42FCD0C2E7002031
:10420C00D0E7C046008000407CCE002030B50C20AA
:10421C0083B000F0B3F9FEF7B7FB00280ED0944B37
:10422C00944A1A605A609A60DA601A615A619A610B
:10423C00DA611A62904A5A6203B030BD8F4CA067A3
:10424C0000F0F0F901228E4B1A60636C012BFCD14B
:10425C0003228C4B1A60894A936B012BFCD10133DE
:10426C000121894A89480093043300F033F905236E
:10427C00874A00930121874800F02CF9864B5A6835
:10428C00FF2A02D8802252005A608022784C7D4B43
:10429C0021691201804D1A60002905D0606901F076
:1042AC0085FD01300138FDD1E0217B4B02201A68DD
:1042BC001140802252012A431160196848400321A1
:1042CC000140116004219A681142FCD080228021A7
:1042DC0092012A4309011160802252005A606F4BEF
:1042EC0023616F4B5968FF2900D85A6003226C4830
:1042FC00634B01211A60020093681942FCD0E0253F
:10430C0013681D4080235B0103431D6012684A4003
:10431C000321114019600221614A93681942FCD0B3
:10432C00802380219B0103430901196080215D4B8F
:10433C004900516063615C4B5A68FF2A00D8596090
:10434C0080225A4BE1691201574D1A60002905D0A1
:10435C00606901F02BFD01300138FDD1E02252499A
:10436C000B681A4080235B012B431A608023802248
:10437C009B012B4312011A6080223E4B52004A6073
:10438C00E3614B4B5968FF2900D85A608022494B96
:10439C00216A1201464D1A60002905D0606901F0AE
:1043AC0005FD01300138FDD1E02241490B681A406E
:1043BC0080235B012B431A60802380229B012B43BB
:1043CC0012011A60802380225B004B60294BD202C1
:1043DC002362394B5968914200D25A608022374B84
:1043EC00616A1201344D1A60002905D0606901F030
:1043FC00DDFC01300138FDD1E0222F490B681A4059
:10440C0080235B012B431A60802380229B012B436A
:10441C0012011A608023DB024B60174B6362284B3E
:10442C005A68FF2A02D8802252005A608022254BFB
:10443C00A1691201224D1A60002905D0606901F0B2
:10444C00B5FC01300138FDD1E0221D490B681A4042
:10445C0080235B012B431A60802380229B012B431A
:10446C0012011A6080235B004B600E4BA361E3E6E4
:10447C007CCE0020006CDC021BB7000000800040EA
:10448C003CB0004030B00040002F68590080024022
:10449C00008C864700C0024030800040001BB700F3
:1044AC003C800040405973075480004054B0004099
:1044BC006080004060B000406C8000406CB00040F8
:1044CC004880004048B00040014B8000C058704705
:1044DC007CCE0020F8B504000C2017001D000E0047
:1044EC0001F064FC4101091A8B01591AC900091821
:1044FC008901380001F05AFC069A2B04120313436D
:10450C002268002A21DB194AA21851424A41802113
:10451C0049018C4652420A40154962440A601549C9
:10452C000A60154917008D68AF43FBD1C021221DCD
:10453C008901114321222660A0600A602268002AAA
:10454C00FCDAE36008230B60F8BD3F2221680A40C7
:10455C00B242D8D1A2681205120D8242D3D1EE21FB
:10456C00E268C9020A409A42CDD1EDE70040FDBF96
:10457C0000E0004000F0004000C000408023024AF0
:10458C009B000343D36270470080054010B51400B4
:10459C0080221B4BD2051A6000281AD00123194A1D
:1045AC001843194BDA61194A42401A6259629862EF
:1045BC008022134BD2051A601549164A1160E0226D
:1045CC00D2041A60002C07D18022134B12061A60F9
:1045DC0010BD0D4BD861EBE780236201121B9200DA
:1045EC00121912015B049A4200D30C4A0C4B1A604C
:1045FC00054B5A608022084BD2051A60E8E7C0468A
:10460C0000B00540D3C007B0008005402D3FF84FE7
:10461C00FCFF01000820014000A00540FFFFFF0047
:10462C0030D30020AA23064A1B0113602F2305490F
:10463C00D360054B19605368002BFCDA7047C046F9
:10464C000040024000B0FA00006002409A4200D2E2
:10465C00885470477047C046F8B557464E46DE46FC
:10466C004546E0B51F000A9B05009B460D9B0E00BE
:10467C00914692469B0718D10B9B0C9A934214D2ED
:10468C0013000B9AB8469B1A4B444C460F0006007D
:10469C001D0022004346013439002020B047AC42B3
:1046AC00F7D1AA4635003E0047460B9B002B38D06D
:1046BC009A441C00D04653461A1B5B46013C185DBD
:1046CC0031003B00A847002CF5D10D9B9B0721D551
:1046DC0043464A469C1A0C9BA3421BD93A009A4665
:1046EC004F469146E2194B46310020200134A84731
:1046FC005445F7D343460C99DB1B0133B9460022D2
:10470C00994203D343464A1E4A44D21A4346904622
:10471C000133984440463CBC90469946A246AB4671
:10472C00F8BDD046D1E7C046F0B54F464646D64612
:10473C00C0B584B098460EAB1B78129F9946944630
:10474C000D9C109B119EBA0725D4002E69D19C425A
:10475C0000D3C2E001223A4092461F2C00D9BBE0A4
:10476C000C9A551E302201E0202C03D001342A551E
:10477C00A342F9D85246002A0DD0B4420BD21F2CBA
:10478C0062D80C9A551E302201E0202C5CD00134EA
:10479C002A55B442F9D1FA0635D57A055DD4002CE8
:1047AC0057D10F9B102B00D17CE00F9B022B00D11B
:1047BC008DE030230C9A012413704B46002B27D02C
:1047CC002D230C9A135501340C9B624600930397CE
:1047DC00434602960194FFF73FFF04B01CBC904681
:1047EC009946A246F0BDBB0663D4202CECD00C9BA2
:1047FC001A19013478231370202CE5D030220C9B2D
:10480C001B191A700134202CDED04B46002BD7D14B
:10481C007B0735D43B07D7D520230C9A135501348D
:10482C00D2E7012215003D40AA463A4220D04A4622
:10483C00002A2AD10C323A4227D19C429DD21F2CFD
:10484C0000D88DE7202E19D92024FA06BCD57A057C
:10485C0003D4A3421BD0A64219D00F9B102BC2D05D
:10486C00022BC9D1202CAFD00C9B1B19013440E07A
:10487C009C4200D38FE71F2C00D871E720248AE7D5
:10488C002B230C9A135501349EE7013ED5E7631E8A
:10489C00012C00D185E70F9A102A20D0022A25D0AE
:1048AC001C00ABE7BB060DD478230C9A01241370C3
:1048BC00A4E7202C00D187E758220C9B1B191A70F7
:1048CC00013499E758230C9A0124137096E70C9A3B
:1048DC0060330124137091E7202400265BE7023C2F
:1048EC00BA06E9D40C9A12191C0083E70C9A92466A
:1048FC00534462221A707FE710B5002800D110BD16
:10490C0003F028F9FBE7C0460B0010B5002802D0D5
:10491C0049681B68984710BDF0B5DE4657464546BA
:10492C004E46E0B59BB09B46249B0A909846259B2F
:10493C000B910C924046424619009A4601F00FFD2D
:10494C00002800D0E8E00122404651467F4B5242FD
:10495C0001F000FD002800D0DEE001224046514667
:10496C007B4B524201F0E0FC002800D0D4E0002246
:10497C0000234046514601F0D7FC002800D0CAE184
:10498C005346C14609938023289ADB001A400E92A5
:10499C00289A1A4201D1062326934C46099B23439D
:1049AC0000D0D9E0289B002600271B0500D4AEE1DF
:1049BC0000230D93269B19000D9B994200DCB0E15E
:1049CC00C81A431E26938023289ADB001A4300231F
:1049DC00002528920D93279B0024AB4200D95C1B29
:1049EC000223289A1A400E92289A134203D06B4243
:1049FC006B415B421C400D9B002B07D0484609992C
:104A0C0032003B0001F027FC814609910022002373
:104A1C004046514601F088FC002805D08020000655
:104A2C008446099961440991289A4A4B0A9E13407D
:104A3C004A460493269B0B990293099B039400927C
:104A4C00019330005B460C9A884600F0A1F90400F3
:104A5C00002D72D0289B220098061F23C017984364
:104A6C0041465B466530B0470D9B671CDA179C18B6
:104A7C00DB0F98466B1E99460025544001E0202D13
:104A8C0013D00AAA94461F23200063440A2101353F
:104A9C005E1901F08BF93031317020000A2101F0E0
:104AAC0085F926000400092EE9D8052306934B4608
:104ABC000593002304930A33039343463A000A9E5A
:104ACC000B9F029312AB009339005B4630000195AB
:104ADC00FFF72AFE0E9B0400002B2ED00C9B279A6E
:104AEC00C51AAA4229D93C0081469846170043466C
:104AFC0021005A1920205B460135B047AF42F6D849
:104B0C004C460C992798631A01330022984200D323
:104B1C000AE10134141910E0289B42460493279BA8
:104B2C000B990393269B0A98029353460092019388
:104B3C005B460C9A00F02CF9040020001BB03CBC26
:104B4C0090469946A246AB46F0BDC046FFFFEF7FAC
:104B5C00FFFFEFFFFFF7FFFF764B099D9C466800B8
:104B6C00400D604401F00EFC734A744B01F091FB54
:104B7C00734A744B01F066FB2B03734A1B0B1A43ED
:104B8C0006000F00714B110048460022099501F0F8
:104B9C0050FB6F4A6F4B01F07CFB02000B003000A6
:104BAC00390001F04FFB01F005FC0D9001F0EAFB20
:104BBC00694A6A4B04000D0001F06BFB0022684B44
:104BCC0001F040FB01F0F6FB664A0600664B200044
:104BDC00290001F05EFB040030000D000F9601F07F
:104BEC00D1FB624A624B01F054FB02000B00200027
:104BFC00290001F01EFB02000B0006000F0001F063
:104C0C0048FB320004000D003B003000390001F07D
:104C1C0019FB002210901191564B2000290001F035
:104C2C001AFB0022544B01F00DFB02000B0020007C
:104C3C00290001F010FB0022504B01F003FB020095
:104C4C000B002000290001F006FB0D008021320032
:104C5C003B000400C905002001F0EBFA02000B0038
:104C6C002000290001F0EEFA02000B0010981199B7
:104C7C0001F0F1FA0022344B01F0E4FA404A0F9BA8
:104C8C009446634400221B0501F003FB06000F0051
:104C9C0002000B004846099901F046FB00280AD097
:104CAC000D9B3000013B39000D930022324B01F07B
:104CBC00D2FA06000F00C6250D99330063318D42E0
:104CCC00AD4128996D420435090500D483E63B4378
:104CDC0000D16FE6099C484621002A4A2A4B01F074
:104CEC0031FB002808D0002248462100274B01F058
:104CFC001BFB002800D05DE6269B002B00D16AE64A
:104D0C000E9B5A1E9341269AD31A269363E60023D0
:104D1C0004250D935FE680231B065344C14609937B
:104D2C0031E6002326934EE60A008446013A62449B
:104D3C00121BEEE601FCFFFFFB799F501344D33F9F
:104D4C00B3C8608B288AC63F0000F03F0000F83FD4
:104D5C0061436F63A787D23F71A379094F930A40D0
:104D6C000000E03F1655B5BBB16B0240EF39FAFEBF
:104D7C00422EE63F00002C4000002440000018406A
:104D8C00FF0300002D431CEBE2361A3F80842E41BA
:104D9C00F0B54E46DE4657464546E0B597B09946C7
:104DAC00209E219F229B8346984607910C923B00A4
:104DBC0032003000390001F0D2FA002800D0C1E1F5
:104DCC00012230003900CA4B524201F0ADFA0028E2
:104DDC0000D0E0E0012230003900C64B524201F015
:104DEC00B9FA002800D0B6E0002230003900C24BDE
:104DFC0001F0B0FA002800D098E000223000390011
:104E0C00BE4B01F091FA002800D08FE00022002365
:104E1C003000390001F088FA002800D0B0E00023FF
:104E2C000D93249B5B0501D40623984608AB9C4646
:104E3C001722002430234146624404E00134135508
:104E4C000139202C01D00929F8D8884630003900C6
:104E5C0001F0B0FA4346DA00A94B05009B181A681A
:104E6C005B680892099301F08DFA02000B00300088
:104E7C00390001F0DEF9089A099B01F00AFA0A9050
:104E8C000B9101F0BBFA824601F078FA02000B009C
:104E9C000A980B9901F0CDF900229A4B0A900B91CC
:104EAC0001F058FA002800D1C0E001239C46E244EE
:104EBC00504601F063FA02000B000898099901F0C2
:104ECC0039FA002802D000239A4601354346002BBC
:104EDC0069D008AB17269C4608956644554614E0E5
:104EEC0001235B4243440A2128009A4600F05EFFEE
:104EFC00013430313719397028000A2100F056FF7F
:104F0C00092D00D8D5E0D0460500202CE8D103238C
:104F1C00249A1340012B00D100E10EAB9846249B40
:104F2C0001940393239B029343461EE0249B584613
:104F3C000493239B00960197039343460C9A029388
:104F4C0007994B46FFF7E8FC17B03CBC90469946D6
:104F5C00A246AB46F0BD249B5B070ED403226A4BE2
:104F6C0024990192039123990291009358464B4640
:104F7C000C9A0799FFF770FBE6E70422634BEFE707
:104F8C003B0032000020002101F053F90123060000
:104F9C000F000D9345E7249B0393239B029304235B
:104FAC0001935B4BE1E7280001F0ECF902000B00E8
:104FBC003000390001F03DF9524B002206000F0081
:104FCC0001F0B2F90EAB984600280AD1002230004D
:104FDC0039004C4B01F0BEF9002802D1EB0700D58B
:104FEC000135202C32D008AA94461723280063449C
:104FFC000A2101341E1900F0B1FE30312800317045
:10500C000A2100F0ABFE051EEBD10323249A1340BA
:10501C00012B00D191E01F2C00D980E70D9B002BB8
:10502C003BD02D2342461355013478E700220A98D1
:10503C000B99344B01F078F9002800D046E7534621
:10504C00002B67D101239C46E2443FE70323249ABB
:10505C001340012B00D062E7239B002B00D15EE7AD
:10506C000D9B002B03D1249A0C33134202D0239BAB
:10507C00013B2393239B9C42CDD208AB9C46172229
:10508C00302362441F2C06D82399013413558C42CB
:10509C00C1D0202CF8D1202441E7249B5B0721D4DC
:1050AC00249B1B0700D43AE72023424613550134B6
:1050BC0035E75746089D202C37D02200302140463A
:1050CC00002F08D00132B154202A43D0D3431B19EE
:1050DC001B18002BF6D10EAB98462E234146541CC0
:1050EC008B547EE72B2342461355013417E7C046F9
:1050FC00FFFFEFFFFFFFEF7F65CDCD4165CDCDC14C
:10510C00D8C100200000E03FDCBF0020E0BF002041
:10511C00ECBF0020DB0700D4D8E693E7239B002BE1
:10512C0000D1FAE60EAB98469AE70323249A134073
:10513C00012B00D0F1E60EAB9846239B002B00D13F
:10514C0069E78DE7249B0393239B0293032301932D
:10515C00064B0AE70323249A20241340012B00D08A
:10516C00DBE6239B2024002BDCD1D6E6E8BF002015
:10517C00F0B5DE464E4657464546E0B59FB01C009E
:10518C00289B93460993CF4ACF4B894608901A60C7
:10519C00002900D116E2002320789A46002800D17D
:1051AC0018E226001D004C460AE02A006F1C5B46E4
:1051BC00089D2100A8473D000136307800287AD0A0
:1051CC002528F2D110239A46083B9946043B984671
:1051DC00023B00219C46721C107816000300203BF9
:1051EC00DBB2102B03D8B94F9B00FB589F46030032
:1051FC00303B092B3CD900230A932A2800D171E0BB
:10520C00002398462E2847D00300683BDBB2122BB4
:10521C001FD8AF4A9B00D3589F4601230132194334
:10522C00DAE7634601321943D6E7434601321943A4
:10523C00D2E7534601321943CEE74B4601321943AC
:10524C00CAE770786C2800D1BFE280235B00194359
:10525C0001360300253BDBB2532BA6D89D4A9B009D
:10526C00D3589F4680235B00707819430136F0E7D2
:10527C0000270300B800C01901364000C01833786D
:10528C0030381A00303A0700092AF3D90A9018006E
:10529C00002398462E28B7D180237078DB00194361
:1052AC000300303B721C092B00D895E12A2800D151
:1052BC00A6E11600A8E7A146AA462C00D34503D8C0
:1052CC0001235B425B449A465B46524649460020AA
:1052DC00089DA84720001FB03CBC90469946A246AA
:1052EC00AB46F0BD099B40CB0A96002E03DB5078F1
:1052FC000993561C84E72838014370420A9009939D
:10530C005078561C7CE7782800D1D4E1582800D17D
:10531C0068E26F2800D152E3622800D1D8E1102353
:10532C000A009A430B92692801D000F0A2FC0A23D0
:10533C000C934B0500D4D5E101230B9A9A430B92A5
:10534C00692800D1CEE1642800D1CBE10B9A8023EF
:10535C0011009B0019408A461A4200D032E3802388
:10536C0011005B00194089461A4201D000F002FC82
:10537C0013005B0600D510E30B9B1B0601D400F059
:10538C006EFC099B04CB1204120C924609935346F3
:10539C00002B00D064E30B9A1033110099430B914E
:1053AC00520500D45CE3002399460B9B06930A9BA1
:1053BC000593434604930C9B03930023DEE2707821
:1053CC00682800D107E280230136194341E7802386
:1053DC009B007078194301363BE7462800D174E1F5
:1053EC000722099B0491073393430A9A19000392ED
:1053FC00424602920CC908980092019309912A0026
:10540C005B462100FFF7C4FC01360500D5E6099B7D
:10541C001A0008CA9146002B00D105E12122114344
:10542C008A460EA884461F216144099500220F2745
:10543C00A4460D0002E0202A0CD00B003C001C40BE
:10544C0020003730092C00D807380132A85419092C
:10545C000F2BF0D86446099DF0E08B0700D4D1E106
:10546C00099B2A0099466B1C98464B4601CB2100A0
:10547C009946089F5B46C0B2B8470A9B9C46654458
:10548C00012B00D890E2B2465E464746A846089DDE
:10549C003A003300013721002020A8474745F7D1B7
:1054AC00B3464B4656463D000993013685E62A0025
:1054BC006F1C5B46089D21002520A84701363D0046
:1054CC007BE6C046314F00202CD30020F4BF0020D7
:1054DC0038C0002084C00020099B04CB9946434669
:1054EC000992002B00D097E013789C46002B00D13A
:1054FC00B3E302235B425A1C099B924618000A9F95
:10550C000B92504402E0834200D169E15A78013396
:10551C00002AF8D1099A0A979B1A0B9380230A0048
:10552C00DB001A400C92194204D00B9B434501D965
:10553C0043460B9302231A000A400D920B4200D1F2
:10554C0084E16046002823D00C9B002B00D124E181
:10555C00A844C246099B57465B1B9846089BB2461B
:10556C002A0026005C469B4609E023003100551CAE
:10557C00D8474346585D002800D13FE12A009742A6
:10558C00F3D1A3463D00340056460D9B002B69D049
:10559C000B9B0A99A846994264D98C466544ED1A2E
:1055AC00089B47469A46B04626005C463A002300C4
:1055BC00013731002020D047AF42F7D1A346340049
:1055CC0046464FE0D24B2078089300239A46002899
:1055DC0000D0E6E5002471E6434606000A9F9800D9
:1055EC00C0180132400080191678030030003038A2
:1055FC00303B0928F3D93000984616000A9703E689
:10560C00099B023604CB9046D2434046D217104039
:10561C00804609933078F7E513789C46002B00D12F
:10562C001AE34346013B66E710220800904311320F
:10563C00104382460022490500D4F2E653460693F5
:10564C0008230593434604931023039300230293EA
:10565C0016AB019200932A005B4621000898FFF7D5
:10566C0063F805004B4601360993A6E5202302009A
:10567C009A43472A04D180231B01194302239843E0
:10568C00452801D1202319430722099B0491073394
:10569C0093430A9A19000392424602920CC9089845
:1056AC000092019309912A005B462100FFF734F91F
:1056BC000136050081E510230C930C230A009A4354
:1056CC000B924B0500D43BE636E62023194387E6C4
:1056DC0002230C930B910B996428EED10B9B5B0569
:1056EC0000D529E60B9A802311009B0019408A46AD
:1056FC001A4200D0CEE0802311005B00194089468D
:10570C001A4200D0DBE113005B0600D51DE10B9BB8
:10571C0009991B0600D499E208C91BB2D8171A18AC
:10572C00424092B209919246DA0F1292002B09D1A3
:10573C00802310220B99DB000B4091430B91002B23
:10574C0000D012E10B9A6123920600D541230EA9D9
:10575C001F228C46DBB262440A3B57461395A24685
:10576C004D460C9CB1460D9316000AE03033DBB26B
:10577C0001357355A74200D21CE1202D00D119E14F
:10578C0007002100380000F011FBCBB20929EDD93C
:10579C000D9A94466344DBB2EAE7099B5F465B1BB8
:1057AC0098460A9BB3469A462600089C2A003B0062
:1057BC003100A04743460135585D0028F6D15346C9
:1057CC0034000A935E46BB46DFE6C0239B00B078EC
:1057DC00194302363DE5C023B0781943023638E54B
:1057EC000A979BE60C230A009A4314331A4310239E
:1057FC000B920C934B0500D4A8E59DE5A346340011
:10580C005646C2E60A9A012A00D82EE26B1E9F1851
:10581C00089BB046994626005C462A0023000135B9
:10582C0031002020C847BD42F7D1A346340046467C
:10583C00099B3A0001CB210098467D1C5B46089FD2
:10584C00C0B2B847434601360993B6E40B9A0A989E
:10585C00531C904200D80AE243199B1A1F00089B64
:10586C00B24626005C469B462A00230001353100D7
:10587C002020D847BD42F7D10A9BA34601330B9396
:10588C00099B34001B7856469C466046002800D085
:10589C005AE6E7E60722099B073393430132944605
:1058AC009C4462465F6809921A68FB171093119327
:1058BC0010981199030053400E930B007B400F93EB
:1058CC0094460E9A0F9B121A8B410E920F93FB0F5C
:1058DC006246129300233A439A463DD00B9A6123B9
:1058EC00920600D541230022DBB20EA90A3B8C465E
:1058FC0091460D9343461F326244139515964D46BF
:10590C000E9E0F9FA14690460C9C14930FE0C04630
:10591C00154400203032D2B2434601355A55BA45AF
:10592C0000D17CE1202D00D17CE106000F0022008B
:10593C0000233000390000F07BFAD2B2092AE9D9F1
:10594C000D9B9C466244D2B2E6E7FF23099904C939
:10595C0013401A000991E6E60B9A10331100994393
:10596C000B915205BAD5002399460B9B06930A9BC3
:10597C000593434604930C9B0393129B02934B4653
:10598C00019316AB2A00009321005B460898FEF7A2
:10599C00CBFE01360500FFF710FCFF22099B02CB62
:1059AC0011408A460993F2E44B4645460993013669
:1059BC00FFF703FC4E465446A946139DD5E7082332
:1059CC000C9387E60722099B0733934301329446D5
:1059DC009C44624609921A685B6810009A46130050
:1059EC005246134307D10B9A1033110099430B9174
:1059FC00520500D5D7E40B9A6123920600D54123BA
:105A0C000022DBB20EA90A3B8C4691460D9343460D
:105A1C001F32624457461295A2464D460400B146C9
:105A2C0090460C9E13930DE03032D2B243460135B2
:105A3C005A550023BB4200D1FDE0202D00D1FDE0E2
:105A4C0004000F00320000232000390000F0F0F9B0
:105A5C00D2B2092AE8D90D9B9C466244D2B2E5E742
:105A6C000B9A6123920600D54123DBB20EA90A3BA7
:105A7C001F228C460D932300624454461295170046
:105A8C004D469A46B1460C9E08E03033DBB20135E8
:105A9C007B55B4420ED3202D0CD0040031002000D5
:105AAC0000F084F9CBB20929EFD90D9A94466344DE
:105ABC00DBB2ECE74E465446A946129D75E4099BB1
:105ACC001A0008CAD91713925A184A409146DA0F8D
