:020000041000EA
:1000000000B5324B212058609868022188439860DF
:10001000D860186158612E4B002199600221596106
:100020000121F02299502B49196001219960352056
:1000300000F044F80222904214D00621196600F024
:1000400034F8196E01211966002018661A6600F04E
:100050002CF8196E196E196E052000F02FF8012189
:100060000842F9D1002199601B49196000215960AB
:100070001A491B48016001219960EB211966A021F2
:10008000196600F012F800219960164914480160C1
:100090000121996001BC002800D000471248134993
:1000A000086003C880F30888084703B5996A0420EC
:1000B0000142FBD001200142F8D103BD02B5186610
:1000C0001866FFF7F2FF186E186E02BD00000240BE
:1000D000000000180000070000035F00212200005C
:1000E000F4000018222000A00001001008ED00E03C
:1000F00000000000000000000000000074B24E7A12
:1001000000200420F7010010C3010010C5010010F9
:10011000C1010010C1010010C1010010C101001097
:10012000C1010010C1010010C1010010C701001081
:10013000C1010010C1010010C9010010CB01001065
:10014000CD010010CD010010CD010010CD01001037
:10015000CD010010CD010010CD010010CD01001027
:10016000CD010010CD010010CD010010CD01001017
:10017000CD010010CD010010CD010010CD01001007
:10018000CD010010CD010010CD010010CD010010F7
:10019000CD010010CD010010CD010010CD010010E7
:1001A000CD010010CD010010CD010010CD010010D7
:1001B000CD010010CD010010CD010010CD010010C7
:1001C00000BE00BE00BE00BE00BE00BE00F051F882
:1001D000103800BEF2EB8871E00200100C03001032
:1001E0003402001090A31AE700202449086006C8D2
:1001F00081F30888104722480068002835D10DA4F3
:100200000ECC002902D000F012F8F9E71D491E4A71
:10021000002000E001C19142FCD11C4988471C49E3
:1002200088471C49884700BEFDE701C901C29A42C0
:10023000FBD370470C030010C0000020A0AE0020CC
:10024000ECB00010A0AE00205CD30020A8D50010B8
:100250000000042000000420A8D500100010042095
:10026000001004200000000070470B4800F018F850
:100270000047EFF30580C0B27047000008ED00E0D2
:10028000000000D060D30020385601203D430020FC
:10029000692400202D440020575600000000000073
:1002A00001B40248844601BC604700BF756000206D
:1002B00006005250ABB3605304CD002006005250EC
:1002C000861C030214CD0020060052505422A29D29
:1002D00028CD002005005250DE65F468A8D5001036
:1002E000D4020010C8020010BC02001034CD00205F
:1002F000B002001040CD00204CCD002058CD002091
:0C03000094CD0020A0CD0020D4CD002022
:10030C00F8B5C0460448054B10B5834203D0044BE6
:10031C00002B00D0984710BD5CD300205CD300208C
:10032C000000000006480749091A8B10C90FC918AC
:10033C0010B5491003D0044B002B00D0984710BDCA
:10034C005CD300205CD300200000000010B5074CEB
:10035C002378002B09D1FFF7D5FF054B002B02D0DA
:10036C00044800E000BF0123237010BD80D400209E
:10037C0000000000A0AE0020054B10B5002B03D0F0
:10038C000449054800E000BFFFF7CCFF10BDC04694
:10039C000000000084D40020A0AE002005490A68AB
:1003AC0093009B18044A5B001268303A9B180B6050
:1003BC007047C0461CDE002000DE00200022014BEE
:1003CC001A6070471CDE0020024B1A68024B1A6040
:1003DC007047C0461CDE002030D800200023094A9C
:1003EC0030B51360084AFA2113600022074D084CFF
:1003FC000848C900EA54E254C25401338B42F9D183
:10040C0030BDC0464CDE0020F4D90020480201204B
:10041C006C4B012088320120024A136859424B412F
:10042C001360704748D80020024A136859424B4168
:10043C001360704744D8002010B50A2007F064FE02
:10044C00044B0548196807F067FF0A2007F05CFEAB
:10045C0010BDC04614DE00202CB20020F0B5DE46E4
:10046C0057464E464546E0B50A2083B007F04CFE91
:10047C00244BFA259846244B28269B46234B244F85
:10048C009A46244BED009946234BEC1843461B5DD2
:10049C00DAB2012B33D0023A531E9A415242B24384
:1004AC0057323B689C4221D05B4651461B5D095D2F
:1004BC0001922022DBB20091210091344846FF3496
:1004CC0007F02AFFAC42E1D10A2007F01DFE96236B
:1004DC0001351B019D42D7D10A2007F015FE03B050
:1004EC003CBC90469946A246AB46F0BD5B46514695
:1004FC001B5D095DDBB2019200912A22DCE75222DE
:10050C00CFE7C04688320120480201206C4B012005
:10051C00F4D9002044B2002030F8FFFF0023F0B5DE
:10052C004F464646D64694259946194BC0B59A4631
:10053C00184B68279846184E6D0009E001239C461D
:10054C008023E1445B019C464B466544FA2B16D054
:10055C002C003368283C1B5DFF2BEFD049465046DE
:10056C0007F0DAFE02E00134A542E7D03368185DEB
:10057C0043461B5CBB43F6D007F0C6FDF3E70A20ED
:10058C0007F0C2FD1CBC90469946A246F0BDC04681
:10059C0060B2002091CF002098D0002070B50A20C6
:1005AC0007F0B2FD094C0A4E2500A535FF356268EF
:1005BC0013782A2B03D03000217807F0ADFE0C34D1
:1005CC00AC42F4D1034807F0A7FE70BD9CD00020CC
:1005DC0068B2002074B20020F0B5DE46454657469E
:1005EC004E4601200023E0B5D025CF4C89B0002128
:1005FC004042236002F0F2FC01202D066B689A1138
:10060C000240944661469B131840C84BC84A186078
:10061C00C84B11601A685B6804920593C64B1A6844
:10062C005B6802920393236801240693C34B9B4699
:10063C00C34B98465B465A461B68013313606A6885
:10064C00521222406B6816005A122240012EF9D128
:10065C00002A03D06B685A122240FBD19A11224017
:10066C009E13924626405A1101962240012900D130
:10067C008AE0012800D127E15146002900D02FE162
:10068C00002803D10199002900D034E10F271F4025
:10069C00002A00D1EDE00720049A1040FA00049ED5
:1006AC00059F7907F7080F4307210F40A5498918C3
:1006BC00CF5D210081403940014180200001A861BB
:1006CC00002900D12CE1802149016961019900299F
:1006DC0028D10298039907260640B446060048071D
:1006EC00F1080143170007208037014095487F1817
:1006FC00C05D664681462000B0404E46304066469E
:10070C00304180263601AE61002800D104E1802002
:10071C00400168618C480068002803D160460728B6
:10072C0000D13FE15A041BD442461268874992001B
:10073C008B5043461B68864A06999B00D150434612
:10074C001F6818688349013005F0E2FD43461960C3
:10075C00814B1A6843461B689A4201D143461F607D
:10076C000120049A059B002112184B410492059319
:10077C00029A039B12184B4102920393069B51461B
:10078C0001330198069355E75146002905D10026FF
:10079C0000270296039704960597012800D1AEE036
:1007AC000199002900D0A6E00F2751461F400029CF
:1007BC0000D16DE7002A5AD119112140FA00079196
:1007CC000720029E30408146029E039F7807F7085F
:1007DC000743072007401000803084462600484617
:1007EC008640BC44310066465648805D4E46884380
:1007FC000799B140664608435249C0B288555249E0
:10080C00096800298ED1494607298BD15349803A72
:10081C000968D719524AFFB25754504A51491268C5
:10082C00885402214D4A5048126881544B4A4B4916
:10083C00126801320A60FA220968D200914200DA89
:10084C0070E7414A14606DE7002900D114E70F27C7
:10085C0051461F40002900D11AE70199002900D008
:10086C0060E7002AA8D05246002A00D113E7FA000C
:10087C002FE707220498059902409446C0084A07BE
:10088C001043072226001040FA006746BE40B146CE
:10089C002C4E1018375C4E461911B7432140079166
:1008AC0039006746079EBE403143264ECFB23754BF
:1008BC00254E3668002E02D16646072E56D0019979
:1008CC00002900D17CE72DE7002EBDD100260027A2
:1008DC0051460296039704960597002900D1CFE65E
:1008EC00802109016961002813D10199002902D1E5
:1008FC000F271F405EE7802109016961A7E7019975
:10090C000029A4D1002000210290039104900591AC
:10091C009DE70F271F40A0E780204001A861F9E662
:10092C0080214901A961D1E650D9002008DE0020C0
:10093C0004DE002068D3002060D3002014DE0020E9
:10094C0080D90020583E01204CDE0020D8EA00203F
:10095C00180B0120DC05000084D90020F4D90020FC
:10096C00480201206C4B012088320120164EC0B287
:10097C003668B4466146154E7054134908681449DC
:10098C000F5402271049086812490F540E49086881
:10099C0001300860FA200F68C00087428FDB0E49D7
:1009AC000C608CE70848803A00685118074AC9B2B5
:1009BC001154054A09491268C95D05488154024A17
:1009CC00044912688C5431E7F4D900204802012004
:1009DC006C4B0120883201204CDE0020583E012057
:1009EC008022F8B5104F114D3B6828001C03104BAA
:1009FC00520019688026091907F07CFA80237601C9
:100A0C005B03E01831000AF04FFC681C28220949EE
:100A1C00FF3007F06FFA386832000130FF302900E0
:100A2C0000030AF081FCF8BD1CDE002088220120A6
:100A3C0098D0002060DE002070B500250C4807F02F
:100A4C00B5FB0C4EFA20800007F078FC0400431C28
:100A5C00F8D0200007F058FB0D2C05D06B1C7455FA
:100A6C00262BEFDC1D00EDE70023735570BDC0464F
:100A7C0090B2002060DE002010B501F0F7FE10BD32
:100A8C000B4B0C4810B519680B4C0268A1540B4C5D
:100A9C002468002C01D0013202600948006800284B
:100AAC0001D001311960074807F036FC10BDC04673
:100ABC001CDE002030D80020583E012044D80020F5
:100ACC0048D80020B4B2002010B5034805F0F2FB62
:100ADC0000210300002098475542000010B50C4C33
:100AEC000C48216807F018FC802123684901581C28
:100AFC00FF3000030AF0D8FB074807F057FB074B01
:100B0C001B68002B02D023680133236010BDC04644
:100B1C001CDE0020CCB20020E8B2002048D8002017
:100B2C009423F0B55746DE464E4645465B00994643
:100B3C000023E0B583B00193AA4BAB4F9B46AB4B64
:100B4C009A46AB4B9846019CAA48210007F0E4FB5F
:100B5C005B461A682603935DFF2B00D13EE14C46A1
:100B6C004B466825B146283C1E0002E00134A642E3
:100B7C000BD05346105D1B5CAB43F7D007F0C4FAA7
:100B8C005B4601341A68A642F3D133004E469219E3
:100B9C00994614000023561C974D3B708034FF3649
:100BAC00002322782B70F92A03D841469300CB58A6
:100BBC009F462800914905F039FB29003800013483
:100BCC000AF01EFAB442EBD139008D4807F0A4FBB1
:100BDC000A2007F099FA802252019446019BE144C5
:100BEC0001330193FA2BAED10A2007F08DFA03B032
:100BFC003CBC90469946A246AB46F0BD0522280067
:100C0C00804907F077F9D8E7022228007E4907F0DF
:100C1C0071F9D2E7022228007C4907F06BF9CCE786
:100C2C00022228007A4907F065F9C6E7022228005B
:100C3C00784907F05FF9C0E702222800764907F0EF
:100C4C0059F9BAE702222800744907F053F9B4E7BE
:100C5C0002222800724907F04DF9AEE70222280063
:100C6C00704907F047F9A8E7022228006E4907F0FF
:100C7C0041F9A2E7052228006C4907F03BF99CE7F3
:100C8C00032228006A4907F035F996E70522280067
:100C9C00684907F02FF990E705222800664907F00C
:100CAC0029F98AE705222800644907F023F984E72B
:100CBC0005222800624907F01DF97EE7062228006C
:100CCC00604907F017F978E7052228005E4907F01C
:100CDC0011F972E7062228005C4907F00BF96CE762
:100CEC00052228005A4907F005F966E70522280075
:100CFC00584907F0FFF860E704222800564907F02E
:100D0C00F9F85AE705222800544907F0F3F854E79C
:100D1C0006222800524907F0EDF84EE7032228007E
:100D2C00504907F0E7F848E7052228004E4907F03C
:100D3C00E1F842E7032228004C4907F0DBF83CE7D6
:100D4C00032228004A4907F0D5F836E70322280089
:100D5C00484907F0CFF830E703222800464907F04E
:100D6C00C9F82AE703222800444907F0C3F824E70E
:100D7C0004222800424907F0BDF81EE7052228008E
:100D8C00404907F0B7F818E7052228003E4907F05C
:100D9C00B1F812E7042228003C4907F0ABF80CE745
:100DAC00032228003A4907F0A5F806E70422280098
:100DBC00384907F09FF800E704222800364907F06D
:100DCC0099F8FAE608222800344907F093F8F4E67B
:100DDC0006222800324907F08DF8EEE6314807F07C
:100DEC009BFAF8E698D00020B0E2002091CF0020CA
:100DFC0004B40020F0B20020583F012000B30020C2
:100E0C00F0B3002058B30020E8B30020E4B3002076
:100E1C00E0B30020DCB30020D8B30020D4B3002012
:100E2C00D0B30020CCB30020ECB3002060B3002082
:100E3C0054B3002080B3002078B3002070B300209E
:100E4C0068B3002018B3002010B300204CB300206E
:100E5C0044B300203CB3002038B3002030B3002052
:100E6C0028B30020C8B30020BCB30020C4B30020BA
:100E7C00B8B30020B4B30020ACB30020B0B3002052
:100E8C00A8B30020A0B3002098B3002090B300209A
:100E9C0094B3002088B300208CB3002008B300204A
:100EAC0020B30020F8B20020F8B5104B10481E6893
:100EBC00310007F031FA0F4F0F4C3B6835035919CD
:100ECC008022200007F016F831000C4807F024FAB5
:100EDC00290020003D68803169188022803007F09D
:100EEC0009F80A2007F010F9F8BDC0461CDE0020F6
:100EFC00ECB7002098D00020583E012014B80020F8
:100F0C0010B50B4807F008FA0A4C8022002120008B
:100F1C0006F0EAFF084807F0FFF9200080220021C4
:100F2C00803006F0E1FF0A2007F0EEF810BDC04655
:100F3C003CB80020583E012050B8002010B5134892
:100F4C0007F0EAF9124807F0F9F9431C0ED06D28A6
:100F5C0013D00FDC4D2810D0502807D10D4807F0C6
:100F6C00DBF9802200210C4806F0BEFF0A2007F0B6
:100F7C00CBF810BD7028F1D0F8E7084807F0CCF991
:100F8C0080220021064806F0AFFFEFE764B800208E
:100F9C008096980050B80020D83E01203CB8002024
:100FAC00583E012010B51A4807F0B6F9194807F059
:100FBC00C5F9431C16D06D281BD017DC4D2818D052
:100FCC0050280FD1144B15481C682100240307F03E
:100FDC00A3F92100124B80311C6880221148611842
:100FEC0006F088FF0A2007F08FF810BD7028E9D0B2
:100FFC00F8E7094B0C481C68210007F08DF9084BE9
:10100C002403196880220919084806F073FFE9E7E0
:10101C0064B80020809698001CDE002014B80020D4
:10102C0098D00020D83E0120ECB70020583E01207B
:10103C001C4BF0B51F681C4BC646196880231B4D12
:10104C003C035B0000B51A0028000919984606F00D
:10105C0051FF80235B039C4680216444200049019E
:10106C000AF022F93900124807F056F9114E802285
:10107C003100280006F03EFF39000F4807F04CF90C
:10108C002800310080228031803006F033FF424648
:10109C00290020000AF048F9084807F087F804BC3A
:1010AC009046F0BD1CDE002098D00020180A0120CC
:1010BC0080B80020583E0120A0B80020C4B8002001
:1010CC0010B5040001F0AAFE0123D022A3401206A1
:1010DC00936200210022200001F088FE10BDC04662
:1010EC00F0B54746CE4605000C0080B5904689B059
:1010FC00002200232800210005F0F0FB002800D07E
:10110C0089E1012300269946640064082800210027
:10111C0006F084F805F0DCFF02000B000090019152
:10112C000020BF4906F086F802000B0028002100C1
:10113C0005F06BFB002204000D00009801990023C0
:10114C0005F0CCFB002808D0009801990022B54B83
:10115C0005F052FBB146009001912000290005F0EA
:10116C00B7FFAF4B002206000F0005F04EFB06AA9E
:10117C0009F004FF0022AC4B0290039106980799EA
:10118C0005F061FB05F0F0FB05F0D6FB00220490A6
:10119C00059102980399A24B05F055FB02000B0038
:1011AC000498059905F028FB05F0DEFB4346320058
:1011BC00587129003B00200005F015FB0022994BCB
:1011CC0005F041FB04000D0005F082FF944B00225A
:1011DC0006000F0005F019FB06AA09F0CFFE00224D
:1011EC00914B029003910698079905F02CFB05F0A2
:1011FC00BBFB05F0A1FB002204900591029803991A
:10120C00874B05F020FB02000B000498059905F0B4
:10121C00F3FA05F0A9FB43463200187129003B0094
:10122C00200005F0E0FA00227E4B05F00CFB0400D8
:10123C000D0005F04DFF7A4B002206000F0005F063
:10124C00E4FA06AA09F09AFE0022774B0290039169
:10125C000698079905F0F7FA05F086FB05F06CFB8C
:10126C00002204900591029803996D4B05F0EBFA5E
:10127C0002000B000498059905F0BEFA05F074FB0A
:10128C0043463200D87029003B00200005F0ABFA31
:10129C000022644B05F0D7FA04000D0005F018FF8E
:1012AC005F4B002206000F0005F0AFFA06AA09F00A
:1012BC0065FE00225C4B029003910698079905F09D
:1012CC00C2FA05F051FB05F037FB002204900591A2
:1012DC0002980399524B05F0B6FA02000B000498E1
:1012EC00059905F089FA05F03FFB434632009870EA
:1012FC0029003B00200005F076FA0022494B05F04E
:10130C00A2FA04000D0005F0E3FE454B0022060096
:10131C000F0005F07AFA06AA09F030FE0022424BC3
:10132C00029003910698079905F08DFA05F01CFBC5
:10133C0005F002FB00220490059102980399384BAA
:10134C0005F081FA02000B000498059905F054FA97
:10135C0005F00AFB43463200587029003B00200080
:10136C0005F041FA00222F4B05F06DFA05F0B0FEA6
:10137C002B4B002205F049FA06AA09F0FFFD0022CA
:10138C00294B04000D000698079905F05CFA05F04E
:10139C00EBFA05F0D1FA002206000F00200029001C
:1013AC001F4B05F050FA02000B003000390005F01D
:1013BC0023FA05F0D9FA434600221870184B00980E
:1013CC00019905F022FA06AA09F0D8FD0022164B65
:1013DC0004000D000698079905F035FA05F0C4FADB
:1013EC0005F0AAFA002206000F00200029000C4B81
:1013FC0005F029FA02000B003000390005F0FCF969
:10140C0005F0B2FA43464A469871DA7109B00CBC41
:10141C0090469946F0BD05230426994674E6C046CD
:10142C00000024400000594000003040F0B5D64682
:10143C0046464F462023C0B594B00AAA13AC138479
:10144C002380837905001809984605F075FA002267
:10145C00764B05F0F8F9434606000F2018400F00B4
:10146C0005F06AFA02000B003000390005F0C4F9EF
:10147C0005F07AFA0121EA79804693100B4011426B
:10148C0000D1CDE0202222700C222021013B93437D
:10149C000AAA52182D3313706B7918099A4605F065
:1014AC004BFA0022614B05F0CEF90F230600504693
:1014BC00184099460F0005F03FFA02000B0030006F
:1014CC00390005F099F92B79089009919A46180979
:1014DC0005F032FA0022554B05F0B5F94A46534651
:1014EC001340060018000F0005F026FA02000B004E
:1014FC003000390005F080F9EB780A900B919A4690
:10150C00180905F019FA0022484B05F09CF94A46D7
:10151C0053461340060018000F0005F00DFA0200A8
:10152C000B003000390005F067F9AB780C900D9189
:10153C009A46180905F000FA00223C4B05F083F995
:10154C004A4653461340060018000F0005F0F4F904
:10155C0002000B003000390005F04EF96B780E904C
:10156C000F919A46180905F0E7F900222F4B05F068
:10157C006AF94A4653461340060018000F0005F05E
:10158C00DBF902000B003000390005F035F92D783D
:10159C0010901191280905F0CFF90022234B05F08A
:1015AC0052F94B462B40060018000F0005F0C4F909
:1015BC0002000B003000390005F01EF906000F0088
:1015CC000898099905F0D0F9194B0500994643463E
:1015DC00390030000693059405F0C6F90490109874
:1015EC00119905F0C1F903900E980F9905F0BCF90B
:1015FC0002900C980D9905F0B7F901900A980B9987
:10160C0005F0B2F92B0000900A49484612AA04F0E2
:10161C000DFE484614B01CBC90469946A246F0BD3F
:10162C006422121A90462D222DE7C0460000244059
:10163C00B0EA0020DCB80020F0B5DE4645464E4648
:10164C005746E0B5804686790F2087B0304005F0CC
:10165C0073F904000D00300905F06EF900227C4B83
:10166C0005F0F1F822002B0005F0C6F801224346E4
:10167C00049005911100DB7919409B1003911A42DB
:10168C0000D1DDE00023734C0093019443465B7959
:10169C009A460F2350461840994605F04DF943469B
:1016AC00060048461B790F009B46184005F044F98C
:1016BC005B4604000D00180905F03EF90022644B4E
:1016CC0005F0C1F822002B0005F096F8624A634B36
:1016DC0005F0B9F85346040018090D0005F02CF973
:1016EC0000225B4B05F0AFF832003B0005F084F8AC
:1016FC0002000B002000290005F07EF8434606008E
:10170C004846DB780F009A46184005F015F9534609
:10171C0004000D00180905F00FF900224C4B05F0E0
:10172C0092F822002B0005F067F84D4A4D4B05F05E
:10173C008AF832003B0005F05FF843460600484645
:10174C009B780F009A46184005F0F6F853460400B3
:10175C000D00180905F0F0F800223D4B05F073F868
:10176C0022002B0005F048F83F4A404B05F06BF87F
:10177C0032003B0005F040F84346060048465B78D3
:10178C000F009A46184005F0D7F8534604000D0098
:10179C00180905F0D1F800222D4B05F054F8220061
:1017AC002B0005F029F8324A324B05F04CF8320088
:1017BC003B0005F021F84346060048461B780F0015
:1017CC009846184005F0B8F8434604000D00180977
:1017DC0005F0B2F800221E4B05F035F822002B0064
:1017EC0005F00AF8244A254B05F02DF832003B0091
:1017FC0005F002F80B0002000098019905F023F89F
:10180C00039B04000D00002B1FD1049A059B0020A4
:10181C001B4904F0E8FF0200802000060B18002092
:10182C000B4905F007FD02000B002000290005F014
:10183C000AF807B03CBC90469946A246AB46F0BDB0
:10184C000023104C0093019420E7049A059BE6E7D3
:10185C00000024400000F0BF7B14AE47E17A843FC7
:10186C002D431CEBE2361A3F8DEDB5A0F7C6B03E0A
:10187C003A8C30E28E79453EBBBDD7D9DF7CDB3D5F
:10188C00000059400000F03FF0B5DE4645464E469C
:10189C005746E0B5050083B00A2006F035FC204B16
:1018AC00002498461F4B204E9B4620E02B00083B03
:1018BC009946A1444846FFF7B9FD82464846FFF7D2
:1018CC00BBFE02000B00584600920193791E524653
:1018DC0006F022FD2100404606F01EFD295D300079
:1018EC0006F01AFD802301345B009C420ED0630786
:1018FC00F4D1002CEED0802CECDCE7103B000B3B41
:10190C00012BD3D8094806F007FDE3E70A2006F0BF
:10191C00FBFB03B03CBC90469946A246AB46F0BDDF
:10192C0024B9002014B900202CB9002000B90020E3
:10193C00F0B5D6464F4646468F4DC0B52800FFF74A
:10194C00A3FF00238D4F2E003B708D4B01359A4623
:10195C008C4B8D4C99468D4B80369846FF35002329
:10196C0032782370F92A03D849469300CB589F4606
:10197C005146200004F05AFC21003800013609F0D1
:10198C003FFBB542EBD13900814806F0C5FC1CBCCD
:10199C0090469946A246F0BD02224146200006F030
:1019AC00A9FAE9E7022220007A4906F0A3FAE3E754
:1019BC0002222000784906F09DFADDE70222200081
:1019CC00764906F097FAD7E702222000744906F010
:1019DC0091FAD1E702222000724906F08BFACBE78C
:1019EC0002222000704906F085FAC5E70222200089
:1019FC006E4906F07FFABFE7022220006C4906F020
:101A0C0079FAB9E7032220006A4906F073FAB3E7C2
:101A1C0005222000684906F06DFAADE7032220008C
:101A2C00664906F067FAA7E703222000644906F02E
:101A3C0061FAA1E703222000624906F05BFA9BE7FA
:101A4C0003222000604906F055FA95E70322200096
:101A5C005E4906F04FFA8FE7042220005C4906F03D
:101A6C0049FA89E7052220005A4906F043FA83E730
:101A7C0005222000584906F03DFA7DE7042220009B
:101A8C00564906F037FA77E703222000544906F04E
:101A9C0031FA71E704222000524906F02BFA6BE769
:101AAC0004222000504906F025FA65E708222000A0
:101ABC004E4906F01FFA5FE7062220004C4906F05B
:101ACC0019FA59E7062220004A4906F013FA53E79F
:101ADC0005222000484906F00DFA4DE706222000A9
:101AEC00464906F007FA47E705222000444906F06C
:101AFC0001FA41E705222000424906F0FBF93BE7D9
:101B0C0004222000404906F0F5F935E705222000B3
:101B1C003E4906F0EFF92FE7062220003C4906F07B
:101B2C00E9F929E7052220003A4906F0E3F923E711
:101B3C0005222000384906F0DDF91DE705222000BA
:101B4C00364906F0D7F917E705222000344906F08C
:101B5C00D1F911E705222000324906F0CBF90BE749
:101B6C0005222000304906F0C5F905E703222000C4
:101B7C002E4906F0BFF9FFE6583E0120B0E20020E6
:101B8C0000B3002034B90020583F0120ECB30020F2
:101B9C00F0B30020E8B30020E4B30020E0B3002051
:101BAC00DCB30020D8B30020D4B30020D0B3002085
:101BBC00CCB30020C8B30020BCB30020C4B30020B9
:101BCC00B8B30020B4B30020ACB30020B0B30020F5
:101BDC00A8B30020A0B3002098B3002090B300203D
:101BEC0094B3002088B300208CB3002008B30020ED
:101BFC0020B3002018B3002010B300204CB30020F9
:101C0C0044B300203CB3002038B3002030B3002094
:101C1C0028B3002080B3002078B3002070B30020DC
:101C2C0068B3002060B3002058B3002054B30020E8
:101C3C00F0B5D6464F464646994CC0B521689948F2
:101C4C0006F06AFB984D236818032B689C46604489
:101C5C00FFF71AFE954806F0A9FA22682B681203C2
:101C6C009B181E005D1C924B00229A46914B924F82
:101C7C009946924B924C98463A708036FF35002329
:101C8C0032782370F92A03D849469300CB589F46E3
:101C9C005146200004F0CAFA21003800013609F040
:101CAC00AFF9B542EBD13900864806F035FB0A2076
:101CBC0006F02AFA1CBC90469946A246F0BD0222B8
:101CCC004146200006F016F9E6E7022220007E4984
:101CDC0006F010F9E0E7022220007C4906F00AF930
:101CEC00DAE7022220007A4906F004F9D4E702224E
:101CFC002000784906F0FEF8CEE702222000764953
:101D0C0006F0F8F8C8E702222000744906F0F2F851
:101D1C00C2E702222000724906F0ECF8BCE702226E
:101D2C002000704906F0E6F8B6E7032220006E4961
:101D3C0006F0E0F8B0E7052220006C4906F0DAF86E
:101D4C00AAE7032220006A4906F0D4F8A4E703228C
:101D5C002000684906F0CEF89EE703222000664971
:101D6C0006F0C8F898E703222000644906F0C2F890
:101D7C0092E703222000624906F0BCF88CE70422AB
:101D8C002000604906F0B6F886E7052220005E497F
:101D9C0006F0B0F880E7052220005C4906F0AAF8AE
:101DAC007AE7042220005A4906F0A4F874E70322CB
:101DBC002000584906F09EF86EE704222000564990
:101DCC0006F098F868E704222000544906F092F8CF
:101DDC0062E708222000524906F08CF85CE70622E4
:101DEC002000504906F086F856E7062220004E499E
:101DFC0006F080F850E7052220004C4906F07AF8EE
:101E0C004AE7062220004A4906F074F844E7052206
:101E1C002000484906F06EF83EE7052220004649AE
:101E2C0006F068F838E704222000444906F062F80E
:101E3C0032E705222000424906F05CF82CE7062226
:101E4C002000404906F056F826E7052220003E49BE
:101E5C0006F050F820E7052220003C4906F04AF82D
:101E6C001AE7052220003A4906F044F814E7052247
:101E7C002000384906F03EF80EE7052220003649CE
:101E8C0006F038F808E705222000344906F032F84D
:101E9C0002E703222000324906F02CF8FCE6C0468B
:101EAC001CDE00201CBD002098D0002024BD00208A
:101EBC0000B3002028BD0020B0E20020ECB30020CD
:101ECC00583F0120F0B30020E8B30020E4B3002019
:101EDC00E0B30020DCB30020D8B30020D4B3002042
:101EEC00D0B30020CCB30020C8B30020BCB300207A
:101EFC00C4B30020B8B30020B4B30020ACB30020AE
:101F0C00B0B30020A8B30020A0B3002098B30020E9
:101F1C0090B3002094B3002088B300208CB3002031
:101F2C0008B3002020B3002018B3002010B3002009
:101F3C004CB3002044B300203CB3002038B3002045
:101F4C0030B3002028B3002080B3002078B30020E9
:101F5C0070B3002068B3002060B3002058B3002099
:101F6C0054B30020002310B5854C2370F92810D8E9
:101F7C00844A8300D3589F46002900D1F9E00722F8
:101F8C002000814905F0B6FF2100804806F0C4F915
:101F9C0010BD02007E49200004F048F9F4E702224B
:101FAC0020007C4905F0A6FFEEE7022220007A49CA
:101FBC0005F0A0FFE8E702222000784905F09AFF1F
:101FCC00E2E702222000764905F094FFDCE70222CA
:101FDC002000744905F08EFFD6E7022220007249DA
:101FEC0005F088FFD0E702222000704905F082FF3F
:101FFC00CAE7022220006E4905F07CFFC4E70222EA
:10200C0020006C4905F076FFBEE7032220006A49E8
:10201C0005F070FFB8E705222000684905F06AFF5B
:10202C00B2E703222000664905F064FFACE7032207
:10203C002000644905F05EFFA6E7032220006249F8
:10204C0005F058FFA0E703222000604905F052FF7D
:10205C009AE7032220005E4905F04CFF94E7042226
:10206C0020005C4905F046FF8EE7052220005A4906
:10207C0005F040FF88E705222000584905F03AFF9B
:10208C0082E704222000564905F034FF7CE7032246
:10209C002000544905F02EFF76E704222000524917
:1020AC0005F028FF70E704222000504905F022FFBC
:1020BC006AE7062220004E4905F01CFF64E7062261
:1020CC0020004C4905F016FF5EE7052220004A4926
:1020DC0005F010FF58E705222000484905F00AFFDB
:1020EC0052E705222000464905F004FF4CE7052283
:1020FC002000444905F0FEFE46E705222000424937
:10210C0005F0F8FE40E703222000404905F0F2FEFE
:10211C003AE7052220003E4905F0ECFE34E70522A3
:10212C0020003C4905F0E6FE2EE7052220003A4946
:10213C0005F0E0FE28E704222000384905F0DAFE1D
:10214C0022E705222000364905F0D4FE1CE70522C3
:10215C002000344905F0CEFE16E706222000324955
:10216C0005F0C8FE10E706222000304905F0C2FE3B
:10217C000AE7082220002E4905F0BCFE04E7C04601
:10218C00583F012014C10020D4B8002010C10020F9
:10219C0000B30020ECB30020E8B30020E4B300202F
:1021AC00E0B30020DCB30020D8B30020D4B300206F
:1021BC00D0B30020CCB30020C8B30020BCB30020A7
:1021CC00C4B30020B8B30020B4B30020ACB30020DB
:1021DC00B0B30020A8B30020A0B3002098B3002017
:1021EC0090B3002094B3002088B300208CB300205F
:1021FC0020B3002028B3002080B3002078B3002047
:10220C0070B3002068B3002060B3002054B30020EA
:10221C0058B3002044B300203CB3002038B3002056
:10222C0030B3002010B300204CB3002018B30020B2
:10223C0008B300208022F8B51B4B0D001B4F19680A
:10224C000403091906005200380005F053FE8023E0
:10225C005B039C46802164442000490109F024F86A
:10226C00EB070BD4AB0714D48022390020005200AA
:10227C0009F05AF80E4805F099FFF8BD31000D48E9
:10228C0006F04AF8802238000B4905F033FEAB0704
:10229C00EAD53100094806F03FF880220849094880
:1022AC0005F028FEE0E7C04698D00020180A01206F
:1022BC00C4B8002080B80020583E0120A0B80020EF
:1022CC00D83E0120980A012010B50F4806F024F8DA
:1022DC000E4806F033F8431C14D06D2810D00ADCDD
:1022EC004D280DD05038414241414900084B1868E7
:1022FC00FFF7A0FF10BD7038414241414900F5E79E
:10230C000121F3E70021F1E764B8002080969800E2
:10231C001CDE0020F0B55746DE464E4645462D4B9A
:10232C00E0B51B6883469946030398462A4B202741
:10233C0002249A4683B00DE0032C04D10822337892
:10234C00013C9343337080235B019C46013FE04486
:10235C00022F32D00621380003F0DAFF01250300EA
:10236C004946A5400833CE18CB5C6DB2AB433370F5
:10237C00534641461B6802005B5C1848FF3B5942C0
:10238C004B41210000935B4605F0C6FF5346424685
:10239C001B689B5CFF2B02D033781D433570013CCE
:1023AC00CAD27F223378013F1340337080235B0104
:1023BC009C460624E044022FCCD14A460923937351
:1023CC00E833D37303B03CBC90469946A246AB4667
:1023DC00F0BDC04694D0002098D000204CC5002001
:1023EC00F0B55746DE4680B5A34F85B03E68B3794D
:1023FC00932B04D005B00CBC92469B46F0BDF379F0
:10240C00F12BF7D10F22337992461A42F2D1504672
:10241C007179F03209010A401B09D518F37818407C
:10242C009B4604F089FA5346B478009001912340FE
:10243C00180004F081FA5B4602900391180904F02D
:10244C007BFA00228D4B04F0FEF9009A019B04F0FC
:10245C00D3F90022894B04F0F6F904F085FA04F064
:10246C006BFA00900191200904F066FA0022834B6C
:10247C0004F0E9F9029A039B04F0BEF900227F4BA9
:10248C0004F0C3F902000B000098019904F0B4F9B0
:10249C0004F06AFA04002900794805F03DFF220097
:1024AC002100784805F038FF472D00DD95E0102D10
:1024BC00A0DD2B00113B362B9CD8734A9B00D358C4
:1024CC009F46DB2C00D8D2E00F213A6813798B435E
:1024DC000B210B4313718DE7F92CF5D80221200049
:1024EC00FFF7A8FEF0E70F213A6813798B430B2115
:1024FC000B431371F92C00D97CE701212000FFF765
:10250C0099FE77E70F213A6813798B430B210B4324
:10251C001371F92C00D96DE703212000FFF78AFE17
:10252C0068E70F213A6813798B430B210B43137126
:10253C00F92C00D95EE72100544805F0EDFE544B10
:10254C0024031968803480220919524805F0D2FC02
:10255C000A2005F0D9FD4DE70F213A6813798B431A
:10256C000B210B431371F92C00D943E721004A4886
:10257C0005F0D2FE464B24031968802209194748FE
:10258C0005F0B8FC0A2005F0BFFD33E70F213A68CF
:10259C0013798B430B210B431371F92C00D929E7C9
:1025AC0021003D4805F0B8FE394F3C4D3B682603F1
:1025BC0099198022280005F09DFC2100334805F074
:1025CC00ABFE28003968803680228919803005F0EE
:1025DC0091FC0A2005F098FD0CE7952D34D0962D32
:1025EC0012D151463A682E4813798B430B210B4379
:1025FC00137105F091FE80220021264805F074FC31
:10260C000A2005F081FDF5E6942D00D0F2E6514646
:10261C003A68244813798B430B210B43137105F053
:10262C007BFE1E4C80220021200005F05DFC1C4826
:10263C0005F072FE200080220021803005F054FC51
:10264C000A2005F061FDD5E651463A681548137924
:10265C008B430B210B43137105F05EFE802200218E
:10266C000E4805F041FC0A2005F04EFDC2E62000A4
:10267C00FFF750FE28E7C04694D00020000024400D
:10268C0060C5002070C5002080C5002014B8002053
:10269C0098D00020D83E0120ECB70020583E0120F5
:1026AC0050B800203CB80020F0B5DE4657464E46E8
:1026BC004546E0B589B05A4807AB06AA05A900F013
:1026CC00C7FA002803D15649564801F0D1FF079AA2
:1026DC0006990598D02400F07FFA002505F028FE15
:1026EC0001262406280000F099FB3300AB4028009B
:1026FC0000220021A362013500F078FB172DF1D1E7
:10270C000C2000F08BFB80235B0163620B20A36128
:10271C0000F084FB80231B0163621020A3616361C2
:10272C0000F07CFB80235B0263621A20A361FEF73E
:10273C00C7FC1B20FEF7C4FC1C20FEF7C1FC3A486A
:10274C0008F0F6FBFA20C00001F080FA374805F0DB
:10275C002DFD0021364805F0DFFD364C8022216826
:10276C00354805F0C7FB0021344805F0D5FD21683C
:10277C0080228031324805F0BDFB0A2005F0C4FCF4
:10278C00FA20304B80009B462F4B304C9A46304BF6
:10279C00304F9946304B314E98460A3505F0CEFDF8
:1027AC00431C36D02200002303E001330C32232BD0
:1027BC0025D011788842F8D15A4610605A00D318A7
:1027CC009B00E3189B6898475146254805F0A4FDEB
:1027DC0043461B6839685A1E934132680191501E5A
:1027EC00824152422A40203202924A46009112689B
:1027FC005B422B4011001B48203305F08DFDFFF789
:10280C00EFFD00F03FF8FA20800005F097FD431C27
:10281C00C8D105F001FD144805F07EFDEFE7C04678
:10282C00B01E04005CC600209903002090C6002056
:10283C00ECB7002098D00020583E012014B800209E
:10284C00D83E012000DE002060DE00209CD000205D
:10285C001CDE002030D8002048D8002044D80020AE
:10286C00FCC4002014C5002048C500208022034B66
:10287C001A60034B7F3A1A607047C04644D200205E
:10288C00F8D90020F0B5DE4657464E464546E0B531
:10289C00BB4B85B01A68002A44D0BA4A14689346D8
:1028AC00B94A175DB94A1760D72F42D8A12F07D95B
:1028BC005E37FFB2352F06D8B54BBF00DB599F46AC
:1028CC00002F00D11F60B34DB34BB44E9A46B44B9E
:1028DC00B44F9946B44B98462100B44805F01CFD02
:1028EC00B34805F019FDA94B01211868FFF73AFB15
:1028FC00434649461A685B680968AE4805F00CFD0A
:10290C003168AD4805F008FD534629681A685B68C4
:10291C00AA4805F001FD3968A94805F0FDFC0A201C
:10292C0005F0F2FB05B03CBC90469946A246AB467E
:10293C00F0BD3B001033DBB2964D092BC4D82B688D
:10294C00002B00D09DE0954E3368002B00D1E7E0C2
:10295C00D72B00D1FDE0944B984600233360904B6D
:10296C00994601234A465B4213608B4B9A465B4661
:10297C0001348C4F1C60AFE7D723884E0134336091
:10298C005B461C60844B834D9A46A0E70123814D26
:10299C0000222B60804B01349A46002351460A607A
:1029AC004B605B467D4E1C6091E7864C2000FEF729
:1029BC0043FE854B002203F01FFF2200FEF790FB25
:1029CC005B461B685C1C5B461C60734B714D9A46E6
:1029DC00724E7CE76C4B7D4A9C46644463789B004A
:1029EC009C58F0E7684B794A1819437802349B00DD
:1029FC009C50E8E7694E674D3368002B5FD12B681C
:102A0C00002B74D1644B9A46654B9946664B98469D
:102A1C00644F3B685A1C12D04246106851680093B0
:102A2C0002000B006A4805F077FC3B68DA00564B55
:102A3C009C464346624418685968FEF751FB0023D4
:102A4C00002241462B60336000230A604B60012357
:102A5C004A465B4213603B605B461B685C1C5B46F2
:102A6C001C6039E74E4B4F4F99461B6801343B6055
:102A7C005B461C60484B474D9A464B4B474E98461D
:102A8C002AE7454B00229A465146524B0868496842
:102A9C0003F0D9FEF03F02900391380003F04CFF95
:102AAC000B0002000298039903F0A6FE534618602F
:102ABC0059603B4B394E99463B4B984657E72A6831
:102ACC00002A20D0344A924610685168344A914604
:102ADC00D72B9BD1344B020098460B00414608681B
:102AEC00496803F089FE43461860596090E72E4B05
:102AFC0098464246284B9A465C681B6813605460A3
:102B0C00274B994684E7264B99461B68D8001E4BE9
:102B1C009C466044FEF790FD1F4A33689246D7E707
:102B2C00194B38009C46F038C0006044FEF784FD19
:102B3C001D4B186059609846194B99464A46134BE1
:102B4C001B680293F03B13605B461C68124B9A4661
:102B5C000DE70D4B38009C46F038C0006044FEF782
:102B6C006BFD0B001049020088460868496803F0A9
:102B7C0043FE4346186059605B461C68EDE6C04650
:102B8C00F8D9002044D20020583E01207053012077
:102B9C004CC900207CD900204053012020DE0020AD
:102BAC0048D2002040D2002078D40020E4C8002075
:102BBC00F0C80020F8C800200CC900201CC9002057
:102BCC003CC90020603E01200000F03F485301202A
:102BDC00CCC8002000002440F0B583B005000E00E6
:102BEC00140000F0ABF9002801D003B0F0BD154F74
:102BFC0001223B0001210097053001F057FD330005
:102C0C002A0000940121104801F03EFF2100280009
:102C1C00714303F0A5FB04000C4B0022009302212E
:102C2C00042001F043FD2300002201210094052023
:102C3C0001F03CFD3B00022200210097062001F030
:102C4C0035FDD2E7006CDC0200800240001BB700AF
:102C5C00F0B5DE4657464E464546E0B5070083B014
:102C6C0004209B460091019201F008FFFA21890093
:102C7C0003F076FB32238246FF3399468600564496
:102C8C00B6014C4B4C4AF318072493420BD9012341
:102C9C005B429C465346E144F61A4B46002BF0D15E
:102CAC0000205AE0012421003000614303F058FB5E
:102CBC00874259D0631E9846012CE8D01D0065430D
:102CCC003000290003F04CFB874251D0A31E9846DC
:102CDC00022CE7D02D1B2900300003F041FB87426A
:102CEC0049D0E31E9846032C4BD02D1B29003000F5
:102CFC0003F036FB874246D0231F9846042C48D05D
:102D0C002D1B2900300003F02BFB874243D0631F9F
:102D1C009846052C45D02D1B2900300003F020FBD4
:102D2C00874240D0062C42D03000E91F03F018FB3C
:102D3C0006248742B7D10029B5D101230724984630
:102D4C0073019B1B9B009E19009BF6001E60019B50
:102D5C0042461C605B4601201A6003B03CBC9046A6
:102D6C009946A246AB46F0BD0029A3D1A046E7E7A1
:102D7C000029ABD1E4E70029E2D0E31E9846032CEE
:102D8C00B3D102248FE70029DAD0231F9846042CF4
:102D9C00B6D1032487E70029D2D0631F9846052CAF
:102DAC00B9D104247FE70029CAD0062CBCD1052454
:102DBC0079E7C046508EF4FF50F80C00094A8300A6
:102DCC0094464022634410B51C68C0006240C02485
:102DDC0014408022520113431C60034B9C466044F8
:102DEC00416010BD04C00140004001400A4B80000E
:102DFC009C4604236044002901D00C230821002A9E
:102E0C0000D10B00026853400C221A4080235B0156
:102E1C00184302607047C04604C001400123D02211
:102E2C008340120693629361094A830094464022C0
:102E3C0063441968C0004A40C021114080225201ED
:102E4C0013431960034B9C46052360444360704751
:102E5C0004C0014000400140F8B5EFF3108772B692
:102E6C000E4E3368002BFCD0BFF35F8FCB08C41819
:102E7C000725A446C45C01230D40AB40180020403C
:102E8C00234208D1624623431370BFF35F8F306037
:102E9C0087F31088F8BD100001F0EAFB2C0100D07C
:102EAC00F8B5CE4647468C4680B5EFF3108872B61F
:102EBC00214D2C68002CFCD0BFF35F8F9A422CD88C
:102ECC00D4080721055D0619012411408C402C42C1
:102EDC001FD007218946063909E0D408055D06197B
:102EEC004C460F001440A7403C002F4211D0013239
:102EFC009342F2D201204042BFF35F8F00220E4B6F
:102F0C001A6088F3108800280FDB0CBC9046994699
:102F1C00F8BD2C4310003470EEE7BFF35F8F002335
:102F2C002B6088F31088012040426346002BECD0C4
:102F3C00089801F09DFBC0462C0100D0024B18688C
:102F4C008007C00F7047C04600C006400021044BEC
:102F5C00044ABFF35F8F02C39342FAD17047C04655
:102F6C00000100D0800100D0044A1078431CDBB271
:102F7C00172B00D9102313707047C0464CD2002079
:102F8C0000B5054B83B00100009318221F230348A2
:102F9C00FFF786FF03B000BD24CA00204CD90020E7
:102FAC0001238340002904D0034A1360034A1360B1
:102FBC007047034A1360FBE780E200E000E100E0A9
:102FCC0080E100E001228240034B1B681340581E35
:102FDC008341D8B27047C04600E100E0002904D01C
:102FEC00034B1860034B18607047034B1860FBE7EA
:102FFC0080E200E000E100E080E100E0012383409A
:10300C00014A13607047C04600E200E0084B1030E4
:10301C009B688000C358002B07D0064A00209B1ADF
:10302C002F229A424041C0B270470020FCE7C046B4
:10303C0000ED00E050D20020024B10309B68800065
:10304C00C058704700ED00E070B50D00EFF310862E
:10305C0072B60F4A1368002BFCD0BFF35F8F0D4B79
:10306C0010309B6884001B590B4A934203D09D423D
:10307C0001D001F015FB074B9B681D51BFF35F8F0F
:10308C00BFF35F8F0022024B1A6086F3108870BD6D
:10309C00240100D000ED00E0CD010010F0B5574642
:1030AC004E464546DE46E0B5894683B0050017001E
:1030BC00EFF3108A72B65E4A1368002BFCD0BFF394
:1030CC005F8F00205B4B18569B4600286DDB5A46E1
:1030DC004400594E2418A400331998469B79103596
:1030EC001370564BAA009B6801929B589C469B1BE5
:1030FC002F2B29D8012261469143CB79BB4208D8AA
:10310C006BE053009B189B00F318DD79BD4252D93C
:10311C00190006228A56002AF3DABD260B1D9B469F
:10312C00360243465C46043B1B1B1B05444C5B0DA3
:10313C0023438B80887141468A714A46414B8E806D
:10314C000B60CF718A601BE03F4B9C4542D14246DD
:10315C003E4B023413803E4B3619043B9E1B360506
:10316C00374B760D1E433B4B56809380FF23D77114
:10317C00937143464A469A60012342461A43944649
:10318C0061462E4B019A9B689950BFF35F8FBFF33A
:10319C005F8F0022264B1A608AF3108803B03CBC68
:1031AC0090469946A246AB46F0BD01F079FA5B46D3
:1031BC00002018568BE70B1D9B468B8804345B054F
:1031CC001B155B4436199E1BE0233605760D1B023E
:1031DC001E43A6E701F064FAB9E745460B001E480A
:1031EC009B1B5B415843000D184B2B80A31C9C462A
:1031FC00B4446546164B0434043B5B1B1B05104D55
:10320C005B0DAC462B43454636196B800B1F9E1B42
:10321C006346A87148463605760D1E43094BAE80B1
:10322C00EF71A8600B60434613439C46A8E7C04669
:10323C00240100D0AADE002050D2002000ED00E0D6
:10324C0000E0FFFF01488047CD01001000A1FFFF07
:10325C0080D2002000BDFFFFAAAA0000F0B5DE4618
:10326C0057464E464546E0B50C0083B0EFF3108A46
:10327C0072B65A4A1368002BFCD0BFF35F8F102232
:10328C00914681444A46564B96009B689D59554B36
:10329C0098469D4205D0A54216D0534FEB1B2F2BC1
:1032AC0014D94F4B9B689D51BFF35F8FBFF35F8F5A
:1032BC0000224A4B1A608AF3108803B03CBC90463B
:1032CC009946A246AB46F0BD1D00EAE701238340B8
:1032DC009B465A46454B1B681A4000925A46444B33
:1032EC001A60BFF35F8F07F0F3FE0190002803D044
:1032FC00814501D001F0D4F901232A009A43936847
:10330C009C4208D160E04B005B189B00FB1899684D
:10331C00A14211D01A00062151560029F3DA009B64
:10332C00002B05D05A46334B1A60304B1A60B8E765
:10333C005A462F4B1A60B4E706215956002922DB56
:10334C004A00501880003C188046A0689860E079CC
:10335C00D871062020569871A0797F2824D8A4888B
:10336C00F81A6405241544440019E0240005400DA6
:10337C0024022043988052181F4B9200BF181A78D1
:10338C001970BA71CBE70199002910D1FF319171F5
:10339C001A49918018490A789A71194ADB1B5B41CA
:1033AC005A43120D0A70BAE7BD200002E2E7154A33
:1033BC001549D21A083A5002400D0143998013491D
:1033CC0052080A43DA80AAE7062151561300002955
:1033DC00B6DA019A002AEAD14546DBE7240100D08F
:1033EC0000ED00E0CD01001050D2002000E100E023
:1033FC0080E100E080E200E0AADE002000BDFFFFDB
:10340C00AAAA00008AD2002000F0FFFF00F8FFFFFC
:10341C00F8B501250400054307F05AFE0300EFF34D
:10342C00108672B621490A68002AFCD0BFF35F8F60
:10343C001F4A20001F49801A40414143090D1E4874
:10344C009B00876849B2FF58AF421CD00623D35665
:10345C008B421CD01223D3568B4222D01E23D35620
:10346C008B4220D02A23D35603208B4210D0134BEF
:10347C001A781970A271BFF35F8F00220B4B1A6080
:10348C0086F31088F8BD82680D48D050EFE7002015
:10349C0043001B189B00D218FF239371094B938098
:1034AC00E5E70120F4E70220F2E7C046240100D052
:1034BC0050D20020AAAA000000ED00E0AADE0020F5
:1034CC00CD01001000BDFFFF054B064A1360064AF4
:1034DC00136053609360D3601361536193617047C1
:1034EC008080808000E400E004E400E0D02300B59C
:1034FC001B061B680100074883B0C018064B00224E
:10350C0000930523FFF7CCFC002801DB1F23181ABE
:10351C0003B000BDA4DE002040CA0020024B9C4634
:10352C0061448900016070474000003483680B4897
:10353C0010B5844661446244090112019A18591865
:10354C0054684B6801209C4201D802D00020C0B2C4
:10355C0010BD12680B689A42F9D8F7E7FFFFFF0F0E
:10356C000A4B1968EFF3108072B60A68002AFCD077
:10357C00BFF35F8F1B68BFF35F8F00221A6080F36D
:10358C00108840BF002000217047C04640DE00205C
:10359C00F8B557464E464546DE46E0B5434D8146A6
:1035AC008A466A68EFF3108872B61368002BFCD059
:1035BC00BFF35F8F2E68B47B002C3ED0670033685E
:1035CC003F19033FDA195378B373002B00D1F3730F
:1035DC000023937053701370A968354A8C46494682
:1035EC00A218120162441160514651603149D360F6
:1035FC0091603268D219937053701370737B9B4631
:10360C00002B35D022001900B068736898473268D7
:10361C00002820D05B4658465B005B44D719033B1F
:10362C00B870D118D35C002B00D07B705B460C704B
:10363C0073735C451DD0002626E06B68BFF35F8F6B
:10364C001C6088F31088012040423CBC904699468F
:10365C00A246AB46F8BD5B465B005B44033BD3180C
:10366C009C70D119D25D002A00D05A705B460B7049
:10367C0074734A465346287D00F060FC061EDAD06F
:10368C002100286800F0A0FEEB686A681B19013B5A
:10369C001B78BFF35F8F0021116088F31088002026
:1036AC00002ED2D118022043CFE7C04698D200207A
:1036BC00FFFFFF0F21330020F8B5574645464E4615
:1036CC00DE46E0B599460CAB19780DAB1B780500BE
:1036DC0090469A460768002912D1BE7B002E45D031
:1036EC0074003B68A419033C1B195A783100BA7357
:1036FC00002A00D1FA7300229A705A701A7003E0F3
:10370C000E004C006418033C2C4B00229C46AB680A
:10371C0061449C464346090161440B604B464B6037
:10372C000A9B8B600B9BCB603B681B199A705A7081
:10373C001A707B7B9B46002B2CD032005946B86804
:10374C007B6898473A68002817D05B4658465B0060
:10375C005B441419033BA070D118D35C002B00D030
:10376C0063705B460E707B73B34514D030003CBC69
:10377C0090469946A246AB46F8BD5B465B005B445F
:10378C00033BD3189E701119125D002A00D05A7099
:10379C005B460B707E7342464B46287D00F0CEFB99
:1037AC00041E06D05346002B03D13100286800F0CC
:1037BC000BFE0E9B002BD9D01C70D7E7FFFFFF0F21
:1037CC00F0B5DE464E46574645460023E0B58DB073
:1037DC000A936B4B8200D3580B90994600239B465F
:1037EC004B46079300F020FB079C06000F00626815
:1037FC00EFF3108572B61368002BFCD022000794EF
:10380C00BFF35F8F2468637B9946002B67D0926867
:10381C005C4B90464B441B01984443461A685B68CA
:10382C0010001900801BB94100295FDD0B9800F0D6
:10383C0085FB00230026984600279A46079C636860
:10384C00BFF35F8F5A461A6085F310885346002BDE
:10385C0008D10028C6D10DB03CBC90469946A24672
:10386C00AB46F0BD0A9B414618024B461843D04765
:10387C00089009916268EFF3108572B61368002BFB
:10388C00FCD00794BFF35F8F0899099A002A48DB94
:10389C00114303D0079B1B69002B5DD1079B1B6851
:1038AC00DA7B002A07D051008A1819688C464946E1
:1038BC006244033A51704A46DA734B46079A013B0D
:1038CC00D168CA5C0132CA545B46079A13615368CB
:1038DC00BFF35F8F5A461A6085F3108882E7002386
:1038EC000026984600279A460020A7E7002901D118
:1038FC0000289BD10021200000F0C8FC43461E6824
:10390C005F689B68079A9A464346DB689846D3687B
:10391C004B44013B1B780A931B02034313610020A9
:10392C008CE72369002BB9D033003C005B1A94411F
:10393C001A002300A74219D89F421BD05946049164
:10394C000121039149460291414601915146079844
:10395C000091FFF7B1FEB7E700F066FA089A099BF1
:10396C0006000F0092197B419942E5D9012252427F
:10397C00D317E3E79642E1D901225242D317DDE790
:10398C0024DE0020FFFFFF0F10B5124C6368002BE4
:10399C0004D00A211048FFF7C1FD10BD23000F4AC7
:1039AC001021206800F090FB032000F031FA032076
:1039BC0000F036FB03200A4900F07AFAFFF7D4FA3C
:1039CC00084B9C46032360442375074B80006060C2
:1039DC00DC60DEE798D2002040DE0020ED320020D3
:1039EC00813500204000003424DE00200048704760
:1039FC0098D20020F0B557464546DE464E46E0B517
:103A0C0085B0019310AB1B780027039300238046ED
:103A1C009A46009243465A68EFF3108972B61368BF
:103A2C00002BFCD0BFF35F8F43461D68AC7B002C92
:103A3C004FD066002B683619033E9B195A78AA732F
:103A4C00002A00D1EA7342469F705F701F70926823
:103A5C00524B94460099019AE3181B016344196078
:103A6C005A600E9A9A600F9ADA602B689B199F70B5
:103A7C005F701F706B7B9B46002B46D02200190099
:103A8C00A8686B6898472A68002831D05B4658466E
:103A9C005B005B449619033BB070D118D35C002BD0
:103AAC0000D073705B460C706B735C452ED0434634
:103ABC00DB681B19013B187843465B68BFF35F8FCB
:103ACC001F6089F310885346002B2ED1000220432F
:103ADC0007E05B68BFF35F8F1C6089F310880120DF
:103AEC00404205B03CBC90469946A246AB46F0BD60
:103AFC005B465B005B44033BD3189C709119925D51
:103B0C00002A00D05A705B460B706C734346187DCC
:103B1C00009A019B00F012FA82460028C7D0434657
:103B2C002100186800F050FCC1E7039B002B32D039
:103B3C000E9B00200F999847030004000D000B43C7
:103B4C0029D000290DDA0098019902000B00121BF4
:103B5C00AB41994215D81AD000920193039B9A4617
:103B6C0058E700F061F902000B00A4185D41200039
:103B7C00290000900191AB4203D8EFD100998A4201
:103B8C00ECD901235B42DC1700930194E6E7009922
:103B9C009142E1D9F5E70020A3E7C046FFFFFF0FF4
:103BAC00F0B504000D0006267642F717C646361906
:103BBC006F4100B58F4213D810D000F035F93200A8
:103BCC003B00121A8B41002B14DC002B37D0290040
:103BDC00200000F05DF904BC9046F0BD8642ECD9A3
:103BEC000026002700F020F932003B00121A8B410E
:103BFC00002BEADD30003900FFF7CAFC0028E6DBB9
:103C0C0000239846BC460F4A0F4F7B6A9C4504D84C
:103C1C00B96A8E42DBD99C45D9D11168EFF310807B
:103C2C0072B60B68002BFCD0BFF35F8F1368BFF329
:103C3C005F8F4146196080F3108820BFE5E7002AAA
:103C4C00C5D0D7E740DE00200040054070B5060027
:103C5C0000F0EAF8FA2204000D00002330000021E5
:103C6C00920004F0D7F8001969418D4205D802D0B2
:103C7C00FFF796FF70BD8442FAD901204042C1176C
:103C8C00F6E7C046F8B5CE46474680B506000C00B0
:103C9C00FFF77EFC00280CDC2D4B0020596A8C426F
:103CAC0003D89B6A0130B34245D30CBC904699466D
:103CBC00F8BD20BF274D6A68EFF3108772B6136802
:103CCC00002BFCD0BFF35F8F2B68C1B29C465B7B93
:103CDC008B4235D0FF2303405A009146624612684E
:103CEC00994490464A464244033A9278002A1DD0A1
:103CFC00EA68000A90464344013B1B78C0B28342F9
:103D0C0021D06B68BFF35F8F00221A6087F3108895
:103D1C000F4A0020536A9C42C7D8926A0130B242C3
:103D2C00C3D2E41A601E8441E0B2BEE72B6998420C
:103D3C00E7D12A61E5E7641A601E8441E0B2B4E77A
:103D4C00FF230340D4E7604600F03EFBD9E7C046B2
:103D5C000040054098D20020F0B5D6464F46464666
:103D6C00C0B5EFF305833F22134018001038EFF372
:103D7C00108C72B6204D2A68002AFCD0BFF35F8FDE
:103D8C000122110081401D4C884661631C491700BB
:103D9C000E788A463100C1400F400A4215D01949AD
:103DAC008200646A51588C4219D3174BD25843463F
:103DBC009E4353461E70BFF35F8F00232B608CF322
:103DCC001088002A06D0904704E0BFF35F8F2F6065
:103DDC008CF310881CBC90469946A246F0BD0B4A49
:103DEC009B00904643441A681A60BFF35F8F002310
:103DFC002B608CF31088EDE7280100D000400540C3
:103E0C00ADDE002050DE002034D80020D03F05402D
:103E1C0010B50100024A0348FFF71EF810BDC0465A
:103E2C005CCA0020A9DE0020034B596A0A00986A7C
:103E3C00596A8A42FAD170470040054070B50400B7
:103E4C000D00124A536A1900966A536A8B42FAD1D2
:103E5C003000190024184D41AB4211D80ED02B0064
:103E6C000A494A6A9A42FCD307D1084A02E0516ACD
:103E7C00994202D1916AA142F9D370BDA642EED902
:103E8C00012301246442E5175B42E9E70040054049
:103E9C00064A536A9942FCD807D1044B02E05A6A8D
:103EAC00914202D19A6A8242F9D370470040054090
:103EBC0070B504000D00EFF3108672B61A4A136841
:103ECC00002BFCD0BFF35F8F002D1BD02000FFF721
:103EDC00B3F8164981420AD02000FFF7B5F801214A
:103EEC002000FFF75DF80123A340114A1360114B2A
:103EFC00A400E550BFF35F8F00220B4B1A6086F3D2
:103F0C00108870BD0B4BA200D5500122A2400A496B
:103F1C0020000B7893430B700449FFF79FF90021A5
:103F2C002000FFF73DF8E5E7280100D0193B002001
:103F3C003860054034D80020ADDE0020F0B54F4687
:103F4C00D6464646C0B50700304C616A0D00A66ADD
:103F5C00616AA942FAD18B4208D805D001201CBC59
:103F6C0090469946A246F0BDB242F7D9EFF31089BC
:103F7C0072B6274801680029FCD0BFF35F8F01257A
:103F8C002449BD408C460978204C0E002E438846AF
:103F9C00F1B28A46614650460870391D1E488900A8
:103FAC0065630A51B9000B50216A0020294219D0CF
:103FBC00616A0800A66A616A8142FAD18B4219D8FB
:103FCC0001D1B24216D8C2451DD0104B1F201D6224
:103FDC005D6301230740BB40104A1E3813606346E3
:103FEC0042461A70BFF35F8F0022094B1A6089F3A7
:103FFC001088B4E70020BFF35F8F0022044B1A60D7
:10400C0089F31088ABE70120ECE7C046004005407F
:10401C00280100D0ADDE002050DE002080E200E060
:10402C0010B5EFF3108472B60A490B68002BFCD064
:10403C00BFF35F8F01238340074A0848136202785D
:10404C009A430270BFF35F8F00230B6084F31088D8
:10405C0010BDC046280100D000400540ADDE002058
:10406C0070B505000E001400002924D0002A24D0BD
:10407C0080686B689847296800280ED063001B196C
:10408C007200033B9219CB18033A9E7088188A5C15
:10409C00002A14D1047030000EE073009B196200EA
:1040AC00033B1219CB18033A9C7088188A5C002ABF
:1040BC0000D05A700670200070BD0800FCE75A70E2
:1040CC0004703000F8E7C04630B583600023CCB2F2
:1040DC0043730133047342608373C4730D0000682F
:1040EC00012C06D9421C0133DBB2137003329C4203
:1040FC00F9D1FF2129404B005918002340180338EF
:10410C00437030BDF8B5CE46474606000C0080B56E
:10411C00002907D04D0003686D18033D5A195778D4
:10412C00002F04D120000CBC90469946F8BD7900B4
:10413C00C919033988464344597889460021597076
:10414C00517073683A0021008068984733680028E2
:10415C0014D042469A18947059195B5D002B00D00C
:10416C0053700F70270049463000FFF7CBFF390022
:10417C0002003000FFF774FF0400D3E742464146CB
:10418C005D19AF709A185B5C002B00D06B701470CB
:10419C00E9E7C046F0B557464546DE464E46E0B523
:1041AC000D006B0001685B19DF1E0400C85D83B055
:1041BC000192CA1900284CD043001B18033BCB18A2
:1041CC005E78B446002E16D1019E002E3ED0E67BC2
:1041DC00002E04D073009B19CB18033B5D70E57364
:1041EC0000282FD10023537003B03CBC9046994655
:1041FC00A246AB46F0BD72006244033A89184A7875
:10420C00904600224A7091465A70010032002000FC
:10421C00FFF726FF43468246002B07D05B00216840
:10422C004344033BCB185A78002A16D142465146D8
:10423C002000FFF715FF2168019BCA19002BC6D17E
:10424C000028CFD043001B18033BCB1800219970DA
:10425C00C8E7019B002BBAD1C4E750008018033883
:10426C0009184878834648464870587041462000E3
:10427C00FFF7F6FE594680462000FFF743FF414604
:10428C0002002000FFF7ECFE8046CFE7F0B54E466B
:10429C004546DE465746E0B5467B0400750000688F
:1042AC00AD19033D83B00191415D421900294ED0F7
:1042BC004B005B18033BC3185F78BC46002F18D12A
:1042CC00019D002D40D0E57B002D04D06B005B19C7
:1042DC00C318033B5E70E673002931D10023300014
:1042EC005370617303B03CBC90469946A246AB46F2
:1042FC00F0BD7A006244033A80184278934600225B
:10430C00427091465A7020003A00FFF7A9FE5B46B6
:10431C008046002B07D05B0021685B44033BCB1825
:10432C005A78002A17D15A4641462000FFF798FECA
:10433C00019B010020684219002BC4D10029CDD06B
:10434C004B005B18033BC31800209870C6E7019B19
:10435C00002BB8D1C2E750008018033809184878F0
:10436C00824648464870587059462000FFF778FE40
:10437C0053468346002B07D05B0021685344033B14
:10438C00CB185A78002A06D1594652462000FFF71E
:10439C0067FE8346C7E75000801803380918484663
:1043AC004F784870587051462000FFF759FE39007D
:1043BC0081462000FFF7A6FE494602002000FFF7C9
:1043CC004FFE8246E0E7C04670B5040000292CD0B1
:1043DC00437B8B422ED005684800401803382818C0
:1043EC008278002A21D053009B18033BEA5CEE181C
:1043FC008A4202D11BE0002A08D053009B18033BD1
:10440C00EB185A788A42F6D142785A70002301226E
:10441C00837043702000FFF7BDFE617B020020001B
:10442C00FFF71EFE6073012000E0002070BD437892
:10443C003370EBE701221900FFF7ACFE607301202B
:10444C00F4E7C04610B50400FEF78EFD0100200015
:10445C00FFF764F8FF232371BFF35F8F10BDC046D5
:10446C0010B50400FEF780FD01002000FFF756F8A0
:10447C00FF23A380BFF35F8F10BDC04610B50400AF
:10448C000120FEF77DFD034BC3189B002360BFF397
:10449C005F8F10BD40000034F8B5040006200D00FD
:1044AC0000F0ECFA002845D02B4B2C49E3185A426B
:1044BC0053418022D20394465B421340284A634402
:1044CC001360284A136018008A689043FBD1224B72
:1044DC008021E3185A425341234A5B0049000620CD
:1044EC00995200F0CBFA2900C00001F039FFC30942
:1044FC0021D140270122260080256262A36200237D
:10450C002C36AD0135432B60062000F0B7FA39008C
:10451C00800001F025FF6023E26A53406E221A40AE
:10452C0080235B0133431A60104B236310232B60F1
:10453C000D3BA364F8BD0E4A934203D900230D4FE3
:10454C000D4AD8E77F221040013040089F011A0025
:10455C003F180300CFE7C0460080FCBF00C00040FE
:10456C0000E0004000F00040745301200103000003
:10457C00FEFF0000C0FF3F00FFFF00002C4B2D4A48
:10458C0070B51A602C4A2D4B2D491A6010008B689F
:10459C009843FBD12B4C2C4B9C4209D2013B1D1B4D
:1045AC00AD080135AD002D1908CC9847AC42FBD1B4
:1045BC0000F006F9254A214B1A60214A9368DB0169
:1045CC008033FBD14022224B224C234D9A675A67F1
:1045DC001A67DA66AC4208D223682000002B21D07F
:1045EC000834FFF73DFFAC42F6D31C4C1C4DA168C0
:1045FC00C022280003F07EFCA560FEF7A7FCFEF7A6
:10460C0063FFFFF7C1F9174C174B9C4209D2013BD2
:10461C001D1BAD080135AD002D1908CC9847A542DE
:10462C00FBD170BD0834FFF70DFFAC42D4D3DCE7EF
:10463C0000E00040BFCDFBFEFE7F3C0000F00040E0
:10464C0000C0004044D3002054D30020FFFFFF01E2
:10465C0000F0014034D3002044D3002000ED00E0F2
:10466C000000002054D300205CD3002000BEFDE7E6
:10467C000FB400B5084883B003F098FD049B002BE1
:10468C0007D005A91800019101F0F4FD034803F0CF
:10469C008DFD00BEFDE7C04680CA002024BD002071
:1046AC0010B50148FFF7E4FF90CA0020F0B545466D
:1046BC00DE4657464E46E0B583B001920C9A050093
:1046CC0088469A4200D974E01A0E93461E023000B6
:1046DC00002359460C9A01F085FE374B6C009C4622
:1046EC006419A400644463680700834200D26060CC
:1046FC002B1FDBB29946012B35D9C02380229B019D
:10470C00234312011A602D4BAD0059599A460029CA
:10471C0005D0586901F024FE01300138FDD1019A11
:10472C00236852015340E0221A4080235B0123434B
:10473C001A604A46012A2FD9802380229B012343E9
:10474C0012011A60300000233A005946676001F0EC
:10475C0049FE53465851012003B03CBC9046994643
:10476C00A246AB46F0BD4346012BC6D1C023032263
:10477C009B0123431A60023AA3681A42FCD0019AA7
:10478C00236852015A40E0231A4080235B012343E3
:10479C001A600A4AAD0092464246216851400322F3
:1047AC000A401A60012243469A40A3681A42FCD080
:1047BC00C2E70020D0E7C0460080004054D900205A
:1047CC0030B50C2083B000F0B3F9FEF7B7FB00282E
:1047DC000ED0944B944A1A605A609A60DA601A614F
:1047EC005A619A61DA611A62904A5A6203B030BD1A
:1047FC008F4CA06700F0F0F901228E4B1A60636CAD
:10480C00012BFCD103228C4B1A60894A936B012B30
:10481C00FCD101330121894A89480093043300F00B
:10482C0033F90523874A00930121874800F02CF9BE
:10483C00864B5A68FF2A02D8802252005A60802286
:10484C00784C7D4B21691201804D1A60002905D0EE
:10485C00606901F085FD01300138FDD1E0217B4B11
:10486C0002201A681140802252012A4311601968F3
:10487C00484003210140116004219A681142FCD088
:10488C008022802192012A4309011160802252006A
:10489C005A606F4B23616F4B5968FF2900D85A60DF
:1048AC0003226C48634B01211A6002009368194281
:1048BC00FCD0E02513681D4080235B0103431D6081
:1048CC0012684A400321114019600221614A936821
:1048DC001942FCD0802380219B01034309011960FC
:1048EC0080215D4B4900516063615C4B5A68FF2A23
:1048FC0000D8596080225A4BE1691201574D1A6059
:10490C00002905D0606901F02BFD01300138FDD183
:10491C00E02252490B681A4080235B012B431A603A
:10492C00802380229B012B4312011A6080223E4B74
:10493C0052004A60E3614B4B5968FF2900D85A601A
:10494C008022494B216A1201464D1A60002905D07C
:10495C00606901F005FD01300138FDD1E0224149CB
:10496C000B681A4080235B012B431A608023802242
:10497C009B012B4312011A60802380225B004B6049
:10498C00294BD2022362394B5968914200D25A60AA
:10499C008022374B616A1201344D1A60002905D010
:1049AC00606901F0DDFC01300138FDD1E0222F49B6
:1049BC000B681A4080235B012B431A6080238022F2
:1049CC009B012B4312011A608023DB024B60174BB7
:1049DC006362284B5A68FF2A02D8802252005A6020
:1049EC008022254BA1691201224D1A60002905D0A5
:1049FC00606901F0B5FC01300138FDD1E0221D49A0
:104A0C000B681A4080235B012B431A6080238022A1
:104A1C009B012B4312011A6080235B004B600E4BF1
:104A2C00A361E3E654D90020006CDC021BB7000044
:104A3C00008000403CB0004030B00040002F68596E
:104A4C0000800240008C864700C00240308000404D
:104A5C00001BB7003C800040405973075480004055
:104A6C0054B000406080004060B000406C8000405A
:104A7C006CB000404880004048B00040014B8000C2
:104A8C00C058704754D90020F8B504000C2017000A
:104A9C001D000E0001F064FC4101091A8B01591A2A
:104AAC00C90009188901380001F05AFC069A2B0438
:104ABC00120313432268002A21DB194AA21851421F
:104ACC004A41802149018C4652420A4015496244B0
:104ADC000A6015490A60154917008D68AF43FBD170
:104AEC00C021221D8901114321222660A0600A6089
:104AFC002268002AFCDAE36008230B60F8BD3F2231
:104B0C0021680A40B242D8D1A2681205120D824225
:104B1C00D3D1EE21E268C9020A409A42CDD1EDE729
:104B2C000040FDBF00E0004000F0004000C000402D
:104B3C008023024A9B000343D362704700800540E8
:104B4C0010B5140080221B4BD2051A6000281AD015
:104B5C000123194A1843194BDA61194A42401A6267
:104B6C00596298628022134BD2051A601549164A75
:104B7C001160E022D2041A60002C07D18022134B62
:104B8C0012061A6010BD0D4BD861EBE78023620151
:104B9C00121B9200121912015B049A4200D30C4AA8
:104BAC000C4B1A60054B5A608022084BD2051A60D8
:104BBC00E8E7C04600B00540D3C007B00080054010
:104BCC002D3FF84FFCFF01000820014000A00540DC
:104BDC00FFFFFF0010DE0020AA23064A1B01136012
:104BEC002F230549D360054B19605368002BFCDA61
:104BFC007047C0460040024000B0FA00006002401E
:104C0C009A4200D2885470477047C046F8B5574650
:104C1C004E46DE464546E0B51F000A9B05009B4606
:104C2C000D9B0E00914692469B0718D10B9B0C9A3C
:104C3C00934214D213000B9AB8469B1A4B444C4621
:104C4C000F0006001D0022004346013439002020CD
:104C5C00B047AC42F7D1AA4635003E0047460B9B05
:104C6C00002B38D09A441C00D04653461A1B5B4686
:104C7C00013C185D31003B00A847002CF5D10D9B81
:104C8C009B0721D543464A469C1A0C9BA3421BD931
:104C9C003A009A464F469146E2194B463100202085
:104CAC000134A8475445F7D343460C99DB1B013319
:104CBC00B9460022994203D343464A1E4A44D21AAB
:104CCC00434690460133984440463CBC9046994636
:104CDC00A246AB46F8BDD046D1E7C046F0B54F462C
:104CEC004646D646C0B584B098460EAB1B78129F8C
:104CFC00994694460D9C109B119EBA0725D4002E04
:104D0C0069D19C4200D3C2E001223A4092461F2C4A
:104D1C0000D9BBE00C9A551E302201E0202C03D0A8
:104D2C0001342A55A342F9D85246002A0DD0B44278
:104D3C000BD21F2C62D80C9A551E302201E0202C6D
:104D4C005CD001342A55B442F9D1FA0635D57A052E
:104D5C005DD4002C57D10F9B102B00D17CE00F9B06
:104D6C00022B00D18DE030230C9A012413704B469A
:104D7C00002B27D02D230C9A135501340C9B624623
:104D8C0000930397434602960194FFF73FFF04B04C
:104D9C001CBC90469946A246F0BDBB0663D4202CA1
:104DAC00ECD00C9B1A19013478231370202CE5D00D
:104DBC0030220C9B1B191A700134202CDED04B4670
:104DCC00002BD7D17B0735D43B07D7D520230C9AA2
:104DDC0013550134D2E7012215003D40AA463A4250
:104DEC0020D04A46002A2AD10C323A4227D19C4282
:104DFC009DD21F2C00D88DE7202E19D92024FA061D
:104E0C00BCD57A0503D4A3421BD0A64219D00F9B64
:104E1C00102BC2D0022BC9D1202CAFD00C9B1B194C
:104E2C00013440E09C4200D38FE71F2C00D871E77F
:104E3C0020248AE72B230C9A135501349EE7013E5C
:104E4C00D5E7631E012C00D185E70F9A102A20D0DC
:104E5C00022A25D01C00ABE7BB060DD478230C9A94
:104E6C0001241370A4E7202C00D187E758220C9B57
:104E7C001B191A70013499E758230C9A01241370EA
:104E8C0096E70C9A60330124137091E720240026D6
:104E9C005BE7023CBA06E9D40C9A12191C0083E7B2
:104EAC000C9A9246534462221A707FE710B5002880
:104EBC0000D110BD03F028F9FBE7C0460B0010B57C
:104ECC00002802D049681B68984710BDF0B5DE4633
:104EDC00574645464E46E0B59BB09B46249B0A90F0
:104EEC009846259B0B910C924046424619009A46D7
:104EFC0001F00FFD002800D0E8E0012240465146A9
:104F0C007F4B524201F000FD002800D0DEE0012270
:104F1C00404651467B4B524201F0E0FC002800D049
:104F2C00D4E0002200234046514601F0D7FC002873
:104F3C0000D0CAE15346C14609938023289ADB006E
:104F4C001A400E92289A1A4201D1062326934C46F7
:104F5C00099B234300D0D9E0289B002600271B0582
:104F6C0000D4AEE100230D93269B19000D9B9942B2
:104F7C0000DCB0E1C81A431E26938023289ADB007C
:104F8C001A430023002528920D93279B0024AB4243
:104F9C0000D95C1B0223289A1A400E92289A1342BD
:104FAC0003D06B426B415B421C400D9B002B07D026
:104FBC004846099932003B0001F027FC81460991D3
:104FCC00002200234046514601F088FC002805D001
:104FDC00802000068446099961440991289A4A4B1D
:104FEC000A9E13404A460493269B0B990293099BF5
:104FFC0003940092019330005B460C9A884600F0B3
:10500C00A1F90400002D72D0289B220098061F23C2
:10501C00C017984341465B466530B0470D9B671CF3
:10502C00DA179C18DB0F98466B1E994600255440E6
:10503C0001E0202D13D00AAA94461F2320006344BC
:10504C000A2101355E1901F08BF9303131702000E5
:10505C000A2101F085F926000400092EE9D8052360
:10506C0006934B460593002304930A33039343465C
:10507C003A000A9E0B9F029312AB009339005B46D9
:10508C0030000195FFF72AFE0E9B0400002B2ED05A
:10509C000C9B279AC51AAA4229D93C0081469846EE
:1050AC001700434621005A1920205B460135B047B2
:1050BC00AF42F6D84C460C992798631A013300225C
:1050CC00984200D30AE10134141910E0289B42469F
:1050DC000493279B0B990393269B0A9802935346A0
:1050EC00009201935B460C9A00F02CF9040020000E
:1050FC001BB03CBC90469946A246AB46F0BDC046A0
:10510C00FFFFEF7FFFFFEFFFFFF7FFFF764B099DE0
:10511C009C466800400D604401F00EFC734A744BD1
:10512C0001F091FB734A744B01F066FB2B03734A3D
:10513C001B0B1A4306000F00714B1100484600224E
:10514C00099501F050FB6F4A6F4B01F07CFB02009C
:10515C000B003000390001F04FFB01F005FC0D9005
:10516C0001F0EAFB694A6A4B04000D0001F06BFB8D
:10517C000022684B01F040FB01F0F6FB664A06008A
:10518C00664B2000290001F05EFB040030000D008E
:10519C000F9601F0D1FB624A624B01F054FB020006
:1051AC000B002000290001F01EFB02000B00060082
:1051BC000F0001F048FB320004000D003B003000F2
:1051CC00390001F019FB002210901191564B200070
:1051DC00290001F01AFB0022544B01F00DFB0200D8
:1051EC000B002000290001F010FB0022504B01F0B5
:1051FC0003FB02000B002000290001F006FB0D0050
:10520C00802132003B000400C905002001F0EBFABC
:10521C0002000B002000290001F0EEFA02000B0046
:10522C001098119901F0F1FA0022344B01F0E4FAD4
:10523C00404A0F9B9446634400221B0501F003FB7C
:10524C0006000F0002000B004846099901F046FBCE
:10525C0000280AD00D9B3000013B39000D93002231
:10526C00324B01F0D2FA06000F00C6250D9933001F
:10527C0063318D42AD4128996D420435090500D446
:10528C0083E63B4300D16FE6099C484621002A4A3D
:10529C002A4B01F031FB002808D00022484621009F
:1052AC00274B01F01BFB002800D05DE6269B002B52
:1052BC0000D16AE60E9B5A1E9341269AD31A269366
:1052CC0063E6002304250D935FE680231B065344FD
:1052DC00C146099331E6002326934EE60A00844624
:1052EC00013A6244121BEEE601FCFFFFFB799F5072
:1052FC001344D33FB3C8608B288AC63F0000F03FED
:10530C000000F83F61436F63A787D23F71A379090F
:10531C004F930A400000E03F1655B5BBB16B0240FD
:10532C00EF39FAFE422EE63F00002C4000002440EC
:10533C0000001840FF0300002D431CEBE2361A3F1F
:10534C0080842E41F0B54E46DE4657464546E0B5C4
:10535C0097B09946209E219F229B834698460791A1
:10536C000C923B0032003000390001F0D2FA0028D8
:10537C0000D0C1E1012230003900CA4B524201F089
:10538C00ADFA002800D0E0E0012230003900C64B15
:10539C00524201F0B9FA002800D0B6E000223000E9
:1053AC003900C24B01F0B0FA002800D098E000227E
:1053BC0030003900BE4B01F091FA002800D08FE08C
:1053CC00002200233000390001F088FA002800D0B8
:1053DC00B0E000230D93249B5B0501D40623984673
:1053EC0008AB9C461722002430234146624404E05B
:1053FC00013413550139202C01D00929F8D88846DD
:10540C003000390001F0B0FA4346DA00A94B050030
:10541C009B181A685B680892099301F08DFA0200D8
:10542C000B003000390001F0DEF9089A099B01F0FD
:10543C000AFA0A900B9101F0BBFA824601F078FA55
:10544C0002000B000A980B9901F0CDF900229A4B3F
:10545C000A900B9101F058FA002800D1C0E001230A
:10546C009C46E244504601F063FA02000B00089897
:10547C00099901F039FA002802D000239A46013527
:10548C004346002B69D008AB17269C46089566440A
:10549C00554614E001235B4243440A2128009A46F6
:1054AC0000F05EFF013430313719397028000A21C1
:1054BC0000F056FF092D00D8D5E0D0460500202C71
:1054CC00E8D10323249A1340012B00D100E10EAB49
:1054DC009846249B01940393239B029343461EE01E
:1054EC00249B58460493239B0096019703934346B1
:1054FC000C9A029307994B46FFF7E8FC17B03CBC9B
:10550C0090469946A246AB46F0BD249B5B070ED451
:10551C0003226A4B249901920391239902910093DF
:10552C0058464B460C9A0799FFF770FBE6E70422A6
:10553C00634BEFE73B0032000020002101F053F9F0
:10554C00012306000F000D9345E7249B0393239B37
:10555C000293042301935B4BE1E7280001F0ECF983
:10556C0002000B003000390001F03DF9524B0022D3
:10557C0006000F0001F0B2F90EAB984600280AD1D4
:10558C000022300039004C4B01F0BEF9002802D14A
:10559C00EB0700D50135202C32D008AA94461723EE
:1055AC00280063440A2101341E1900F0B1FE303189
:1055BC00280031700A2100F0ABFE051EEBD103234D
:1055CC00249A1340012B00D191E01F2C00D980E7C5
:1055DC000D9B002B3BD02D2342461355013478E70D
:1055EC0000220A980B99344B01F078F9002800D06E
:1055FC0046E75346002B67D101239C46E2443FE724
:10560C000323249A1340012B00D062E7239B002B29
:10561C0000D15EE70D9B002B03D1249A0C3313426F
:10562C0002D0239B013B2393239B9C42CDD208ABFE
:10563C009C461722302362441F2C06D82399013430
:10564C0013558C42C1D0202CF8D1202441E7249B47
:10565C005B0721D4249B1B0700D43AE72023424646
:10566C001355013435E75746089D202C37D02200BE
:10567C0030214046002F08D00132B154202A43D0AB
:10568C00D3431B191B18002BF6D10EAB98462E23B7
:10569C004146541C8B547EE72B2342461355013450
:1056AC0017E7C046FFFFEFFFFFFFEF7F65CDCD4152
:1056BC0065CDCDC198CC00200000E03F9CCA0020F5
:1056CC00A0CA0020ACCA0020DB0700D4D8E693E7C0
:1056DC00239B002B00D1FAE60EAB98469AE70323E6
:1056EC00249A1340012B00D0F1E60EAB9846239B75
:1056FC00002B00D169E78DE7249B0393239B029336
:10570C0003230193064B0AE70323249A2024134016
:10571C00012B00D0DBE6239B2024002BDCD1D6E62A
:10572C00A8CA0020F0B5DE464E4657464546E0B5C1
:10573C009FB01C00289B93460993CF4ACF4B8946B8
:10574C0008901A60002900D116E2002320789A46AE
:10575C00002800D118E226001D004C460AE02A0061
:10576C006F1C5B46089D2100A8473D000136307830
:10577C0000287AD02528F2D110239A46083B994666
:10578C00043B9846023B00219C46721C1078160084
:10579C000300203BDBB2102B03D8B94F9B00FB5806
:1057AC009F460300303B092B3CD900230A932A283F
:1057BC0000D171E0002398462E2847D00300683BA7
:1057CC00DBB2122B1FD8AF4A9B00D3589F46012344
:1057DC0001321943DAE7634601321943D6E74346EF
:1057EC0001321943D2E7534601321943CEE74B46F7
:1057FC0001321943CAE770786C2800D1BFE28023CC
:10580C005B00194301360300253BDBB2532BA6D8B2
:10581C009D4A9B00D3589F4680235B0070781943A8
:10582C000136F0E700270300B800C019013640002C
:10583C00C018337830381A00303A0700092AF3D9E7
:10584C000A901800002398462E28B7D18023707830
:10585C00DB0019430300303B721C092B00D895E187
:10586C002A2800D1A6E11600A8E7A146AA462C00DA
:10587C00D34503D801235B425B449A465B465246B0
:10588C0049460020089DA84720001FB03CBC90460C
:10589C009946A246AB46F0BD099B40CB0A96002E1A
:1058AC0003DB50780993561C84E728380143704277
:1058BC000A9009935078561C7CE7782800D1D4E1E3
:1058CC00582800D168E26F2800D152E3622800D139
:1058DC00D8E110230A009A430B92692801D000F0FA
:1058EC00A2FC0A230C934B0500D4D5E101230B9A9F
:1058FC009A430B92692800D1CEE1642800D1CBE108
:10590C000B9A802311009B0019408A461A4200D042
:10591C0032E3802311005B00194089461A4201D002
:10592C0000F002FC13005B0600D510E30B9B1B067A
:10593C0001D400F06EFC099B04CB1204120C9246AD
:10594C0009935346002B00D064E30B9A10331100DB
:10595C0099430B91520500D45CE3002399460B9BB1
:10596C0006930A9B0593434604930C9B03930023D5
:10597C00DEE27078682800D107E2802301361943F3
:10598C0041E780239B007078194301363BE746289A
:10599C0000D174E10722099B0491073393430A9ABF
:1059AC0019000392424602920CC908980092019386
:1059BC0009912A005B462100FFF7C4FC0136050063
:1059CC00D5E6099B1A0008CA9146002B00D105E1C7
:1059DC00212211438A460EA884461F216144099551
:1059EC0000220F27A4460D0002E0202A0CD00B0049
:1059FC003C001C4020003730092C00D807380132FD
:105A0C00A85419090F2BF0D86446099DF0E08B07B8
:105A1C0000D4D1E1099B2A0099466B1C98464B4651
:105A2C0001CB21009946089F5B46C0B2B8470A9B40
:105A3C009C466544012B00D890E2B2465E46474630
:105A4C00A846089D3A003300013721002020A847C2
:105A5C004745F7D1B3464B4656463D0009930136B0
:105A6C0085E62A006F1C5B46089D21002520A8476F
:105A7C0001363D007BE6C046E55400200CDE0020DC
:105A8C00B4CA0020F8CA002044CB0020099B04CBE8
:105A9C00994643460992002B00D097E013789C4618
:105AAC00002B00D1B3E302235B425A1C099B9246A4
:105ABC0018000A9F0B92504402E0834200D169E126
:105ACC005A780133002AF8D1099A0A979B1A0B933A
