:020000041000EA
:1000000000B5324B212058609868022188439860DF
:10001000D860186158612E4B002199600221596106
:100020000121F02299502B49196001219960352056
:1000300000F044F80222904214D00621196600F024
:1000400034F8196E01211966002018661A6600F04E
:100050002CF8196E196E196E052000F02FF8012189
:100060000842F9D1002199601B49196000215960AB
:100070001A491B48016001219960EB211966A021F2
:10008000196600F012F800219960164914480160C1
:100090000121996001BC002800D000471248134993
:1000A000086003C880F30888084703B5996A0420EC
:1000B0000142FBD001200142F8D103BD02B5186610
:1000C0001866FFF7F2FF186E186E02BD00000240BE
:1000D000000000180000070000035F00212200005C
:1000E000F4000018222000A00001001008ED00E03C
:1000F00000000000000000000000000074B24E7A12
:1001000000200420F7010010C3010010C5010010F9
:10011000C1010010C1010010C1010010C101001097
:10012000C1010010C1010010C1010010C701001081
:10013000C1010010C1010010C9010010CB01001065
:10014000CD010010CD010010CD010010CD01001037
:10015000CD010010CD010010CD010010CD01001027
:10016000CD010010CD010010CD010010CD01001017
:10017000CD010010CD010010CD010010CD01001007
:10018000CD010010CD010010CD010010CD010010F7
:10019000CD010010CD010010CD010010CD010010E7
:1001A000CD010010CD010010CD010010CD010010D7
:1001B000CD010010CD010010CD010010CD010010C7
:1001C00000BE00BE00BE00BE00BE00BE00F051F882
:1001D000103800BEF2EB887194060010C0060010C3
:1001E0003402001090A31AE700202449086006C8D2
:1001F00081F30888104722480068002835D10DA4F3
:100200000ECC002902D000F012F8F9E71D491E4A71
:10021000002000E001C19142FCD11C4988471C49E3
:1002200088471C49884700BEFDE701C901C29A42C0
:10023000FBD37047C0060010C0000020E81F01205B
:10024000E8250110F01F0120CC4D0120C4530110FE
:100250000000042000000420C453011000100420FA
:10026000001004200000000070470B4800F018F850
:100270000047EFF30580C0B27047000008ED00E0D2
:10028000000000D0D04D0120987B0120797D002016
:1002900081220020A17E00205756000000000000AF
:1002A00001B40248844601BC604700BF059B0020A2
:1002B00006005250ABB36053243B0120060052505D
:1002C000861C0302343B0120060052505422A29D9A
:1002D000483B012005005250DE65F468C45301100C
:1002E00080030181B0B0AB1000000000C1F5001028
:1002F000B0B0AA00FFFF01080E041C00180E000099
:10030000ADF50010B0B0AA00FFFF01080E041C00FC
:10031000180E000099F50010AB029701B0B0B003C1
:10032000FFFF010C34040000420450004C0E00009A
:1003300080010181B0B0AB1000000000800201819B
:10034000B0B0ABF00000000080040181B0B0ABF0B1
:100350000000000080010181B0B0AB10000000007F
:100360004DF50010B0B0AA00FFFF0100F080018140
:10037000B0AB08B10000000035F50010F0801201AC
:10038000B0B0B0ABFF1019011028B2070000FC0795
:10039000049E0901C4085A0000010000000000008A
:1003A0000DF50010B0B0AA00FF1019010C020608EC
:1003B000010C0410051E08000001007F00007D00F4
:1003C0000000000000000000E5F40010B0A80100EB
:1003D000FFFF01080C0416001C040000D1F40010FB
:1003E000F0800401B0B0B0ABFF1019010F480A5201
:1003F0000196014AE60100EE010400000100000040
:100400000000000074B20181B0AB30800000000039
:1004100080080181B0B0ABF0000000003F02018114
:10042000B0AB30800000000080060181B0B0ABF0BE
:0404300000000000C8
:100434000CE40010B0B0A8803CE4001001000000FF
:10044400B8E40010B0AB0280E8E4001090FEFF7F37
:100454007CE50010AB08B18098E5001001000000B5
:10046400C8E50010B0B0A880E0E500107CFEFF7F76
:1004740008E6001088FEFF7F30E6001094FEFF7F40
:1004840090E60010AB1C9780D8E600100100000035
:100494004CE70010AB108080ECE70010B0B0A880EF
:1004A40020E8001088FEFF7F8CE800108CFEFF7FA0
:1004B40040E900100100000070E90010B0AA0180BA
:1004C400F8E9001080FEFF7F84EB0010B0AA0180E1
:1004D400D0EB001001000000ACEC0010B0A90480C7
:1004E400DCEC0010010000007CED0010AB08B180D2
:1004F40098ED001001000000E0EE001054FEFF7FB4
:10050400A8EF00100100000070F0001050FEFF7F03
:10051400DCF00010B0B0A88064F10010010000000D
:1005240094F1001044FEFF7FA0F20010B0B0A88048
:10053400E0F20010AB08B18070F3001038FEFF7FCA
:100544000CF8001058FEFF7F2CF80010010000008A
:1005540034F80010B0B0A88044F800100100000086
:1005640054F80010B0B0A88080F80010010000001A
:10057400C4F80010B0B0AA80F0F80010B0B0A880A1
:1005840058F900100100000010FA001038FEFF7F37
:100594002CFA0010B0B0A880B0FA0010AB08B180FB
:1005A400F0FA001001000000F0FA0010B0B0A880CA
:1005B4000CFB0010B0B0AA8030FB0010010000005A
:1005C40084FB001014FEFF7F7CFC0010010000007F
:1005D400ACFD0010B0A9028040FE0010B0B0A880AD
:1005E40094FE001001000000A0FE0010B0B0AA802C
:1005F400D4FE00100CFEFF7F9CFF001001000000E1
:1006040098FF0010AA3F3980E4FF0010B0B0A88022
:10061400F0FF0010B0B0AA8030000110B0B0A88084
:10062400440001100100000040000110B0B0A88097
:100634004800011001000000D8000110AA0FB28088
:1006440040010110C8FDFF7F24040110B0B0A88050
:1006540040040110C4FDFF7FB40601100100000036
:10066400240801100084048034080110B0B0A8806C
:1006740034080110B0FDFF7F1C0B011000840480BE
:10068400400B0110B0B0A880580B0110010000000D
:10069400D4020010C8020010BC020010543B012018
:1006A400B0020010603B01206C3B0120783B01202C
:0C06B400B43B0120C03B0120F43B0120BE
:1006C000F8B5C0460448054B10B5834203D0044B2F
:1006D000002B00D0984710BDCC4D0120CC4D0120FF
:1006E0000000000006480749091A8B10C90FC918F5
:1006F00010B5491003D0044B002B00D0984710BD13
:10070000CC4D0120CC4D01200000000010B5074C5D
:100710002378002B09D1FFF7D5FF054B002B02D022
:10072000044800E000BF0123237010BDF84E0120F3
:1007300000000000E81F0120054B10B5002B03D07E
:100740000449054800E000BFFFF7CCFF10BDC046DC
:1007500000000000FC4E0120E81F012005490A6846
:1007600093009B18044A5B001268303A9B180B6098
:100770007047C0460C760120B46501200022014B71
:100780001A6070470C760120024B1A68024B1A60FF
:100790007047C0460C760120945301200023084A7C
:1007A00010B51360074A084C136000220748084937
:1007B000E254C254CA540133642BF9D110BDC0466F
:1007C00040780120A459012078580120DC580120EC
:1007D00040590120024A136859424B411360704747
:1007E000AC530120024A136859424B4113607047D1
:1007F000A853012010B50A200BF0E8FB044B054874
:1008000019680BF0EBFC0A200BF0E0FB10BDC046B2
:10081000DC7501207C230120F0B5DE4657464E46AC
:100820004546E0B50A2083B00BF0D0FB224B64258F
:100830009846224B28269B46214B224F9A46224B14
:1008400099462C00643C43461B5DDAB2012B30D044
:10085000023A531E9A415242B24357323B689C427D
:100860001ED05B4651461B5D095D01922022DBB222
:1008700000912100484614340BF0B0FCAC42E2D1A8
:100880000A2001350BF0A2FB782DDAD10A200BF0FB
:100890009DFB03B03CBC90469946A246AB46F0BDDA
:1008A0005B4651461B5D095DDBB2019200912A2235
:1008B000DFE75222D2E7C046405901207858012094
:1008C000DC580120A45901209423012070B50A208E
:1008D0000BF07CFB094C0A4E2500BD35FF356268E4
:1008E00013782A2B03D0300021780BF077FC0C34DE
:1008F000AC42F4D103480BF071FC70BD984201206A
:10090000B0230120BC230120F0B5DE464546574602
:100910004E4601200023E0B5D025CE4C89B0002101
:100920004042236006F058FA01202D066B689A11A8
:100930000240944661469B131840C74BC74A186053
:10094000C74B11601A685B6804920593C54B1A681F
:100950005B6802920393236801240693C24B9B4673
:10096000C24B98465B465A461B68013313606A685F
:10097000521222406B6816005A122240012EF9D101
:10098000002A03D06B685A122240FBD19A112240F0
:100990009E13924626405A1101962240012900D109
:1009A0008AE0012800D125E15146002900D02DE13F
:1009B000002803D10199002900D032E10F271F4000
:1009C000002A00D1EBE00720049A1040FA00049EB0
:1009D000059F7907F7080F4307210F40A44989189D
:1009E000CF5D210081403940014180200001A86194
:1009F000002900D12AE1802149016961019900297A
:100A000028D10298039907260640B44606004807F5
:100A1000F1080143170007208037014094487F18F0
:100A2000C05D664681462000B0404E463040664676
:100A3000304180263601AE61002800D102E18020DD
:100A4000400168618B480068002803D16046072890
:100A500000D139E15A041BD44246126886499200FB
:100A60008B5043461B68854A06999B00D1504346EC
:100A70001F6818686421013009F072FB4346196051
:100A80007F4B1A6843461B689A4201D143461F6058
:100A90000120049A059B002112184B4104920593F2
:100AA000029A039B12184B4102920393069B5146F4
:100AB00001330198069355E75146002905D10026D8
:100AC00000270296039704960597012800D1ACE011
:100AD0000199002900D0A4E00F2751461F400029AA
:100AE00000D16DE7002A58D119112140FA00079171
:100AF0000720029E30408146029E039F7807F70838
:100B000007430720074010008030844626004846EF
:100B10008640BC44310066465548805D4E46884359
:100B20000799B140664608435149C0B288555149BA
:100B3000096800298ED1494607298BD1803AD719F7
:100B4000504A51491268FFB28F544E4A4F491268B9
:100B5000885402214B4A4E4812688154494A4949F7
:100B6000126801320A600A68632A00DC72E7414AAF
:100B700014606FE7002900D116E70F2751461F4088
:100B8000002900D11CE70199002900D062E7002A62
:100B9000AAD05246002A00D115E7FA0031E7072211
:100BA0000498059902409446C0084A07104307225A
:100BB00026001040FA006746BE40B1462C4E101881
:100BC000375C4E461911B7432140079139006746FB
:100BD000079EBE403143264ECFB23754254E36686D
:100BE000002E02D16646072E54D00199002900D16B
:100BF0007EE72FE7002EBDD1002600275146029642
:100C0000039704960597002900D1D1E680210901B8
:100C10006961002813D10199002902D10F271F40D3
:100C200060E7802109016961A7E701990029A4D142
:100C30000020002102900391049005919DE70F2769
:100C40001F40A0E780204001A861FBE68021490108
:100C5000A961D3E6D4570120D0750120CC750120BD
:100C6000D84D0120D04D0120DC7501200458012011
:100C70002476012040780120B05401204056012004
:100C800008580120A459012078580120DC5801207F
:100C900040590120154EC0B23668B4466146144E24
:100CA00070541249086813490F5402270F49086805
:100CB00011490F540D49086801300860086863281D
:100CC00093DD0E490C6090E7803A5118074A0848B6
:100CD0001268C9B281540A4A0648D15D034A1268B3
:100CE0008154024A044912688C5437E7A459012000
:100CF00078580120DC58012040590120407801201B
:100D0000247601208022F8B5134F144D3B6828004B
:100D10001C03134B52001968802609190BF040F888
:100D2000802376015B03E018310011F045FD691C5A
:100D3000FF310A000B4B13CB13C213CB13C213CBDF
:100D400013C21B6829001360386832000130FF307D
:100D5000000311F071FDF8BD0C760120CC65012077
:100D6000944201205478012070B500250B480BF007
:100D70007FF90B4EFA2080000BF042FA0400431C6E
:100D8000F8D00BF023F90D2C05D06B1C7455262BD5
:100D9000F0DC1D00EEE70023735570BDD823012061
:100DA00054780120F8B500234746CE46942698464D
:100DB000174B80B59946174F760009E001239C46F2
:100DC0008023E0445B019C4643466644FA2B18D0DE
:100DD00034003B68283C1B5DFF2BEFD04146484662
:100DE0000BF0FCF902E00134A642E7D03B681D5D40
:100DF000280010F015FD0028F5D028000BF0E6F8CB
:100E0000F1E70A200BF0E2F80CBC90469946F8BDD9
:100E1000FC2301209442012010B501F023FE10BDF7
:100E200070B50024074D200005F0D4FE210002001B
:100E3000013428000BF0D2F9202CF4D10A200BF059
:100E4000C5F870BD042401200B4B0C4810B519687F
:100E50000B4C0268A1540B4C2468002C01D00132C9
:100E6000026009480068002801D001311960074874
:100E70000BF0B4F910BDC0460C760120945301204C
:100E800024760120A8530120AC5301201024012016
:100E900010B5034809F036F90021030000209847F7
:100EA0005542000010B50C4C0C4821680BF096F927
:100EB000802123684901581CFF30000311F07CFC9D
:100EC00007480BF0D5F8074B1B68002B02D02368AE
:100ED0000133236010BDC0460C7601202824012078
:100EE00044240120AC530120F0B5874BF5B0699341
:100EF0000423D4216A46689300234900521869AD3F
:100F0000679567A913700CA804F0BCFF6798A84206
:100F100001D00AF04FFFD22101236A4649006893AD
:100F200052183133679567A9138019A804F0AAFFF6
:100F30006798A84201D00AF03DFF19AA0CA926A87B
:100F400004F0B6FB0CA967A802F032FA67996F4863
:100F50000BF044F96798A84201D00AF02BFF19A9B9
:100F600067A802F025FA679969480BF037F9679886
:100F7000A84201D00AF01EFF26A967A802F018FABD
:100F8000679964480BF02AF96798A84201D00AF0E3
:100F900011FF614B67952B800223D3216A4668932A
:100FA000002349005218137067A933A804F06AFFA0
:100FB0006798A84201D00AF0FDFE584B02AC00949D
:100FC0001A88002722809B786946A3700323019327
:100FD0006B4640A8DF7204F055FF40AA33A94DA824
:100FE00004F066FB4E4B08AE3380022306A98F72D5
:100FF0005AA80793069604F045FF5AAA4DA967A878
:1010000003F0F6FA67A933A801F0AEFE67A801F075
:10101000A9FE5AA801F0A6FE0698B04201D00AF037
:10102000C9FE4DA801F09EFE40A801F09BFE00986D
:10103000A04201D00AF0BEFE33A967A804F060FF09
:1010400067A933A801F090FE67A801F08BFE33A9D1
:1010500067A802F0ADF9334E679930000BF0BEF887
:101060006798A84201D00AF0A5FE33AA110067A82C
:1010700003F0BEFA67A933A801F076FE67A801F075
:1010800071FE33A967A802F093F9300067990BF05D
:10109000A5F86798A84201D00AF08CFE22480BF010
:1010A0009DF8642433AA110067A803F0A1FA67A988
:1010B00033A801F059FE67A801F054FE33A967A8D0
:1010C00002F076F9300067990BF088F86798A8422B
:1010D00015D0013C0AF06EFE002CE3D113480BF052
:1010E0007DF833A801F03EFE26A801F03BFE19A8CA
:1010F00001F038FE0CA801F035FE75B0F0BD013CE2
:10110000002CCFD1EAE7C04631302E354C240120E7
:10111000542401205C240120343500006424012083
:101120005049000068240120742401207C240120FF
:101130009423F0B55746DE464E4645465B009A4638
:101140000023E0B583B00093964B974F9B46974B97
:10115000974C9946009D974829000BF03FF85B4655
:101160001B68984642462B0355460193D35C283DA5
:10117000FF2B03D111E10135AA450FD043465E5D37
:10118000300010F04DFB0028F5D030000AF01EFFB3
:101190005B461B6801359846AA45EFD1019B434445
:1011A0001E0000233B70844B350098460136803585
:1011B000FF3600232A782370F92A03D84946930082
:1011C000CB589F4620007D4908F04AFF2100380097
:1011D000013510F0C3FFB542EBD1390078480AF071
:1011E000FDFF0A200AF0F2FE802252019446009B85
:1011F000E24401330093FA2BACD10A200AF0E6FE58
:1012000003B03CBC90469946A246AB46F0BD6D4B40
:101210001A6822601B792371D8E738232380D5E729
:1012200037232380D2E736232380CFE7352323805B
:10123000CCE734232380C9E733232380C6E7322356
:101240002380C3E731232380C0E739232380BDE710
:101250005D4B1A6822601B792371B7E75B4B1A88D4
:1012600022809B78A370B1E7594B1A6822601B79E2
:101270002371ABE7574B1A6822601B792371A5E7EE
:10128000554B1A6822601B7923719FE7534B1A68EC
:1012900022601B79237199E7514B1A6822609B8861
:1012A000A38093E74F4B1A6822601B7923718DE767
:1012B0004D4B1A6822609B88A38087E74B4B1A68C6
:1012C00022601B79237181E7494B1A6822601B79E0
:1012D00023717BE7474B236078E7474B1A6822600E
:1012E0001B79237172E7454B1A6822609B88A380A3
:1012F0006CE743461B88238043469B78A37065E7D1
:101300003F4B1A6822601B7923715FE73D4B1A88B7
:1013100022809B78A37059E73B4B1A8822809B78E8
:10132000A37053E7394B1A8822809B78A3704DE74E
:10133000374B1A8822809B78A37047E7354B1A8871
:1013400022809B78A37041E7334B23603EE7334B09
:101350001A6822601B79237138E7314B1A682260C2
:101360001B79237132E72F4B23602FE72E4B1A880E
:1013700022809B78A37029E72C4B236026E72C4B17
:10138000236023E722002B4B03CB03C21EE72A4B2B
:101390001A6822609B88A38018E728480AF01EFF7D
:1013A00022E7C04694420120B45D0120602501205F
:1013B000B8650120842401204825012094240120BF
:1013C0004C250120E8240120F0240120E424012000
:1013D000102501200825012000250120F8240120E6
:1013E000AC240120A4240120DC240120D4240120E9
:1013F000CC2401206C6E2000C4240120BC240120D8
:101400003C250120442501203825012034250120D8
:101410002C250120302501204D2B200024250120E2
:101420001C250120494D2000182501204D4A20008F
:10143000203A20009C240120B42401208C24012087
:10144000F8B5104B10481E6831000AF0C7FE0F4F68
:101450000F4C3B6835035919802220000AF0A0FC8C
:1014600031000C480AF0BAFE290020003D688031A6
:101470006918802280300AF093FC0A200AF0A6FD49
:10148000F8BDC0460C760120482901209442012075
:10149000247601207029012010B50B480AF09EFE29
:1014A0000A4C8022002120000AF074FC08480AF04F
:1014B00095FE20008022002180300AF06BFC0A207B
:1014C0000AF084FD10BDC046982901202476012031
:1014D000AC29012010B513480AF080FE12480AF02A
:1014E0008FFE431C0ED06D2813D00FDC4D2810D07A
:1014F000502807D10D480AF071FE802200210C48C7
:101500000AF048FC0A200AF061FD10BD7028F1D0F5
:10151000F8E708480AF062FE8022002106480AF037
:1015200039FCEFE7C029012080969800AC29012002
:10153000A4760120982901202476012010B51A48AC
:101540000AF04CFE19480AF05BFE431C16D06D28C9
:101550001BD017DC4D2818D050280FD1144B15483C
:101560001C68210024030AF039FE2100124B80314F
:101570001C688022114861180AF012FC0A200AF047
:1015800025FD10BD7028E9D0F8E7094B0C481C6810
:1015900021000AF023FE084B240319688022091950
:1015A00008480AF0FDFBE9E7C02901208096980071
:1015B0000C7601207029012094420120A47601209C
:1015C00048290120247601201C4BF0B51F681C4BD4
:1015D000C646196880231B4D3C035B0000B51A000A
:1015E0002800091998460AF0DBFB80235B039C4620
:1015F000802164442000490111F0DEF839001248CE
:101600000AF0ECFD114E8022310028000AF0C8FBE0
:1016100039000F480AF0E2FD2800310080228031B5
:1016200080300AF0BDFB42462900200011F004F989
:1016300008480AF01DFD04BC9046F0BD0C76012060
:101640009442012038770120DC29012024760120F2
:10165000FC290120202A012010B5040005F0DCFA45
:101660000123D022A3401206936200210022200011
:1016700005F0BAFA10BDC046F0B54746CE460500A3
:101680000C0080B5904689B000220023280021007C
:1016900009F04CF8002800D089E101230026994682
:1016A000640064082800210009F0E0FC09F038FC1F
:1016B00002000B00009001910020BF4909F0E2FCFC
:1016C00002000B002800210008F0C7FF00220400E0
:1016D0000D0000980199002309F028F8002808D08F
:1016E000009801990022B54B08F0AEFFB14600907A
:1016F00001912000290009F013FCAF4B00220600E5
:101700000F0008F0AAFF06AA0FF09EF80022AC4BCB
:10171000029003910698079908F0BDFF09F04CF874
:1017200009F032F800220490059102980399A24B27
:1017300008F0B1FF02000B000498059908F084FF3F
:1017400009F03AF843463200587129003B00200066
:1017500008F071FF0022994B08F09DFF04000D0076
:1017600009F0DEFB944B002206000F0008F075FF25
:1017700006AA0FF069F80022914B02900391069897
:10178000079908F088FF09F017F808F0FDFF00221C
:101790000490059102980399874B08F07CFF0200A2
:1017A0000B000498059908F04FFF09F005F843462F
:1017B0003200187129003B00200008F03CFF002295
:1017C0007E4B08F068FF04000D0009F0A9FB7A4B7E
:1017D000002206000F0008F040FF06AA0FF034F8C0
:1017E0000022774B029003910698079908F053FF67
:1017F00008F0E2FF08F0C8FF00220490059102986B
:1018000003996D4B08F047FF02000B0004980599FF
:1018100008F01AFF08F0D0FF43463200D8702900C4
:101820003B00200008F007FF0022644B08F033FF64
:1018300004000D0009F074FB5F4B002206000F004E
:1018400008F00BFF06AA0EF0FFFF00225C4B02908F
:1018500003910698079908F01EFF08F0ADFF08F005
:1018600093FF00220490059102980399524B08F0CF
:1018700012FF02000B000498059908F0E5FE08F03D
:101880009BFF43463200987029003B00200008F07F
:10189000D2FE0022494B08F0FEFE04000D0009F0C4
:1018A0003FFB454B002206000F0008F0D6FE06AABB
:1018B0000EF0CAFF0022424B02900391069807994E
:1018C00008F0E9FE08F078FF08F05EFF00220490BF
:1018D000059102980399384B08F0DDFE02000B00D9
:1018E0000498059908F0B0FE08F066FF4346320000
:1018F000587029003B00200008F09DFE00222F4B6D
:1019000008F0C9FE09F00CFB2B4B002208F0A5FEE5
:1019100006AA0EF099FF0022294B04000D0006983C
:10192000079908F0B8FE08F047FF08F02DFF0022E5
:1019300006000F00200029001F4B08F0ACFE02003B
:101940000B003000390008F07FFE08F035FF4346F9
:1019500000221870184B0098019908F07EFE06AA24
:101960000EF072FF0022164B04000D000698079936
:1019700008F091FE08F020FF08F006FF00220600A4
:101980000F00200029000C4B08F085FE02000B0020
:101990003000390008F058FE08F00EFF43464A4672
:1019A0009871DA7109B00CBC90469946F0BD0523D8
:1019B0000426994674E6C0460000244000005940C1
:1019C00000003040F0B5D64646464F462023C0B50D
:1019D00094B00AAA13AC13842380837905001809F4
:1019E000984608F0D1FE0022764B08F054FE43469C
:1019F00006000F2018400F0008F0C6FE02000B0082
:101A00003000390008F020FE08F0D6FE0121EA7906
:101A1000804693100B40114200D1CDE0202222706D
:101A20000C222021013B93430AAA52182D33137034
:101A30006B7918099A4608F0A7FE0022614B08F05E
:101A40002AFE0F2306005046184099460F0008F062
:101A50009BFE02000B003000390008F0F5FD2B79E9
:101A6000089009919A46180908F08EFE0022554BFD
:101A700008F011FE4A4653461340060018000F00B6
:101A800008F082FE02000B003000390008F0DCFD97
:101A9000EB780A900B919A46180908F075FE00221F
:101AA000484B08F0F8FD4A4653461340060018001C
:101AB0000F0008F069FE02000B003000390008F04A
:101AC000C3FDAB780C900D919A46180908F05CFEA6
:101AD00000223C4B08F0DFFD4A4653461340060007
:101AE00018000F0008F050FE02000B003000390013
:101AF00008F0AAFD6B780E900F919A46180908F02D
:101B000043FE00222F4B08F0C6FD4A4653461340C1
:101B1000060018000F0008F037FE02000B0030002E
:101B2000390008F091FD2D7810901191280908F0E6
:101B30002BFE0022234B08F0AEFD4B462B40060047
:101B400018000F0008F020FE02000B0030003900E2
:101B500008F07AFD06000F000898099908F02CFE9D
:101B6000194B050099464346390030000693059409
:101B700008F022FE04901098119908F01DFE0390C1
:101B80000E980F9908F018FE02900C980D9908F025
:101B900013FE01900A980B9908F00EFE2B0000909E
:101BA0000A49484612AA08F05BFA484614B01CBC21
:101BB00090469946A246F0BD6422121A90462D2204
:101BC0002DE7C04600002440E0750120302A0120A6
:101BD000F0B5DE4645464E465746E0B58046867926
:101BE0000F2087B0304008F0CFFD04000D00300911
:101BF00008F0CAFD00227C4B08F04DFD22002B00AE
:101C000008F022FD01224346049005911100DB7982
:101C100019409B1003911A4200D1DDE00023734C60
:101C20000093019443465B799A460F23504618402F
:101C3000994608F0A9FD4346060048461B790F0067
:101C40009B46184008F0A0FD5B4604000D001809F3
:101C500008F09AFD0022644B08F01DFD22002B00C5
:101C600008F0F2FC624A634B08F015FD534604008D
:101C700018090D0008F088FD00225B4B08F00BFDF1
:101C800032003B0008F0E0FC02000B0020002900BD
:101C900008F0DAFC434606004846DB780F009A4617
:101CA000184008F071FD534604000D00180908F0B3
:101CB0006BFD00224C4B08F0EEFC22002B0008F0DC
:101CC000C3FC4D4A4D4B08F0E6FC32003B0008F0E7
:101CD000BBFC4346060048469B780F009A461840D6
:101CE00008F052FD534604000D00180908F04CFDA1
:101CF00000223D4B08F0CFFC22002B0008F0A4FC92
:101D00003F4A404B08F0C7FC32003B0008F09CFC07
:101D10004346060048465B780F009A46184008F094
:101D200033FD534604000D00180908F02DFD002274
:101D30002D4B08F0B0FC22002B0008F085FC324A45
:101D4000324B08F0A8FC32003B0008F07DFC434613
:101D5000060048461B780F009846184008F014FD0E
:101D6000434604000D00180908F00EFD00221E4B2A
:101D700008F091FC22002B0008F066FC244A254B59
:101D800008F089FC32003B0008F05EFC0B0002000A
:101D90000098019908F07FFC039B04000D00002BC4
:101DA0001FD1049A059B00201B4908F044FC020047
:101DB000802000060B1800200B4909F063F902008F
:101DC0000B002000290008F066FC07B03CBC9046E0
:101DD0009946A246AB46F0BD0023104C00930194F7
:101DE00020E7049A059BE6E7000024400000F0BFCE
:101DF0007B14AE47E17A843F2D431CEBE2361A3F59
:101E00008DEDB5A0F7C6B03E3A8C30E28E79453EF6
:101E1000BBBDD7D9DF7CDB3D000059400000F03F5F
:101E2000F0B5DE4645464E465746E0B5050083B060
:101E30000A200AF0CBF8204B002498461F4B204E76
:101E40009B4620E02B00083B9946A1444846FFF7FB
:101E5000B9FD82464846FFF7BBFE02000B0058461C
:101E600000920193791E52460AF0B8F921004046CB
:101E70000AF0B4F9295D30000AF0B0F9802301348A
:101E80005B009C420ED06307F4D1002CEED0802C76
:101E9000ECDCE7103B000B3B012BD3D809480AF0E0
:101EA0009DF9E3E70A200AF091F803B03CBC9046A4
:101EB0009946A246AB46F0BD782A0120682A012047
:101EC000802A0120542A0120F0B5D6464F464646C6
:101ED0007A4DC0B52800FFF7A3FF0023784F2E00EE
:101EE0003B70784B01359A46774B784C9946784B46
:101EF00080369846FF35002332782370F92A03D8BC
:101F000049469300CB589F465146200008F0A8F858
:101F100021003800013610F021F9AE42EBD1390032
:101F20006C480AF05BF91CBC90469946A246F0BD8D
:101F300039232380ECE738232380E9E73723238004
:101F4000E6E736232380E3E735232380E0E73423E5
:101F50002380DDE733232380DAE732232380D7E7AA
:101F600031232380D4E743461B88238043469B7854
:101F7000A370CDE7584B1A6822601B792371C7E71D
:101F8000564B1A8822809B78A370C1E7544B1A885D
:101F900022809B78A370BBE7524B1A8822809B78E3
:101FA000A370B5E7504B1A8822809B78A370AFE7E7
:101FB0004E4B1A8822809B78A370A9E74C4B236074
:101FC000A6E74C4B1A6822601B792371A0E74A4BA5
:101FD0001A6822601B7923719AE7484B236097E7C0
:101FE000474B1A8822809B78A37091E7454B23606A
:101FF0008EE7454B23608BE72200444B03CB03C2A3
:1020000086E7434B1A6822609B88A38080E7414B98
:102010001A6822609B88A3807AE73F4B1A68226087
:102020001B79237174E73D4B1A6822609B88A3805B
:102030006EE73B4B1A6822601B79237168E7394BC6
:102040001A6822601B79237162E7374B23605FE7D0
:10205000364B1A6822601B79237159E7344B1A6892
:1020600022609B88A38053E7324B1A6822601B7959
:1020700023714DE7304B1A6822601B79237147E7C3
:102080002E4B1A6822601B79237141E72C4B1A688A
:1020900022601B7923713BE72A4B1A6822601B7967
:1020A000237135E7284B1A6822601B7923712FE7CB
:1020B000264B1A8822809B78A37029E7247601207A
:1020C000B45D012094240120882A0120B8650120F4
:1020D000482501204C2501203C25012044250120D4
:1020E00038250120342501202C2501203025012010
:1020F0004D2B2000242501201C250120494D2000C6
:10210000182501204D4A2000203A20009C2401205F
:10211000B4240120AC240120A4240120DC240120CB
:10212000D4240120CC2401206C6E2000C424012082
:10213000BC240120102501200825012000250120B4
:10214000F8240120F0240120E8240120E4240120C7
:10215000F0B5D6464F464646844CC0B52168844803
:102160000AF03CF8834D236818032B689C466044B2
:10217000FFF756FE804809F07BFF22682B681203A8
:102180009B181E005D1C7D4B00229A467C4B7D4FA8
:1021900099467D4B7D4C98463A708036FF3500233A
:1021A00032782370F92A03D849469300CB589F46CA
:1021B0005146200007F054FF2100380001360FF08F
:1021C000CDFFAE42EBD1390071480AF007F80A2082
:1021D00009F0FCFE1CBC90469946A246F0BD39238E
:1021E0002380E9E738232380E6E737232380E3E7EA
:1021F00036232380E0E735232380DDE73423238063
:10220000DAE733232380D7E732232380D4E731234F
:102210002380D1E743461B88238043469B78A370E5
:10222000CAE75C4B1A6822601B792371C4E75A4BDA
:102230001A8822809B78A370BEE7584B1A882280A8
:102240009B78A370B8E7564B1A8822809B78A370BE
:10225000B2E7544B1A8822809B78A370ACE7524BAC
:102260001A8822809B78A370A6E7504B2360A3E7CF
:102270004F4B1A6822601B7923719DE74D4B1A68FA
:1022800022601B79237197E74B4B236094E74B4BFC
:102290001A8822809B78A3708EE7494B23608BE7D6
:1022A000484B236088E72200474B03CB03C283E7F8
:1022B000464B1A6822609B88A3807DE7444B1A68CE
:1022C00022609B88A38077E7424B1A6822601B79C3
:1022D000237171E7404B1A6822609B88A3806BE7EB
:1022E0003E4B1A6822601B79237165E73C4B1A68E4
:1022F00022601B7923715FE73A4B23605CE73A4B1E
:102300001A6822601B79237156E7384B1A682260DD
:102310009B88A38050E7364B1A6822601B79237193
:102320004AE7344B1A6822601B79237144E7324B29
:102330001A6822601B7923713EE7304B1A682260CD
:102340001B79237138E72E4B1A6822601B792371A1
:1023500032E72C4B1A6822601B7923712CE72A4B39
:102360001A8822809B78A37026E7C0460C7601204D
:10237000702E012094420120782E01209424012007
:102380007C2E0120B45D012048250120B865012084
:102390004C2501203C250120442501203825012021
:1023A000342501202C250120302501204D2B200033
:1023B000242501201C250120494D2000182501203D
:1023C0004D4A2000203A20009C240120B424012002
:1023D000AC240120A4240120DC240120D4240120E9
:1023E000CC2401206C6E2000C4240120BC240120D8
:1023F000102501200825012000250120F8240120B6
:10240000F0240120E8240120E42401208022F8B5F2
:102410001B4B0D001B4F19680403091906005200DD
:10242000380009F0BDFC80235B039C468021644496
:102430002000490110F0C0F9EB070BD4AB0714D40E
:10244000802239002000520010F0F6F90E4809F001
:102450000FFEF8BD31000D4809F0C0FE80223800A3
:102460000B4909F09DFCAB07EAD53100094809F09A
:10247000B5FE80220849094809F092FCE0E7C04611
:102480009442012038770120202A0120DC290120F4
:1024900024760120FC290120A4760120B8770120B0
:1024A00010B50F4809F09AFE0E4809F0A9FE431C2A
:1024B00014D06D2810D00ADC4D280DD05038414280
:1024C00041414900084B1868FFF7A0FF10BD703864
:1024D000414241414900F5E70121F3E70021F1E7DD
:1024E000C0290120809698000C760120F0B557464F
:1024F000DE464E4645462D4BE0B51B688346994661
:10250000030398462A4B202702249A4683B00DE005
:10251000032C04D108223378013C93433370802389
:102520005B019C46013FE044022F32D00621380077
:1025300007F016FE012503004946A5400833CE18D2
:10254000CB5C6DB2AB433370534641461B6802000F
:102550005B5C1848FF3B59424B41210000935B46AE
:1025600009F03CFE534642461B689B5CFF2B02D0A1
:1025700033781D433570013CCAD27F223378013F46
:102580001340337080235B019C460624E044022FF5
:10259000CCD14A4609239373E833D37303B03CBCD0
:1025A00090469946A246AB46F0BDC04690420120F7
:1025B00094420120B4320120F0B55746DE4680B582
:1025C000A34F85B03E68B379932B04D005B00CBC03
:1025D00092469B46F0BDF379F12BF7D10F22337968
:1025E00092461A42F2D150467179F03209010A40FE
:1025F0001B09D518F37818409B4608F0C5F85346D8
:10260000B478009001912340180008F0BDF85B46B3
:1026100002900391180908F0B7F800228D4B08F0DA
:102620003AF8009A019B08F00FF80022894B08F055
:1026300032F808F0C1F808F0A7F8009001912009DD
:1026400008F0A2F80022834B08F025F8029A039BB9
:1026500007F0FAFF00227F4B07F0FFFF02000B009C
:102660000098019907F0F0FF08F0A6F8040029008F
:10267000794809F0B3FD22002100784809F0AEFD49
:10268000472D00DD95E0102DA0DD2B00113B362BF2
:102690009CD8734A9B00D3589F46DB2C00D8D2E0CD
:1026A0000F213A6813798B430B210B4313718DE78C
:1026B000F92CF5D802212000FFF7A8FEF0E70F2142
:1026C0003A6813798B430B210B431371F92C00D912
:1026D0007CE701212000FFF799FE77E70F213A6898
:1026E00013798B430B210B431371F92C00D96DE740
:1026F00003212000FFF78AFE68E70F213A6813796B
:102700008B430B210B431371F92C00D95EE7210099
:10271000544809F063FD544B240319688034802227
:102720000919524809F03CFB0A2009F04FFC4DE71B
:102730000F213A6813798B430B210B431371F92C4A
:1027400000D943E721004A4809F048FD464B2403DD
:10275000196880220919474809F022FB0A2009F06C
:1027600035FC33E70F213A6813798B430B210B4378
:102770001371F92C00D929E721003D4809F02EFDFD
:10278000394F3C4D3B68260399198022280009F0F7
:1027900007FB2100334809F021FD28003968803605
:1027A00080228919803009F0FBFA0A2009F00EFC1A
:1027B0000CE7952D34D0962D12D151463A682E480B
:1027C00013798B430B210B43137109F007FD802212
:1027D0000021264809F0DEFA0A2009F0F7FBF5E6A9
:1027E000942D00D0F2E651463A68244813798B4381
:1027F0000B210B43137109F0F1FC1E4C80220021C8
:10280000200009F0C7FA1C4809F0E8FC20008022EB
:102810000021803009F0BEFA0A2009F0D7FBD5E686
:1028200051463A68154813798B430B210B431371BA
:1028300009F0D4FC802200210E4809F0ABFA0A20EE
:1028400009F0C4FBC2E62000FFF750FE28E7C046AF
:102850009042012000002440C8320120D8320120DB
:10286000E83201207029012094420120A476012041
:102870004829012024760120AC2901209829012033
:10288000F0B5DE4657464E464546E0B589B061484C
:1028900007AB06AA05A904F0CFF8002803D15D49CB
:1028A0005D4805F0FFFD079A06990598D02404F0CD
:1028B00087F8002509F09EFC0126FEF7B1FA2406F0
:1028C000280004F0A9F93300AB40280000220021C1
:1028D000A362013504F088F9172DF1D10C2004F022
:1028E0009BF980235B0163620B20A36104F094F9E0
:1028F00080231B0163621020A361636104F08CF9E3
:1029000080235B0263621A20A361FEF7A5FE1B20F1
:10291000FEF7A2FE1C20FEF79FFE40480CF06AFA6C
:10292000FA20C00005F090F80A2009F04FFB3C4C5B
:102930000A35200009F052FC3A4809F04FFC20000B
:1029400009F04CFC0A2009F041FB0021364809F04F
:1029500045FC364C80222168354809F021FA0021D7
:10296000344809F03BFC216880228031324809F06C
:1029700017FA0A2009F02AFBFA20304B80009B4608
:102980002F4B304C9A46304B304F9946304B314E9E
:10299000984609F035FC431C36D02200002303E0A2
:1029A00001330C32252B25D011788842F8D15A46B4
:1029B00010605A00D3189B00E3189B689847514653
:1029C000254809F00BFC43461B6839685A1E9341A1
:1029D00032680191501E824152422A4020320292B6
:1029E0004A46009112685B422B4011001B4820337D
:1029F00009F0F4FBFFF7E0FD00F040F8FA2080005A
:102A000009F0FEFB431CC8D109F068FB144809F02B
:102A1000E5FBEFE7B01E0400C433012009030020EA
:102A2000F833012014340120482901209442012068
:102A30002476012070290120A4760120B4650120AC
:102A400054780120984201200C76012094530120F3
:102A5000AC530120A8530120643201207C320120B4
:102A6000B03201208022034B1A60034B7F3A1A6078
:102A70007047C04658440120A8590120F8B5DE46E9
:102A800057464E4645468A4BE0B51A68002A47D05D
:102A9000884D894E2A688949B45C9046884F0A68F7
:102AA0003C60002A06D0C52C10D001229446E04498
:102AB00042462A60D72C3DD8A12C37D95E34E4B2E7
:102AC000352C2DD87F4BA4001B599F467E4B994631
:102AD0001B68002B00D0A0E07C4B9A461B68002BA3
:102AE00000D0B1E07A4B7B4F9B467B4C2268531C55
:102AF00005D038687968D200B218FEF7BDFD002312
:102B0000524613604A461360002200233A607B60FD
:102B100001235A465B42136023602B6801332B600C
:102B20003CBC90469946A246AB46F8BD002CF7D176
:102B30001C60F5E723001033DBB2092BF0D8634BA0
:102B40001B68002B50D1604B99461B68002B00D1AD
:102B50008DE0D72B00D199E000234A461360012273
:102B60005B4B52421A6002E0D722574B1A60404634
:102B700001302860D4E7012200200021534B1A6065
:102B8000564B18605960404601302860C8E7544CE5
:102B90002000FFF71DF8534B002207F055FD2200DF
:102BA000FEF76AFD2B6801332B60B9E74644737862
:102BB0004D4A9B009B582B60B2E743464644991C04
:102BC0007378494A9B0099502960A9E74046404BD9
:102BD00001301A68404B1A602860A1E74046012383
:102BE000013028600B609BE73C4B00229946494628
:102BF0003E4B0868496807F04EFD06002000F0389B
:102C00000F0007F0C1FD0B0002003900300007F093
:102C10001BFD4B4618605960A9E72C4A9246126882
:102C2000002A1AD02D4A10685168294A9346294F24
:102C3000D72B00D059E702000B003868796807F0FD
:102C400003FD3860796050E7224F244B5C681B68B5
:102C50003B607C601E4B9B4647E71D4B9B461B68B9
:102C6000D8003018FEF7B4FF4B461B68DFE7F03C96
:102C7000E4003019FEF7ACFF164B154A1860596096
:102C80003B68F03B13602B68984670E72000F038F3
:102C9000C0003018FEF79CFF0E4C0B0002002068AD
:102CA000616807F0D1FC2B6820606160984653E7AB
:102CB000A859012058440120247601202C770120B6
:102CC00080780120783601201076012000580120FC
:102CD0005C440120F04E012054440120E04D0120CD
:102CE0002C7601200000F03F847801200000244071
:102CF0007047C046044B10B518680833984201D09D
:102D000009F058F810BDC046B44F01207047C046C6
:102D100008B4F0B582B000AF84B06E462023040042
:102D2000FB18102130000E4A7B6007F0ADF905005A
:102D3000200008302060012D0BD13378237200234E
:102D40006560BD464355200002B0F0BC08BC01B030
:102D500018472A00310009F023F82068EFE7C04641
:102D6000503701207047C04610B5040088420AD091
:102D70000B784A6803708B684260836028220C31AC
:102D80000C300FF097F8200010BDC04670B50C0055
:102D90001600536805000022200031680CF082FC08
:102DA000431C05D07168636846185A1E964217D0B6
:102DB000280026000830286023680836B3420AD06D
:102DC0002B60A368AB60636828006B6000232660FB
:102DD0006360237270BD1022310008F0E1FFF2E75A
:102DE000984211D84A1C0AD00029E1D01A1A8A4206
:102DF00000D90A00010020000CF0FCFAD8E70023FB
:102E0000226860601354D3E70200024902480CF0C4
:102E10004DF9C0465437012068370120F0B54E46C1
:102E2000DE465746454681460823E0B54B44A3B0ED
:102E3000089303600023436003720B78012206911C
:102E4000012B00D1AAE1CE490CF002FC069B1E6BBF
:102E5000002E11D1DE6A002E5DD19E6A002E00D0B8
:102E6000BEE15E6A002E00D0FDE11E6A002E00D198
:102E7000FCE105239A4601E009239A461CAB039323
:102E8000C04B0493C04B05931EAB0293BF4B9B46B4
:102E9000049B1022059903980096FFF739FF4846D6
:102EA0001D9A1C990CF0D4FB1C98029B984235D0BB
:102EB00001235B429C46E24408F07CFF5346042B0E
:102EC00033D05346069A023390469B0098444346BB
:102ED0005E680027092E1CDD300000250A21040051
:102EE000013507F03DF9632CF8DC07235D1BAF4289
:102EF000CEDA4A46A64B52689A4200D136E2012207
:102F0000594648460CF0A4FB43465E680137092E3B
:102F1000E2DC0725EBE708239A46AFE701235B4293
:102F20009C46E2445346042BCBD10AAB9A460CABE9
:102F300052460A9300231C2113720B93069B8C4666
:102F40001A0008330793914B62449B464B469046C8
:102F500009938F4B0027994643461E68092E1ADDB8
:102F6000300000250A210400013507F0F9F8632C30
:102F7000F8DC07235D1BAF4210DA0B9B4B4500D1F9
:102F8000F4E10122594650460CF062FB43461E68AC
:102F90000137092EE4DC0725AF42EEDB049B10224B
:102FA000059903980096FFF7B3FE50461D9A1C99A9
:102FB0000CF04EFB1C98029B984201D008F0FAFEE0
:102FC00004235B429C46079BE0444345C1D1099BD7
:102FD0009946069B9C680F2C00DC85E04A466C4BAA
:102FE00052689A4200D1C1E10122484669490CF079
:102FF0002FFB029A0B9B1C92069A0A9D94689C4296
:1030000000D91C00002D00D11FE116940F2C00D90F
:10301000E9E0012C00D0ACE12B78039A1372029BFB
:1030200000221D941A5548461D9A1C990CF010FB5D
:103030001C98029B984200D17EE008F0BBFE4B46F4
:103040001E6812AD5C681095002E00D07CE0002C4C
:1030500000D0FEE02A0000234F491194135518AC0C
:1030600016942180022116AA17910398937210A931
:10307000FFF78CFE4B46029A18681C9B934200D1C6
:1030800090E0089A824200D19DE049464A46926803
:103090000B604B461D9959601E999960002800D11C
:1030A00098E01C901E9200231D9303701C98029BB5
:1030B000984201D008F07EFE1698A04201D008F098
:1030C00079FE1098A84201D008F074FE0A980CAB63
:1030D000984201D008F06EFE484623B03CBC9046B2
:1030E0009946A246AB46F0BD0A9B1A5D342A20D908
:1030F000013C00D586E00125244E10E00B9BA34245
:1031000000D23CE11A1BA34200D00122210033006F
:10311000504600950CF0D2F9013C73D30A9B1B5D1D
:10312000392BEBD04B461A68135D01331355069BC0
:103130009C68002C00DD51E74B461E6812AD5C68B0
:103140001095002E00D182E71C940F2C08D8012C7A
:1031500000D0A4E02821337808AA5218137079E728
:103160000022039910A80CF08FF81C9B109012936A
:103170002200310008F014FE1C9C109A6BE7C04638
:10318000A437012050370120899A0020283B0120D4
:10319000FFFFFF3FDC3701202E3000007A490CF0A2
:1031A00057FA53E61D9A002A07D0012A54D00299F3
:1031B00008F0F6FD4B461D9A18684B465A600023EE
:1031C00083541C986FE74A4613604B461D9A5A6019
:1031D0001E9A9A60029B1C931EAB1800029362E732
:1031E00007239A464AE60022039816A90CF04CF8E9
:1031F000169B1C901E932200290008F0D1FD169CFE
:103200001C9B0DE74B4659684C1E50D401254F4678
:103210005E4E0FE07B68A34200D2B0E01A1BA342CF
:1032200000D0012221003300380000950CF046F94F
:10323000013C3AD33B681A191B5D392BEAD00133A4
:103240001370069BB9469C6873E7029B002C00D163
:10325000E6E64F480BF0FAFE039B1B7A03704B46E1
:103260001D9A1868A9E706239A4607E6494A4A4B79
:1032700011001CA805920096102204930390FFF7FA
:1032800047FD48461D9A1C990CF0E2F91C981EABAC
:103290000293984200D148E608F08CFD45E62A00EA
:1032A000002C00D1D7E6280062E7B9467968029B76
:1032B00003981C93002301311D9303720CF0B6F8A0
:1032C000364B1D9A9A4251D0039C0122344920006A
:1032D0000CF0BEF94B46200006CB0CF0B9F94B467A
:1032E000029A18681C9B934228D0089A824218D0F0
:1032F00049464A4692680B604B461D9959601E9993
:103300009960002814D01C901E9200231D93037016
:103310001C98029B984201D008F04CFD069B9C68CB
:1033200007E74A4613604B461D9A5A601E9A9A60F8
:10333000029B1C931EAB18000293E6E71D9A002A1D
:1033400007D0012A0BD0029908F02AFD4B461D9A9E
:1033500018684B465A60002383541C98D5E7039B9A
:103360001B7A03704B461D9A1868F2E70D480BF064
:1033700085FE029B002C00D152E618003BE722009C
:1033800009490A480BF092FEA0370120283B012092
:10339000E0370120899A002050370120FFFFFF3FCE
:1033A000D8370120A8370120C03701206837012015
:1033B000F0B5DE4657464E464546E0B5BDB0060080
:1033C000FFF72CFD06AB9B4608AB06935A4600233D
:1033D000282113720EAA0C9204AA5218137012AA72
:1033E000924614AA12925246137201221500D64C2C
:1033F00007930D9313932378BFF35B8F1D401A42FD
:1034000000D194E2012300223000D0490CF04AF9A7
:103410000400431C00D10DE2326873681AAF914674
:1034200005001897984200D996E14B46002B00D131
:1034300096E336950F2D00D928E3012D00D0CFE378
:103440001B7818AA039213723A000023199553555A
:10345000189B0C98BB4200D132E30EAA904200D1D7
:103460008CE30C93199B0E9A0D931A9B0E930028D4
:1034700000D188E318901A920023199303701898CA
:10348000B84201D008F096FC7568621C681E001BEB
:10349000AA4200D9B5E3336820AF1E979C18AD1A35
:1034A000854200D90500002C00D160E336950F2D30
:1034B00000D921E3012D00D08AE323781EAA91468A
:1034C00013723A0000231F9553551E9B0698BB426A
:1034D00000D12BE308AA904200D158E35A46069344
:1034E0001F9B92680793209B0893002800D153E309
:1034F0001E90209200231F9303701E98B84201D0A3
:1035000008F058FC0D9B002B00D09BE136AB984691
:1035100038AB039300230021009330008C4B72687A
:103520000BF0CCFF0D99032900D8B0E008239C468E
:10353000B444634605932AAB9A462CAB049330AB54
:103540009946002432AF53460498033918600C9B07
:1035500003229C46614408F023FC03232B9353462B
:10356000DC7201230022009300217A4B50460BF0BD
:10357000A5FF08224B4693461F600368834405005D
:103580005B4500D144E13093836832936B684846D1
:1035900031935B462C722B606C60726831680CF062
:1035A00057F84346039A05001A60082293460368B9
:1035B00083445B4500D125E13693836838936B687B
:1035C000039A37935B462C722B60369B30686C6095
:1035D000934200D1F4E0059A904200D1FEE03360BE
:1035E000379BB2687360389BB360002800D1FAE063
:1035F00036903892379404703698039B984201D0E5
:1036000008F0D8FB3098B84201D008F0D3FB2A98D4
:10361000049B984201D008F0CDFB4A460D9B1760F1
:103620000C9ADD1E93469D4200D91D005B46002B7F
:1036300000D1BFE036950F2D00D998E0012D00D0C4
:1036400009E24A461B7813723B0031955C55309B6A
:103650000C98BB4200D19FE00EAA904200D1C8E076
:103660000C93319B0E9A0D93329B0E93002800D140
:10367000C4E030903292319404703098B84200D156
:1036800070E008F097FB0D99032900D95BE7726899
:1036900031680CA80BF0DCFF039B129D139C369342
:1036A000002D00D1DDE130940F2C00D9C4E1012CB4
:1036B00000D07BE242462B781372039A00233794A2
:1036C00013550D9A40460C990BF0C2FF369B039A96
:1036D0003068934200D1C9E132000832904200D1F3
:1036E00033E23360379BB2687360389BB360002865
:1036F00000D12FE23690389200233793037036982A
:10370000039B984201D008F055FB0799002900D08F
:103710006CE1129814AB984201D008F04BFB0C9866
:103720000EAB984201D008F045FB069808AB9842D2
:1037300001D008F03FFB30003DB03CBC90469946BC
:10374000A246AB46F0BDC0464C4F0120DC370120FD
:103750005C250120243801201D004B46002B00D0A1
:1037600067E6FDE10D99032900D9ECE68FE7002219
:10377000414648460BF088FD369B309032932A0034
:10378000594608F00DFB369D309B31955C55309BBA
:103790000C98BB4200D05FE7319A002A06D0012A7C
:1037A0003CD0390008F0FCFA319A0C980D92845400
:1037B000309860E7002D00D146E7C9480BF046FC81
:1037C000379A002A06D0012A2ED0039908F0E8FA89
:1037D000379A30687260845436980BE73360379BB1
:1037E0007360389BB360039B369338AB1800039328
:1037F00000E70C93319B0D93329B0E93309732AFC1
:10380000380038E759460398083208F0C9FAD6E676
:1038100059463800083208F0C3FAB7E64B461B7A1F
:103820000370319A0C98C1E743461B7A0370379AAC
:103830003068CFE731000CA80BF044FD0D9B002B46
:1038400000D163E626AB9946A64B38AD9B464B4666
:1038500024930C9B002BB0D088211B7804AA52180B
:103860001370012325930023013104AA5218137009
:1038700049460133002258460BF014FF431C6CD01C
:103880002498484501D008F095FA0D9A2CAC130005
:103890000C992AA82A94002A00D00123002900D1DB
:1038A00092E0002A01D00A78027200222B93E318DA
:1038B0001A7050462B9A2A990BF0CAFE2A98A042F9
:1038C00001D008F077FA0D9B5C1E002B00D18FE130
:1038D0000C9B36AF98460395369530940F2C4ED8F6
:1038E000012C47D143465B783B722B000022379472
:1038F0001A55369B0C98AB4257D00EAA904267D00F
:103900000C93379B0E9A0D93389B0E93002864D02E
:10391000369038920023379303703698A84223D00C
:1039200008F048FA0D9B002B91D1B846F2E5200033
:103930000BF086FA002800D164E56A4B20001A00DB
:1039400008321A60684A9D721A8102225A600BF08E
:1039500093FA66480DF054FF54E52498484500D189
:10396000D4E508F027FAD1E50D9B002B00D06EE7D7
:10397000B846CFE52B00002CB8D0280007E0002285
:10398000380030A90BF080FC309B369038934146CC
:103990002200013108F004FA0022309C369B379453
:1039A0001A55369B0C98AB42A7D1379A002A06D0FD
:1039B000012A16D0290008F0F3F9379A0C98002351
:1039C0000D9283543698A5E7002A00D16DE7F4E6FE
:1039D0000C93379B0D93389B0E93280036950395D7
:1039E00098E73B7A0370379A0C98E8E7039B4246C6
:1039F0003693002340463793013113720BF016FDC6
:103A00003B4B379A9A4200D1F8E0012239494046AF
:103A10000BF01EFE079A069940460BF019FE300087
:103A2000379A36990BF014FE3698039B984200D1D2
:103A30006FE608F0BFF96CE60022404630A90BF0B3
:103A400023FC309B369038932200290008F0A8F917
:103A5000309C369A32E63B00002D00D1F5E5380067
:103A60008DE6002C00D0A8E61A0027E6379A002A37
:103A700007D0012A00D193E0039908F091F9379A11
:103A80003068002372608354369835E636AB98462A
:103A900018AB18000022414603930BF0F5FB369B50
:103AA00018901A932A00494608F07AF90023369DA7
:103AB000189A19955355189B0C98BB4200D0CCE42A
:103AC000199A002A06D0012A76D0390008F068F940
:103AD000199A0C9800230D9283541898CCE4C04690
:103AE000E0370120B44F01202D2B0000F5260020E7
:103AF000FFFFFF3FDC37012036AB98461EAB1800B6
:103B00000022414699460BF0BFFB369B1E90209346
:103B10002A00210008F044F90023369D1E9A1F95C3
:103B200053551E9B0698BB4200D0D3E41F9A002A2F
:103B300006D0012A46D0390008F032F91F9A0698BB
:103B40000023079283541E98D4E43360379B73603C
:103B5000389BB360039B369338AB18000393CBE5D7
:103B600018AB3A000393002D00D16EE425E6002D3A
:103B700000D022E61EAB3A009946A3E40C93199BB1
:103B80000D931A9B0E9318971AAF380074E406939E
:103B90001F9B0793209B08931E9720AF3800A9E432
:103BA00043461B7A0370379A30686AE71A00002C84
:103BB00000D183E5180047E7039B1B7A0370199A2D
:103BC0000C9887E74B461B7A03701F9A0698B7E755
:103BD0001EAB3A009946002D00D173E4380097E7F8
:103BE00018AB3A000393002D00D12EE4380059E7BA
:103BF00000230122054906480BF058FA05480BF04E
:103C00003DFA2B00014902480BF050FA0C38012014
:103C100068370120A8370120F0B5CE46474680B569
:103C20000D00017804008FB0002905D12878002804
:103C300011D11070187006E0297800290FD00121E9
:103C4000117000221A70002323702B700FB00CBC6F
:103C500090469946F0BD117001221A70F3E7117079
:103C600001221A70027801AB1A700C23984647683B
:103C7000866880442822414604A802970396C146DC
:103C800008F08EF8AC420BD0AB686A68A3600C23D6
:103C90009946A94462604946282240460EF00AF936
:103CA000282248466F60AE6004A908F079F8CAE798
:103CB000F0B5CE4647460600150080B54B680F7834
:103CC00043608B680C36B7B083600400282207700D
:103CD0000C31300008F064F829002B7802AA137028
:103CE0006B6828220393AB680C3105A8049308F095
:103CF00057F8E368059A934200D221E19B1AE360EA
:103D00002369069A934200D29FE09B1A2361079A87
:103D10006369934200D2A6E09B1A6361089AA36983
:103D2000934200D2ADE09B1AA361099AE3699342E2
:103D300000D2B4E09B1AE3610A9A236A934200D24C
:103D4000BBE09B1A23620B9A636A934200D2C2E0E3
:103D50009B1A63620C9AA36A934200D2C9E09B1A31
:103D6000A3620D9AE36A934200D2D0E09B1AE36209
:103D70000E9A236B934200D3D7E078498C46634474
:103D80009B1A23630123237000230FAD2B70503344
:103D900024220021109312A8283B1CAF119307F096
:103DA000F9FF6E4B3800290022002B6300F0D8F891
:103DB0007B6838789846BB6899462CAB9C4662462F
:103DC0001FABA2CBA2C2A2CBA2C2A2CBA2C21B6833
:103DD00013602C9B0193002B00D0BBE02D9B019323
:103DE000002B00D0B6E02E9B0193002B00D0B1E059
:103DF0002F9B0193002B00D0ACE0309B0193002B54
:103E000000D0A7E0319B0193002B00D0A2E0329BB1
:103E10000193002B00D09DE0339B0193002B00D039
:103E200098E0349B0193002B00D093E0359B002B4E
:103E300000D08FE0434663604B46207028226146E5
:103E40003000A36007F0ACFF74E044498C46634443
:103E50009B1A2361079B019301330793079A6369B8
:103E6000934200D358E73D498C4663449B1A6361F3
:103E7000089B019301330893089AA369934200D3E6
:103E800051E736498C4663449B1AA361099B019311
:103E900001330993099AE369934200D34AE72F4912
:103EA0008C4663449B1AE3610A9B019301330A9396
:103EB0000A9A236A934200D343E728498C46634415
:103EC0009B1A23620B9B019301330B930B9A636A3A
:103ED000934200D33CE721498C4663449B1A6362BA
:103EE0000C9B019301330C930C9AA36A934200D369
:103EF00035E71A498C4663449B1AA3620D9B0193D4
:103F000001330D930D9AE36A934200D32EE71349D0
:103F10008C4663449B1AE3620E9B019301330E931C
:103F20000E9A236B934200D227E79B1A2363012F3B
:103F300000D129E7200037B00CBC90469946F0BD6F
:103F40009B1A064A94466344E360069B019301333F
:103F50000693D5E643425841C0B26BE700E1F50550
:103F6000F0B5DE46454657464E46E0B5060017001A
:103F70000B780C3603704B68A3B043608B68040069
:103F8000836028220C31300007F00AFF39003B78AB
:103F900008AD2B707B6828220993BB680C310BA8F5
:103FA0000A9307F0FDFE06AA944607236344984649
:103FB000971D3A0029002000FFF72EFE43461B788C
:103FC000002B00D0AEE02822310018A807F0E8FE50
:103FD000EA68189B94462A696344944698466A693D
:103FE000199B296A634494469B46AA691A9B686A8E
:103FF000634494469A46EA691B9B634494469946F7
:104000001C9B1D9A63448C46624484461E9901930E
:10401000AB6A61449C461F980292EA6A60449446E7
:104020000490219A20980391604494460590286B4F
:104030004949844465464046009506F0B9F8404633
:104040001891454906F0B4F88046D84440464249A4
:1040500006F0AEF8404619913F4906F0A9F88046AF
:10406000D04440463C4906F0A3F840461A913A49EC
:1040700006F09EF88046C8444046374906F098F856
:1040800040461B91344906F093F8019B3249C5180C
:10409000280006F08DF828001C912F4906F088F8BA
:1040A000029A2D498518280006F082F828001D91F3
:1040B000294906F07DF8039945182800264906F09D
:1040C00077F828001E91244906F072F8049B2249D3
:1040D000C518280006F06CF828001F911E4906F04C
:1040E00067F8059B1C49C518280006F061F82800F0
:1040F0002091194906F05CF8009D1749AC466044D0
:1041000006F056F828222191300018A907F048FE41
:104110003B782000237023B03CBC90469946A246D1
:10412000AB46F0BD15AB98462A0018002100FFF7FA
:10413000BFFD43461D78169B28226360179B300005
:10414000A36018A907F02CFE3B78012DE1D15A425B
:104150005341DBB2DDE7C04600E1F505342230B55E
:104160009DB00D7802AB9B181D704B680400109336
:104170008B680C3A0C3112A8119307F011FE129BB8
:104180000193002B38D1139B0193002B34D1149B46
:104190000193002B30D1159B0193002B2CD1169B42
:1041A0000193002B28D1179B0193002B24D1189B3E
:1041B0000193002B20D1199B0193002B1CD11A9B3A
:1041C0000193002B18D11B9B0193002B14D12100CC
:1041D0000FAA02A8FFF7C4FE200002AB1B7828221A
:1041E0002370039B05A96360049B0C30A36007F058
:1041F000D7FD20001DB030BD34226B425D4102ABC3
:104200009B181D70E3E7C046F0B5DE4645465746AD
:104210004E461400E0B5E1B00D003490A822002114
:1042200036A807F0B7FDE3680C352A932369159586
:104230002B9363692C93A3692D93E3692E93236ACF
:104240002F93636A3093A36A3193E36A3293236BAB
:1042500000243393002328932994269327942493AE
:10426000259422932394209321941E931F941C93AE
:104270001D941A931B94189319941693179436ABA4
:104280001C003593159B2A9A20CB002128001593FA
:10429000002307F0E7FC0023D44A06000F0005F0D6
:1042A000ADFF1698179912184B41280022606360E1
:1042B00000212B9A002307F0D5FC00238346884673
:1042C00030003900C94A05F099FF189E199FC3179D
:1042D00000900193009A019B5846B6185F414146F1
:1042E0000023C24A05F08AFFB6185F412800A66085
:1042F000E7602C9A002300211696179707F0B2FC6E
:1043000000238246894658464146B84A05F076FF62
:104310001A9E1B9FC31702900393029A039B504659
:10432000B6185F4149460023B04A05F067FFB6184A
:104330005F412800266167612D9A002300211896AD
:10434000199707F08FFC002383468846504649465C
:10435000A64A05F053FF1C9E1D9FC31704900593AA
:10436000049A059B5846B6185F41414600239F4A70
:1043700005F044FFB6185F412800A661E7612E9A58
:10438000002300211A961B9707F06CFC002382463D
:10439000894658464146954A05F030FF1E9E1F9FAC
:1043A000C31706900793069A079B5046B6185F41BD
:1043B000494600238D4A05F021FFB6185F412800C9
:1043C0002662676200231C961D9700212F9A07F032
:1043D00049FC00238346884650464946834A05F0F7
:1043E0000DFF209E219FC31708900993089A099BEF
:1043F0005846B6185F41414600237C4A05F0FEFE50
:10440000B6185F412800A662E762309A00230021B7
:104410001E961F9707F026FC0023824689465846C1
:104420004146724A05F0EAFE229E239FC3170A9076
:104430000B930A9A0B9B5046B6185F4149460023DE
:104440006A4A05F0DBFEB6185F4128002663676301
:10445000319A002300212096219707F003FC0023C6
:104460008846834649465046604A05F0C7FE249E6A
:10447000259FC3170C900D930C9A0D9B4146B618BF
:104480005F4158460023594A05F0B8FEB6185F410F
:104490002800A663E763329A00230021229623971F
:1044A00007F0E0FB002382468946504A41465846C1
:1044B00005F0A4FE269E279FC3170E900F930E9A19
:1044C0000F9B5046B6185F4149460023474A05F006
:1044D00095FEB6185F41280026646764339A00236E
:1044E00000212496259707F0BDFB002380460D0090
:1044F0003E4A5046494605F081FE289E299FC31733
:1045000010901193109A119B4046B6185F412900F4
:104510000023364A05F072FEB6185F41404600237C
:10452000A664E764314A29002696279705F066FEBF
:10453000C31712901393206D616D129A139B12187A
:104540004B410834A264E364289229934AABA34206
:1045500000D097E6359B002699465EAB984600272B
:104560004B461C685D68A4197D4100231F4A20004A
:10457000290005F043FE002306000F00200029005B
:104580001A4A05F03BFE49460CC189468845E7D1E9
:104590000023349C2422237050336360283BA360A3
:1045A000230010331800002107F0F4FB2000409B8B
:1045B0000093009AE260429A2261449A6261469AAC
:1045C000A261489AE2614A9A22624C9A62624E9AC9
:1045D000A262509AE262529A0092226361B03CBC9D
:1045E00090469946A246AB46F0BDC04600E1F505AF
:1045F00070B504000D001600FFF706FEE368002BFF
:104600001DD12369002B1AD16369002B17D1A3692F
:10461000002B14D1E369002B11D1236A002B0ED19A
:10462000636A002B0BD1A36A002B08D1E36A002B2D
:1046300005D1226B002A02D12000237070BDEB68E7
:10464000002B1AD12B69002B17D16B69002B14D1C9
:10465000AB69002B11D1EB69002B0ED12B6A002B1B
:104660000BD16B6A002B08D1AB6A002B05D1EB6A2A
:10467000002B02D12A6B002ADED0F368002B1AD15E
:104680003369002B17D17369002B14D1B369002B48
:1046900011D1F369002B0ED1336A002B0BD1736A51
:1046A000002B08D1B36A002B05D1F36A002B02D18D
:1046B000336B002BC0D02B78002B04D133785A1EDB
:1046C0009341DBB2B8E73378013B5A1E9341DBB22A
:1046D000B2E7C046F0B55746DE4645464E46E0B521
:1046E000FA4C4B68A54414003B938B6805002822C4
:1046F00039900C313DA83C9307F052FB21006368D0
:10470000282228934893A3680C31299349934AABF4
:10471000180007F045FB50232A0000240C326B6080
:10472000283B1000AB603892002128222C7007F043
:1047300031FB3AAB9A461C70469B47AF3C70002B4E
:1047400001D000F04CFF5346DB6A002B01D000F093
:104750004AFF53469B6A002B01D000F077FF534677
:104760005B6A002B01D000F06DFF53461B6A002BE3
:1047700001D000F06FFF5346DB69002B01D000F041
:104780007DFF53469B69002B01D000F07FFF53460D
:104790005B69002B01D000F075FF53461A69531E68
:1047A0009A412D923B6B002B01D000F020FFFB6A59
:1047B000002B01D000F042FFBB6A002B01D000F0BB
:1047C00055FF7B6A002B01D000F04CFF3B6A002BA9
:1047D00001D000F043FFFB69002B01D000F05EFF29
:1047E000BB69002B01D000F045FF7B69002B01D095
:1047F00000F058FF3C69002C01D000F04BFF502620
:1048000028252D9B00215A1D309254AA14709146E0
:1048100057AA1000369228225596569507F0BAFAF4
:1048200061AA147093460021282264A862966395B9
:1048300007F0B0FA00222D9B37922093379B7BAE76
:1048400002339B00FB185B683493013335930023DC
:104850001F932D9B02333393339B9B0053445B6820
:104860002A9300232B932D9B092B0ED003339B00FF
:104870005344586800210023954A07F0F3F92A9B16
:104880002B9C1B184C412A932B942A9C2B9D349AC9
:1048900000232000290005F0B1FC359A0023049084
:1048A00005912000290005F0A9FC049A059B0890B9
:1048B00009910898099912184B41D9075B10019387
:1048C000002350083370503308437360283B009036
:1048D000B360282200217EA807F05CFA209B002B01
:1048E00001D000F0C0FD3B69F86806937B690A932C
:1048F000BB690C93FB690E933B6A12937B6A14931A
:10490000BB6A1793FB6A18933B6B1993299B169309
:10491000289B029300235A4613705B46029A59461D
:104920005A60169A5C469A605A465D46D860069B65
:1049300013615B460A9A4A610C995A46A1610E9C22
:104940005946EC61129D5C461D625D46149B5362A4
:10495000179A8A621899E162199C0099019A2C634E
:10496000CB170A000021984607F07CF90023584A2B
:1049700005000C0005F042FC0023280021001E92D7
:10498000534A05F03BFC009A04000D00434606988C
:10499000002107F067F924184D4100232000290069
:1049A0004B4A05F02BFC0023200029001D92484AA9
:1049B00005F024FC009A04000D0043460A980021EB
:1049C00007F050F924184D41002320002900404AE7
:1049D00005F014FC0023200029001C923C4A05F03D
:1049E0000DFC009A04000D0043460C98002107F0CE
:1049F00039F924184D41002320002900344A05F0DC
:104A0000FDFB0023200029001B92314A05F0F6FB34
:104A1000434604000D00009A00210E9807F022F989
:104A200024184D41002320002900294A05F0E6FB07
:104A30000023200029001A92254A05F0DFFB434697
:104A400004000D00009A0021129807F00BF92418B9
:104A50004D410023200029001D4A05F0CFFB002313
:104A6000200029000E921A4A05F0C8FB43460400B4
:104A70000D00009A0021149807F0F4F824184D4115
:104A8000002320002900124A05F0B8FB0023200073
:104A900029000C920E4A05F0B1FB434604000D00BC
:104AA000009A0021179807F0DDF824184D410023E3
:104AB00020002900064A05F0A1FB00232000290060
:104AC0000A92034A05F09AFB434603E0DCFDFFFF30
:104AD00000E1F50504000D00009A0021189807F088
:104AE000C1F824184D410023200029002B4A05F06D
:104AF00085FB0023200029000692284A05F07EFB52
:104B0000434604000D00009A0021199807F0AAF806
:104B100024184D41002320002900204A05F06EFB97
:104B20000123002D01DC00F0C3FC4846D9B203701C
:104B30004B4602981A63586016980C0098601E98AD
:104B4000D8601D9818611C9858611B9898611A9834
:104B5000D8610E9818620C9858620A989862069864
:104B6000D862049B0898834201D100F02AFD0A23F1
:104B700020981B1A9B002F93C31C9B00F3182E93A5
:104B800003000A339B00329303231B1A9B00FB187C
:104B90003193002321932C933EE1C04600E1F505BB
:104BA0003B69F86806937B690A93BB690C93FB69C0
:104BB0000E933B6A12937B6A1493BB6A1793FB6A4A
:104BC00018933B6B1993299B1693289B02935B4682
:104BD00000221A70029A59465A60169A5C469A60E8
:104BE0005A465D46D860069B13615B460A9A4A6145
:104BF0000C995A46A1610E9C5946EC61129D5C4687
:104C00001D625D46149B5362179A8A621899E1628D
:104C1000199C0099019A2C63CB170A000021984631
:104C200007F020F80023E44A05000C0005F0E6FA3E
:104C30000023280021001E92DF4A05F0DFFA009AC7
:104C400004000D0043460698002107F00BF82418D5
:104C50004D41002320002900D74A05F0CFFA002358
:104C6000200029001D92D44A05F0C8FA009A0400D9
:104C70000D0043460A98002106F0F4FF24184D4128
:104C8000002320002900CC4A05F0B8FA00232000B8
:104C900029001C92C84A05F0B1FA009A04000D00E0
:104CA00043460C98002106F0DDFF24184D410023F7
:104CB00020002900C04A05F0A1FA002320002900A5
:104CC0001B92BD4A05F09AFA434604000D00009A73
:104CD00000210E9806F0C6FF24184D410023200045
:104CE0002900B54A05F08AFA0023200029001A920B
:104CF000B14A05F083FA434604000D00009A0021F2
:104D0000129806F0AFFF24184D410023200029001F
:104D1000A94A05F073FA0023200029000E92A64A42
:104D200005F06CFA434604000D00009A0021149827
:104D300006F098FF24184D410023200029009E4AC8
:104D400005F05CFA0023200029000C929A4A05F035
:104D500055FA434604000D00009A0021179806F00A
:104D600081FF24184D41002320002900924A05F0BC
:104D700045FA0023200029000A928F4A05F03EFAE6
:104D8000434604000D00009A0021189806F06AFFBF
:104D900024184D41002320002900874A05F02EFAEF
:104DA0000023200029000692834A05F027FA434693
:104DB00004000D00009A0021199806F053FF2418F2
:104DC0004D410023200029007B4A05F017FA0123FA
:104DD000002D00DCE4E04846D9B203704B4602984F
:104DE0001A63586016980C0098601E98D8601D9839
:104DF00018611C9858611B9898611A98D8610E9890
:104E000018620C9858620A9898620698D862049BB7
:104E10000898834200D1DEE01F9B012B00D1AAE05D
:104E200099423AD153461B6B934200D0B2E35346AA
:104E3000DA6A069B934200D0C3E053469A6A0A9B03
:104E4000934200D0BCE053465A6A0C9B934200D078
:104E5000B6E053461A6A0E9B934200D0B0E0534628
:104E6000DA691A9B934200D0AAE053469A691B9BC9
:104E7000934200D0A4E053465A691C9B934200D051
:104E80009EE053461A691D9B934200D098E053461A
:104E9000DA681E9B934200D092E0002900D07AE0AD
:104EA000049B059C08980999C0186141CB1722936F
:104EB0002393229C239D2200424024922A004A40B0
:104EC0002592249825990122001BA9412100024026
:104ED000514026912793269A279B121BAB41012A0A
:104EE00000D1B0E2009B019C0893099421932C947B
:104EF00008980999049A059B12184B410024D90F70
:104F0000109111941098119912184B410292039329
:104F1000D907039B52085B10019350231143736020
:104F2000283B0091B3602822002134707EA806F04F
:104F300031FF209B002B00D132E639DB2F9A2E98CF
:104F40004AA906F02DFF3369F068069373690A9346
:104F5000B3690C93F3690E93336A1293736A1493D3
:104F6000B36A1793F36A1893336B19932823169334
:104F7000283302932BE600290DD05346186B90423C
:104F800000D154E790429241524201235A40D2B29A
:104F9000002A00D181E7009B019C04930594A7E7B8
:104FA000002D03D105498C4200D914E7002312E7F4
:104FB000329A31997EA8C4E700E1F505FFE0F505D6
:104FC0000693069B9A4292411F9B5242012BDFD1CE
:104FD0000129DDD1D9E7059B0998834200D01BE761
:104FE0001F9B012B00D171E28B4243D153461B6BB7
:104FF0009A4200D0EFE253464A46DB6AD26A9342B5
:1050000000D0CBE253464A469B6A926A934200D054
:10501000C4E253464A465B6A526A934200D0BDE2FC
:1050200053464A461B6A126A934200D0B6E2534680
:105030004A46DB69D269934200D0AFE253464A4602
:105040009B699269934200D0A8E253464A465B6945
:105050005269934200D0A1E253464A461B69126945
:10506000934200D09AE253464A46DB68D2689342A4
:1050700000D093E2002900D166E100233370503361
:105080007360283BB360282200217EA806F082FED0
:10509000209B002B00D029E23B69F86804937B69D0
:1050A0000693BB690893FB690A933B6A0C937B6A7E
:1050B0000E93BB6A1293FB6A14933B6B1793299B65
:1050C0001693289B029300235A4613705B46029A5C
:1050D00059465A60169A5C469A605A465D46D860B0
:1050E000049B13615B46069A4A6108995A46A1617E
:1050F0000A9C5946EC610C9D5C461D625D460E9B08
:105100005362129A8A621499E162179C00212C63FF
:10511000219DEC172A00230006F0A4FD0023E94A94
:1051200080460D0005F06AF82300219A0090019155
:105130000498002106F096FD009A019B12184B413D
:1051400010001900DF4A00230490059105F056F87D
:105150002300219A009001910698002106F082FD1B
:10516000009A019B12184B4110001900D54A0023E8
:105170000690079105F042F82300219A00900191D2
:105180000898002106F06EFD009A019B12184B4111
:1051900010001900CB4A00230890099105F02EF861
:1051A000230000900191219A00210A9806F05AFDEF
:1051B000009A019B12184B4110001900C14A0023AC
:1051C0000A900B9105F01AF82300219A00900191A2
:1051D0000C98002106F046FD009A019B12184B41E5
:1051E00010001900B74A00230C900D9105F006F845
:1051F0002300219A009001910E98002106F032FDC3
:10520000009A019B12184B4110001900AD4A00236F
:105210000E900F9104F0F2FF2300219A009001916B
:105220001298002106F01EFD009A019B12184B41B6
:1052300010001900A34A00231290139104F0DEFF1E
:105240002300219A009001911498002106F00AFD94
:10525000009A019B12184B4110001900994A002333
:105260001490159104F0CAFF230000900191219A37
:105270000021179806F0F6FC009B019C1B184C417E
:1052800018002100012300900191002C00DC50E166
:105290004A46DCB213704B46029A40465A60169A50
:1052A00029009A600023874A04F0A8FF0498059912
:1052B0004B46DA600023834A04F0A0FF0698079962
:1052C0004B461A6100237F4A04F098FF0898099919
:1052D0004B465A6100237B4A04F090FF0A980B99D1
:1052E0004B469A610023774A04F088FF0C980D9989
:1052F0004B46DA610023734A04F080FF0E980F9941
:105300004B461A6200236F4A04F078FF12981399F3
:105310004B465A6200236B4A04F070FF14981599AB
:105320004B469A620023674A04F068FF009801998F
:105330004B46DA620023634A04F060FF4B461A636F
:10534000219B00932C9B01930099019A0B0013431E
:1053500005D0309B092B02DC38989B00C150029B82
:10536000369A7360169B3470B3607EAB23CA23C336
:1053700023CA23C323CA23C312681A603269F3689D
:10538000134372691343B2691343F2691343326AD8
:105390001343726A1343B26A1343F26A1343326BC4
:1053A000134302D0012363403370320051466EA88C
:1053B000FEF7D6FDD0223AAB9B181B783AAA1370A1
:1053C0001F936F9B924602931300029A75985A603E
:1053D000709B769C02935346029A779D9A60524640
:1053E000719BD3600293729B136116935346739A19
:1053F000D8615A610492749A1C629A615D62789BCA
:1054000006929C46534662469A62799B984653465A
:105410004246DA6252467A9B1363002B00D190E039
:105420002D9B013B2D93309B5A1E309200D29EE063
:105430002D9B5A1C00D19AE0379A9A1A0233209277
:105440003393FFF709FA002B00D04BE50099019A3E
:105450000124002509196A41009B019C08910992C9
:1054600021932C9444E5002B00DA8AE00A22D81C10
:105470008000D21A301892004AA906F091FC3369D4
:10548000F068069373690A93B3690C93F3690E93FA
:10549000336A1293736A1493B36A1793F36A189377
:1054A000336B19932823169328330293FFF732FAAC
:1054B000002D04D104498C4201D9FFF736FB0023AB
:1054C000FFF733FB00E1F505FFE0F505002900D10A
:1054D000D3E553461B6B934200D18CE593429B412D
:1054E0005B42012960D1012253405DE0002B5FDB6C
:1054F0000A22D81C8000D21A301892004AA906F05D
:105500004FFC3369F068049373690693B369089399
:10551000F3690A93336A0C93736A0E93B36A129316
:10552000F36A1493336B179328231693283302934B
:10553000C9E5002C03D15D4A904200D9A8E60023BA
:10554000A6E6414611636146D1620699D360D161F6
:105550000499309B91611699956251610299546248
:10556000106211615A1E309201D3FFF775F9399814
:1055700089239B009D443CBC90469946A246AB467D
:10558000F0BD03211A00C91A0A3289009200791865
:105590007EA872E7934292415242F9E493429B41C2
:1055A0001F9A5B42012A9CD0002B00D065E561E583
:1055B00003211A00C91A0A328900920079187EA8BC
:1055C0009DE7059B0998834201D0FFF7D0FA00239D
:1055D00021932C9304E593429B415B42E4E709232A
:1055E0002D93FFF7DFF808232D93FFF7DBF809234E
:1055F0001A0037930026502428252D9B00219B1A42
:1056000054AA1670914657AA10002093369205337B
:10561000282230935594569506F0BCFB61AA16706B
:1056200093460021282264A86294639506F0B2FB99
:10563000309B002B01DBFFF701F998E708231A00E4
:105640003793D7E706232D93FFF7ACF807232D9365
:10565000FFF7A8F805232D93FFF7A4F805231A00F8
:105660003793C7E706231A003793C3E707231A00C7
:105670003793BFE703231A003793BBE704232D9327
:10568000FFF790F802232D93FFF78CF803232D9357
:10569000FFF788F801331A003793ABE704231A00A9
:1056A0003793A7E702231A003793A3E7FFE0F50536
:1056B00070B504000D001600FFF70CF8E368002B2E
:1056C0001DD12369002B1AD16369002B17D1A3695F
:1056D000002B14D1E369002B11D1236A002B0ED1CA
:1056E000636A002B0BD1A36A002B08D1E36A002B5D
:1056F00005D1226B002A02D12000237070BDEB6817
:10570000002B1AD12B69002B17D16B69002B14D1F8
:10571000AB69002B11D1EB69002B0ED12B6A002B4A
:105720000BD16B6A002B08D1AB6A002B05D1EB6A59
:10573000002B02D12A6B002ADED0F368002B1AD18D
:105740003369002B17D17369002B14D1B369002B77
:1057500011D1F369002B0ED1336A002B0BD1736A80
:10576000002B08D1B36A002B05D1F36A002B02D1BC
:10577000336B002BC0D02B78002B04D133785A1E0A
:105780009341DBB2B8E73378013B5A1E9341DBB259
:10579000B2E7C046F0B501224646D6464F46C0B5F0
:1057A0000E001100C54D04002B789AB01940BFF3CC
:1057B0005B8F88461A4200D184E1092E00DCC3E0E9
:1057C00003AB98460A2399460A336D469A460DAFB5
:1057D00028220021404606F0DDFA00232B70EB6101
:1057E0002B624B466B6253466B604B462A0021008E
:1057F0003800AB60FEF7FCFE3B78093E23700E9B41
:1058000063600F9BA360109BE360119B2361129B5D
:105810006361139BA361149BE361159B2362169B39
:105820006362179BA362189BE362199B2363092E93
:10583000CEDC0123994600234A46900048440133B8
:1058400042001BB29146B342F6DB282200214046BB
:1058500006F0A0FA0023EE682B703000984904F09F
:10586000A7FC3000E960964904F0A2FC2B6994493A
:10587000C618300004F09CFC30002961904904F007
:1058800097FC6B698E49C618300004F091FC30001B
:1058900069618B4904F08CFCAB698949C6183000FA
:1058A00004F086FC3000A961854904F081FC84493C
:1058B000E861484604F07CFC48462962804904F0CF
:1058C00077FC6B6A7E49C618300004F071FC30002A
:1058D00069627B4904F06CFCAB6A7949C6183000F8
:1058E00004F066FC3000A962754904F061FCEB6AC3
:1058F0007349C618300004F05BFC3000E96270495F
:1059000004F056FC2B6B6E499C46604404F050FC3E
:10591000142329636B602A000A3B21003800AB6026
:10592000FEF766FE20003B78282223700E9B0C3089
:1059300063600F9B10A9A36006F032FA1AB01CBC7A
:1059400090469946A246F0BD3300093300DB1DE1C5
:1059500003AB98460A2399460A336D469A460DAF23
:1059600028220021404606F015FA00232B70EB6137
:105970002B624B466B6253466B604B462A002100FC
:105980003800AB60FFF794FE3B78093623700E9B1E
:1059900063600F9BA360109BE360119B2361129BCC
:1059A0006361139BA361149BE361159B2362169BA8
:1059B0006362179BA362189BE362199B2363330006
:1059C0000933CDDB01239946002376424A469000F5
:1059D0004844013342001BB291469E42F6DC282225
:1059E0000021404606F0D6F90023EE682B70300007
:1059F000334904F0DDFB3000E960314904F0D8FBA5
:105A00002B692F49C618300004F0D2FB3000296101
:105A10002B4904F0CDFB6B692949C618300004F00E
:105A2000C7FB30006961264904F0C2FBAB69244919
:105A3000C618300004F0BCFB3000A961204904F016
:105A4000B7FB1F49E861484604F0B2FB48462962AB
:105A50001B4904F0ADFB6B6A1949C618300004F00D
:105A6000A7FB30006962164904F0A2FBAB6A144937
:105A7000C618300004F09CFB3000A962104904F005
:105A800097FBEB6A0E49C618300004F091FB30001A
:105A9000E9620B4904F08CFB2B6B09499C4660447E
:105AA00004F086FB142329636B602A000A3B210063
:105AB0003800AB60FFF7FCFD34E7C046484F0120DB
:105AC00000E1F505280009F0BBF9002800D174E6D3
