:020000041000EA
:1000000000B5324B212058609868022188439860DF
:10001000D860186158612E4B002199600221596106
:100020000121F02299502B49196001219960352056
:1000300000F044F80222904214D00621196600F024
:1000400034F8196E01211966002018661A6600F04E
:100050002CF8196E196E196E052000F02FF8012189
:100060000842F9D1002199601B49196000215960AB
:100070001A491B48016001219960EB211966A021F2
:10008000196600F012F800219960164914480160C1
:100090000121996001BC002800D000471248134993
:1000A000086003C880F30888084703B5996A0420EC
:1000B0000142FBD001200142F8D103BD02B5186610
:1000C0001866FFF7F2FF186E186E02BD00000240BE
:1000D000000000180000070000035F00212200005C
:1000E000F4000018222000A00001001008ED00E03C
:1000F00000000000000000000000000074B24E7A12
:1001000000200420F7010010C3010010C5010010F9
:10011000C1010010C1010010C1010010C101001097
:10012000C1010010C1010010C1010010C701001081
:10013000C1010010C1010010C9010010CB01001065
:10014000CD010010CD010010CD010010CD01001037
:10015000CD010010CD010010CD010010CD01001027
:10016000CD010010CD010010CD010010CD01001017
:10017000CD010010CD010010CD010010CD01001007
:10018000CD010010CD010010CD010010CD010010F7
:10019000CD010010CD010010CD010010CD010010E7
:1001A000CD010010CD010010CD010010CD010010D7
:1001B000CD010010CD010010CD010010CD010010C7
:1001C00000BE00BE00BE00BE00BE00BE00F051F882
:1001D000103800BEF2EB8871E00200100C03001032
:1001E0003402001090A31AE700202449086006C8D2
:1001F00081F30888104722480068002835D10DA4F3
:100200000ECC002902D000F012F8F9E71D491E4A71
:10021000002000E001C19142FCD11C4988471C49E3
:1002200088471C49884700BEFDE701C901C29A42C0
:10023000FBD370470C030010C000002020BC00203E
:100240006CBE001020BC00201C190120681B01108E
:100250000000042000000420681B0110001004208E
:10026000001004200000000070470B4800F018F850
:100270000047EFF30580C0B27047000008ED00E0D2
:10028000000000D020190120009C0120BD5000205A
:10029000C1210020AD510020575600000000000091
:1002A00001B40248844601BC604700BFF56D0020E0
:1002B00006005250ABB360531406012006005250A2
:1002C000861C030224060120060052505422A29DDF
:1002D0003806012005005250DE65F468681B0110E5
:1002E000D4020010C8020010BC0200104406012015
:1002F000B0020010500601205C06012068060120B3
:0C030000A4060120B0060120E406012044
:10030C00F8B5C0460448054B10B5834203D0044BE6
:10031C00002B00D0984710BD1C1901201C1901207E
:10032C000000000006480749091A8B10C90FC918AC
:10033C0010B5491003D0044B002B00D0984710BDCA
:10034C001C1901201C1901200000000010B5074CDD
:10035C002378002B09D1FFF7D5FF054B002B02D0DA
:10036C00044800E000BF0123237010BD401A012097
:10037C000000000020BC0020054B10B5002B03D062
:10038C000449054800E000BFFFF7CCFF10BDC04694
:10039C0000000000441A012020BC002005490A6816
:1003AC0093009B18044A5B001268303A9B180B6050
:1003BC007047C046E0230120C42301200022014BDA
:1003CC001A607047E0230120024B1A68024B1A6036
:1003DC007047C046E0230120F41D01200023094A88
:1003EC0030B51360084AFA2113600022074D084CFF
:1003FC000848C900EA54E254C25401338B42F9D183
:10040C0030BDC04614240120B81F01201048012023
:10041C003491012050780120024A136859424B4113
:10042C00136070470C1E0120024A136859424B415D
:10043C0013607047081E012010B50A2008F024FD37
:10044C00044B0548196808F027FE0A2008F01CFD2B
:10045C0010BDC046D8230120ACBF0020F0B5DE464D
:10046C0057464E464546E0B50A2083B008F00CFDD1
:10047C00244BFA259846244B28269B46234B244F85
:10048C009A46244BED009946234BEC1843461B5DD2
:10049C00DAB2012B33D0023A531E9A415242B24384
:1004AC0057323B689C4221D05B4651461B5D095D2F
:1004BC0001922022DBB20091210091344846FF3496
:1004CC0008F0EAFDAC42E1D10A2008F0DDFC9623ED
:1004DC0001351B019D42D7D10A2008F0D5FC03B091
:1004EC003CBC90469946A246AB46F0BD5B46514695
:1004FC001B5D095DDBB2019200912A22DCE75222DE
:10050C00CFE7C046507801201048012034910120DB
:10051C00B81F0120C4BF002030F8FFFF0023F0B546
:10052C004F464646D64694259946194BC0B59A4631
:10053C00184B68279846184E6D0009E001239C461D
:10054C008023E1445B019C464B466544FA2B16D054
:10055C002C003368283C1B5DFF2BEFD049465046DE
:10056C0008F09AFD02E00134A542E7D03368185D2B
:10057C0043461B5CBB43F6D008F086FCF3E70A202D
:10058C0008F082FC1CBC90469946A246F0BDC046C1
:10059C00E0BF0020A1080120A809012070B50A20A5
:1005AC0008F072FC094C0A4E2500B135FF35626823
:1005BC0013782A2B03D03000217808F06DFD0C3411
:1005CC00AC42F4D1034808F067FD70BDAC090120C2
:1005DC00E8BF0020F4BF0020F0B5DE464546574684
:1005EC004E4601200023E0B5D025CF4C89B0002128
:1005FC004042236003F0B2FB01202D066B689A1178
:10060C000240944661469B131840C84BC84A186078
:10061C00C84B11601A685B6804920593C64B1A6844
:10062C005B6802920393236801240693C34B9B4699
:10063C00C34B98465B465A461B68013313606A6885
:10064C00521222406B6816005A122240012EF9D128
:10065C00002A03D06B685A122240FBD19A11224017
:10066C009E13924626405A1101962240012900D130
:10067C008AE0012800D127E15146002900D02FE162
:10068C00002803D10199002900D034E10F271F4025
:10069C00002A00D1EDE00720049A1040FA00049ED5
:1006AC00059F7907F7080F4307210F40A5498918C3
:1006BC00CF5D210081403940014180200001A861BB
:1006CC00002900D12CE1802149016961019900299F
:1006DC0028D10298039907260640B446060048071D
:1006EC00F1080143170007208037014095487F1817
:1006FC00C05D664681462000B0404E46304066469E
:10070C00304180263601AE61002800D104E1802002
:10071C00400168618C480068002803D160460728B6
:10072C0000D13FE15A041BD442461268874992001B
:10073C008B5043461B68864A06999B00D150434612
:10074C001F6818688349013006F0A2FC4346196003
:10075C00814B1A6843461B689A4201D143461F607D
:10076C000120049A059B002112184B410492059319
:10077C00029A039B12184B4102920393069B51461B
:10078C0001330198069355E75146002905D10026FF
:10079C0000270296039704960597012800D1AEE036
:1007AC000199002900D0A6E00F2751461F400029CF
:1007BC0000D16DE7002A5AD119112140FA00079196
:1007CC000720029E30408146029E039F7807F7085F
:1007DC000743072007401000803084462600484617
:1007EC008640BC44310066465648805D4E46884380
:1007FC000799B140664608435249C0B288555249E0
:10080C00096800298ED1494607298BD15349803A72
:10081C000968D719524AFFB25754504A51491268C5
:10082C00885402214D4A5048126881544B4A4B4916
:10083C00126801320A60FA220968D200914200DA89
:10084C0070E7414A14606DE7002900D114E70F27C7
:10085C0051461F40002900D11AE70199002900D008
:10086C0060E7002AA8D05246002A00D113E7FA000C
:10087C002FE707220498059902409446C0084A07BE
:10088C001043072226001040FA006746BE40B146CE
:10089C002C4E1018375C4E461911B7432140079166
:1008AC0039006746079EBE403143264ECFB23754BF
:1008BC00254E3668002E02D16646072E56D0019979
:1008CC00002900D17CE72DE7002EBDD100260027A2
:1008DC0051460296039704960597002900D1CFE65E
:1008EC00802109016961002813D10199002902D1E5
:1008FC000F271F405EE7802109016961A7E7019975
:10090C000029A4D1002000210290039104900591AC
:10091C009DE70F271F40A0E780204001A861F9E662
:10092C0080214901A961D1E6141F0120CC230120AB
:10093C00C82301202819012020190120D8230120C7
:10094C00441F01202084012014240120A030012008
:10095C00E0500120DC050000481F0120B81F0120D9
:10096C00104801203491012050780120164EC0B25D
:10097C003668B4466146154E7054134908681449DC
:10098C000F5402271049086812490F540E49086881
:10099C0001300860FA200F68C00087428FDB0E49D7
:1009AC000C608CE70848803A00685118074AC9B2B5
:1009BC001154054A09491268C95D05488154024A17
:1009CC00044912688C5431E7B81F012010480120EB
:1009DC00349101205078012014240120208401201E
:1009EC008022F8B5104F114D3B6828001C03104BAA
:1009FC00520019688026091908F03CF98023760109
:100A0C005B03E01831000BF00FFB681C282209492E
:100A1C00FF3008F02FF9386832000130FF30290020
:100A2C0000030BF041FBF8BDE023012050680120CE
:100A3C00A80901202824012070B500250C4808F0D5
:100A4C0075FA0C4EFA20800008F038FB0400431CA9
:100A5C00F8D0200008F018FA0D2C05D06B1C74553A
:100A6C00262BEFDC1D00EDE70023735570BDC0464F
:100A7C0010C000202824012010B501F0E1FD10BDAC
:100A8C0070B50024074D200003F066F82100020029
:100A9C000134280008F000FB202CF4D10A2008F0C7
:100AAC00F3F970BD34C000200B4B0C4810B519681D
:100ABC000B4C0268A1540B4C2468002C01D0013261
:100ACC00026009480068002801D00131196007480C
:100ADC0008F0E2FA10BDC046E0230120F41D01200D
:100AEC0020840120081E01200C1E012040C0002083
:100AFC0010B5034806F09EFA002103000020984729
:100B0C005542000010B50C4C0C48216808F0C4FA92
:100B1C00802123684901581CFF3000030BF084FA34
:100B2C00074808F003FA074B1B68002B02D0236818
:100B3C000133236010BDC046E023012058C00020C3
:100B4C0074C000200C1E01209423F0B55746DE46DD
:100B5C004E4645465B0099460023E0B583B00193B1
:100B6C00AA4BAB4F9B46AB4B9A46AB4B9846019C62
:100B7C00AA48210008F090FA5B461A682603935D98
:100B8C00FF2B00D13EE14C464B466825B146283C34
:100B9C001E0002E00134A6420BD05346105D1B5CD4
:100BAC00AB43F7D008F070F95B4601341A68A642E3
:100BBC00F3D133004E469219994614000023561C6B
:100BCC00974D3B708034FF36002322782B70F92A26
:100BDC0003D841469300CB589F462800914906F014
:100BEC00E5F92900380001340BF0CAF8B442EBD116
:100BFC0039008D4808F050FA0A2008F045F9802297
:100C0C0052019446019BE14401330193FA2BAED17E
:100C1C000A2008F039F903B03CBC90469946A2462C
:100C2C00AB46F0BD05222800804908F023F8D8E730
:100C3C00022228007E4908F01DF8D2E70222280083
:100C4C007C4908F017F8CCE7022228007A4908F012
:100C5C0011F8C6E702222800784908F00BF8C0E723
:100C6C0002222800764908F005F8BAE7022228008B
:100C7C00744907F0FFFFB4E702222800724907F01D
:100C8C00F9FFAEE702222800704907F0F3FFA8E74E
:100C9C00022228006E4907F0EDFFA2E7052228008A
:100CAC006C4907F0E7FF9CE7032228006A4907F02C
:100CBC00E1FF96E705222800684907F0DBFF90E783
:100CCC0005222800664907F0D5FF8AE7052228008F
:100CDC00644907F0CFFF84E705222800624907F03A
:100CEC00C9FF7EE706222800604907F0C3FF78E7BA
:100CFC00052228005E4907F0BDFF72E70622280096
:100D0C005C4907F0B7FF6CE7052228005A4907F049
:100D1C00B1FF66E705222800584907F0ABFF60E7F2
:100D2C0004222800564907F0A5FF5AE7052228009F
:100D3C00544907F09FFF54E706222800524907F058
:100D4C0099FF4EE703222800504907F093FF48E72C
:100D5C00052228004E4907F08DFF42E703222800A8
:100D6C004C4907F087FF3CE7032228004A4907F06B
:100D7C0081FF36E703222800484907F07BFF30E764
:100D8C0003222800464907F075FF2AE703222800B2
:100D9C00444907F06FFF24E704222800424907F07A
:100DAC0069FF1EE705222800404907F063FF18E79A
:100DBC00052228003E4907F05DFF12E704222800B7
:100DCC003C4907F057FF0CE7032228003A4907F08B
:100DDC0051FF06E704222800384907F04BFF00E7D3
:100DEC0004222800364907F045FFFAE608222800BD
:100DFC00344907F03FFFF4E606222800324907F099
:100E0C0039FFEEE6314808F047F9F8E6A809012069
:100E1C0078280120A108012090C100207CC000206E
:100E2C00208501208CC000207CC10020E4C0002063
:100E3C0074C1002070C100206CC1002068C100206A
:100E4C0064C1002060C100205CC1002058C100209A
:100E5C0078C10020ECC00020E0C000200CC10020B4
:100E6C0004C10020FCC00020F4C00020A4C000205D
:100E7C009CC00020D8C00020D0C00020C8C00020DA
:100E8C00C4C00020BCC00020B4C0002054C100204D
:100E9C0048C1002050C1002044C1002040C10020A6
:100EAC0038C100203CC1002034C100202CC10020DE
:100EBC0024C100201CC1002020C1002014C100202E
:100ECC0018C1002094C00020ACC0002084C00020B9
:100EDC00F8B5104B10481E68310008F0DDF80F4FC4
:100EEC000F4C3B68350359198022200007F0C2FED5
:100EFC0031000C4808F0D0F8290020003D68803102
:100F0C0069188022803007F0B5FE0A2007F0BCFF7C
:100F1C00F8BDC046E023012078C50020A8090120B7
:100F2C0020840120A0C5002010B50B4808F0B4F8AF
:100F3C000A4C80220021200007F096FE084808F099
:100F4C00ABF8200080220021803007F08DFE0A20B3
:100F5C0007F09AFF10BDC046C8C5002020840120B0
:100F6C00DCC5002010B5134808F096F8124808F0BC
:100F7C00A5F8431C0ED06D2813D00FDC4D2810D0D3
:100F8C00502807D10D4808F087F8802200210C4822
:100F9C0007F06AFE0A2007F077FF10BD7028F1D029
:100FAC00F8E7084808F078F880220021064807F096
:100FBC005BFEEFE7F0C5002080969800DCC50020B2
:100FCC00A0840120C8C500202084012010B51A4837
:100FDC0008F062F8194808F071F8431C16D06D2817
:100FEC001BD017DC4D2818D050280FD1144B1548A6
:100FFC001C682100240308F04FF82100124B8031AB
:10100C001C6880221148611807F034FE0A2007F092
:10101C003BFF10BD7028E9D0F8E7094B0C481C6861
:10102C00210008F039F8084B2403196880220919AB
:10103C00084807F01FFEE9E7F0C5002080969800ED
:10104C00E0230120A0C50020A8090120A0840120D4
:10105C0078C50020208401201C4BF0B51F681C4B68
:10106C00C646196880231B4D3C035B0000B51A0073
:10107C0028000919984607F0FDFD80235B039C4668
:10108C0080216444200049010AF0CEFF3900124847
:10109C0008F002F8114E80223100280007F0EAFD1A
:1010AC0039000F4807F0F8FF28003100802280310A
:1010BC00803007F0DFFD4246290020000AF0F4FFE3
:1010CC00084807F033FF04BC9046F0BDE023012034
:1010DC00A8090120E04F01200CC60020208401202B
:1010EC002CC6002050C6002010B5040002F056FD9E
:1010FC000123D022A340120693620021002220007B
:10110C0002F034FD10BDC046F0B54746CE46050092
:10111C000C0080B5904689B00022002328002100E5
:10112C0006F09CFA002800D089E10123002699469C
:10113C00640064082800210006F030FF06F088FEE9
:10114C0002000B00009001910020BF4906F032FF15
:10115C0002000B002800210006F017FA0022040000
:10116C000D0000980199002306F078FA002808D0A9
:10117C00009801990022B54B06F0FEF9B14600909B
:10118C0001912000290006F063FEAF4B00220600FF
:10119C000F0006F0FAF906AA0AF0B0FD0022AC4BDB
:1011AC00029003910698079906F00DFA06F09CFA46
:1011BC0006F082FA00220490059102980399A24B42
:1011CC0006F001FA02000B000498059906F0D4F918
:1011DC0006F08AFA43463200587129003B00200081
:1011EC0006F0C1F90022994B06F0EDF904000D0050
:1011FC0006F02EFE944B002206000F0006F0C5F9F7
:10120C0006AA0AF07BFD0022914B029003910698EE
:10121C00079906F0D8F906F067FA06F04DFA0022A5
:10122C000490059102980399874B06F0CCF90200C3
:10123C000B000498059906F09FF906F055FA434601
:10124C003200187129003B00200006F08CF90022B6
:10125C007E4B06F0B8F904000D0006F0F9FD7A4B50
:10126C00002206000F0006F090F906AA0AF046FDCF
:10127C000022774B029003910698079906F0A3F988
:10128C0006F032FA06F018FA002204900591029842
:10129C0003996D4B06F097F902000B000498059921
:1012AC0006F06AF906F020FA43463200D87029009D
:1012BC003B00200006F057F90022644B06F083F93E
:1012CC0004000D0006F0C4FD5F4B002206000F0069
:1012DC0006F05BF906AA0AF011FD00225C4B0290A5
:1012EC0003910698079906F06EF906F0FDF906F0E1
:1012FC00E3F900220490059102980399524B06F0F1
:10130C0062F902000B000498059906F035F906F015
:10131C00EBF943463200987029003B00200006F0A0
:10132C0022F90022494B06F04EF904000D0006F09C
:10133C008FFD454B002206000F0006F026F906AA89
:10134C000AF0DCFC0022424B0290039106980799AC
:10135C0006F039F906F0C8F906F0AEF9002204904F
:10136C00059102980399384B06F02DF902000B00F9
:10137C000498059906F000F906F0B6F943463200D8
:10138C00587029003B00200006F0EDF800222F4B8E
:10139C0006F019F906F05CFD2B4B002206F0F5F86F
:1013AC0006AA0AF0ABFC0022294B04000D0006989B
:1013BC00079906F008F906F097F906F07DF9002276
:1013CC0006000F00200029001F4B06F0FCF802005D
:1013DC000B003000390006F0CFF806F085F94346D3
:1013EC0000221870184B0098019906F0CEF806AA46
:1013FC000AF084FC0022164B04000D000698079995
:10140C0006F0E1F806F070F906F056F90022060035
:10141C000F00200029000C4B06F0D5F802000B0041
:10142C003000390006F0A8F806F05EF943464A464B
:10143C009871DA7109B00CBC90469946F0BD052341
:10144C000426994674E6C04600002440000059402A
:10145C0000003040F0B5D64646464F462023C0B576
:10146C0094B00AAA13AC138423808379050018095D
:10147C00984606F021F90022764B06F0A4F8434674
:10148C0006000F2018400F0006F016F902000B00A2
:10149C003000390006F070F806F026F90121EA79DF
:1014AC00804693100B40114200D1CDE020222270D7
:1014BC000C222021013B93430AAA52182D3313709E
:1014CC006B7918099A4606F0F7F80022614B06F082
:1014DC007AF80F2306005046184099460F0006F084
:1014EC00EBF802000B003000390006F045F82B79C0
:1014FC00089009919A46180906F0DEF80022554B1F
:10150C0006F061F84A4653461340060018000F00D7
:10151C0006F0D2F802000B003000390006F02CF86F
:10152C00EB780A900B919A46180906F0C5F8002240
:10153C00484B06F048F84A4653461340060018003C
:10154C000F0006F0B9F802000B003000390006F06D
:10155C0013F8AB780C900D919A46180906F0ACF87C
:10156C0000223C4B06F02FF84A4653461340060027
:10157C0018000F0006F0A0F802000B003000390034
:10158C0005F0FAFF6B780E900F919A46180906F049
:10159C0093F800222F4B06F016F84A465346134098
:1015AC00060018000F0006F087F802000B00300050
:1015BC00390005F0E1FF2D7810901191280906F003
:1015CC007BF80022234B05F0FEFF4B462B40060018
:1015DC0018000F0006F070F802000B003000390004
:1015EC0005F0CAFF06000F000898099906F07CF870
:1015FC00194B050099464346390030000693059473
:10160C0006F072F804901098119906F06DF803909A
:10161C000E980F9906F068F802900C980D9906F048
:10162C0063F801900A980B9906F05EF82B00009075
:10163C000A49484612AA05F0B9FC484614B01CBC2D
:10164C0090469946A246F0BD6422121A90462D226D
:10165C002DE7C046000024407830012060C60020F1
:10166C00F0B5DE4645464E465746E0B5804686798F
:10167C000F2087B0304006F01FF804000D00300931
:10168C0006F01AF800227C4B05F09DFF22002B007F
:10169C0005F072FF01224346049005911100DB799D
:1016AC0019409B1003911A4200D1DDE00023734CCA
:1016BC000093019443465B799A460F235046184099
:1016CC00994605F0F9FF4346060048461B790F0082
:1016DC009B46184005F0F0FF5B4604000D0018090E
:1016EC0005F0EAFF0022644B05F06DFF22002B0091
:1016FC0005F042FF624A634B05F065FF5346040058
:10170C0018090D0005F0D8FF00225B4B05F05BFFBC
:10171C0032003B0005F030FF02000B0020002900D6
:10172C0005F02AFF434606004846DB780F009A4630
:10173C00184005F0C1FF534604000D00180905F0D0
:10174C00BBFF00224C4B05F03EFF22002B0005F0A6
:10175C0013FF4D4A4D4B05F036FF32003B0005F0B0
:10176C000BFF4346060048469B780F009A461840EC
:10177C0005F0A2FF534604000D00180905F09CFF6C
:10178C0000223D4B05F01FFF22002B0005F0F4FE5C
:10179C003F4A404B05F017FF32003B0005F0ECFED2
:1017AC004346060048465B780F009A46184005F001
:1017BC0083FF534604000D00180905F07DFF00223D
:1017CC002D4B05F000FF22002B0005F0D5FE324A10
:1017DC00324B05F0F8FE32003B0005F0CDFE4346DF
:1017EC00060048461B780F009846184005F064FF29
:1017FC00434604000D00180905F05EFF00221E4B45
:10180C0005F0E1FE22002B0005F0B6FE244A254B24
:10181C0005F0D9FE32003B0005F0AEFE0B000200D5
:10182C000098019905F0CFFE039B04000D00002BDE
:10183C001FD1049A059B00201B4905F094FE020061
:10184C00802000060B1800200B4906F0B3FB0200A9
:10185C000B002000290005F0B6FE07B03CBC9046FA
:10186C009946A246AB46F0BD0023104C0093019460
:10187C0020E7049A059BE6E7000024400000F0BF37
:10188C007B14AE47E17A843F2D431CEBE2361A3FC2
:10189C008DEDB5A0F7C6B03E3A8C30E28E79453E60
:1018AC00BBBDD7D9DF7CDB3D000059400000F03FC9
:1018BC00F0B5DE4645464E465746E0B5050083B0CA
:1018CC000A2007F0E1FA204B002498461F4B204ECB
:1018DC009B4620E02B00083B9946A1444846FFF765
:1018EC00B9FD82464846FFF7BBFE02000B00584686
:1018FC0000920193791E524607F0CEFB2100404620
:10190C0007F0CAFB295D300007F0C6FB80230134C9
:10191C005B009C420ED06307F4D1002CEED0802CDF
:10192C00ECDCE7103B000B3B012BD3D8094807F04C
:10193C00B3FBE3E70A2007F0A7FA03B03CBC9046E0
:10194C009946A246AB46F0BDA8C6002098C600201A
:10195C00B0C6002084C60020F0B5D6464F46464699
:10196C008F4DC0B52800FFF7A3FF00238D4F2E002D
:10197C003B708D4B01359A468C4B8D4C99468D4B5B
:10198C0080369846FF35002332782370F92A03D825
:10199C0049469300CB589F465146200005F006FB64
:1019AC002100380001360AF0EBF9B542EBD13900D1
:1019BC00814807F071FB1CBC90469946A246F0BDCD
:1019CC0002224146200007F055F9E9E702222000E7
:1019DC007A4907F04FF9E3E702222000784907F033
:1019EC0049F9DDE702222000764907F043F9D7E7F1
:1019FC0002222000744907F03DF9D1E702222000B1
:101A0C00724907F037F9CBE702222000704907F042
:101A1C0031F9C5E7022220006E4907F02BF9BFE728
:101A2C00022220006C4907F025F9B9E703222000B7
:101A3C006A4907F01FF9B3E705222000684907F04F
:101A4C0019F9ADE703222000664907F013F9A7E75F
:101A5C0003222000644907F00DF9A1E703222000BE
:101A6C00624907F007F99BE703222000604907F061
:101A7C0001F995E7032220005E4907F0FBF88FE798
:101A8C00042220005C4907F0F5F889E705222000C4
:101A9C005A4907F0EFF883E705222000584907F070
:101AAC00E9F87DE704222000564907F0E3F877E7D0
:101ABC0003222000544907F0DDF871E704222000CE
:101ACC00524907F0D7F86BE704222000504907F081
:101ADC00D1F865E7082220004E4907F0CBF85FE704
:101AEC00062220004C4907F0C5F859E706222000D1
:101AFC004A4907F0BFF853E705222000484907F090
:101B0C00B9F84DE706222000464907F0B3F847E73D
:101B1C0005222000444907F0ADF841E705222000DA
:101B2C00424907F0A7F83BE704222000404907F0A0
:101B3C00A1F835E7052220003E4907F09BF82FE776
:101B4C00062220003C4907F095F829E705222000E1
:101B5C003A4907F08FF823E705222000384907F0AF
:101B6C0089F81DE705222000364907F083F817E7AE
:101B7C0005222000344907F07DF811E705222000EA
:101B8C00324907F077F80BE705222000304907F0BF
:101B9C0071F805E7032220002E4907F06BF8FFE6E9
:101BAC0020840120782801208CC00020B8C6002099
:101BBC002085012078C100207CC1002074C1002048
:101BCC0070C100206CC1002068C1002064C10020DD
:101BDC0060C100205CC1002058C1002054C100200D
:101BEC0048C1002050C1002044C1002040C1002049
:101BFC0038C100203CC1002034C100202CC1002081
:101C0C0024C100201CC1002020C1002014C10020D0
:101C1C0018C1002094C00020ACC00020A4C000203B
:101C2C009CC00020D8C00020D0C00020C8C000201C
:101C3C00C4C00020BCC00020B4C000200CC10020D7
:101C4C0004C10020FCC00020F4C00020ECC0002027
:101C5C00E4C00020E0C00020F0B5D6464F46464612
:101C6C00994CC0B52168994807F016FA984D23682D
:101C7C0018032B689C466044FFF71AFE954807F042
:101C8C0055F922682B6812039B181E005D1C924BA1
:101C9C0000229A46914B924F9946924B924C984601
:101CAC003A708036FF35002332782370F92A03D836
:101CBC0049469300CB589F465146200005F076F9D3
:101CCC002100380001360AF05BF8B542EBD139003F
:101CDC00864807F0E1F90A2007F0D6F81CBC9046BC
:101CEC009946A246F0BD02224146200006F0C2FFF2
:101CFC00E6E7022220007E4906F0BCFFE0E7022264
:101D0C0020007C4906F0B6FFDAE7022220007A496F
:101D1C0006F0B0FFD4E702222000784906F0AAFFB3
:101D2C00CEE702222000764906F0A4FFC8E7022283
:101D3C002000744906F09EFFC2E70222200072497F
:101D4C0006F098FFBCE702222000704906F092FFD3
:101D5C00B6E7032220006E4906F08CFFB0E705229F
:101D6C0020006C4906F086FFAAE7032220006A498E
:101D7C0006F080FFA4E703222000684906F07AFFF2
:101D8C009EE703222000664906F074FF98E70322C1
:101D9C002000644906F06EFF92E70322200062499E
:101DAC0006F068FF8CE704222000604906F062FF11
:101DBC0086E7052220005E4906F05CFF80E70522DD
:101DCC0020005C4906F056FF7AE7042220005A49AD
:101DDC0006F050FF74E703222000584906F04AFF32
:101DEC006EE704222000564906F044FF68E70422FF
:101DFC002000544906F03EFF62E7082220005249B9
:101E0C0006F038FF5CE706222000504906F032FF4E
:101E1C0056E7062220004E4906F02CFF50E705221B
:101E2C0020004C4906F026FF4AE7062220004A49CA
:101E3C0006F020FF44E705222000484906F01AFF6F
:101E4C003EE705222000464906F014FF38E704223D
:101E5C002000444906F00EFF32E7052220004249DB
:101E6C0006F008FF2CE706222000404906F002FF8E
:101E7C0026E7052220003E4906F0FCFE20E705225D
:101E8C0020003C4906F0F6FE1AE7052220003A49EC
:101E9C0006F0F0FE14E705222000384906F0EAFEB1
:101EAC000EE705222000364906F0E4FE08E705227D
:101EBC002000344906F0DEFE02E7032220003249FE
:101ECC0006F0D8FEFCE6C046E0230120A0CA0020A4
:101EDC00A8090120A8CA00208CC00020ACCA002090
:101EEC007828012078C10020208501207CC10020A9
:101EFC0074C1002070C100206CC1002068C100209A
:101F0C0064C1002060C100205CC1002058C10020C9
:101F1C0054C1002048C1002050C1002044C1002001
:101F2C0040C1002038C100203CC1002034C1002039
:101F3C002CC1002024C100201CC1002020C1002085
:101F4C0014C1002018C1002094C00020ACC0002097
:101F5C00A4C000209CC00020D8C00020D0C000200D
:101F6C00C8C00020C4C00020BCC00020B4C00020E9
:101F7C000CC1002004C10020FCC00020F4C00020D3
:101F8C00ECC00020E4C00020E0C000208022F8B5A6
:101F9C001B4B0D001B4F1968040309190600520056
:101FAC00380006F067FE80235B039C468021644466
:101FBC00200049010AF038F8EB070BD4AB0714D416
:101FCC0080223900200052000AF06EF80E4806F00C
:101FDC00ADFFF8BD31000D4807F05EF880223800E7
:101FEC000B4906F047FEAB07EAD53100094807F06C
:101FFC0053F880220849094806F03CFEE0E7C04649
:10200C00A8090120E04F012050C600200CC600207A
:10201C00208401202CC60020A084012060500120C7
:10202C0010B50F4807F038F80E4807F047F8431C76
:10203C0014D06D2810D00ADC4D280DD050384142F8
:10204C0041414900084B1868FFF7A0FF10BD7038DC
:10205C00414241414900F5E70121F3E70021F1E755
:10206C00F0C5002080969800E0230120F0B557467B
:10207C00DE464E4645462D4BE0B51B6883469946D9
:10208C00030398462A4B202702249A4683B00DE07E
:10209C00032C04D108223378013C93433370802302
:1020AC005B019C46013FE044022F32D006213800F0
:1020BC0004F0EEFF012503004946A5400833CE1875
:1020CC00CB5C6DB2AB433370534641461B68020088
:1020DC005B5C1848FF3B59424B41210000935B4627
:1020EC0006F0DAFF534642461B689B5CFF2B02D07E
:1020FC0033781D433570013CCAD27F223378013FBF
:10210C001340337080235B019C460624E044022F6D
:10211C00CCD14A4609239373E833D37303B03CBC48
:10212C0090469946A246AB46F0BDC046A409012094
:10213C00A8090120E4CE0020F0B55746DE4680B554
:10214C00A34F85B03E68B379932B04D005B00CBC7B
:10215C0092469B46F0BDF379F12BF7D10F223379E0
:10216C0092461A42F2D150467179F03209010A4076
:10217C001B09D518F37818409B4605F09DFA534679
:10218C00B478009001912340180005F095FA5B4655
:10219C0002900391180905F08FFA00228D4B05F07F
:1021AC0012FA009A019B05F0E7F90022894B05F021
:1021BC000AFA05F099FA05F07FFA009001912009CE
:1021CC0005F07AFA0022834B05F0FDF9029A039B85
:1021DC0005F0D2F900227F4B05F0D7F902000B0075
:1021EC000098019905F0C8F905F07EFA0400290061
:1021FC00794806F051FF22002100784806F04CFF88
:10220C00472D00DD95E0102DA0DD2B00113B362B6A
:10221C009CD8734A9B00D3589F46DB2C00D8D2E045
:10222C000F213A6813798B430B210B4313718DE704
:10223C00F92CF5D802212000FFF7A8FEF0E70F21BA
:10224C003A6813798B430B210B431371F92C00D98A
:10225C007CE701212000FFF799FE77E70F213A6810
:10226C0013798B430B210B431371F92C00D96DE7B8
:10227C0003212000FFF78AFE68E70F213A681379E3
:10228C008B430B210B431371F92C00D95EE7210012
:10229C00544806F001FF544B240319688034802203
:1022AC000919524806F0E6FC0A2006F0EDFD4DE750
:1022BC000F213A6813798B430B210B431371F92CC3
:1022CC0000D943E721004A4806F0E6FE464B2403BA
:1022DC00196880220919474806F0CCFC0A2006F040
:1022EC00D3FD33E70F213A6813798B430B210B4352
:1022FC001371F92C00D929E721003D4806F0CCFEDA
:10230C00394F3C4D3B68260399198022280006F072
:10231C00B1FC2100334806F0BFFE28003968803636
:10232C0080228919803006F0A5FC0A2006F0ACFD4D
:10233C000CE7952D34D0962D12D151463A682E4883
:10234C0013798B430B210B43137106F0A5FE8022EE
:10235C000021264806F088FC0A2006F095FDF5E6DB
:10236C00942D00D0F2E651463A68244813798B43F9
:10237C000B210B43137106F08FFE1E4C80220021A3
:10238C00200006F071FC1C4806F086FE200080221E
:10239C000021803006F068FC0A2006F075FDD5E6B9
:1023AC0051463A68154813798B430B210B43137133
:1023BC0006F072FE802200210E4806F055FC0A2021
:1023CC0006F062FDC2E62000FFF750FE28E7C0468B
:1023DC00A409012000002440F8CE002008CF0020E2
:1023EC0018CF0020A0C50020A8090120A08401203E
:1023FC0078C5002020840120DCC50020C8C5002041
:10240C00F0B5DE4657464E464546AF24E0B5764B12
:10241C00BBB01B686C4424090593744808AB07AA2D
:10242C0006A9240101F0CAFA002803D16F497048AB
:10243C0002F0DEFF089A07990698D02501F082FA7F
:10244C00002606F035FE0127FEF71AFB2D0630009C
:10245C0001F0A4FB3B00B340300000220021AB6232
:10246C00013601F083FB172EF1D10C2001F096FB05
:10247C0080235B016B620B20AB6101F08FFB80232F
:10248C001B016B621020AB616B6101F087FB802339
:10249C005B026B621A20AB61FEF726FE1B20FEF777
:1024AC0023FE1C20FEF720FE524809F001FCFA2006
:1024BC00C00002F08BFA0A2006F0E6FC4E4D280014
:1024CC0006F0EAFD4D4806F0E7FD280006F0E4FDB5
:1024DC000A2006F0D9FC20000021303000F0F6F97B
:1024EC0020000121203000F0F1F920000A211030E9
:1024FC0000F0ECF92000072100F0E8F9210005AB11
:10250C00083108226846029306F0B4FB0CCC08A8EC
:10251C0000F0F0F908A93A4806F0BEFD0021394850
:10252C0006F0BAFD384C80222168384806F0A2FB30
:10253C000021374806F0B0FD2168802280313548F3
:10254C0006F098FB0A2006F09FFCFA20324B800024
:10255C009B46324B21259A46314B324C9946324B95
:10256C00324F9846324E06F0A9FD431C36D022005D
:10257C00002303E001330C32242B25D01178884240
:10258C00F8D15A4610605A00D3189B00E3189B6888
:10259C0098475146274806F07FFD43461B6839682B
:1025AC005A1E934132680191501E824152422A4078
:1025BC00203202924A46009112685B422B40110075
:1025CC001D48203306F068FDFFF7B6FD00F044F817
:1025DC00FA20800006F072FD431CC8D106F0DCFC2A
:1025EC00164806F059FDEFE75C1A0120B01E0400F6
:1025FC00F4CF00209903002028D0002044D00020E4
:10260C0060D0002078C50020A8090120208401207A
:10261C00A0C50020A0840120C4230120282401206F
:10262C00E0230120AC0901200C1E0120F41D012027
:10263C00081E012094CE0020ACCE0020E0CE00205D
:10264C008022034B1A60034B7F3A1A607047C046D6
:10265C00600B0120BC1F0120F8B5DE4657464E46E4
:10266C0045468A4BE0B51A68002A47D0884D894EFA
:10267C002A688949B45C9046884F0A683C60002AF5
:10268C0006D0C52C10D001229446E04442462A6064
:10269C00D72C3DD8A12C37D95E34E4B2352C2DD8AB
:1026AC007F4BA4001B599F467E4B99461B68002B01
:1026BC0000D0A0E07C4B9A461B68002B00D0B1E008
:1026CC007A4B7B4F9B467B4C2268531C05D0386859
:1026DC007968D200B218FEF717FD0023524613603A
:1026EC004A461360002200233A607B6001235A465D
:1026FC005B42136023602B6801332B603CBC90461B
:10270C009946A246AB46F8BD002CF7D11C60F5E704
:10271C0023001033DBB2092BF0D8634B1B68002B62
:10272C0050D1604B99461B68002B00D18DE0D72B04
:10273C0000D199E000234A46136001225B4B5242C0
:10274C001A6002E0D722574B1A60404601302860CD
:10275C00D4E7012200200021534B1A60564B18601D
:10276C005960404601302860C8E7544C2000FEF701
:10277C0077FF534B002204F0FFFE2200FEF7C4FC4F
:10278C002B6801332B60B9E7464473784D4A9B00A4
:10279C009B582B60B2E743464644991C7378494AD0
:1027AC009B0099502960A9E74046404B01301A68BC
:1027BC00404B1A602860A1E7404601230130286095
:1027CC000B609BE73C4B0022994649463E4B086800
:1027DC00496804F0F8FE06002000F0380F0004F001
:1027EC006BFF0B0002003900300004F0C5FE4B46B5
:1027FC0018605960A9E72C4A92461268002A1AD030
:10280C002D4A10685168294A9346294FD72B00D07E
:10281C0059E702000B003868796804F0ADFE3860A7
:10282C00796050E7224F244B5C681B683B607C60EE
:10283C001E4B9B4647E71D4B9B461B68D800301828
:10284C00FEF70EFF4B461B68DFE7F03CE400301947
:10285C00FEF706FF164B154A186059603B68F03BB3
:10286C0013602B68984670E72000F038C0003018D1
:10287C00FEF7F6FE0E4C0B0002002068616804F0B7
:10288C007BFE2B6820606160984653E7BC1F0120DB
:10289C00600B0120208401200024012038990120A4
:1028AC00A4D20020E4230120401F0120640B01204E
:1028BC00381A01205C0B0120089901202884012082
:1028CC000000F03F109901200000244010B50029B1
:1028DC0008DBC1230022CC179B058260C36001601A
:1028EC00446010BD00240022014B4942F5E7C0466C
:1028FC00000040B082B0F0B557464546DE464E4625
:10290C00E0B599B02393259B2292F0221900D205B1
:10291C000700249D1140914201D100F0A7FC239E99
:10292C00229A3100DC03E40B944621432A430A43E8
:10293C0028D1DA430121D2178A432D32027030227A
:10294C000E4942708C46BF21153282705A00920C8F
:10295C00624449018A4202DBDA00920C6244002A8A
:10296C0001DA00F072FD2B230549FB70381D04F0D1
:10297C001DFB00233818037100F060FCE0E7FFFF3B
:10298C007CD30020C0221900D2051140914201D104
:10299C0000F01DFCD74A1A40D748520C814691448E
:1029AC000222DB1713402B333B70D44BCA469C429C
:1029BC0001D900F019FC01D100F011FCD04B9D4263
:1029CC0001D100F07EFCC023DB05994201D100F05F
:1029DC000BFC63460021F00E760100937309019302
:1029EC00EE0E630133436A0112184B41110006923B
:1029FC000793194301D100F08EFCC24B1A685B6837
:102A0C0015007E221E00C04B0895099619685B685C
:102A1C0004919B460698079943001A4084098B063B
:102A2C001C438B099C46B94B9846D3000132D2000B
:102A3C0043444244186859685368126802900391E1
:102A4C0000980199801859412A0033000090019197
:102A5C0012184B41584604991840114001430BD0B1
:102A6C00029D039E012000212D184E411B01029551
:102A7C0003961B09009201936546254300D1B1E1F1
:102A8C00069D079E7E216400214033052C0B1C43C0
:102A9C00330B9C46029D039E0B0081318033DB007F
:102AAC00C900414443441A685B68AD185E410A682A
:102ABC004B680098019980185941089A099B00901D
:102ACC00019112184B415846049918401140029537
:102ADC000396014309D0012000212D184E411B0102
:102AEC00029503961B09009201936546254300D17C
:102AFC0078E10699079A7E2364001C40880C9303A6
:102B0C001843930C0A93631CFF33DB0043441A688D
:102B1C005B68844602980399801859410234FF344B
:102B2C00E40044440500226863680E000098019993
:102B3C0080185941089A099B0090019112184B4139
:102B4C00584604991840114002950396014301D050
:102B5C0000F083FC63460A9E1E4300D142E10699B5
:102B6C00079A5D007E230C0E1D4013021C43130EAE
:102B7C009C46029803992B008133FF33DB004344BE
:102B8C001A685B68801859418235FF35ED00454461
:102B9C002A686B680290039100980199801859413A
:102BAC00089A099B0090019112184B4158460499C0
:102BBC0018401140014301D000F05DFC66462643ED
:102BCC0000D10FE10699079A7E2364001C40880F00
:102BDC0093001843930F0B9380239B00E318DB00A7
:102BEC0043441A685B680A9002980399801859410B
:102BFC00474B05009C466444E40044440E002268A4
:102C0C0063680098019980185941089A099B0090B3
:102C1C00019112184B4158460499184011400295E5
:102C2C000396014301D000F034FC0B9E0A9B1E431B
:102C3C0000D1D7E0029803995D007E231D40079BCD
:102C4C001C09A0239B00EB18DB0043441A685B684B
:102C5C00801859412F4B029003919C466544ED001E
:102C6C0045442A686B68009D019EAD185E412900A1
:102C7C003200089D099E58466D18564100910192EC
:102C8C000499304029402A003300014301D000F060
:102C9C00A8FC002C00D1A5E002980399009D019E90
:102CAC007E2364001C40079B9B0A0A93C0239B0055
:102CBC00E318DB0043441A685B6880185941164BD3
:102CCC00029003919C466444E40044442268636887
:102CDC00AD185E41089A099B5846521973410499E4
:102CEC001840114000950196014301D000F087FC7B
:102CFC0014E0C0460000FE7FE0E7FFFF09ED010095
:102D0C00C087ADBEF8170120F017012038DF002076
:102D1C000102000081020000010300000A9B002B4D
:102D2C0060D0029803995D007E231D40079B1C0C0C
:102D3C00E0239B00EB18DB0043441A685B688018A7
:102D4C005941CA4B02900391009801999C466544E5
:102D5C00ED0045442A686B6880185941089A099B14
:102D6C000090019112184B4158460499184011409B
:102D7C00014301D000F051FC002C33D0029D039E86
:102D8C000098019980236400DB00E318DB004344C6
:102D9C001A685B68AD185E41B54B029503969C466C
:102DAC006444E400230043441A685B68801859416A
:102DBC0003000C000899099AC918624158460093FF
:102DCC00019413000A00049918401140014309D0E2
:102DDC00012000212D184E411B01029503961B0961
:102DEC0000920193029A039B1100194300D192E2C5
:102DFC00A04B1B680493002305930499059A029B2E
:102E0C00039CA24200D1AFE30299039A9A4B080F9C
:102E1C001C685D6813011843110F2B0022000694E7
:102E2C00079505F0B7FE00254C082200049805997B
:102E3C002B0005F0AFFE029A039B121A8B410292F3
:102E4C000393049A059B0398834210D803D1130073
:102E5C00029A93420BD802980399049A059B801A04
:102E6C009941029003910120002124184D4183497E
:102E7C00029A0968A14201D900F045FC8048630C14
:102E8C005843800C4101091A8B015B1ADB001B189B
:102E9C009B01E41A7B4B9C4203D97B4B01309C4633
:102EAC006444A30AA4055901A40D6418D900611A3D
:102EBC008D0A89055C19890D6B01C918ED004D1B34
:102ECC00FA2189008D4203D3704B01349C46654432
:102EDC006B49530C5943890C0C904801401A8301DF
:102EEC001B1ADB005B189B01D21A664B0D940E95D6
:102EFC009A4203D9644B01319C466244900A920574
:102F0C004301920DD218C300D21A940A92056301A0
:102F1C00920DD2180019E400141BFA22920094426C
:102F2C0003D35A4B01309C4664440F91109011947A
:102F3C0012AE0099019A1301080F1843110F069A4B
:102F4C00079B05F027FE049C059D4B08029300236C
:102F5C000393029A039B2000290005F01BFE009AA4
:102F6C00019B121A8B419D420ED801D194420BD871
:102F7C0004980599029C039D121A8B410120002193
:102F8C0024184D4102940395029C039D3C48630C0C
:102F9C005843800C4101091A8B015B1ADB001B188A
:102FAC009B01E41A374B9C4203D9374B01309C46AA
:102FBC006444A30AA4055901A40D6418D900611A2C
:102FCC008D0A89055C19890D6B01C918ED004D1B23
:102FDC00FA2189008D4203D32C4B01349C46654465
:102FEC002749530C5943890C30604801401A83011E
:102FFC001B1ADB005B189B01D21A224B7460B56064
:10300C009A4203D9204B01319C466244940A9205A2
:10301C006001920D1218E000121A900A92054301F9
:10302C00920DD2182418C000101AFA229200904265
:10303C0003D3164B01349C46604418ABF1607061AD
:10304C003461F01A48300C9D8110114B6C006419DE
:10305C007E1C1C19632D00D8FBE222787A706278F2
:10306C00BA70A4783A1DFC7014E0C04681030000CD
:10307C0001040000E8170120D8170120E4170120F3
:10308C00378600003F420F00C0BDF0FF18FCFFFF69
:10309C0080D30020042800DC89E00D9C600000191E
:1030AC001C18185C107060785070A0789070022911
:1030BC0076DD0E9C600000191C18185CD0706078CE
:1030CC001071A078507103296DD00F9C600000190D
:1030DC001C18185C90716078D071A078107204295B
:1030EC0061D0109C600000191C18185C507260783C
:1030FC009072A078D072052955D0119C60000019EF
:10310C001C18185C107360785073A07890730629A3
:10311C0049D0129C600000191C18185CD0736078A0
:10312C001074A078507407293DD0139C60000019CE
:10313C001C18185C90746078D074A07810750829ED
:10314C0031D0149C600000191C18185C5075607804
:10315C009075A078D075092925D0159C60000019B0
:10316C001C18185C107660785076A07890760A2936
:10317C0019D0169C600000191C18185CD076607869
:10318C001077A07850770B290DD0179C6000001990
:10319C001C181B5C93776378D3772023A078D054CA
:1031AC000323012902DD4B005B18033BD218452099
:1031BC00921B531CF8544B46941CD11C0432002B0C
:1031CC001DDA5B429A462D23D1463B5519E0D54A70
:1031DC0098009146020048460240FFF7DDFBD24BB7
:1031EC009D4201D8FFF7EAFB302345207B702E3B34
:1031FC00F8544B46052204210324002BE1DB2B233E
:10320C003B5553464C46C9485843001643011B1ABC
:10321C009B001B18DB00E31A002819D030307854BF
:10322C005800C018C24B1C5C1B18BC545A78781838
:10323C0082709B780A1DC3700023BB5419B03CBC30
:10324C0090469946A246AB46F0BC08BC02B0184763
:10325C00092B1FD9632B51D8B6480A3B5B00C45CC1
:10326C00C3187C545B78BB548A1CE5E7F822190020
:10327C00D2051140914210D0002B00DAE1E02B2353
:10328C0003701E337B702533BB70083BFB7000232F
:10329C003B71D3E730337B54CEE7FC221900D205C7
:1032AC001140DB17914200D1C5E1022213402B33B0
:1032BC0003704E234370C37000235F32827003711E
:1032CC00BCE79D4B9C4201D0FFF77DFB9B4B9E4284
:1032DC0000D989E7C023DB05994200D184E7614618
:1032EC000023F20E760100917109954801919549E0
:1032FC0012184B4106920793FFF77FFB5800C0183A
:10330C008B4B1C5C1B187C545878B8549B78CA1C8B
:10331C0079188B7090E700258B4B1C68009A019BE9
:10332C009D4200D1C3E00099019A1301080F184384
:10333C00864B110F1A685B6805F02CFC4B08029346
:10334C0000230393029A039B2000290005F022FC22
:10335C00009A019B121A8B419D420CD801D19442C8
:10336C0009D802980399121BAB41012400250019BE
:10337C00694102900391029C039D754B21001B68CF
:10338C00A34200D971E1734D630C5D43AD0C69012F
:10339C00491B8B015B1ADB0002995B199B01CE1A4E
:1033AC006D4B9E4203D96D4B01359C466644B40A65
:1033BC00B6056101B60D7618E100711A880A890507
:1033CC004301890DC9182418C000081AFA21890074
:1033DC00884203D3624B01349C4660445D49530CD4
:1033EC005943890C0E904801401A83011B1ADB00CB
:1033FC005B189B01D21A584B0C950D949A4203D929
:10340C00564B01319C466244940A92056001920D20
:10341C001218E000121A900A92054301920DD2186C
:10342C002418C000101AFA229200904203D34C4B7D
:10343C0001349C4660440F91119006211820109481
:10344C0003E62D2303701C331CE74649F81C03F0DC
:10345C00ADFD00233818C370F0E62C0001200021CC
:10346C00350024184D411B011B0902940395009251
:10347C000193FFF76FFB0120029D039E00212D1885
:10348C004E411B011B090295039600920193FFF715
:10349C0095FB2C0001200021350024184D411B0107
:1034AC001B090294039500920193FFF7BEFB944213
:1034BC0000D838E700980199254A1268824200D951
:1034CC0094E1244D430C5D43AD0C6B015B1B9A01E5
:1034DC00D21AD2005219204B9201821A9A4203D965
:1034EC001E4B01359C466244900A92054101920D97
:1034FC005218C100521A910A92054B01920DD21822
:10350C004018C900511AFA229200914203D3144B6D
:10351C0001309C4661440D900E910C2003210C95BA
:10352C0093E5C0460000FE7FC087ADBE8A41000017
:10353C001C0C0120680B012009ED0100638E8D37F6
:10354C0000F8B0D537A13D00E8170120D8170120AD
:10355C00E4170120378600003F420F00C0BDF0FF8A
:10356C0018FCFFFF14CF0020994200D84CE4D04A3D
:10357C001C0012689A4200D913E1CE495B0C5943E6
:10358C00890C4B015B1A9A01D21AD2005218CA4B01
:10359C009201A21A9A4203D9C84B01319C4662444B
:1035AC00900A92054301920DD218C300D21A940AC4
:1035BC0092056301920DD2180019E400141BFA2233
:1035CC009200944203D3BE4B01309C466444BD4BE5
:1035DC000E940C915C681B680D90069307940FAECB
:1035EC00A7E40120029D039E00212D184E411B01D2
:1035FC001B090295039600920193FFF74AFB0120E9
:10360C00029C039D002124184D411B011B090294AF
:10361C00039500920193FFF781FB0120029D039E0D
:10362C0000212D184E411B011B0902950396009297
:10363C000193FFF7A1FB022213402B33037053239A
:10364C004370053B8370037100235F32C27043717A
:10365C00F4E5092D05D962787A70A478FA1CBC704F
:10366C0018E5A478BA1C7C7014E5974B1B68A34230
:10367C0000D92BE1A50A89056B01890DC918EB004E
:10368C00C91A880A89054301890DC9182D18C0006B
:10369C00081AFA218900884203D3894B01359C46CC
:1036AC0060448449530C5943890C0D904801401ACD
:1036BC0083011B1ADB005B189B01D21A7E4B0C9505
:1036CC009A4203D97D4B01319C466244940A92057F
:1036DC006001920D1218E000121A900A9205430133
:1036EC00920DD2182418C000101AFA22920090429F
:1036FC0003D3734B01349C4660440E91109005210A
:10370C0014200F94A1E470490968A14200D99EE0ED
:10371C00A00AA1054301890DC918C300C91A8C0A56
:10372C0089056301890DC9180019E4000C1BFA21E5
:10373C0089008C4203D3624B01309C4664445D4942
:10374C00530C5943890C0C904801401A83011B1AE5
:10375C00DB005B189B01D21A574B0D949A4203D98C
:10376C00564B01319C466244900A92054301920DDE
:10377C00D218C300D21A940A92056301920DD21882
:10378C000019E400141BFA229200944203D34C4B10
:10379C0001309C4664440E910F90109411AEFFF7CB
:1037AC00C8FB494A12689A4247D8990A9A05920D61
:1037BC004B01D218CB00D21A900A92054301920DFC
:1037CC00D2180918C000101AFA229200904203D3A2
:1037DC003B4B01319C4660443A4B0C915C681B6836
:1037EC000D90069307940EAEFFF7A3FB364A1268B2
:1037FC0082421CD8850A82056B01920DD218EB000F
:10380C00D21A910A92054B01920DD2186D18C9006B
:10381C00511AFA229200914203D3294B01359C464E
:10382C0061440D91082002210C95FFF70EFC050058
:10383C000C9001210420FFF708FC029B0DAE0C93A9
:10384C00204B5C681B6806930794FFF772FB1949C1
:10385C00530C5943890C4801401A83011B1ADB0095
:10386C005B189B01D21A144B0C949A4203D9134B3C
:10387C0001319C466244900A92054301920DD21884
:10388C00C300D21A940A92056301920DD218001942
:10389C00E400141BFA229200944203D3084B01302B
:1038AC009C4664440D910E900F9410AEFFF741FBB3
:1038BC00E4170120378600003F420F00C0BDF0FF27
:1038CC0018FCFFFFD8170120E0170120029B1948B4
:1038DC000C93530C5843800C4401241AA3011B1B5A
:1038EC00DB001B189B01D21A134B9A4203D9134BC2
:1038FC0001309C466244950A92056C01920D121996
:10390C00EC00121B940A92056301920DD2182D192A
:10391C00E400141BFA229200944203D3084B0135A5
:10392C009C4664440D900E9510200D000F940421BC
:10393C00FFF78BFB378600003F420F00C0BDF0FF46
:10394C0018FCFFFFF0B583B005000E00140000F06A
:10395C00B5F9002801D003B0F0BD154F01223B0092
:10396C0001210097053001F061FD33002A0000941D
:10397C000121104801F048FF21002800714303F099
:10398C00AFFB04000C4B002200930221042001F039
:10399C004DFD2300002201210094052001F046FD7D
:1039AC003B00022200210097062001F03FFDD2E7E8
:1039BC00006CDC0200800240001BB700F0B5DE4654
:1039CC0057464E464546E0B5070083B004209B465B
:1039DC000091019201F012FFFA21890003F080FBA3
:1039EC0032238246FF33994686005644B6014C4B2F
:1039FC004C4AF318072493420BD901235B429C4693
:103A0C005346E144F61A4B46002BF0D100205AE005
:103A1C00012421003000614303F062FB874259D03E
:103A2C00631E9846012CE8D01D0065433000290028
:103A3C0003F056FB874251D0A31E9846022CE7D0C8
:103A4C002D1B2900300003F04BFB874249D0E31EAD
:103A5C009846032C4BD02D1B2900300003F040FB63
:103A6C00874246D0231F9846042C48D02D1B290092
:103A7C00300003F035FB874243D0631F9846052C7A
:103A8C0045D02D1B2900300003F02AFB874240D083
:103A9C00062C42D03000E91F03F022FB062487429B
:103AAC00B7D10029B5D101230724984673019B1B7C
:103ABC009B009E19009BF6001E60019B42461C60F9
:103ACC005B4601201A6003B03CBC90469946A24666
:103ADC00AB46F0BD0029A3D1A046E7E70029ABD146
:103AEC00E4E70029E2D0E31E9846032CB3D102246C
:103AFC008FE70029DAD0231F9846042CB6D1032473
:103B0C0087E70029D2D0631F9846052CB9D104242D
:103B1C007FE70029CAD0062CBCD1052479E7C04622
:103B2C00508EF4FF50F80C00094A83009446402252
:103B3C00634410B51C68C0006240C024144080224D
:103B4C00520113431C60034B9C466044416010BD02
:103B5C0004C0014000400140034BC0009C4660443F
:103B6C0043681F2018407047004001400A4B8000FA
:103B7C009C4604236044002901D00C230821002A10
:103B8C0000D10B00026853400C221A4080235B01C9
:103B9C00184302607047C04604C001400123D02284
:103BAC008340120693629361094A83009446402233
:103BBC0063441968C0004A40C02111408022520160
:103BCC0013431960034B9C460523604443607047C4
:103BDC0004C0014000400140F8B5EFF3108772B605
:103BEC000E4E3368002BFCD0BFF35F8FCB08C4188C
:103BFC000725A446C45C01230D40AB4018002040AF
:103C0C00234208D1624623431370BFF35F8F3060A9
:103C1C0087F31088F8BD100001F0EAFB2C0100D0EE
:103C2C00F8B5CE4647468C4680B5EFF3108872B691
:103C3C00214D2C68002CFCD0BFF35F8F9A422CD8FE
:103C4C00D4080721055D0619012411408C402C4233
:103C5C001FD007218946063909E0D408055D0619ED
:103C6C004C460F001440A7403C002F4211D00132AB
:103C7C009342F2D201204042BFF35F8F00220E4BE1
:103C8C001A6088F3108800280FDB0CBC904699460C
:103C9C00F8BD2C4310003470EEE7BFF35F8F0023A8
:103CAC002B6088F31088012040426346002BECD037
:103CBC00089801F09DFBC0462C0100D0024B1868FF
:103CCC008007C00F7047C04600C006400021044B5F
:103CDC00044ABFF35F8F02C39342FAD17047C046C8
:103CEC00000100D0800100D0044A1078431CDBB2E4
:103CFC00172B00D9102313707047C04600180120F1
:103D0C0000B5054B83B00100009318221F23034814
:103D1C00FFF786FF03B000BD38030120101F012000
:103D2C0001238340002904D0034A1360034A136023
:103D3C007047034A1360FBE780E200E000E100E01B
:103D4C0080E100E001228240034B1B681340581EA7
:103D5C008341D8B27047C04600E100E0002904D08E
:103D6C00034B1860034B18607047034B1860FBE75C
:103D7C0080E200E000E100E080E100E0012383400C
:103D8C00014A13607047C04600E200E0084B103057
:103D9C009B688000C358002B07D0064A00209B1A52
:103DAC002F229A424041C0B270470020FCE7C04627
:103DBC0000ED00E004180120024B10309B688000DD
:103DCC00C058704700ED00E070B50D00EFF31086A1
:103DDC0072B60F4A1368002BFCD0BFF35F8F0D4BEC
:103DEC0010309B6884001B590B4A934203D09D42B0
:103DFC0001D001F015FB074B9B681D51BFF35F8F82
:103E0C00BFF35F8F0022024B1A6086F3108870BDDF
:103E1C00240100D000ED00E0CD010010F0B55746B4
:103E2C004E464546DE46E0B5894683B00500170090
:103E3C00EFF3108A72B65E4A1368002BFCD0BFF306
:103E4C005F8F00205B4B18569B4600286DDB5A4653
:103E5C004400594E2418A400331998469B79103508
:103E6C001370564BAA009B6801929B589C469B1B57
:103E7C002F2B29D8012261469143CB79BB4208D81C
:103E8C006BE053009B189B00F318DD79BD4252D9AF
:103E9C00190006228A56002AF3DABD260B1D9B4612
:103EAC00360243465C46043B1B1B1B05444C5B0D16
:103EBC0023438B80887141468A714A46414B8E80E0
:103ECC000B60CF718A601BE03F4B9C4542D1424650
:103EDC003E4B023413803E4B3619043B9E1B360579
:103EEC00374B760D1E433B4B56809380FF23D77187
:103EFC00937143464A469A60012342461A439446BC
:103F0C0061462E4B019A9B689950BFF35F8FBFF3AC
:103F1C005F8F0022264B1A608AF3108803B03CBCDA
:103F2C0090469946A246AB46F0BD01F079FA5B4645
:103F3C00002018568BE70B1D9B468B8804345B05C1
:103F4C001B155B4436199E1BE0233605760D1B02B0
:103F5C001E43A6E701F064FAB9E745460B001E487C
:103F6C009B1B5B415843000D184B2B80A31C9C469C
:103F7C00B4446546164B0434043B5B1B1B05104DC7
:103F8C005B0DAC462B43454636196B800B1F9E1BB5
:103F9C006346A87148463605760D1E43094BAE8024
:103FAC00EF71A8600B60434613439C46A8E7C046DC
:103FBC00240100D0722401200418012000ED00E03F
:103FCC0000E0FFFF01488047CD01001000A1FFFF7A
:103FDC003418012000BDFFFFAAAA0000F0B5DE4690
:103FEC0057464E464546E0B50C0083B0EFF3108AB9
:103FFC0072B65A4A1368002BFCD0BFF35F8F1022A5
:10400C00914681444A46564B96009B689D59554BA8
:10401C0098469D4205D0A54216D0534FEB1B2F2B33
:10402C0014D94F4B9B689D51BFF35F8FBFF35F8FCC
:10403C0000224A4B1A608AF3108803B03CBC9046AD
:10404C009946A246AB46F0BD1D00EAE7012383402A
:10405C009B465A46454B1B681A4000925A46444BA5
:10406C001A60BFF35F8F07F0F3FE0190002803D0B6
:10407C00814501D001F0D4F901232A009A439368B9
:10408C009C4208D160E04B005B189B00FB189968C0
:10409C00A14211D01A00062151560029F3DA009BD7
:1040AC00002B05D05A46334B1A60304B1A60B8E7D8
:1040BC005A462F4B1A60B4E706215956002922DBC9
:1040CC004A00501880003C188046A0689860E0793F
:1040DC00D871062020569871A0797F2824D8A488FE
:1040EC00F81A6405241544440019E0240005400D19
:1040FC0024022043988052181F4B9200BF181A7844
:10410C001970BA71CBE70199002910D1FF31917167
:10411C001A49918018490A789A71194ADB1B5B413C
:10412C005A43120D0A70BAE7BD200002E2E7154AA5
:10413C001549D21A083A5002400D0143998013498F
:10414C0052080A43DA80AAE70621515613000029C7
:10415C00B6DA019A002AEAD14546DBE7240100D001
:10416C0000ED00E0CD0100100418012000E100E09A
:10417C0080E100E080E200E07224012000BDFFFF3E
:10418C00AAAA00003E18012000F0FFFF00F8FFFF74
:10419C00F8B501250400054307F05AFE0300EFF3C0
:1041AC00108672B621490A68002AFCD0BFF35F8FD3
:1041BC001F4A20001F49801A40414143090D1E48E7
:1041CC009B00876849B2FF58AF421CD00623D356D8
:1041DC008B421CD01223D3568B4222D01E23D35693
:1041EC008B4220D02A23D35603208B4210D0134B62
:1041FC001A781970A271BFF35F8F00220B4B1A60F3
:10420C0086F31088F8BD82680D48D050EFE7002087
:10421C0043001B189B00D218FF239371094B93800A
:10422C00E5E70120F4E70220F2E7C046240100D0C4
:10423C0004180120AAAA000000ED00E0722401205D
:10424C00CD01001000BDFFFF054B064A1360064A66
:10425C00136053609360D360136153619361704733
:10426C008080808000E400E004E400E0D02300B50E
:10427C001B061B680100074883B0C018064B0022C0
:10428C0000930523FFF7CCFC002801DB1F23181A31
:10429C0003B000BD6C24012054030120024B9C464A
:1042AC0061448900016070474000003483680B480A
:1042BC0010B5844661446244090112019A185918D8
:1042CC0054684B6801209C4201D802D00020C0B237
:1042DC0010BD12680B689A42F9D8F7E7FFFFFF0F81
:1042EC000A4B1968EFF3108072B60A68002AFCD0EA
:1042FC00BFF35F8F1B68BFF35F8F00221A6080F3E0
:10430C00108840BF002000217047C04608240120BF
:10431C00F8B557464E464546DE46E0B5434D814618
:10432C008A466A68EFF3108872B61368002BFCD0CB
:10433C00BFF35F8F2E68B47B002C3ED067003368D0
:10434C003F19033FDA195378B373002B00D1F37381
:10435C000023937053701370A968354A8C464946F4
:10436C00A218120162441160514651603149D36068
:10437C0091603268D219937053701370737B9B46A3
:10438C00002B35D022001900B0687368984732684A
:10439C00002820D05B4658465B005B44D719033B92
:1043AC00B870D118D35C002B00D07B705B460C70BE
:1043BC0073735C451DD0002626E06B68BFF35F8FDE
:1043CC001C6088F31088012040423CBC9046994602
:1043DC00A246AB46F8BD5B465B005B44033BD3187F
:1043EC009C70D119D25D002A00D05A705B460B70BC
:1043FC0074734A465346287D00F060FC061EDAD0E2
:10440C002100286800F0A0FEEB686A681B19013BCC
:10441C001B78BFF35F8F0021116088F31088002098
:10442C00002ED2D118022043CFE7C0464C180120F1
:10443C00FFFFFF0FA1400020F8B5574645464E46FA
:10444C00DE46E0B599460CAB19780DAB1B78050030
:10445C0090469A460768002912D1BE7B002E45D0A3
:10446C0074003B68A419033C1B195A783100BA73C9
:10447C00002A00D1FA7300229A705A701A7003E065
:10448C000E004C006418033C2C4B00229C46AB687D
:10449C0061449C464346090161440B604B464B60AA
:1044AC000A9B8B600B9BCB603B681B199A705A70F4
:1044BC001A707B7B9B46002B2CD032005946B86877
:1044CC007B6898473A68002817D05B4658465B00D3
:1044DC005B441419033BA070D118D35C002B00D0A3
:1044EC0063705B460E707B73B34514D030003CBCDC
:1044FC0090469946A246AB46F8BD5B465B005B44D2
:10450C00033BD3189E701119125D002A00D05A700B
:10451C005B460B707E7342464B46287D00F0CEFB0B
:10452C00041E06D05346002B03D13100286800F03E
:10453C000BFE0E9B002BD9D01C70D7E7FFFFFF0F93
:10454C00F0B5DE464E46574645460023E0B58DB0E5
:10455C000A936B4B8200D3580B90994600239B46D1
:10456C004B46079300F020FB079C06000F00626887
:10457C00EFF3108572B61368002BFCD02200079461
:10458C00BFF35F8F2468637B9946002B67D09268DA
:10459C005C4B90464B441B01984443461A685B683D
:1045AC0010001900801BB94100295FDD0B9800F049
:1045BC0085FB00230026984600279A46079C6368D3
:1045CC00BFF35F8F5A461A6085F310885346002B51
:1045DC0008D10028C6D10DB03CBC90469946A246E5
:1045EC00AB46F0BD0A9B414618024B461843D047D8
:1045FC00089009916268EFF3108572B61368002B6E
:10460C00FCD00794BFF35F8F0899099A002A48DB06
:10461C00114303D0079B1B69002B5DD1079B1B68C3
:10462C00DA7B002A07D051008A1819688C46494653
:10463C006244033A51704A46DA734B46079A013B7F
:10464C00D168CA5C0132CA545B46079A136153683D
:10465C00BFF35F8F5A461A6085F3108882E70023F8
:10466C000026984600279A460020A7E7002901D18A
:10467C0000289BD10021200000F0C8FC43461E6896
:10468C005F689B68079A9A464346DB689846D368EE
:10469C004B44013B1B780A931B020343136100201C
:1046AC008CE72369002BB9D033003C005B1A944192
:1046BC001A002300A74219D89F421BD059460491D7
:1046CC0001210391494602914146019151460798B7
:1046DC000091FFF7B1FEB7E700F066FA089A099B64
:1046EC0006000F0092197B419942E5D901225242F2
:1046FC00D317E3E79642E1D901225242D317DDE703
:10470C00E8230120FFFFFF0F10B5124C6368002B4C
:10471C0004D00A211048FFF7C1FD10BD23000F4A39
:10472C001021206800F090FB032000F031FA0320E8
:10473C0000F036FB03200A4900F07AFAFFF7D4FAAE
:10474C00084B9C46032360442375074B8000606034
:10475C00DC60DEE74C180120082401206D400020AD
:10476C000143002040000034E8230120004870473A
:10477C004C180120F0B557464546DE464E46E0B58E
:10478C0085B0019310AB1B78002703930023804660
:10479C009A46009243465A68EFF3108972B6136832
:1047AC00002BFCD0BFF35F8F43461D68AC7B002C05
:1047BC004FD066002B683619033E9B195A78AA73A2
:1047CC00002A00D1EA7342469F705F701F70926896
:1047DC00524B94460099019AE3181B0163441960EB
:1047EC005A600E9A9A600F9ADA602B689B199F7028
:1047FC005F701F706B7B9B46002B46D0220019000C
:10480C00A8686B6898472A68002831D05B465846E0
:10481C005B005B449619033BB070D118D35C002B42
:10482C0000D073705B460C706B735C452ED04346A6
:10483C00DB681B19013B187843465B68BFF35F8F3D
:10484C001F6089F310885346002B2ED100022043A1
:10485C0007E05B68BFF35F8F1C6089F31088012051
:10486C00404205B03CBC90469946A246AB46F0BDD2
:10487C005B465B005B44033BD3189C709119925DC3
:10488C00002A00D05A705B460B706C734346187D3F
:10489C00009A019B00F012FA82460028C7D04346CA
:1048AC002100186800F050FCC1E7039B002B32D0AC
:1048BC000E9B00200F999847030004000D000B433A
:1048CC0029D000290DDA0098019902000B00121B67
:1048DC00AB41994215D81AD000920193039B9A468A
:1048EC0058E700F061F902000B00A4185D412000AC
:1048FC00290000900191AB4203D8EFD100998A4274
:10490C00ECD901235B42DC1700930194E6E7009994
:10491C009142E1D9F5E70020A3E7C046FFFFFF0F66
:10492C00F0B504000D0006267642F717C646361978
:10493C006F4100B58F4213D810D000F035F932001A
:10494C003B00121A8B41002B14DC002B37D02900B2
:10495C00200000F05DF904BC9046F0BD8642ECD915
:10496C000026002700F020F932003B00121A8B4180
:10497C00002BEADD30003900FFF7CAFC0028E6DB2B
:10498C0000239846BC460F4A0F4F7B6A9C4504D8BF
:10499C00B96A8E42DBD99C45D9D11168EFF31080EE
:1049AC0072B60B68002BFCD0BFF35F8F1368BFF39C
:1049BC005F8F4146196080F3108820BFE5E7002A1D
:1049CC00C5D0D7E7082401200040054070B506008B
:1049DC0000F0EAF8FA2204000D0000233000002158
:1049EC00920004F0D7F8001969418D4205D802D025
:1049FC00FFF796FF70BD8442FAD901204042C117DF
:104A0C00F6E7C046F8B5CE46474680B506000C0022
:104A1C00FFF77EFC00280CDC2D4B0020596A8C42E1
:104A2C0003D89B6A0130B34245D30CBC90469946DF
:104A3C00F8BD20BF274D6A68EFF3108772B6136874
:104A4C00002BFCD0BFF35F8F2B68C1B29C465B7B05
:104A5C008B4235D0FF2303405A00914662461268C0
:104A6C00994490464A464244033A9278002A1DD013
:104A7C00EA68000A90464344013B1B78C0B283426B
:104A8C0021D06B68BFF35F8F00221A6087F3108808
:104A9C000F4A0020536A9C42C7D8926A0130B24236
:104AAC00C3D2E41A601E8441E0B2BEE72B6998427F
:104ABC00E7D12A61E5E7641A601E8441E0B2B4E7ED
:104ACC00FF230340D4E7604600F03EFBD9E7C04625
:104ADC00004005404C180120F0B5D6464F464646DE
:104AEC00C0B5EFF305833F22134018001038EFF3E5
:104AFC00108C72B6204D2A68002AFCD0BFF35F8F51
:104B0C000122110081401D4C884661631C4917002D
:104B1C000E788A463100C1400F400A4215D019491F
:104B2C008200646A51588C4219D3174BD2584346B1
:104B3C009E4353461E70BFF35F8F00232B608CF394
:104B4C001088002A06D0904704E0BFF35F8F2F60D7
:104B5C008CF310881CBC90469946A246F0BD0B4ABB
:104B6C009B00904643441A681A60BFF35F8F002382
:104B7C002B608CF31088EDE7280100D00040054035
:104B8C007524012018240120F81D0120D03F054078
:104B9C0010B50100024A0348FFF71EF810BDC046CD
:104BAC007003012071240120034B596A0A00986A92
:104BBC00596A8A42FAD170470040054070B504002A
:104BCC000D00124A536A1900966A536A8B42FAD145
:104BDC003000190024184D41AB4211D80ED02B00D7
:104BEC000A494A6A9A42FCD307D1084A02E0516A40
:104BFC00994202D1916AA142F9D370BDA642EED975
:104C0C00012301246442E5175B42E9E700400540BB
:104C1C00064A536A9942FCD807D1044B02E05A6AFF
:104C2C00914202D19A6A8242F9D370470040054002
:104C3C0070B504000D00EFF3108672B61A4A1368B3
:104C4C00002BFCD0BFF35F8F002D1BD02000FFF793
:104C5C00B3F8164981420AD02000FFF7B5F80121BC
:104C6C002000FFF75DF80123A340114A1360114B9C
:104C7C00A400E550BFF35F8F00220B4B1A6086F344
:104C8C00108870BD0B4BA200D5500122A2400A49DE
:104C9C0020000B7893430B700449FFF79FF9002118
:104CAC002000FFF73DF8E5E7280100D099480020E7
:104CBC0038600540F81D012075240120F0B54F46E1
:104CCC00D6464646C0B50700304C616A0D00A66A50
:104CDC00616AA942FAD18B4208D805D001201CBCCC
:104CEC0090469946A246F0BDB242F7D9EFF310892F
:104CFC0072B6274801680029FCD0BFF35F8F0125ED
:104D0C002449BD408C460978204C0E002E43884621
:104D1C00F1B28A46614650460870391D1E4889001A
:104D2C0065630A51B9000B50216A0020294219D041
:104D3C00616A0800A66A616A8142FAD18B4219D86D
:104D4C0001D1B24216D8C2451DD0104B1F201D6296
:104D5C005D6301230740BB40104A1E381360634655
:104D6C0042461A70BFF35F8F0022094B1A6089F319
:104D7C001088B4E70020BFF35F8F0022044B1A6049
:104D8C0089F31088ABE70120ECE7C04600400540F2
:104D9C00280100D0752401201824012080E200E0B5
:104DAC0010B5EFF3108472B60A490B68002BFCD0D7
:104DBC00BFF35F8F01238340074A084813620278D0
:104DCC009A430270BFF35F8F00230B6084F310884B
:104DDC0010BDC046280100D00040054075240120BC
:104DEC0070B505000E001400002924D0002A24D030
:104DFC0080686B689847296800280ED063001B19DF
:104E0C007200033B9219CB18033A9E7088188A5C87
:104E1C00002A14D1047030000EE073009B1962005C
:104E2C00033B1219CB18033A9C7088188A5C002A31
:104E3C0000D05A700670200070BD0800FCE75A7054
:104E4C0004703000F8E7C04630B583600023CCB264
:104E5C0043730133047342608373C4730D000068A1
:104E6C00012C06D9421C0133DBB2137003329C4275
:104E7C00F9D1FF2129404B00591800234018033861
:104E8C00437030BDF8B5CE46474606000C0080B5E1
:104E9C00002907D04D0003686D18033D5A19577847
:104EAC00002F04D120000CBC90469946F8BD790027
:104EBC00C9190339884643445978894600215970E9
:104ECC00517073683A002100806898473368002855
:104EDC0014D042469A18947059195B5D002B00D07F
:104EEC0053700F70270049463000FFF7CBFF390095
:104EFC0002003000FFF774FF0400D3E7424641463E
:104F0C005D19AF709A185B5C002B00D06B7014703D
:104F1C00E9E7C046F0B557464546DE464E46E0B595
:104F2C000D006B0001685B19DF1E0400C85D83B0C7
:104F3C000192CA1900284CD043001B18033BCB1814
:104F4C005E78B446002E16D1019E002E3ED0E67B34
:104F5C00002E04D073009B19CB18033B5D70E573D6
:104F6C0000282FD10023537003B03CBC90469946C7
:104F7C00A246AB46F0BD72006244033A89184A78E7
:104F8C00904600224A7091465A700100320020006F
:104F9C00FFF726FF43468246002B07D05B002168B3
:104FAC004344033BCB185A78002A16D1424651464B
:104FBC002000FFF715FF2168019BCA19002BC6D1F1
:104FCC000028CFD043001B18033BCB18002199704D
:104FDC00C8E7019B002BBAD1C4E7500080180338F6
:104FEC000918487883464846487058704146200056
:104FFC00FFF7F6FE594680462000FFF743FF414677
:10500C0002002000FFF7ECFE8046CFE7F0B54E46DD
:10501C004546DE465746E0B5467B04007500006801
:10502C00AD19033D83B00191415D421900294ED069
:10503C004B005B18033BC3185F78BC46002F18D19C
:10504C00019D002D40D0E57B002D04D06B005B1939
:10505C00C318033B5E70E673002931D10023300086
:10506C005370617303B03CBC90469946A246AB4664
:10507C00F0BD7A006244033A8018427893460022CD
:10508C00427091465A7020003A00FFF7A9FE5B4629
:10509C008046002B07D05B0021685B44033BCB1898
:1050AC005A78002A17D15A4641462000FFF798FE3D
:1050BC00019B010020684219002BC4D10029CDD0DE
:1050CC004B005B18033BC31800209870C6E7019B8C
:1050DC00002BB8D1C2E75000801803380918487863
:1050EC00824648464870587059462000FFF778FEB3
:1050FC0053468346002B07D05B0021685344033B87
:10510C00CB185A78002A06D1594652462000FFF790
:10511C0067FE8346C7E750008018033809184846D5
:10512C004F784870587051462000FFF759FE3900EF
:10513C0081462000FFF7A6FE494602002000FFF73B
:10514C004FFE8246E0E7C04670B5040000292CD023
:10515C00437B8B422ED00568480040180338281832
:10516C008278002A21D053009B18033BEA5CEE188E
:10517C008A4202D11BE0002A08D053009B18033B43
:10518C00EB185A788A42F6D142785A7000230122E1
:10519C00837043702000FFF7BDFE617B020020008E
:1051AC00FFF71EFE6073012000E0002070BD437805
:1051BC003370EBE701221900FFF7ACFE607301209E
:1051CC00F4E7C04610B50400FEF78EFD0100200088
:1051DC00FFF764F8FF232371BFF35F8F10BDC04648
:1051EC0010B50400FEF780FD01002000FFF756F813
:1051FC00FF23A380BFF35F8F10BDC04610B5040022
:10520C000120FEF77DFD034BC3189B002360BFF309
:10521C005F8F10BD40000034F8B5040006200D006F
:10522C0000F0ECFA002845D02B4B2C49E3185A42DD
:10523C0053418022D20394465B421340284A634474
:10524C001360284A136018008A689043FBD1224BE4
:10525C008021E3185A425341234A5B00490006203F
:10526C00995200F0CBFA2900C00001F039FFC309B4
:10527C0021D140270122260080256262A3620023EF
:10528C002C36AD0135432B60062000F0B7FA3900FF
:10529C00800001F025FF6023E26A53406E221A4021
:1052AC0080235B0133431A60104B236310232B6064
:1052BC000D3BA364F8BD0E4A934203D900230D4F56
:1052CC000D4AD8E77F221040013040089F011A0098
:1052DC003F180300CFE7C0460080FCBF00C0004071
:1052EC0000E0004000F000403C9901200103000068
:1052FC00FEFF0000C0FF3F00FFFF00002C4B2D4ABB
:10530C0070B51A602C4A2D4B2D491A6010008B6811
:10531C009843FBD12B4C2C4B9C4209D2013B1D1BBF
:10532C00AD080135AD002D1908CC9847AC42FBD126
:10533C0000F006F9254A214B1A60214A9368DB01DB
:10534C008033FBD14022224B224C234D9A675A6763
:10535C001A67DA66AC4208D223682000002B21D0F1
:10536C000834FFF73DFFAC42F6D31C4C1C4DA16832
:10537C00C022280003F07EFCA560FEF7A7FCFEF718
:10538C0063FFFFF7C1F9174C174B9C4209D2013B45
:10539C001D1BAD080135AD002D1908CC9847A54251
:1053AC00FBD170BD0834FFF70DFFAC42D4D3DCE762
:1053BC0000E00040BFCDFBFEFE7F3C0000F0004053
:1053CC0000C000400419012014190120FFFFFF0147
:1053DC0000F00140F41801200419012000ED00E058
:1053EC0000000020141901201C19012000BEFDE74B
:1053FC000FB400B5084883B003F098FD049B002B54
:10540C0007D005A91800019101F0F4FD034803F041
:10541C008DFD00BEFDE7C04694030120A8CA002004
:10542C0010B50148FFF7E4FFA4030120F0B5454691
:10543C00DE4657464E46E0B583B001920C9A050005
:10544C0088469A4200D974E01A0E93461E02300028
:10545C00002359460C9A01F085FE374B6C009C4694
:10546C006419A400644463680700834200D260603E
:10547C002B1FDBB29946012B35D9C02380229B010F
:10548C00234312011A602D4BAD0059599A4600293D
:10549C0005D0586901F024FE01300138FDD1019A84
:1054AC00236852015340E0221A4080235B012343BE
:1054BC001A604A46012A2FD9802380229B0123435C
:1054CC0012011A60300000233A005946676001F05F
:1054DC0049FE53465851012003B03CBC90469946B6
:1054EC00A246AB46F0BD4346012BC6D1C0230322D6
:1054FC009B0123431A60023AA3681A42FCD0019A1A
:10550C00236852015A40E0231A4080235B01234355
:10551C001A600A4AAD009246424621685140032265
:10552C000A401A60012243469A40A3681A42FCD0F2
:10553C00C2E70020D0E7C04600800040181F0120C1
:10554C0030B50C2083B000F0B3F9FEF7B7FB0028A0
:10555C000ED0944B944A1A605A609A60DA601A61C1
:10556C005A619A61DA611A62904A5A6203B030BD8C
:10557C008F4CA06700F0F0F901228E4B1A60636C1F
:10558C00012BFCD103228C4B1A60894A936B012BA3
:10559C00FCD101330121894A89480093043300F07E
:1055AC0033F90523874A00930121874800F02CF931
:1055BC00864B5A68FF2A02D8802252005A608022F9
:1055CC00784C7D4B21691201804D1A60002905D061
:1055DC00606901F085FD01300138FDD1E0217B4B84
:1055EC0002201A681140802252012A431160196866
:1055FC00484003210140116004219A681142FCD0FB
:10560C008022802192012A430901116080225200DC
:10561C005A606F4B23616F4B5968FF2900D85A6051
:10562C0003226C48634B01211A60020093681942F3
:10563C00FCD0E02513681D4080235B0103431D60F3
:10564C0012684A400321114019600221614A936893
:10565C001942FCD0802380219B010343090119606E
:10566C0080215D4B4900516063615C4B5A68FF2A95
:10567C0000D8596080225A4BE1691201574D1A60CB
:10568C00002905D0606901F02BFD01300138FDD1F6
:10569C00E02252490B681A4080235B012B431A60AD
:1056AC00802380229B012B4312011A6080223E4BE7
:1056BC0052004A60E3614B4B5968FF2900D85A608D
:1056CC008022494B216A1201464D1A60002905D0EF
:1056DC00606901F005FD01300138FDD1E02241493E
:1056EC000B681A4080235B012B431A6080238022B5
:1056FC009B012B4312011A60802380225B004B60BC
:10570C00294BD2022362394B5968914200D25A601C
:10571C008022374B616A1201344D1A60002905D082
:10572C00606901F0DDFC01300138FDD1E0222F4928
:10573C000B681A4080235B012B431A608023802264
:10574C009B012B4312011A608023DB024B60174B29
:10575C006362284B5A68FF2A02D8802252005A6092
:10576C008022254BA1691201224D1A60002905D017
:10577C00606901F0B5FC01300138FDD1E0221D4912
:10578C000B681A4080235B012B431A608023802214
:10579C009B012B4312011A6080235B004B600E4B64
:1057AC00A361E3E6181F0120006CDC021BB70000AC
:1057BC00008000403CB0004030B00040002F6859E1
:1057CC0000800240008C864700C0024030800040C0
:1057DC00001BB7003C8000404059730754800040C8
:1057EC0054B000406080004060B000406C800040CD
:1057FC006CB000404880004048B00040014B800035
:10580C00C0587047181F0120F8B504000C20170071
:10581C001D000E0001F064FC4101091A8B01591A9C
:10582C00C90009188901380001F05AFC069A2B04AA
:10583C00120313432268002A21DB194AA218514291
:10584C004A41802149018C4652420A401549624422
:10585C000A6015490A60154917008D68AF43FBD1E2
:10586C00C021221D8901114321222660A0600A60FB
:10587C002268002AFCDAE36008230B60F8BD3F22A3
:10588C0021680A40B242D8D1A2681205120D824298
:10589C00D3D1EE21E268C9020A409A42CDD1EDE79C
:1058AC000040FDBF00E0004000F0004000C00040A0
:1058BC008023024A9B000343D3627047008005405B
:1058CC0010B5140080221B4BD2051A6000281AD088
:1058DC000123194A1843194BDA61194A42401A62DA
:1058EC00596298628022134BD2051A601549164AE8
:1058FC001160E022D2041A60002C07D18022134BD5
:10590C0012061A6010BD0D4BD861EBE780236201C3
:10591C00121B9200121912015B049A4200D30C4A1A
:10592C000C4B1A60054B5A608022084BD2051A604A
:10593C00E8E7C04600B00540D3C007B00080054082
:10594C002D3FF84FFCFF01000820014000A005404E
:10595C00FFFFFF00D4230120AA23064A1B0113607A
:10596C002F230549D360054B19605368002BFCDAD3
:10597C007047C0460040024000B0FA000060024090
:10598C009A4200D2885470477047C046F8B55746C3
:10599C004E46DE464546E0B51F000A9B05009B4679
:1059AC000D9B0E00914692469B0718D10B9B0C9AAF
:1059BC00934214D213000B9AB8469B1A4B444C4694
:1059CC000F0006001D002200434601343900202040
:1059DC00B047AC42F7D1AA4635003E0047460B9B78
:1059EC00002B38D09A441C00D04653461A1B5B46F9
:1059FC00013C185D31003B00A847002CF5D10D9BF4
:105A0C009B0721D543464A469C1A0C9BA3421BD9A3
:105A1C003A009A464F469146E2194B4631002020F7
:105A2C000134A8475445F7D343460C99DB1B01338B
:105A3C00B9460022994203D343464A1E4A44D21A1D
:105A4C00434690460133984440463CBC90469946A8
:105A5C00A246AB46F8BDD046D1E7C046F0B54F469E
:105A6C004646D646C0B584B098460EAB1B78129FFE
:105A7C00994694460D9C109B119EBA0725D4002E76
:105A8C0069D19C4200D3C2E001223A4092461F2CBD
:105A9C0000D9BBE00C9A551E302201E0202C03D01B
:105AAC0001342A55A342F9D85246002A0DD0B442EB
:105ABC000BD21F2C62D80C9A551E302201E0202CE0
:105ACC005CD001342A55B442F9D1FA0635D57A05A1
