:020000041000EA
:1000000000B5324B212058609868022188439860DF
:10001000D860186158612E4B002199600221596106
:100020000121F02299502B49196001219960352056
:1000300000F044F80222904214D00621196600F024
:1000400034F8196E01211966002018661A6600F04E
:100050002CF8196E196E196E052000F02FF8012189
:100060000842F9D1002199601B49196000215960AB
:100070001A491B48016001219960EB211966A021F2
:10008000196600F012F800219960164914480160C1
:100090000121996001BC002800D000471248134993
:1000A000086003C880F30888084703B5996A0420EC
:1000B0000142FBD001200142F8D103BD02B5186610
:1000C0001866FFF7F2FF186E186E02BD00000240BE
:1000D000000000180000070000035F00212200005C
:1000E000F4000018222000A00001001008ED00E03C
:1000F00000000000000000000000000074B24E7A12
:1001000000200420F7010010C3010010C5010010F9
:10011000C1010010C1010010C1010010C101001097
:10012000C1010010C1010010C1010010C701001081
:10013000C1010010C1010010C9010010CB01001065
:10014000CD010010CD010010CD010010CD01001037
:10015000CD010010CD010010CD010010CD01001027
:10016000CD010010CD010010CD010010CD01001017
:10017000CD010010CD010010CD010010CD01001007
:10018000CD010010CD010010CD010010CD010010F7
:10019000CD010010CD010010CD010010CD010010E7
:1001A000CD010010CD010010CD010010CD010010D7
:1001B000CD010010CD010010CD010010CD010010C7
:1001C00000BE00BE00BE00BE00BE00BE00F051F882
:1001D000103800BEF2EB8871E00200100C03001032
:1001E0003402001090A31AE700202449086006C8D2
:1001F00081F30888104722480068002835D10DA4F3
:100200000ECC002902D000F012F8F9E71D491E4A71
:10021000002000E001C19142FCD11C4988471C49E3
:1002200088471C49884700BEFDE701C901C29A42C0
:10023000FBD370470C030010C0000020B83201202F
:1002400004350110C0320120006101204463011017
:10025000000004200000042044630110001004206A
:10026000001004200000000070470B4800F018F850
:100270000047EFF30580C0B27047000008ED00E0D2
:10028000000000D0006101205CA1012019B800200D
:10029000B122002041B900205756000000000000A4
:1002A00001B40248844601BC604700BFB1D50020BC
:1002B00006005250ABB360534C520120060052501E
:1002C000861C03025C520120060052505422A29D5B
:1002D0007052012005005250DE65F468446301103D
:1002E000D4020010C8020010BC0200107C52012091
:1002F000B00200108852012094520120A052012027
:0C030000DC520120E85201201C530120B7
:10030C00F8B5C0460448054B10B5834203D0044BE6
:10031C00002B00D0984710BD006101200061012026
:10032C000000000006480749091A8B10C90FC918AC
:10033C0010B5491003D0044B002B00D0984710BDCA
:10034C0000610120006101200000000010B5074C85
:10035C002378002B09D1FFF7D5FF054B002B02D0DA
:10036C00044800E000BF0123237010BD206201206F
:10037C0000000000B8320120054B10B5002B03D053
:10038C000449054800E000BFFFF7CCFF10BDC04694
:10039C000000000024620120B832012005490A68DF
:1003AC0093009B18044A5B001268303A9B180B6050
:1003BC007047C046306C0120146C01200022014BA8
:1003CC001A607047306C0120024B1A68024B1A609D
:1003DC007047C046306C0120046601200023084A97
:1003EC0010B51360074A084C1360002207480849EF
:1003FC00E254C254CA540133142BF9D110BDC04677
:10040C00646C012004680120807A01204C9E01203C
:10041C00248D0120024A136859424B4113607047E6
:10042C001C660120024A136859424B411360704705
:10043C001866012010B50A200FF034F9044B05485A
:10044C0019680FF037FA0A200FF02CF910BDC046CE
:10045C00286C01204C360120F0B5DE4657464E463E
:10046C004546E0B50A2083B00FF01CF9224B142549
:10047C009846224B28269B46214B224F9A46224BCC
:10048C0099462C00143C43461B5DDAB2012B30D04C
:10049C00023A531E9A415242B24357323B689C4235
:1004AC001ED05B4651461B5D095D01922022DBB2DA
:1004BC0000912100484604340FF0FCF9AC42E2D123
:1004CC000A2001350FF0EEF8182DDAD10A200FF0C2
:1004DC00E9F803B03CBC90469946A246AB46F0BD49
:1004EC005B4651461B5D095DDBB2019200912A22ED
:1004FC00DFE75222D2E7C046248D0120807A01200A
:10050C004C9E012004680120643601200023F0B5C4
:10051C004F464646D64694259946194BC0B59A4641
:10052C00184B68279846184E6D0009E001239C462D
:10053C008023E1445B019C464B466544FA2B16D064
:10054C002C003368283C1B5DFF2BEFD049465046EE
:10055C000FF0B0F902E00134A542E7D03368185D22
:10056C0043461B5CBB43F6D00FF09CF8F3E70A2024
:10057C000FF098F81CBC90469946A246F0BDC046B8
:10058C0080360120D9540120E055012070B50A2095
:10059C000FF088F8094C0A4E2500BD35FF3562680E
:1005AC0013782A2B03D0300021780FF083F90C3408
:1005BC00AC42F4D103480FF07DF970BDE455012035
:1005CC008836012094360120F0B5DE464546574664
:1005DC004E4601200023E0B5D025CE4C89B0002139
:1005EC004042236009F068FF01202D066B689A11C8
:1005FC000240944661469B131840C74BC74A18608B
:10060C00C74B11601A685B6804920593C54B1A6856
:10061C005B6802920393236801240693C24B9B46AA
:10062C00C24B98465B465A461B68013313606A6896
:10063C00521222406B6816005A122240012EF9D138
:10064C00002A03D06B685A122240FBD19A11224027
:10065C009E13924626405A1101962240012900D140
:10066C008AE0012800D125E15146002900D02DE176
:10067C00002803D10199002900D032E10F271F4037
:10068C00002A00D1EBE00720049A1040FA00049EE7
:10069C00059F7907F7080F4307210F40A4498918D4
:1006AC00CF5D210081403940014180200001A861CB
:1006BC00002900D12AE180214901696101990029B1
:1006CC0028D10298039907260640B446060048072D
:1006DC00F1080143170007208037014094487F1828
:1006EC00C05D664681462000B0404E4630406646AE
:1006FC00304180263601AE61002800D102E1802015
:10070C00400168618B480068002803D160460728C7
:10071C0000D139E15A041BD4424612688649920032
:10072C008B5043461B68854A06999B00D150434623
:10073C001F681868642101300DF088F84346196071
:10074C007F4B1A6843461B689A4201D143461F608F
:10075C000120049A059B002112184B410492059329
:10076C00029A039B12184B4102920393069B51462B
:10077C0001330198069355E75146002905D100260F
:10078C0000270296039704960597012800D1ACE048
:10079C000199002900D0A4E00F2751461F400029E1
:1007AC0000D16DE7002A58D119112140FA000791A8
:1007BC000720029E30408146029E039F7807F7086F
:1007CC000743072007401000803084462600484627
:1007DC008640BC44310066465548805D4E46884391
:1007EC000799B140664608435149C0B288555149F2
:1007FC00096800298ED1494607298BD15149803A85
:10080C000968D719504AFFB257544E4A4F491268DB
:10081C00885402214B4A4E4812688154494A49492E
:10082C00126801320A600A68132A00DC72E7414A36
:10083C0014606FE7002900D116E70F2751461F40BF
:10084C00002900D11CE70199002900D062E7002A99
:10085C00AAD05246002A00D115E7FA0031E7072248
:10086C000498059902409446C0084A071043072291
:10087C0026001040FA006746BE40B1462C4E1018B8
:10088C00375C4E461911B743214007913900674632
:10089C00079EBE403143264ECFB23754254E3668A4
:1008AC00002E02D16646072E54D00199002900D1A2
:1008BC007EE72FE7002EBDD1002600275146029679
:1008CC00039704960597002900D1D1E680210901F0
:1008DC006961002813D10199002902D10F271F400B
:1008EC0060E7802109016961A7E701990029A4D17A
:1008FC000020002102900391049005919DE70F27A1
:10090C001F40A0E780204001A861FBE6802149013F
:10091C00A961D3E6606701201C6C0120186C0120D2
:10092C000861012000610120286C012090670120E2
:10093C0038910120646C0120F0780120947B012017
:10094C009467012004680120807A01204C9E0120CC
:10095C00248D0120154EC0B23668B4466146144E43
:10096C0070541249086813490F5402270F4908683C
:10097C0011490F540D4908680130086008681328A4
:10098C0093DD0E490C6090E70848803A00685118D6
:10099C00074AC9B21154054A09491268C95D05488C
:1009AC008154024A044912688C5437E704680120C8
:1009BC00807A01204C9E0120248D0120646C012042
:1009CC0038910120F0B5D6464F464646C0B533485F
:1009DC0092B00EF0B9FE324C00222000314904F0E6
:1009EC00BDFF200003A904F0C5FF200008A904F0F6
:1009FC00C1FF20000DA904F0BDFF0023022203A8B3
:100A0C0004F0C2FF284BFA279A46284B002599463A
:100A1C00274BBF009846290050460EF04BFF012390
:100A2C00142203A90DA807F0D7FB012306000A2204
:100A3C0000930DA9143302A809F022FA0400020055
:100A4C00310048460EF036FF40460EF07DFE013573
:100A5C0020000EF0FFFCBD42DDD1039B002B05D026
:100A6C000799002902D009CB00229847089B002B3C
:100A7C0005D00C99002902D009CB002298470D9B78
:100A8C00002B05D01199002902D009CB00229847E0
:100A9C0012B01CBC90469946A246F0BDB03601205F
:100AAC002066012075080020BC360120C0360120CC
:100ABC00D836012070B515000C0004480EF0FAFE73
:100ACC00290020000EF0A6FC70BDC046E0360120C7
:100ADC008022F8B5104F114D3B6828001C03104BB9
:100AEC0052001968802609190EF0D2FC8023760179
:100AFC005B03E018310012F0E7FD681C282209495D
:100B0C00FF300EF0C5FC386832000130FF30290090
:100B1C00000312F019FEF8BD306C0120247D012079
:100B2C00E0550120786C012070B500250C480EF0C2
:100B3C000BFE0C4EFA2080000EF0CEFE0400431C7F
:100B4C00F8D020000EF0AEFD0D2C05D06B1C7455AA
:100B5C00262BEFDC1D00EDE70023735570BDC0465E
:100B6C00EC360120786C012010B501F0B3FD10BDFE
:100B7C0070B50024074D200009F09CFB21000200F9
:100B8C00013428000EF096FE202CF4D10A200EF031
:100B9C0089FD70BD103701200B4B0C4810B519683E
:100BAC000B4C0268A1540B4C2468002C01D0013270
:100BBC00026009480068002801D00131196007481B
:100BCC000EF078FE10BDC046306C0120046601208A
:100BDC0038910120186601201C6601201C37012069
:100BEC0010B503480CF004FE0021030000209847C8
:100BFC005542000010B50C4C0C4821680EF05AFE02
:100C0C00802123684901581CFF30000312F05CFD61
:100C1C0007480EF099FD074B1B68002B02D0236888
:100C2C000133236010BDC046306C012034370120E5
:100C3C00503701201C6601209423F0B55746DE4640
:100C4C004E4645465B0099460023E0B583B00193C0
:100C5C00AA4BAB4F9B46AB4B9A46AB4B9846019C71
:100C6C00AA4821000EF026FE5B461A682603935D07
:100C7C00FF2B00D13EE14C464B466825B146283C43
:100C8C001E0002E00134A6420BD05346105D1B5CE3
:100C9C00AB43F7D00EF006FD5B4601341A68A64252
:100CAC00F3D133004E469219994614000023561C7A
:100CBC00974D3B708034FF36002322782B70F92A35
:100CCC0003D841469300CB589F46280091490CF01D
:100CDC0037FD29003800013412F050FAB442EBD140
:100CEC0039008D480EF0E6FD0A200EF0DBFC802268
:100CFC0052019446019BE14401330193FA2BAED18E
:100D0C000A200EF0CFFC03B03CBC90469946A2469C
:100D1C00AB46F0BD0522280080490EF0B9FBD8E7A0
:100D2C00022228007E490EF0B3FBD2E702222800F3
:100D3C007C490EF0ADFBCCE7022228007A490EF07C
:100D4C00A7FBC6E70222280078490EF0A1FBC0E7FA
:100D5C000222280076490EF09BFBBAE702222800FB
:100D6C0074490EF095FBB4E70222280072490EF08C
:100D7C008FFBAEE70222280070490EF089FBA8E732
:100D8C00022228006E490EF083FBA2E70522280000
:100D9C006C490EF07DFB9CE7032228006A490EF09B
:100DAC0077FB96E70522280068490EF071FB90E767
:100DBC000522280066490EF06BFB8AE70522280005
:100DCC0064490EF065FB84E70522280062490EF0A9
:100DDC005FFB7EE70622280060490EF059FB78E79E
:100DEC00052228005E490EF053FB72E7062228000C
:100DFC005C490EF04DFB6CE7052228005A490EF0B9
:100E0C0047FB66E70522280058490EF041FB60E7D6
:100E1C000422280056490EF03BFB5AE70522280015
:100E2C0054490EF035FB54E70622280052490EF0C7
:100E3C002FFB4EE70322280050490EF029FB48E710
:100E4C00052228004E490EF023FB42E7032228001E
:100E5C004C490EF01DFB3CE7032228004A490EF0DA
:100E6C0017FB36E70322280048490EF011FB30E748
:100E7C000322280046490EF00BFB2AE70322280028
:100E8C0044490EF005FB24E70422280042490EF0E9
:100E9C00FFFA1EE70522280040490EF0F9FA18E780
:100EAC00052228003E490EF0F3FA12E7042228002E
:100EBC003C490EF0EDFA0CE7032228003A490EF0FB
:100ECC00E7FA06E70422280038490EF0E1FA00E7B9
:100EDC000422280036490EF0DBFAFAE60822280034
:100EEC0034490EF0D5FAF4E60622280032490EF009
:100EFC00CFFAEEE631480EF0DDFCF8E6E0550120C5
:100F0C00C8700120D95401206C38012058370120B9
:100F1C00389201206837012058380120C037012051
:100F2C00503801204C380120483801204438012029
:100F3C00403801203C380120383801203438012059
:100F4C0054380120C8370120BC370120E837012074
:100F5C00E0370120D8370120D0370120803701201D
:100F6C0078370120B4370120AC370120A437012099
:100F7C00A03701209837012090370120303801200C
:100F8C00243801202C380120203801201C38012065
:100F9C00143801201838012010380120083801209D
:100FAC0000380120F8370120FC370120F0370120F0
:100FBC00F437012070370120883701206037012079
:100FCC00F8B5104B10481E6831000EF073FC0F4F33
:100FDC000F4C3B6835035919802220000EF058FA4B
:100FEC0031000C480EF066FC290020003D68803171
:100FFC006918802280300EF04BFA0A200EF052FB5A
:10100C00F8BDC046306C0120543C0120E055012055
:10101C00389101207C3C012010B50B480EF04AFCA5
:10102C000A4C8022002120000EF02CFA08480EF009
:10103C0041FC20008022002180300EF023FA0A208F
:10104C000EF030FB10BDC046A43C012038910120AD
:10105C00B83C012010B513480EF02CFC12480EF0D1
:10106C003BFC431C0ED06D2813D00FDC4D2810D048
:10107C00502807D10D480EF01DFC802200210C4891
:10108C000EF000FA0A200EF00DFB10BD7028F1D006
:10109C00F8E708480EF00EFC8022002106480EF0FE
:1010AC00F1F9EFE7CC3C012080969800B83C012088
:1010BC00B8910120A43C01203891012010B51A48A8
:1010CC000EF0F8FB19480EF007FC431C16D06D28E7
:1010DC001BD017DC4D2818D050280FD1144B1548B5
:1010EC001C68210024030EF0E5FB2100124B80311B
:1010FC001C688022114861180EF0CAF90A200EF003
:10110C00D1FA10BD7028E9D0F8E7094B0C481C68DF
:10111C0021000EF0CFFB084B24031968802209191B
:10112C0008480EF0B5F9E9E7CC3C01208096980010
:10113C00306C01207C3C0120E0550120B89101204D
:10114C00543C0120389101201C4BF0B51F681C4BFE
:10115C00C646196880231B4D3C035B0000B51A0082
:10116C002800091998460EF093F980235B039C46DE
:10117C00802164442000490112F0A6FA390012487B
:10118C000EF098FB114E8022310028000EF080F9F1
:10119C0039000F480EF08EFB280031008022803180
:1011AC0080300EF075F942462900200012F0CCFA7E
:1011BC0008480EF0C9FA04BC9046F0BD306C012012
:1011CC00E0550120947A0120E83C0120389101205F
:1011DC00083D01202C3D012010B5040009F08CF8CD
:1011EC000123D022A340120693620021002220008A
:1011FC0009F06AF810BDC046F0B54746CE4605006A
:10120C000C0080B5904689B00022002328002100F4
:10121C000CF002FE002800D089E10123002699463B
:10122C0064006408280021000DF096FA0DF0EEF928
:10123C0002000B00009001910020BF490DF098FABC
:10124C0002000B00280021000CF07DFD00220400A0
:10125C000D000098019900230CF0DEFD002808D049
:10126C00009801990022B54B0CF064FDB14600903A
:10127C000191200029000DF0C9F9AF4B00220600A6
:10128C000F000CF060FD06AA11F046F90022AC4BE1
:10129C0002900391069807990CF073FD0CF002FE76
:1012AC000CF0E8FD00220490059102980399A24BE2
:1012BC000CF067FD02000B00049805990CF03AFD48
:1012CC000CF0F0FD43463200587129003B00200021
:1012DC000CF027FD0022994B0CF053FD04000D007F
:1012EC000DF094F9944B002206000F000CF02BFD2E
:1012FC0006AA11F011F90022914B02900391069865
:10130C0007990CF03EFD0CF0CDFD0CF0B3FD002266
:10131C000490059102980399874B0CF032FD020062
:10132C000B00049805990CF005FD0CF0BBFD434631
:10133C003200187129003B0020000CF0F2FC002256
:10134C007E4B0CF01EFD04000D000DF05FF97A4B86
:10135C00002206000F000CF0F6FC06AA11F0DCF8D7
:10136C000022774B02900391069807990CF009FD27
:10137C000CF098FD0CF07EFD002204900591029873
:10138C0003996D4B0CF0FDFC02000B0004980599C1
:10139C000CF0D0FC0CF086FD43463200D8702900CE
:1013AC003B0020000CF0BDFC0022644B0CF0E9FC6F
:1013BC0004000D000DF02AF95F4B002206000F000F
:1013CC000CF0C1FC06AA11F0A7F800225C4B0290AD
:1013DC000391069807990CF0D4FC0CF063FD0CF00B
:1013EC0049FD00220490059102980399524B0CF090
:1013FC00C8FC02000B00049805990CF09BFC0CF047
:10140C0051FD43463200987029003B0020000CF03F
:10141C0088FC0022494B0CF0B4FC04000D000DF0CC
:10142C00F5F8454B002206000F000CF08CFC06AAC8
:10143C0011F072F80022424B029003910698079922
:10144C000CF09FFC0CF02EFD0CF014FD002204900F
:10145C00059102980399384B0CF093FC02000B0099
:10146C00049805990CF066FC0CF01CFD4346320008
:10147C00587029003B0020000CF053FC00222F4B2D
:10148C000CF07FFC0DF0C2F82B4B00220CF05BFC37
:10149C0006AA11F041F80022294B04000D00069811
:1014AC0007990CF06EFC0CF0FDFC0CF0E3FC002238
:1014BC0006000F00200029001F4B0CF062FC0200FC
:1014CC000B00300039000CF035FC0CF0EBFC434603
:1014DC0000221870184B009801990CF034FC06AAE5
:1014EC0011F01AF80022164B04000D00069807990B
:1014FC000CF047FC0CF0D6FC0CF0BCFC00220600F7
:10150C000F00200029000C4B0CF03BFC02000B00E0
:10151C00300039000CF00EFC0CF0C4FC43464A467B
:10152C009871DA7109B00CBC90469946F0BD052350
:10153C000426994674E6C046000024400000594039
:10154C0000003040F0B5D64646464F462023C0B585
:10155C0094B00AAA13AC138423808379050018096C
:10156C0098460CF087FC0022764B0CF00AFC4346A4
:10157C0006000F2018400F000CF07CFC02000B0042
:10158C00300039000CF0D6FB0CF08CFC0121EA7910
:10159C00804693100B40114200D1CDE020222270E6
:1015AC000C222021013B93430AAA52182D331370AD
:1015BC006B7918099A460CF05DFC0022614B0CF01B
:1015CC00E0FB0F2306005046184099460F000CF024
:1015DC0051FC02000B00300039000CF0ABFB2B79F6
:1015EC00089009919A4618090CF044FC0022554BBE
:1015FC000CF0C7FB4A4653461340060018000F0078
:10160C000CF038FC02000B00300039000CF092FB9F
:10161C00EB780A900B919A4618090CF02BFC0022DF
:10162C00484B0CF0AEFB4A465346134006001800DC
:10163C000F000CF01FFC02000B00300039000CF006
:10164C0079FBAB780C900D919A4618090CF012FCB2
:10165C0000223C4B0CF095FB4A46534613400600C7
:10166C0018000F000CF006FC02000B0030003900D3
:10167C000CF060FB6B780E900F919A4618090CF0E9
:10168C00F9FB00222F4B0CF07CFB4A4653461340CF
:10169C00060018000F000CF0EDFB02000B003000F0
:1016AC0039000CF047FB2D781090119128090CF0A3
:1016BC00E1FB0022234B0CF064FB4B462B40060055
:1016CC0018000F000CF0D6FB02000B0030003900A4
:1016DC000CF030FB06000F00089809990CF0E2FBA7
:1016EC00194B050099464346390030000693059482
:1016FC000CF0D8FB0490109811990CF0D3FB0390CC
:10170C000E980F990CF0CEFB02900C980D990CF0E2
:10171C00C9FB01900A980B990CF0C4FB2B000090AC
:10172C000A49484612AA0CF00BF8484614B01CBCE7
:10173C0090469946A246F0BD6422121A90462D227C
:10174C002DE7C04600002440C87801203C3D012014
:10175C00F0B5DE4645464E465746E0B5804686799E
:10176C000F2087B030400CF085FB04000D003009D1
:10177C000CF080FB00227C4B0CF003FB22002B00B6
:10178C000CF0D8FA01224346049005911100DB7944
:10179C0019409B1003911A4200D1DDE00023734CD9
:1017AC000093019443465B799A460F2350461840A8
:1017BC0099460CF05FFB4346060048461B790F0028
:1017CC009B4618400CF056FB5B4604000D001809B4
:1017DC000CF050FB0022644B0CF0D3FA22002B00CF
:1017EC000CF0A8FA624A634B0CF0CBFA5346040097
:1017FC0018090D000CF03EFB00225B4B0CF0C1FAFB
:10180C0032003B000CF096FA02000B00200029007D
:10181C000CF090FA434606004846DB780F009A46D7
:10182C0018400CF027FB534604000D0018090CF06F
:10183C0021FB00224C4B0CF0A4FA22002B000CF0E4
:10184C0079FA4D4A4D4B0CF09CFA32003B000CF0EF
:10185C0071FA4346060048469B780F009A4618409A
:10186C000CF008FB534604000D0018090CF002FBA9
:10187C0000223D4B0CF085FA22002B000CF05AFA9A
:10188C003F4A404B0CF07DFA32003B000CF052FA10
:10189C004346060048465B780F009A4618400CF009
:1018AC00E9FA534604000D0018090CF0E3FA002283
:1018BC002D4B0CF066FA22002B000CF03BFA324A4E
:1018CC00324B0CF05EFA32003B000CF033FA43461C
:1018DC00060048461B780F00984618400CF0CAFAD0
:1018EC00434604000D0018090CF0C4FA00221E4BEC
:1018FC000CF047FA22002B000CF01CFA244A254B62
:10190C000CF03FFA32003B000CF014FA0B00020012
:10191C00009801990CF035FA039B04000D00002B84
:10192C001FD1049A059B00201B490CF0FAF9020008
:10193C00802000060B1800200B490CF019FF020048
:10194C000B00200029000CF01CFA07B03CBC9046A0
:10195C009946A246AB46F0BD0023104C009301946F
:10196C0020E7049A059BE6E7000024400000F0BF46
:10197C007B14AE47E17A843F2D431CEBE2361A3FD1
:10198C008DEDB5A0F7C6B03E3A8C30E28E79453E6F
:10199C00BBBDD7D9DF7CDB3D000059400000F03FD8
:1019AC00F0B5DE4645464E465746E0B5050083B0D9
:1019BC000A200DF077FE204B002498461F4B204E3A
:1019CC009B4620E02B00083B9946A1444846FFF774
:1019DC00B9FD82464846FFF7BBFE02000B00584695
:1019EC0000920193791E52460DF064FF210040468F
:1019FC000DF060FF295D30000DF05CFF8023013499
:101A0C005B009C420ED06307F4D1002CEED0802CEE
:101A1C00ECDCE7103B000B3B012BD3D809480DF055
:101A2C0049FFE3E70A200DF03DFE03B03CBC9046B5
:101A3C009946A246AB46F0BD843D0120743D012081
:101A4C008C3D0120603D0120F0B5D6464F46464600
:101A5C008F4DC0B52800FFF7A3FF00238D4F2E003C
:101A6C003B708D4B01359A468C4B8D4C99468D4B6A
:101A7C0080369846FF35002332782370F92A03D834
:101A8C0049469300CB589F46514620000BF058FE18
:101A9C0021003800013611F071FBB542EBD1390051
:101AAC0081480DF007FF1CBC90469946A246F0BD3C
:101ABC000222414620000DF0EBFCE9E70222200057
:101ACC007A490DF0E5FCE3E70222200078490DF09D
:101ADC00DFFCDDE70222200076490DF0D9FCD7E7C8
:101AEC000222200074490DF0D3FCD1E70222200021
:101AFC0072490DF0CDFCCBE70222200070490DF0AD
:101B0C00C7FCC5E7022220006E490DF0C1FCBFE7FF
:101B1C00022220006C490DF0BBFCB9E70322200027
:101B2C006A490DF0B5FCB3E70522200068490DF0B9
:101B3C00AFFCADE70322200066490DF0A9FCA7E736
:101B4C000322200064490DF0A3FCA1E7032220002E
:101B5C0062490DF09DFC9BE70322200060490DF0CB
:101B6C0097FC95E7032220005E490DF091FC8FE76E
:101B7C00042220005C490DF08BFC89E70522200033
:101B8C005A490DF085FC83E70522200058490DF0D9
:101B9C007FFC7DE70422200056490DF079FC77E7A5
:101BAC000322200054490DF073FC71E7042220003D
:101BBC0052490DF06DFC6BE70422200050490DF0EA
:101BCC0067FC65E7082220004E490DF061FC5FE7D9
:101BDC00062220004C490DF05BFC59E70622200040
:101BEC004A490DF055FC53E70522200048490DF0F9
:101BFC004FFC4DE70622200046490DF049FC47E713
:101C0C000522200044490DF043FC41E70522200049
:101C1C0042490DF03DFC3BE70422200040490DF009
:101C2C0037FC35E7052220003E490DF031FC2FE74B
:101C3C00062220003C490DF02BFC29E70522200050
:101C4C003A490DF025FC23E70522200038490DF018
:101C5C001FFC1DE70522200036490DF019FC17E783
:101C6C000522200034490DF013FC11E70522200059
:101C7C0032490DF00DFC0BE70522200030490DF028
:101C8C0007FC05E7032220002E490DF001FCFFE6BE
:101C9C0038910120C870012068370120943D012043
:101CAC003892012054380120583801205038012036
:101CBC004C3801204838012044380120403801209C
:101CCC003C380120383801203438012030380120CC
:101CDC00243801202C380120203801201C38012008
:101CEC001438012018380120103801200838012040
:101CFC0000380120F8370120FC370120F037012093
:101D0C00F4370120703701208837012080370120FB
:101D1C0078370120B4370120AC370120A4370120DB
:101D2C00A03701209837012090370120E837012097
:101D3C00E0370120D8370120D0370120C8370120E7
:101D4C00C0370120BC370120F0B5D6464F46464679
:101D5C00994CC0B5216899480DF0ACFD984D23689D
:101D6C0018032B689C466044FFF71AFE95480DF04B
:101D7C00EBFC22682B6812039B181E005D1C924B17
:101D8C0000229A46914B924F9946924B924C984610
:101D9C003A708036FF35002332782370F92A03D845
:101DAC0049469300CB589F46514620000BF0C8FC87
:101DBC0021003800013611F0E1F9B542EBD13900C0
:101DCC0086480DF077FD0A200DF06CFC1CBC90468B
:101DDC009946A246F0BD0222414620000DF058FB68
:101DEC00E6E7022220007E490DF052FBE0E70222DA
:101DFC0020007C490DF04CFBDAE7022220007A49E6
:101E0C000DF046FBD4E70222200078490DF040FB90
:101E1C00CEE70222200076490DF03AFBC8E70222F9
:101E2C00200074490DF034FBC2E7022220007249F5
:101E3C000DF02EFBBCE70222200070490DF028FBB0
:101E4C00B6E7032220006E490DF022FBB0E7052215
:101E5C0020006C490DF01CFBAAE7032220006A4904
:101E6C000DF016FBA4E70322200068490DF010FBCF
:101E7C009EE70322200066490DF00AFB98E7032237
:101E8C00200064490DF004FB92E703222000624914
:101E9C000DF0FEFA8CE70422200060490DF0F8FAF0
:101EAC0086E7052220005E490DF0F2FA80E7052254
:101EBC0020005C490DF0ECFA7AE7042220005A4924
:101ECC000DF0E6FA74E70322200058490DF0E0FA11
:101EDC006EE70422200056490DF0DAFA68E7042276
:101EEC00200054490DF0D4FA62E708222000524930
:101EFC000DF0CEFA5CE70622200050490DF0C8FA2E
:101F0C0056E7062220004E490DF0C2FA50E7052292
:101F1C0020004C490DF0BCFA4AE7062220004A4941
:101F2C000DF0B6FA44E70522200048490DF0B0FA4E
:101F3C003EE70522200046490DF0AAFA38E70422B4
:101F4C00200044490DF0A4FA32E705222000424952
:101F5C000DF09EFA2CE70622200040490DF098FA6D
:101F6C0026E7052220003E490DF092FA20E70522D3
:101F7C0020003C490DF08CFA1AE7052220003A4962
:101F8C000DF086FA14E70522200038490DF080FA8E
:101F9C000EE70522200036490DF07AFA08E70522F3
:101FAC00200034490DF074FA02E703222000324974
:101FBC000DF06EFAFCE6C046306C01207C4101202D
:101FCC00E05501208441012068370120884101201F
:101FDC00C870012054380120389201205838012053
:101FEC00503801204C380120483801204438012059
:101FFC00403801203C380120383801203438012089
:10200C0030380120243801202C38012020380120C0
:10201C001C380120143801201838012010380120F8
:10202C000838012000380120F8370120FC37012046
:10203C00F0370120F4370120703701208837012058
:10204C008037012078370120B4370120AC370120CC
:10205C00A4370120A03701209837012090370120A8
:10206C00E8370120E0370120D8370120D037012094
:10207C00C8370120C0370120BC3701208022F8B5B9
:10208C001B4B0D001B4F1968040309190600520065
:10209C0038000DF0FDF980235B039C4680216444DD
:1020AC002000490111F010FBEB070BD4AB0714D443
:1020BC00802239002000520011F046FB0E480DF032
:1020CC0043FBF8BD31000D480DF0F4FB80223800C5
:1020DC000B490DF0DDF9AB07EAD5310009480DF0DD
:1020EC00E9FB8022084909480DF0D2F9E0E7C04627
:1020FC00E0550120947A01202C3D0120E83C012080
:10210C0038910120083D0120B8910120147B012059
:10211C0010B50F480DF0CEFB0E480DF0DDFB431C47
:10212C0014D06D2810D00ADC4D280DD05038414207
:10213C0041414900084B1868FFF7A0FF10BD7038EB
:10214C00414241414900F5E70121F3E70021F1E764
:10215C00CC3C012080969800306C0120F0B557469D
:10216C00DE464E4645462D4BE0B51B6883469946E8
:10217C00030398462A4B202702249A4683B00DE08D
:10218C00032C04D108223378013C93433370802311
:10219C005B019C46013FE044022F32D006213800FF
:1021AC000BF054FB012503004946A5400833CE181B
:1021BC00CB5C6DB2AB433370534641461B68020097
:1021CC005B5C1848FF3B59424B41210000935B4636
:1021DC000DF070FB534642461B689B5CFF2B02D0F4
:1021EC0033781D433570013CCAD27F223378013FCE
:1021FC001340337080235B019C460624E044022F7D
:10220C00CCD14A4609239373E833D37303B03CBC57
:10221C0090469946A246AB46F0BDC046DC5501201F
:10222C00E0550120C0450120F0B55746DE4680B58B
:10223C00A34F85B03E68B379932B04D005B00CBC8A
:10224C0092469B46F0BDF379F12BF7D10F223379EF
:10225C0092461A42F2D150467179F03209010A4085
:10226C001B09D518F37818409B460BF003FE534618
:10227C00B47800900191234018000BF0FBFD5B46F5
:10228C000290039118090BF0F5FD00228D4B0BF019
:10229C0078FD009A019B0BF04DFD0022894B0BF051
:1022AC0070FD0BF0FFFD0BF0E5FD00900191200996
:1022BC000BF0E0FD0022834B0BF063FD029A039BB5
:1022CC000BF038FD00227F4B0BF03DFD02000B00A4
:1022DC00009801990BF02EFD0BF0E4FD0400290091
:1022EC0079480DF0E7FA2200210078480DF0E2FA67
:1022FC00472D00DD95E0102DA0DD2B00113B362B7A
:10230C009CD8734A9B00D3589F46DB2C00D8D2E054
:10231C000F213A6813798B430B210B4313718DE713
:10232C00F92CF5D802212000FFF7A8FEF0E70F21C9
:10233C003A6813798B430B210B431371F92C00D999
:10234C007CE701212000FFF799FE77E70F213A681F
:10235C0013798B430B210B431371F92C00D96DE7C7
:10236C0003212000FFF78AFE68E70F213A681379F2
:10237C008B430B210B431371F92C00D95EE7210021
:10238C0054480DF097FA544B24031968803480227A
:10239C00091952480DF07CF80A200DF083F94DE72D
:1023AC000F213A6813798B430B210B431371F92CD2
:1023BC0000D943E721004A480DF07CFA464B240330
:1023CC0019688022091947480DF062F80A200DF0AF
:1023DC0069F933E70F213A6813798B430B210B43CF
:1023EC001371F92C00D929E721003D480DF062FA50
:1023FC00394F3C4D3B6826039919802228000DF07B
:10240C0047F8210033480DF055FA2800396880361A
:10241C008022891980300DF03BF80A200DF042F92A
:10242C000CE7952D34D0962D12D151463A682E4892
:10243C0013798B430B210B4313710DF03BFA802264
:10244C00002126480DF01EF80A200DF02BF9F5E6B8
:10245C00942D00D0F2E651463A68244813798B4308
:10246C000B210B4313710DF025FA1E4C8022002119
:10247C0020000DF007F81C480DF01CFA20008022FB
:10248C00002180300CF0FEFF0A200DF00BF9D5E690
:10249C0051463A68154813798B430B210B43137142
:1024AC000DF008FA802200210E480CF0EBFF0A20F8
:1024BC000DF0F8F8C2E62000FFF750FE28E7C04602
:1024CC00DC55012000002440D4450120E4450120C6
:1024DC00F44501207C3C0120E0550120B8910120FD
:1024EC00543C012038910120B83C0120A43C01202F
:1024FC00F0B5DE4657464E464546E0B589B06148D4
:10250C0007AB06AA05A907F007FE002803D15D4911
:10251C005D4809F037FB079A06990598D02407F017
:10252C00BFFD00250DF0D2F90126FEF721FB240694
:10253C00280007F0E1FE3300AB4028000022002108
:10254C00A362013507F0C0FE172DF1D10C2007F066
:10255C00D3FE80235B0163620B20A36107F0CCFEEA
:10256C0080231B0163621020A361636107F0C4FE2A
:10257C0080235B0263621A20A361FEF72DFE1B20F1
:10258C00FEF72AFE1C20FEF727FE40480FF09EFFA8
:10259C00FA20C00008F0C8FD0A200DF083F83C4C6E
:1025AC000A3520000DF086F93A480DF083F9200029
:1025BC000DF080F90A200DF075F8002136480DF069
:1025CC0079F9364C8022216835480CF061FF0021E6
:1025DC0034480DF06FF921688022803132480CF0BC
:1025EC0057FF0A200DF05EF8FA20304B80009B4616
:1025FC002F4B304C9A46304B304F9946304B314E26
:10260C0098460DF069F9431C36D02200002303E0F4
:10261C0001330C32252B25D011788842F8D15A463B
:10262C0010605A00D3189B00E3189B6898475146DA
:10263C0025480DF03FF943461B6839685A1E9341F3
:10264C0032680191501E824152422A40203202923D
:10265C004A46009112685B422B4011001B48203304
:10266C000DF028F9FFF7E0FD00F040F8FA208000AB
:10267C000DF032F9431CC8D10DF09CF814480DF044
:10268C0019F9EFE7B01E0400D046012089030020A1
:10269C000447012020470120543C0120E055012033
:1026AC00389101207C3C0120B8910120146C012050
:1026BC00786C0120E4550120306C01200466012067
:1026CC001C660120186601207045012088450120F8
:1026DC00BC4501208022034B1A60034B7F3A1A60E1
:1026EC007047C046A457012008680120F8B5DE46A3
:1026FC0057464E4645468A4BE0B51A68002A47D0E5
:10270C00884D894E2A688949B45C9046884F0A687E
:10271C003C60002A06D0C52C10D001229446E0441F
:10272C0042462A60D72C3DD8A12C37D95E34E4B26E
:10273C00352C2DD87F4BA4001B599F467E4B9946B8
:10274C001B68002B00D0A0E07C4B9A461B68002B2A
:10275C0000D0B1E07A4B7B4F9B467B4C2268531CDC
:10276C0005D038687968D200B218FEF745FD002311
:10277C00524613604A461360002200233A607B6085
:10278C0001235A465B42136023602B6801332B6094
:10279C003CBC90469946A246AB46F8BD002CF7D1FE
:1027AC001C60F5E723001033DBB2092BF0D8634B28
:1027BC001B68002B50D1604B99461B68002B00D135
:1027CC008DE0D72B00D199E000234A4613600122FB
:1027DC005B4B52421A6002E0D722574B1A604046BC
:1027EC0001302860D4E7012200200021534B1A60ED
:1027FC00564B18605960404601302860C8E7544C6D
:10280C002000FEF7A5FF534B00220BF093FA220099
:10281C00FEF7F2FC2B6801332B60B9E74644737862
:10282C004D4A9B009B582B60B2E743464644991C8B
:10283C007378494A9B0099502960A9E74046404B60
:10284C0001301A68404B1A602860A1E7404601230A
:10285C00013028600B609BE73C4B002299464946AF
:10286C003E4B086849680BF08CFA06002000F038E3
:10287C000F000BF0FFFA0B000200390030000BF0D8
:10288C0059FA4B4618605960A9E72C4A92461268CF
:10289C00002A1AD02D4A10685168294A9346294FAC
:1028AC00D72B00D059E702000B00386879680BF081
:1028BC0041FA3860796050E7224F244B5C681B6802
:1028CC003B607C601E4B9B4647E71D4B9B461B6841
:1028DC00D8003018FEF73CFF4B461B68DFE7F03C96
:1028EC00E4003019FEF734FF164B154A1860596096
:1028FC003B68F03B13602B68984670E72000F0387B
:10290C00C0003018FEF724FF0E4C0B0002002068AC
:10291C0061680BF00FFA2B6820606160984653E7F2
:10292C0008680120A457012038910120506C012027
:10293C00909E012084490120346C01208C67012079
:10294C00A857012018620120A0570120609E012089
:10295C00409101200000F03F689E012000002440BF
:10296C00F0B557464E464546DE468A461968E0B5F0
:10297C0088469100894601008DB049440790049225
:10298C0005930391002A63D0002400254346D346C7
:10299C0008960997CA46A8468146270006935946C9
:1029AC000023C859069A00210CF0D2FC444600259D
:1029BC004B4600196941D85104378846BA45EED1C7
:1029CC00D1460D00DA46039B1D60169B012B35D9B1
:1029DC009B0006934B460422534499465346934618
:1029EC0008935A46059B9B589846049B002B2CD069
:1029FC00079B089C5B441D0000239A46424600231B
:102A0C0001CC00210CF0A4FC5346009300230027BA
:102A1C002E680193009A019B92197B4180185941B1
:102A2C008A4601C5A145E9D15A465146039B9950A6
:102A3C0004239C46069BE3445B45D2D10DB03CBCC1
:102A4C0090469946A246AB46F0BD00239A46EBE76A
:102A5C000025B8E710B509C8984710BDF0B5DE469B
:102A6C0057464E4645469246E0B51D0089B0129B2E
:102A7C000C0006009B462A000023002051460AF059
:102A8C004FFF002C4ED06B0004930023A400B046E3
:102A9C0005932300814601244344079341462200B9
:102AAC000868002300210CF053FC00900191009A5F
:102ABC00019B04980599121A8B4116000099019AF2
:102ACC001F00480FD30018435A46002300210CF076
:102ADC003FFC2A000800002300210CF039FC361AB8
:102AEC008F417B102B40029300230393029A039B8C
:102AFC00B6185F412B003B409E19434622001E60D6
:102B0C0048460023002156460CF022FC66436943DC
:102B1C00741AA54200D8641B04239C46079BE0440E
:102B2C004345BBD109B03CBC90469946A246AB4646
:102B3C00F0BDC046F0B5DE46574645464E46E0B5BC
:102B4C0004000D0092469B4683B0132961DC51466C
:102B5C009A008900D31851448900DB005B185B197B
:102B6C009B00C31819000193D523DB00CB58984662
:102B7C00002B07D0404603B03CBC90469946A24679
:102B8C00AB46F0BD0827691E01338B408F40994638
:102B9C00214B0021D65803683A0009CB9847804650
:102BAC00002836D05B462A21594353465A005244DA
:102BBC00D3009A1A89184D19AD006419A3699A4665
:102BCC00D8239B00E3589B464B46002B1BD0474415
:102BDC000500B94601243200002321002C6000209E
:102BEC000AF09EFE220068600023584600215746DA
:102BFC000CF0AEFB674371437C1AA64200D8A41BB1
:102C0C000835A945E7D1D5234146019ADB00D150BF
:102C1C00B0E700239846ADE77C4D0120F0B5574650
:102C2C00DE464E464546E0B593B00D921E9A119184
:102C3C0091005F4A07938A581C9B0092570001220F
:102C4C009A4052080E9010920692012B00D1A9E0E6
:102C5C0092000C935342019301230F9208931E9BF5
:102C6C001D9A0C990E98FFF765FF0490002869D007
:102C7C00069B002B62D0089B5A000992002B4DD06A
:102C8C00DA009B009B460B920F9A079B94465B4481
:102C9C0098460D9B63440A93002305930393029378
:102CAC00049B1A6892465A6808330493039B914616
:102CBC009D000A9B9C46029B65449C00079B9C467E
:102CCC006444019B2A68E8581318BB4200D3DB1BF1
:102CDC005646C019801A23604A46002300214643F9
:102CEC000CF036FB009B043559435B46761AE650D4
:102CFC000434A045E5D1089A039B9446099A634491
:102D0C00944603930B9A029B634494460293059B4F
:102D1C00069A01330593E0449A42C1D1099B08936A
:102D2C00069B022B17D00C9B079A013B0C930D9B17
:102D3C000D920793069B5B08069390E7089B5B003C
:102D4C000893F0E70120404213B03CBC90469946F2
:102D5C00A246AB46F0BD109B002B21D00025079B53
:102D6C0000221E000F9B9C461C00119B664498463B
:102D7C002B00444425003C001F00079B9858B35877
:102D8C0019188C4200D8091BC31A834200D91B198D
:102D9C00119801378150AB50109B0432BB42ECD8D8
:102DAC000020D1E70D9B0793109B9B000F93D5E759
:102DBC007C4D0120F0B5DE4657464E464546E0B503
:102DCC000E00CFB0970015005B9A00217A430400E7
:102DDC0030000D930CF056FB1F23599A59991A4049
:102DEC000B4200D189E31E3B9340013B1B93589B44
:102DFC005801599B01389C46190060440AF04EFD5D
:102E0C001A90A84200DD1A951A9B002B00DC6DE38A
:102E1C002B01F3180093AB005B42ED000C936B425B
:102E2C00429300239B4606935A9BB0469B009A46BE
:102E3C0034935A9BA24401339B0035935A9BB8445C
:102E4C0002339B0043935346C246019306E11B9AFF
:102E5C001A400023029203935B9B002B00DCEDE0F5
:102E6C000299039AD3004C0F34981C439C4BC358C3
:102E7C0098465B00169300231793169D179E491BCB
:102E8C00B2410E00019917004868220000210CF095
:102E9C005FFA42460800002300210CF059FA361A5A
:102EAC008F4142467B101A40002314921593149ABA
:102EBC00159B92197B4146461E405346B6180C9AF8
:102ECC009E505B9B012B00D1B8E0029E039F002516
:102EDC00359A834B0199D358259598465B002493DA
:102EEC008868249A259B0021B61A9F412200002352
:102EFC000CF02EFA42460800002300210CF028FAB0
:102F0C00361A8F4142467B101A402092219540463A
:102F1C00209A219B92197B411840534686181E60BB
:102F2C005B9B022B00D189E0029E039F439A6C4B62
:102F3C000199D358319598465B003093C868309A04
:102F4C00319B0021B61A9F41220000230CF000FA9D
:102F5C0042460800002300210CF0FAF9361A8F4182
:102F6C0042467B101A40289229954046289A299B64
:102F7C0092197B4118408618009B429A9E505B9A8E
:102F8C00032A5BD0029E039F5A9A0199D31C544A80
:102F9C009B009A5841959046520040920869409A7D
:102FAC00419B0021B61A9F41220000230CF0D0F95E
:102FBC0042460800002300210CF0CAF9361A8F4152
:102FCC0042467B101A40389239954046389A399BC4
:102FDC0092197B4118408618009B0C9A9E505B9A64
:102FEC00042A2BD0029E039F5A9A0199131D3C4A26
:102FFC009B009A584D95904652004C924C9A4D9B82
:10300C004869B61A9F410021220000230CF0A0F958
:10301C0042460800002300210CF09AF9361A8F4121
:10302C0042467B101A404A924B954A9A4B9B9219F6
:10303C007B4146461E40009BB6181E60599A069B63
:10304C009446009AE34404320092042294461A9A5D
:10305C0001330693E2449A4200D147E25B461F22B9
:10306C00589859111A400023884202D90D988B00A8
:10307C001B58002A0CD0589C013100208C4205D9D9
:10308C0020240D9889000858A41AA040D34003436B
:10309C00599A202A00DCDAE65A461F21589C203225
:1030AC00501111400022844202D90D9C8200125909
:1030BC0000290CD0589D01300024854205D92026CA
:1030CC000D9C80000459761AB440CA402243599989
:1030DC003D2907DC02931B9B13400393BCE6C046BF
:1030EC007C4D0120402900DCF9E159461F24589DF4
:1030FC004031481121400024854202D90D9D8400A5
:10310C006459002907D0589D01300026854200D90A
:10311C00F7E1CC4034431B990C40670036920022F7
:10312C003792369C379D20002900001969413C00DC
:10313C00DE0F5B005B0807935B9B06430C43049616
:10314C000594002B00DC79E70499059A0025D3003F
:10315C00480F18438046E44B34980995C458019B9A
:10316C005B68994663000893089E099F891BBA41C6
:10317C0000230E0017004846424600210CF0E8F8E8
:10318C0022000800002300210CF0E2F8361A8F41CF
:10319C00089809997B10234012931395129A139B4C
:1031AC00B6185F4123003B409E19079AF3071A4358
:1031BC00730810921193109A119B16001F00361A67
:1031CC008F411100DB00480F4A46184300210023B1
:1031DC000CF0BEF822000800002300210CF0B8F817
:1031EC00361A8F417B1023400E930F950E9A0F9B2E
:1031FC00B6185F4153460C9A3C40A6199E505B9BF7
:10320C00012B00D11AE7049E059FB74B359A002578
:10321C00D458019B0B959B680021994663000A9337
:10322C000A9A0B9B4846B61A9F41424600230CF063
:10323C008FF822000800002300210CF089F8361AC0
:10324C008F417B1023401E931F951E991F9A2300BC
:10325C00761857413B409E190799F3071943730899
:10326C001C911D931C9A1D9B10000A9E0B9F19000C
:10327C00801BB9410F0011000600DB00480F4A46C5
:10328C001843002100230CF063F8220008000023EF
:10329C0000210CF05DF8361A8F417B1023402293ED
:1032AC002395229A239BB6185F4153463C40A6199E
:1032BC001E605B9B022B00D1C0E6049E059F8A4BCF
:1032CC00439A1995D458019B0021DB6899466300F9
:1032DC001893189A199B4846B61A9F4142460023E8
:1032EC000CF036F822000800002300210CF030F816
:1032FC00361A8F417B1023402A932B952A992B9AAF
:10330C002300761857413B409E190798F307184342
:10331C0073082C902D932C9A2D9B1000189D199EA0
:10332C001900401BB1410F0011000600DB00480FD3
:10333C004A461843002100230CF00AF8220008002A
:10334C00002300210CF004F8361A8F4100257B1065
:10335C0023402E932F952E9A2F9BB6185F41429A9D
:10336C00009B3C40A6199E505B9A032A00D165E64F
:10337C00049E059F5A9A2795D31C5B4A9B009C5828
:10338C00019B00211A69914662002692269A279B7E
:10339C004846B61A9F41424600230BF0D9FF220043
:1033AC000800002300210BF0D3FF361A8F417B104D
:1033BC00190021403B953A913A993B9A761857411E
:1033CC00210039408E19079FF3071F4371083C9762
:1033DC003D913C9A3D9B1000269D279E1900401B59
:1033EC00B1410F0011000600DB00480F4A4618439C
:1033FC00002100230BF0ACFF220008000023002169
:10340C000BF0A6FF361A8F417B101A0000252240C4
:10341C003E923F953E9A3F9BB6185F410C9A009B9B
:10342C003C40A6199E505B9A042A00D106E6049EE5
:10343C00059F5A9A3395131D2B4A9B009C58019B50
:10344C0000215A69914662003292329A339B484667
:10345C00B61A9F41424600230BF07AFF2200080067
:10346C00002300210BF074FF361A8F417B101900DA
:10347C002140469147954699479A76185741210025
:10348C0039408E19079FF3071F43710844974591E4
:10349C00449A459B1600329833991F00361A8F4177
:1034AC001100DB00480F4A461843002100230BF0A3
:1034BC004FFF22000800002300210BF049FF361AB1
:1034CC008F417B101A00224048924995489A499B9B
:1034DC00B6185F41009B3C40A6191E60AEE51B99D7
:1034EC0000270A401AE6C0467C4D01204FB03CBC78
:1034FC0090469946A246AB46F0BD01235B421B9316
:10350C0075E420270D9D800046597F1ABE4000E6C9
:10351C00F8B54746CE4680B58046089806283DD07B
:10352C005C1CE5435001ED172C4084460138001B10
:10353C000E69441100286BDB1F27A5003840AD59DC
:10354C00471C1F2803D001204042B8408543002D62
:10355C0009D1013C03D279E0013C00D276E0A00015
:10356C003558002DF8D0012001256446E31A5C1E65
:10357C009C466311002C29DB9A4227D91F209B0003
:10358C00044098590123E04003402800089C18434C
:10359C00062C63D8324FA4003C59A7460869510148
:1035AC00CB1A013B5911002B43DB8A4241D91F2214
:1035BC00890013400A580125DA40012313401800F2
:1035CC00002D1ED10CBC90469946F8BD089B062BCD
:1035DC0044D8244A9B00D3589F46002B38D0012056
:1035EC00002D0ED1634661465B11002908DB9A421F
:1035FC0006D91F229B009E590A40D64030400890A5
:10360C000898424610231268134342461360D9E7C8
:10361C0000200025A9E70020D2E70500089B9E1E8C
:10362C0073425E414B689B1B5E4273415B42184088
:10363C00C6E742461023126800201343424613602B
:10364C00C0E705000020BBE70500B9E700208CE7C8
:10365C0005000898B4E705001800B1E70EF09EFFCE
:10366C005C4A0120784A012070B5040003680D0003
:10367C0009CB8A0021699847002803D020610020DB
:10368C00E56070BD002DF9D001204042F9E7C0463D
:10369C00F0B50C000421CE4647468A43611C060057
:1036AC0055426A4180B5994237DAC5683669690175
:1036BC00081B471E8846191B7B11002F0CDB9D42F3
:1036CC000AD99B0099461F231F404B469B59FB4030
:1036DC001F0001233B405A40023801291DD01F23F3
:1036EC009C4643460131E41A012709190DE09D421D
:1036FC000ED964469B009B590440E3403B409342E7
:10370C0009D101380B18002B07D043110028EEDA31
:10371C0000239342F5D0012000E000200CBC904621
:10372C009946F0BDF0B5C646C768CE688C46804653
:10373C00390000B5B74200DA310001291DD47A1ED8
:10374C00731E891B10E040460569940064590025DE
:10375C009E4203D9604600699D002D58A54210D1A8
:10376C00013B013AD94208D49742ECD800249E423E
:10377C00F0D8013B013AD942F6D5002004BC904662
:10378C00F0BDAC428041012398430130F6E7C046BE
:10379C0070B5040088B0884208D0904206D0002052
:1037AC00009020000C9CA04706001AE020688026A0
:1037BC000390002003AD3606AE606860E8602861B7
:1037CC000C9E00902800B04721690600002903D008
:1037DC002368002209CB9847230007CD07C306CDE9
:1037EC0006C3300008B070BDF0B5DE4657464E46F5
:1037FC004546E0B591B00A931B9B0C009A460021FC
:10380C0081461500200092000BF03CFE1F2352460F
:10381C0051461A400B4200D103E11E3B9340013B41
:10382C000B931A9B51465801013850440AF036F854
:10383C00A84200DD2800002800DCEBE01C9B7F4A3E
:10384C009B00D75880007A0004920022A046059273
:10385C0002004B44424400260C920D9363E05B46FD
:10386C000B9A13409B460293002303930D9B0298E3
:10387C0003995B6804000D009946049A059B400F60
:10388C00A41A9D41CB004A461843002100230BF09B
:10389C005FFD3A000800002300210BF059FD241AAB
:1038AC008D416B103B400093002301930099019ACA
:1038BC003B006418554151462B401C193D292BDD0A
:1038CC005946E3071943069161080791069A079B2D
:1038DC001400049805991D00241A8D411100DB0079
:1038EC00480F4A461843002100230BF031FD3A00E3
:1038FC000800002300210BF02BFD241A8D416B10C6
:10390C001A0000233A4008920993089A099BA418BC
:10391C005D413B002B401C19434610C398460C9B41
:10392C005644984576D000211F228B461A99731164
:10393C003240994203D90A98990009588B46002ABB
:10394C000ED01A9801330021984205D92031881ADB
:10395C000A999B00595881405B46D3400B439B46C8
:10396C005346202B00DC7AE732001F211A982032B4
:10397C0053110A400021984202D90A98990009581B
:10398C00002A0CD01A9C013300209C4205D920300F
:10399C00841A0A989B001858A040D1400143534602
:1039AC003D2B05DC5B4602930B9B0B4003935DE7C1
:1039BC00402B2BDD32001F231A9C403250111A4031
:1039CC000023844202D90A9C83001B59002A06D08A
:1039DC001A9D01300024854227D8D34023430B9AEB
:1039EC0013405B000E9100210F910E9C0F9D200047
:1039FC002900001969410B435A4603935B46D20FC9
:103A0C005B0002435B089B4602922FE70B9B19401D
:103A1C000023E7E711B03CBC90469946A246AB4662
:103A2C00F0BD01235B420B93FBE60A9D80004059DD
:103A3C002034A41AA0400400CFE7C0467C4D0120DE
:103A4C00F0B5DE464E4657464546E0B5A7B01C00DD
:103A5C00309B1B919B00994603681092834609CBBF
:103A6C004A46002198470D90002800D179E1002C9E
:103A7C0000D17FE15B46309A1B68002109CB920193
:103A8C009847051E1A9000D165E1329BC44A9B00F1
:103A9C009F585B445B68329A9A462A235343109A88
:103AAC0094465A4663441B1906339B009B58179344
:103ABC00319B002B00D13AE1309A309B9446D800D0
:103ACC005B0063449A001D927A000E9200220F92C2
:103ADC00319A4D4492000992624614014A441100F5
:103AEC0092001E92DA001F926246821A1895950077
:103AFC00209565466D010B9565468446C90013916A
:103B0C002C211B011493342365440890A8001290B7
:103B1C0030980A94484330990C905943D30015932C
:103B2C00309B1191E31A9B002193002301241C93D9
:103B3C00309B002B4AD018981C9B04901D989A001F
:103B4C001B9B169021989C464946D046A146DA46C6
:103B5C00834619971A9B1E9D1F9E209F62441068D6
:103B6C00186050685850946808981C50D068169C7F
:103B7C00185114690A981C50506958519069985101
:103B8C00D069D851146A0B981C50546A12981C5066
:103B9C00946A13981C50D46A0C981C501498146B8B
:103BAC001C50546B11981C50946B15981C50584613
:103BBC00D46B1C50099804338446049862448342A5
:103BCC00CDD14C46D3468946C246199F1023984600
:103BDC001A9E329B109A029300230092019332009A
:103BEC00310058460D9BFFF719F8002800D0ACE0C7
:103BFC00524630003B00309900922200FEF72EFF17
:103C0C0000232000179A00210BF0A2FB04900591D1
:103C1C00049A059B0E980F99121A8B411400049963
:103C2C00059A1D00480FD30018435246002300216B
:103C3C000BF08EFB3A000800002300210BF088FBF0
:103C4C00241A8D416B101A0000233A4006920793F8
:103C5C00069A079B12196B413C001C4001235B42E6
:103C6C009C46E0444346A4184E44002BB1D1309BF3
:103C7C00002B55D05046239011981C9B16905846FB
:103C8C00259012984946199013989A0080461498DA
:103C9C001B9B814615989C46824621982297834609
:103CAC0024941A9B1D9C1E9D1F9E209F6244186885
:103CBC001060585850600898185890601859D06087
:103CCC000A98185810615859506198599061D859F0
:103CDC00D0610B98185810621998185850624046C9
:103CEC00185890620C981858D0620490484618588E
:103CFC0010631698185850635046185890635846DD
:103D0C0018580433D0630998844618986244834247
:103D1C00CDD1239B89469A46259B229F9B46249C6A
:103D2C001C9B319A10331C939A4200D900E75B46D6
:103D3C001B68002209CB1A9998475B461B68002226
:103D4C0009CB0D99984700200DE05B461B680022BB
:103D5C0009CB1A9998475B461B68002209CB0D9931
:103D6C0098470120404227B03CBC90469946A24659
:103D7C00AB46F0BD329B1B9A0293109B1100009333
:103D8C00019403005846FEF749FF0028E3D15B4637
:103D9C001B68002209CB0D9998470020E3E7C04629
:103DAC007C4D0120F0B54E464546DE465746E0B503
:103DBC00CFB01A935A9B0792994605234A46DF4C7B
:103DCC009B1A9B00E31809934B46013B1A00059381
:103DDC004B465A43D30F9B18D1225B105B420A33DC
:103DEC001201944602930300634403931F23599AD0
:103DFC000D9159991A40589D22920B4200D191E392
:103E0C001E3B9340013B2E930B00013B5B090022B0
:103E1C000C9300230021079F4492459346924793AD
:103E2C003E923F93409241930D98BA004891429133
:103E3C000BF028FB0123AB4032931E00599B7801F9
:103E4C009C4601381900604409F028FD2590B042C9
:103E5C0000DD2596259B002B00DC53E34B460C9A8A
:103E6C00023B1B93531C2F930223AB40339303232E
:103E7C00AB4035930423AB4038934B46033B249320
:103E8C004B463EA98C46D11C3D910421043B3493F6
:103E9C00231D37935301319393003093634439932B
:103EAC00931C3C933691994500DB40E33EAA944623
:103EBC002F9B9B003B9363443A93002306930893F8
:103ECC00059B9B0023939E4B9A464B46002B49DD4A
:103EDC00089B1A9A9B00D358099A1268934200D3F4
:103EEC009B1A49934B46012B3CD0089A329B944623
:103EFC001A9A63449B009B58099A5268934200D3C8
:103F0C009B1A4A934B46022B2CD0089A339B94460F
:103F1C001A9A63449B009B58099A9268934200D367
:103F2C009B1A4B934B46032B1CD0089A359B9446FB
:103F3C001A9A63449B009B58099AD268934200D307
:103F4C009B1A4C934B46042B0CD0089A389B9446E6
:103F5C001A9A63449B009B58099A12699A4200D89A
:103F6C009B1A4D93059B002B00DC97E0099B0027C7
:103F7C00043398460023464649AC0093B8460137B3
:103F8C00B94500DC84E0336800999B468C46514669
:103F9C00626823685A44D21A0493029B63449B00C0
:103FAC00CD5803995543C858002300210BF0D0F984
:103FBC005B4659436D1AAB4500D8ED1A4246009B3F
:103FCC00023265600133914559DD7268049993465C
:103FDC00A2685A44521A02998C46514663449B007B
:103FEC00CD5803995543C858002300210BF0B0F964
:103FFC005B4659436D1AAB4500D8ED1A4246009BFF
:10400C000332A5600233914539DDB26804999346B9
:10401C00E2685A44521A02998C46514663449B00FA
:10402C00CD5803995543C858002300210BF090F943
:10403C005B4659436D1AAB4500D8ED1A4246009BBE
:10404C000432E5600333914519DDF5682269049962
:10405C00AA18521A02998C46514663449B00C958BF
:10406C0051438B460399C858002300210BF070F97B
:10407C005B466943591AA94200D3491B2161424648
:10408C004B469B1A009A013B94469C446346009312
:10409C00059B04340436BB4200DD6FE72C21239AC8
:1040AC003EAB5B189A581B9B01263E92002B00DC02
:1040BC007EE0244B2C271B68002100930026002354
:1040CC0000980BF045F91B9B3EAA9B00D219D358C4
:1040DC0015961493149C159D24184D41249B3E94C5
:1040EC003F95002B62DD184A002312682000002146
:1040FC0090460BF02DF9249B3EAAD2199B00D35865
:10410C001F961E9333001E9E1F9F36184F41310081
:10411C003A002800009101921D9342460023002191
:10412C003E961C970BF014F91C9C1D9D24184D41B8
:10413C00349E3F944095002E38DD07E07C4D0120E5
:10414C00904D0120884D0120844D0120379900238A
:10415C000F6800983A0000210BF0FAF82C22B300FB
:10416C003EAEB2180026D3582B962A932A9A2B9B34
:10417C00801859413A00002326913E9000212000DE
:10418C0027960BF0E5F8269A279B801859410023B7
:10419C0028913F902A003800002129960BF0D8F87E
:1041AC00289B299CC0186141409041910023059E99
:1041BC00099A9B009F58449B499A0E930023109296
:1041CC000F931193109A119B0E9C0F9DA4185D4197
:1041DC003E9A0023009200213A0000980BF0B8F8A8
:1041EC00002324184D410B930A952B003E94012E6D
:1041FC004BD03F993A0000230800009100210BF0AE
:10420C00A7F80023459A17931692169A179B8018B5
:10421C0059410A9A0B9B8018594100231291139310
:10422C003F900B00022E30D040993A00002308003A
:10423C00009100210BF08CF80023469A21932092D8
:10424C00209A219B80185941129A139B801859412E
:10425C0000231891199340900B00042E15D141990D
:10426C003A0000230800009100210BF071F80023A4
:10427C00479F2D932C972C9A2D9B80185941189A57
:10428C00199B801859410B00419018213EAAB60089
:10429C005218925906999446009263443EAA93513F
:1042AC000C9A0B00002A00D1B7E01F224B110A40D8
:1042BC000799994208D90D9899008446200090409E
:1042CC0061440E6830430860002A0DD00799013311
:1042DC00994209D90D999B008C4620218A1AD44009
:1042EC0063441A6814431C60069B0C9A2033012A01
:1042FC0000D18EE01F205A11034007983F9990423D
:10430C0008D90D9C9000A4460C009C4060440568A4
:10431C002C430460002B0DD007980132904209D930
:10432C000D98920084462020C31AD9406244136829
:10433C0019431160069B0C9A4033022A69D01F2046
:10434C005A11034007984099904208D90D9C90004F
:10435C00A4460C009C40604405682C430460002B70
:10436C000DD007980132904209D90D9892008446DD
:10437C002020C31AD9406244136819431160069B6C
:10438C000C9A6033032A44D01F205A11034007981B
:10439C004199904208D90D9C9000A4460C009C4079
:1043AC00604405682C430460002B0DD00798013243
:1043BC00904209D90D98920084462020C31AD94006
:1043CC006244136819431160069B0C9A8033042ACB
:1043DC001FD01F205A11034007984299904208D9C8
:1043EC000D9C9000A4460C009C40604405682C4336
:1043FC000460002B0DD007980132904209D90D981A
:10440C00920084462020C31AD94062441368194391
:10441C001160319A069B9446634430993EAA5258D7
:10442C001F20110000922E9A11405A110340079838
:10443C00904208D90D9C9000A4460C009C4060440E
:10444C0005682C430460002B0DD007980132904274
:10445C0009D90D98920084462020C31AD940624491
:10446C00136819431160229B002B52D0059B0C9AA8
:10447C0093422DDD3B9A1D003EAB9B58202118002A
:10448C00399A229C1268091B88400092E240024330
:10449C002F98449285421BDD3C9E3EA8B200825868
:1044AC00E3401000884003434593B54210DD3D9E28
:1044BC003EA8B300C058E24003008B401A4346921A
:1044CC00B54205DD429BE04000938B40034347938C
:1044DC000C9A059B23999B1A3EAA52582299182094
:1044EC000092CA403EA99B000918CA505999069AD5
:1044FC008C46089B62440692259A013308939A4293
:10450C0000D0E2E44FB03CBC90469946A246AB4684
:10451C00F0BD2F9B9945E9DD369A3A9944A80AF0EB
:10452C00B7FFE3E701235B422E930B006DE4059B81
:10453C009B1A9B003693B9E4F0B5DE4657464E46BF
:10454C004546E0B583460F0091461C00B1B0132BD5
:10455C0000DDB2E20123A3409A4601231E930023FF
:10456C0098460A943B9B390002931E9B5846019334
:10457C0053460A9A00934346FFF762FA002800D08C
:10458C0090E23B9B494602931E9B5846019353462F
:10459C000A9A00934346FFF753FA2E90002800D056
:1045AC0080E24346002B00D1A3E253460025002BAA
:1045BC001AD0230054469A464646B8463A9F2900DC
:1045CC00B1404B4689005A183B9B584601934144D5
:1045DC00330000970135FFF7AFFFA542EFD15346EB
:1045EC004746A246B0461C0004250A9B00219D406C
:1045FC005B461B682A0009CB98471B90002800D10A
:10460C0050E25B4640221B680A9E002109CBB24057
:10461C0098471A90002800D13EE23B9BCF4A9B0062
:10462C009A585B445B68914608932A233B9A534300
:10463C001C195B461B34A400E3582D931E9B002BC6
:10464C0000D115E24B465B001C9300231D9353468F
:10465C009B000E930823B3400D930C23B3400C9393
:10466C00AB000B931423B3401F931823B3400F9349
:10467C001C23B34018932023B34017932423B34037
:10468C0016932823B34015932C23B3401493302353
:10469C00B34013933423B34012933823B340119394
:1046AC003C23B34001251093434600262C0019935C
:1046BC005346002B00D1BBE0731C2093B31C2193F9
:1046CC00F31C2293331D2393731D2493B31D259345
:1046DC00F31D269308239C46B44463462793092371
:1046EC009C46B444634628930A239C46B4446346D0
:1046FC0029930B239C46B44463462A930C239C4673
:10470C00B44463462B930D23350098460F35013383
:10471C009C462B00B044404655460021A246984684
:10472C001A9AB4442C900B00199801318340F0185C
:10473C008000C0591060209818188000C05904904F
:10474C00049C0E981450219818188000C05904909D
:10475C00049C0D981450229818188000C05904908D
:10476C00049C0C981450239818188000C05904907D
:10477C00049C0B981450249818188000C05904906D
:10478C00049C1F981450259818188000C059049048
:10479C00049C0F981450269818188000C059049047
:1047AC00049C18981450279818188000C05904902D
:1047BC00049C17981450289818188000C05904901D
:1047CC00049C16981450299818188000C05904900D
:1047DC00049C159814502A9818188000C0590490FD
:1047EC00049C149814502B9818188000C0590490ED
:1047FC00049C139814502C9818188000C0590490DD
:10480C00049C12981450604618188000C0594344F8
:10481C000490049C11989B001450DB590493049849
:10482C00109BD0500432A94200D07CE75446AA46D3
:10483C00002398463B004746B0464E4699463D00FD
:10484C000A9B1A9A9D409446AD00089A6544330021
:10485C005146280000922200FEF700F93B990A9B72
:10486C0002910121009301912A00290058461B9BBB
:10487C00FEF7D4F9002800D008E1002320002D9A7F
:10488C0000210AF065FD04900591049C059D1C997E
:10489C001D9A641A95410499059AD300480F089AF9
:1048AC001843002100230AF053FD320008000023B6
:1048BC0000210AF04DFD241A8D416B1033400693F4
:1048CC0000230793069A079B12196B41340001379A
:1048DC001C40A418102FB2D153464F46B146464641
:1048EC00002B00D1BFE0731C2093B31C2193F31C4D
:1048FC002293331D2393731D2493B31D2593F31D12
:10490C00269308239C46C4446346279309239C465C
:10491C00C444634628930A239C46C44463462993A3
:10492C000B239C46C44463462A930C239C46C444E4
:10493C0063462B930D233500984601339C464B461A
:10494C00B0440F35C1460021A8465546A2462F93C8
:10495C001F9B1A9AB4442C9302E0C0467C4D012054
:10496C000B00199814688340F0188000C4510E98FD
:10497C000131105804902098049C18188000C451E0
:10498C000D98105804902198049C18188000C4515C
:10499C000C98105804902298049C18188000C4514C
:1049AC000B98105804902398049C18188000C4513C
:1049BC0024982C9C181814598000C4510F98105826
:1049CC0004902598049C18188000C451189810580D
:1049DC0004902698049C18188000C45117981058FD
:1049EC0004902798049C18188000C45116981058ED
:1049FC0004902898049C18188000C45115981058DD
:104A0C0004902998049C18188000C45114981058CC
:104A1C0004902A98049C18188000C45113981058BC
:104A2C0004902B98049C18188000C45112981058AC
:104A3C0004904846049C18188000C45111981058D2
:104A4C0004906046049C18188000C451109843448C
:104A5C0010589B000490D8510432A94280D12F9B4E
:104A6C0054469946AA461E9B10369E4200D21FE61B
:104A7C005B461B68002209CB1A9998475B461B685A
:104A8C00002209CB1B9998472E980FE05B461B68B8
:104A9C00002209CB1A9998475B461B68002209CB68
:104AAC001B99984701235B4218002E9331B03CBCF4
:104ABC0090469946A246AB46F0BD252B0BDC5A100E
:104ACC009B1A9846012319000A9291404246934042
:104ADC008A461E9346E513235B429846A044424601
:104AEC00143393401E9380231B039A4613230A937B
:104AFC0038E53B9B474A9B009E585B4458683B9B60
:104B0C0059469C465A006244D3009B1A3A9A9446E2
:104B1C0063441A003A32FF32D2005258DB000B9237
:104B2C003D4A5B44944663441B689A460123A34068
:104B3C004DD073000693002307930433A340BB4668
:104B4C008046DB190C930D913A68964200D8921B63
:104B5C004B4601CB0021994600230AF0F9FB049047
:104B6C000591049A059B06980799121A8B4114001B
:104B7C000499059A1D00480FD300184342460023A0
:104B8C0000210AF0E5FB32000800002300210AF0A6
:104B9C00DFFB241A8D416B103340089300230993DB
:104BAC00089A099B3000A4185D4128400B9D0023F6
:104BBC0000195246002145430AF0CAFB71430C9B75
:104BCC006D1A20C79F42BFD10D9B5F469B465B462B
:104BDC0004220A991B688A4009CB002198471B9034
:104BEC00002800D15EE73B9B3A000293012301931E
:104BFC000A9B3900009358461B9BFEF70FF80028C0
:104C0C0000D049E75B461B68002209CB1B999847EB
:104C1C002E984BE77C4D0120CC090000F8B5474697
:104C2C00CE464B68314A99461B0E403B5B0080B523
:104C3C009F5A804638004B4678431B0C0E000C687C
:104C4C001B1A79008B4203D95B1A013B01370231E5
:104C5C004A46FF25100A1B022840184308F01EFE86
:104C6C004B463F023F18404309021D402943081A96
:104C7C007A00002803DA013F7A0080180130230CF7
:104C8C00010C00041843002308F04AFE110C8C465A
:104C9C0024041104240C21430A0061461D042943F9
:104CAC003F040B003F18010C19D1404300250400B0
:104CBC00121BAB41181E0BDA013F380000210124F6
:104CCC000018494100250019694112184B41180080
:104CDC0041460F6032600CBC90469946F8BD0121EC
:104CEC000020494212184B41E4E7C046E04D012038
:104CFC00F8B51E0004001500C368002E15D1012B59
:104D0C0030D00368042209CB21699847061E2DD0A8
:104D1C0001232061E360280008F064FD2023854016
:104D2C00181A3560A06000201BE0022B1CD0036811
:104D3C00082209CB21699847071E17D0022320614E
:104D4C00E360300008F04EFD2B0083403B602023D5
:104D5C001B1ADD40864040232E43181A7E60A0604B
:104D6C000020F8BD0669D6E70769EAE7E368002B7F
:104D7C0007D02368002209CB2169984700232061C2
:104D8C00E360034B2020A36000236360E9E7C04687
:104D9C00FFFFFF7FF0B5C64604003B480F0016002E
:104DAC001D0000B5824204D007231A002A402B4272
:104DBC0011D1E368002B07D02368002209CB2169AD
:104DCC00984700232061E3601420304B6760A36098
:104DDC0004BC9046F0BD131F012BEAD9022A35D032
:104DEC00032A46D032001F3253099846E36898458F
:104DFC0042D0424623682169920009CB984700288B
:104E0C0027D043462061E3601F22202176423240A6
:104E1C000123891A202934D08B40013B9340036035
:104E2C004346012B06D94246013AFF219200043039
:104E3C000AF028FB6D05AD0E3F2D1FD01C235D1B0A
:104E4C001B3BAB401420A3606760C1E70129C9D1AB
:104E5C00AFE74346002BD4D0E368002B03D00021EE
:104E6C002000FEF701FC0A4B2020A36000236360A6
:104E7C00AEE70029B6D19CE72069C5E780239B05E6
:104E8C00E0E75B42CBE7C046FFFFFF3FFEFFFF7F43
:104E9C00FFFFFF7FF0B54E464546DE465746E0B570
:104EAC001D0085B053050400160002919B0E3F2B8C
:104EBC0000D1BCE01C22D31A1B3A9A4003239B1A44
:104ECC0090469A46F30609D5904B029A9A4236D0F0
:104EDC00A3689C4662449146170006E0A3685345BC
:104EEC0000DAD7E0029B1F0099460723334000935A
:104EFC002A003B0021000EA8FEF70AFB002F29DC3C
:104F0C00002800D1D6E0E368012B00D1C0E0236873
:104F1C00042209CB21699847002800D1B8E001236D
:104F2C002061E36080231B060360A2680123944682
:104F3C001820DB1B6344A3600E9B184370E007230F
:104F4C00170033400093210013000EA82A00FEF72F
:104F5C00DFFAB94600282ED04A461F216B019B1A56
:104F6C005A110B401E39994003921300954200D8F8
:104F7C0073E022699B00D018834600689C460B188E
:104F8C008B4280415F4640423B60994211D9674653
:104F9C000437D719039A09E03B68C11881429B4139
:104FAC0002C75B42814200D39AE01800013295425D
:104FBC00F2D8002851D1A3689A4500DD77E09845D6
:104FCC0000DA94E04A466B019B1A5F11002B34DB2C
:104FDC001F2216002069B9001E4041181A4232D116
:104FEC000B68002B60D17A1C9300C31800E00132CF
:104FFC00190004331E1F36681700002EF7D0ED1B66
:10500C00AA000DF0ADFDE3689D4208D0236821692C
:10501C00AA0009CB9847002866D02061E5600E985D
:10502C0005B03CBC90469946A246AB46F0BD384B09
:10503C009A4680239B05984644E72069002703681D
:10504C00002BD0D0DFE720220123921B9340013BA1
:10505C00B3400A6813400B60C3E7039B681E83428E
:10506C0012DC226983009446012217006344A44693
:10507C00039C39001F68C9077A080A4301381A6073
:10508C00043B8442F5DD6446A3680133A36093E7D7
:10509C00206947E7320700D424E75246D31A029A14
:1050AC00D31A99461F0020E7002FACD0A7E70821A0
:1050BC00314223D118200E9B65681843E3680E908B
:1050CC00002B08D02368002209CB216998470023C4
:1050DC0020610E98E36080231B06A36065609FE748
:1050EC00181E00D167E7B8E7002D96D097E733007C
:1050FC002000029A6168FFF74DFE91E70E9AD006E8
:10510C0000D45CE70A430E9259E7C046FFFFFF3F0D
:10511C00030000E0F0B54E464546DE4657460023F8
:10512C00E0B587B005934B0505000C0016009B0EEF
:10513C003F2B00D1B6E01C220127D31A9F4003233A
:10514C00DB1B99460397E3062ED40022AB689046EE
:10515C004B4500DAD6E007210C40434632002900CB
:10516C00009405A8FEF7D4F9002800D1D7E0EB682D
:10517C00012B00D1C4E02B68042209CB2969984784
:10518C00002800D1BCE001232861EB6080231B06C2
:10519C000360424601239B1AAA6818209446634474
:1051AC00AB60059B184376E0AB683200984607234A
:1051BC00234000932900434605A8FEF7A9F943466E
:1051CC00002BD1DD002830D0424673019B1A5A11B6
:1051DC0094461F2213401E3A9A401300664500D88D
:1051EC0076E02A699246624697005246D219934657
:1051FC00126859469A189A4280410A60404293427A
:10520C0011D93B1D53441900674609E00B68C318BC
:10521C008342924108C15242834200D395E0100070
:10522C000137BE42F2D8002852D1AB68994500DD57
:10523C0072E0039A9A4200DA8EE0424673019B1A9E
:10524C005F11002B34DB1F2214002869B9001C40AD
:10525C0041181A4232D10B68002B5AD17C1CA30086
:10526C00C31800E00134190004331A1F1268270018
:10527C00002AF7D0F61BB2000DF072FCEB68B342BB
:10528C0008D02B682969B20009CB9847002860D058
:10529C002861EE60059807B03CBC90469946A24642
:1052AC00AB46F0BD334B994680239B0503934AE7ED
:1052BC00286900270368002BD0D0DFE720220123C8
:1052CC00121B9340013BA3400A6813400B60C3E7D9
:1052DC00701E844510DC2A698300924601225344D7
:1052EC00924651461A68C907924652080A43013839
:1052FC001A60043B8445F4DDAB680133AB6095E781
:10530C00286943E7220700D425E74A469B1A9846AA
:10531C0021E7002FB2D0ADE70821214223D118207C
:10532C00059B6C681843EB680590002B08D02B6824
:10533C00002209CB29699847002328610598EB6066
:10534C0080231B06AB606C60A5E7101E00D16CE7D8
:10535C00BEE7002E9CD09DE7230000222800696840
:10536C00FFF718FD97E7059AD00600D461E70A43CA
:10537C0005925EE7030000E0F0B54E46DE46574668
:10538C004546E0B593B0089353050400894609924D
:10539C009B0E3F2B00D17BE11C22D31A1B3A9A4067
:1053AC0003239B1A0D920A93099BDB0600D48CE015
:1053BC00CC4B994502D0A3689C46E1440727099B36
:1053CC001F40062F00D1FEE0089A9346D3009B4461
:1053DC005B465E1E4B460133DA43D2171340F61A76
:1053EC0000D55BE10921300008F058FA22698300EE
:1053FC000C90092130009D58924608F04FFABA4E95
:10540C004B1CD900885988462A000B930021002395
:10541C0009F09EFF0420464430566B1AC340727943
:10542C005B1852B2D3400B9A9600B04AB1584B431A
:10543C009D420DD10C9B5D1E00D27FE2524602E0D4
:10544C00013D00D212E2AB00D658002EF8D09246A5
:10545C00012501265B464A469B1A9B46013B984612
:10546C0000D50EE10921404608F0F0F9089B834273
:10547C0000D806E14246151A9B4AC3009046ED1A25
:10548C00534641468000C358ED001A0048590B930F
:10549C000021002309F05CFF0B9B4544581A0423A0
:1054AC00EB56D8400523EB564018D8400A2108F09B
:1054BC00F5F90A00324315006B1E9D41062F00D9E9
:1054CC003FE28B48BB00C3589F46A3680A9A93429D
:1054DC0000DB73E7099A120700D46FE70A9AD31A14
:1054EC004A46D31A994669E73200023F7B425F4134
:1054FC006668BE4216D0002A00D1D7E04B46002B7E
:10550C0050DDA3680A9A1027934200DB7BE0182237
:10551C000E92099A120745D50E9F74E004258D4210
:10552C00AD416D42082300270E93002A00D0FDE107
:10553C004B46002B00DDE9E0002D32D0E368012B57
:10554C000BD02368514609CB042298478246002889
:10555C0000D1A1E101232061E3605246654B01219A
:10556C0013604B46C91AA36818279C466144A16076
:10557C00380013B03CBC90469946A246AB46F0BDF1
:10558C003200002A00D191E04B46002B09DDA368C4
:10559C000A9A1027934236DA18220E92099A1207A9
:1055AC00BAD46668E368002B07D02368002209CBC5
:1055BC005146984700232061E36080231B0618277F
:1055CC00A3606660D4E7089A236994469A46D30090
:1055DC004A4663449B1A9B46013B984608D40921D2
:1055EC00404608F033F9089B0126834200D941E775
:1055FC004B46002BD5DD182310270E93A3680A9A6F
:10560C009A4200DD7BE10D9A934200DD36E15B4668
:10561C00002B75DB0921584608F018F90921050003
:10562C00584608F013F9AE0088465644002900D0BD
:10563C00FCE03368002B52D16A1C9300534400E009
:10564C0001321E000433191F096815000029F7D018
:10565C00089B31005B1B50469A0008930DF080FAB2
:10566C00089AE1688A4200D182E723682169920096
:10567C0009CB9847002800D1FBE0089B2061E36030
:10568C0076E7062F00D95CE11B4ABB00D3589F4636
:10569C001A4B0A9380239B050D9385E623690025FD
:1056AC009A460026D6E6002E00D06DE74B46002B1E
:1056BC0000DC76E708220027A3680E929FE70529F5
:1056CC0000D025E1002E00D1ECE04B46002B00DC95
:1056DC0034E7182310270E931BE0320022E7002D2D
:1056EC00BED0B5E7FFFFFF3F184D0120F04C012065
:1056FC00944A012000E1F505B04A0120030000E0C6
:10570C0053461B680025002B96D0A9E7002D00D12D
:10571C0074E70921584608F099F88B4B8900CD584D
:10572C005846092108F092F8089B80461B1A9946A6
:10573C00002B00DCFEE08100BC4600264F4600201A
:10574C002B00A14651440A68D418804BE51803007D
:10575C00AA424341AA4204D2230067464C460B603E
:10576C004CE7013620C1B742EDD14C46B9464E4606
:10577C0043466746013EF018754B800001259C4658
:10578C0050445B460C96B946A04606000B950F9309
:10579C003768002138007B0F0793FB000693069AAD
:1057AC00079B12184B41140FA3465D461C012C435A
:1057BC00019414010094009C019D12196B41140E6C
:1057CC00A3465D461C022C43039414020294029CD3
:1057DC00039D12196B41140CA3465D461C042C430B
:1057EC00059414040494049C059D12196B411C002F
:1057FC0013001B184C413A1B52081319DB089D006F
:10580C00ED186D007C1B0B9A0B9464466243D31805
:10581C0033600C9B043E013B0C93B9D20F9B4F465B
:10582C009B464446A3680133A360E8E63368994677
:10583C00CB009B465A46474B0021D3584A4600930F
:10584C000098002309F084FD04204B46414A5B1A62
:10585C005A4410565279C34052B25B18D340424658
:10586C009100394A8A5853433360E3E69246002547
:10587C00F0E5089B002B00D1FFE679E6E36865684C
:10588C00002B03D000212000FDF7EEFE324B6560AB
:10589C00A36014231F436BE623699A465DE632002E
:1058AC0000253FE65B46002B00DAA1E609215846AD
:1058BC0007F0CCFF089B834200D899E65A46C300F8
:1058CC00151AED1A534641468000C658ED0048594A
:1058DC0032000023002109F03BFD04234544EB5624
:1058EC00701AD8400523EB564018D8400A2107F00F
:1058FC00D5FF0125182310270D400E9318E6099AA1
:10590C00120700D44DE6002F00D17CE60E9F7AE6FC
:10591C001600052900D8C6E64B46002A00D0D5E66D
:10592C00002B00DC0AE608230E93F2E610330E93EC
:10593C001037FDE5002D00D074E75FE6002500264A
:10594C0088E50CF02BFEC046F04C0120003665C4F7
:10595C0000E1F505184D0120FEFFFF7F70B50E002C
:10596C001500040034220021083009F08BFD60C4BE
:10597C0070BDC04680220023120608604B608A600E
:10598C00CB600B617047C046F8B51E0017000023B2
:10599C0004001500436037430ED180231B0683603F
:1059AC00C368002B3ED00368002209CB21699847BD
:1059BC0020610020E760F8BDC368002E1CD0022BCC
:1059CC0032D00368082209CB21699847071E2FD0D3
:1059DC0002232061E360300007F004FF2B008340BA
:1059EC003B6020231B1ADD40864040233543181AA8
:1059FC007D60A0600020DEE7012B17D00368042235
:105A0C0009CB21699847061E12D001232061E3605F
:105A1C00280007F0E7FE20238540181A3560A060A7
:105A2C000020C8E70020C6E70769D4E70669EFE75E
:105A3C00E368002B07D02368002209CB2169984723
:105A4C0000232061E360034B2020A36000236360EC
:105A5C00B1E7C046FFFFFF7FF8B504000D00884298
:105A6C002CD0CE68C3689E4214D003682169B20062
:105A7C0009CB9847071E0FD0E660EE6827616A686D
:105A8C00AB686260A36038002969B20009F000FDC0
:105A9C000020F8BD0769F2E7002EEDD0E368002B7B
:105AAC0006D02368002209CB21699847E760206162
:105ABC00034B2020A36000236360EAE70020E8E7A3
:105ACC00FFFFFF7FF0B5DE46574645464E46E0B534
